{
  "contractName": "DragonFarmClockAuction",
  "abi": [
    {
      "inputs": [
        {
          "internalType": "uint256",
          "name": "_ownerCut",
          "type": "uint256"
        }
      ],
      "stateMutability": "nonpayable",
      "type": "constructor"
    },
    {
      "anonymous": false,
      "inputs": [
        {
          "indexed": false,
          "internalType": "address",
          "name": "account",
          "type": "address"
        }
      ],
      "name": "Paused",
      "type": "event"
    },
    {
      "anonymous": false,
      "inputs": [
        {
          "indexed": false,
          "internalType": "address",
          "name": "account",
          "type": "address"
        }
      ],
      "name": "Unpaused",
      "type": "event"
    },
    {
      "inputs": [
        {
          "internalType": "address",
          "name": "",
          "type": "address"
        },
        {
          "internalType": "uint256",
          "name": "",
          "type": "uint256"
        }
      ],
      "name": "auctions",
      "outputs": [
        {
          "internalType": "address",
          "name": "seller",
          "type": "address"
        },
        {
          "internalType": "uint128",
          "name": "startingPrice",
          "type": "uint128"
        },
        {
          "internalType": "uint128",
          "name": "endingPrice",
          "type": "uint128"
        },
        {
          "internalType": "uint64",
          "name": "duration",
          "type": "uint64"
        },
        {
          "internalType": "uint64",
          "name": "startedAt",
          "type": "uint64"
        }
      ],
      "stateMutability": "view",
      "type": "function"
    },
    {
      "inputs": [],
      "name": "ownerCut",
      "outputs": [
        {
          "internalType": "uint256",
          "name": "",
          "type": "uint256"
        }
      ],
      "stateMutability": "view",
      "type": "function"
    },
    {
      "inputs": [],
      "name": "paused",
      "outputs": [
        {
          "internalType": "bool",
          "name": "",
          "type": "bool"
        }
      ],
      "stateMutability": "view",
      "type": "function"
    },
    {
      "inputs": [
        {
          "internalType": "address",
          "name": "_nftAddress",
          "type": "address"
        },
        {
          "internalType": "uint256",
          "name": "_tokenId",
          "type": "uint256"
        }
      ],
      "name": "getAuction",
      "outputs": [
        {
          "internalType": "address",
          "name": "seller",
          "type": "address"
        },
        {
          "internalType": "uint256",
          "name": "startingPrice",
          "type": "uint256"
        },
        {
          "internalType": "uint256",
          "name": "endingPrice",
          "type": "uint256"
        },
        {
          "internalType": "uint256",
          "name": "duration",
          "type": "uint256"
        },
        {
          "internalType": "uint256",
          "name": "startedAt",
          "type": "uint256"
        }
      ],
      "stateMutability": "view",
      "type": "function"
    },
    {
      "inputs": [
        {
          "internalType": "address",
          "name": "_nftAddress",
          "type": "address"
        },
        {
          "internalType": "uint256",
          "name": "_tokenId",
          "type": "uint256"
        }
      ],
      "name": "getCurrentPrice",
      "outputs": [
        {
          "internalType": "uint256",
          "name": "",
          "type": "uint256"
        }
      ],
      "stateMutability": "view",
      "type": "function"
    },
    {
      "inputs": [
        {
          "internalType": "address",
          "name": "_nftAddress",
          "type": "address"
        },
        {
          "internalType": "uint256",
          "name": "_tokenId",
          "type": "uint256"
        },
        {
          "internalType": "uint256",
          "name": "_startingPrice",
          "type": "uint256"
        },
        {
          "internalType": "uint256",
          "name": "_endingPrice",
          "type": "uint256"
        },
        {
          "internalType": "uint256",
          "name": "_duration",
          "type": "uint256"
        }
      ],
      "name": "createAuction",
      "outputs": [],
      "stateMutability": "nonpayable",
      "type": "function"
    },
    {
      "inputs": [
        {
          "internalType": "address",
          "name": "_nftAddress",
          "type": "address"
        },
        {
          "internalType": "uint256",
          "name": "_tokenId",
          "type": "uint256"
        }
      ],
      "name": "bid",
      "outputs": [],
      "stateMutability": "payable",
      "type": "function"
    },
    {
      "inputs": [
        {
          "internalType": "address",
          "name": "_nftAddress",
          "type": "address"
        },
        {
          "internalType": "uint256",
          "name": "_tokenId",
          "type": "uint256"
        }
      ],
      "name": "cancelAuction",
      "outputs": [],
      "stateMutability": "nonpayable",
      "type": "function"
    },
    {
      "inputs": [
        {
          "internalType": "address",
          "name": "_nftAddress",
          "type": "address"
        },
        {
          "internalType": "uint256",
          "name": "_tokenId",
          "type": "uint256"
        }
      ],
      "name": "cancelAuctionWhenPaused",
      "outputs": [],
      "stateMutability": "nonpayable",
      "type": "function"
    }
  ],
  "bytecode": "0x60806040523480156200001157600080fd5b506040516200189738038062001897833981810160405281019062000037919062000086565b60008060006101000a81548160ff0219169083151502179055506127108111156200006157600080fd5b8060018190555050620000e1565b6000815190506200008081620000c7565b92915050565b6000602082840312156200009f576200009e620000c2565b5b6000620000af848285016200006f565b91505092915050565b6000819050919050565b600080fd5b620000d281620000b8565b8114620000de57600080fd5b50565b6117a680620000f16000396000f3fe6080604052600436106100865760003560e01c80636c54df52116100595780636c54df521461013c578063762a66a21461017957806383b5ff8b146101ba578063859b97fe146101e5578063961c9ae41461020e57610086565b80631ae6b6ee1461008b57806344f91c1e146100b457806359d667a5146100f55780635c975abb14610111575b600080fd5b34801561009757600080fd5b506100b260048036038101906100ad9190610ff3565b610237565b005b3480156100c057600080fd5b506100db60048036038101906100d69190610ff3565b610318565b6040516100ec959493929190611176565b60405180910390f35b61010f600480360381019061010a9190610ff3565b6103db565b005b34801561011d57600080fd5b5061012661043e565b604051610133919061121c565b60405180910390f35b34801561014857600080fd5b50610163600480360381019061015e9190610ff3565b610454565b6040516101709190611277565b60405180910390f35b34801561018557600080fd5b506101a0600480360381019061019b9190610ff3565b6104cd565b6040516101b19594939291906111c9565b60405180910390f35b3480156101c657600080fd5b506101cf61062c565b6040516101dc9190611277565b60405180910390f35b3480156101f157600080fd5b5061020c60048036038101906102079190610ff3565b610632565b005b34801561021a57600080fd5b5061023560048036038101906102309190611033565b610728565b005b61023f61043e565b61027e576040517f08c379a000000000000000000000000000000000000000000000000000000000815260040161027590611237565b60405180910390fd5b6000600260008473ffffffffffffffffffffffffffffffffffffffff1673ffffffffffffffffffffffffffffffffffffffff168152602001908152602001600020600083815260200190815260200160002090506102db81610875565b6102e457600080fd5b61031383838360000160009054906101000a900473ffffffffffffffffffffffffffffffffffffffff166108a3565b505050565b6002602052816000526040600020602052806000526040600020600091509150508060000160009054906101000a900473ffffffffffffffffffffffffffffffffffffffff16908060010160009054906101000a90046fffffffffffffffffffffffffffffffff16908060010160109054906101000a90046fffffffffffffffffffffffffffffffff16908060020160009054906101000a900467ffffffffffffffff16908060020160089054906101000a900467ffffffffffffffff16905085565b6103e361043e565b15610423576040517f08c379a000000000000000000000000000000000000000000000000000000000815260040161041a90611257565b60405180910390fd5b61042e8282346108bd565b5061043a823383610997565b5050565b60008060009054906101000a900460ff16905090565b600080600260008573ffffffffffffffffffffffffffffffffffffffff1673ffffffffffffffffffffffffffffffffffffffff168152602001908152602001600020600084815260200190815260200160002090506104b281610875565b6104bb57600080fd5b6104c481610a19565b91505092915050565b600080600080600080600260008973ffffffffffffffffffffffffffffffffffffffff1673ffffffffffffffffffffffffffffffffffffffff1681526020019081526020016000206000888152602001908152602001600020905061053181610875565b61053a57600080fd5b8060000160009054906101000a900473ffffffffffffffffffffffffffffffffffffffff168160010160009054906101000a90046fffffffffffffffffffffffffffffffff168260010160109054906101000a90046fffffffffffffffffffffffffffffffff168360020160009054906101000a900467ffffffffffffffff168460020160089054906101000a900467ffffffffffffffff16836fffffffffffffffffffffffffffffffff169350826fffffffffffffffffffffffffffffffff1692508167ffffffffffffffff1691508067ffffffffffffffff16905095509550955095509550509295509295909350565b60015481565b6000600260008473ffffffffffffffffffffffffffffffffffffffff1673ffffffffffffffffffffffffffffffffffffffff1681526020019081526020016000206000838152602001908152602001600020905061068f81610875565b61069857600080fd5b8060000160009054906101000a900473ffffffffffffffffffffffffffffffffffffffff1673ffffffffffffffffffffffffffffffffffffffff163373ffffffffffffffffffffffffffffffffffffffff16146106f457600080fd5b61072383838360000160009054906101000a900473ffffffffffffffffffffffffffffffffffffffff166108a3565b505050565b61073061043e565b15610770576040517f08c379a000000000000000000000000000000000000000000000000000000000815260040161076790611257565b60405180910390fd5b826fffffffffffffffffffffffffffffffff811061078d57600080fd5b826fffffffffffffffffffffffffffffffff81106107aa57600080fd5b8267ffffffffffffffff8111156107c057600080fd5b60003390506107d089828a610b15565b6107d957600080fd5b6107e489828a610be4565b60006040518060a001604052808373ffffffffffffffffffffffffffffffffffffffff168152602001896fffffffffffffffffffffffffffffffff168152602001886fffffffffffffffffffffffffffffffff1681526020018767ffffffffffffffff1681526020014267ffffffffffffffff1681525090506108698a8a8385610c66565b50505050505050505050565b6000808260020160089054906101000a900467ffffffffffffffff1667ffffffffffffffff16119050919050565b6108ad8383610dff565b6108b8838284610997565b505050565b600080600260008673ffffffffffffffffffffffffffffffffffffffff1673ffffffffffffffffffffffffffffffffffffffff1681526020019081526020016000206000858152602001908152602001600020905061091b81610875565b61092457600080fd5b600061092f82610a19565b90508084101561093e57600080fd5b6109488686610dff565b600081111561097157600061095c82610ef9565b90506000818361096c91906115d7565b905050505b8084111561098b576000818561098791906115d7565b9050505b80925050509392505050565b60006109a284610f1d565b90508073ffffffffffffffffffffffffffffffffffffffff166323b872dd3085856040518463ffffffff1660e01b81526004016109e19392919061113f565b600060405180830381600087803b1580156109fb57600080fd5b505af1158015610a0f573d6000803e3d6000fd5b5050505050505050565b600080600090508260020160089054906101000a900467ffffffffffffffff1667ffffffffffffffff16421115610a7b578260020160089054906101000a900467ffffffffffffffff1667ffffffffffffffff1642610a7891906115d7565b90505b610b0d8360010160009054906101000a90046fffffffffffffffffffffffffffffffff166fffffffffffffffffffffffffffffffff168460010160109054906101000a90046fffffffffffffffffffffffffffffffff166fffffffffffffffffffffffffffffffff168560020160009054906101000a900467ffffffffffffffff1667ffffffffffffffff1684610f2c565b915050919050565b600080610b2185610f1d565b90508373ffffffffffffffffffffffffffffffffffffffff168173ffffffffffffffffffffffffffffffffffffffff16636352211e856040518263ffffffff1660e01b8152600401610b739190611277565b60206040518083038186803b158015610b8b57600080fd5b505afa158015610b9f573d6000803e3d6000fd5b505050506040513d601f19601f82011682018060405250810190610bc39190610fc6565b73ffffffffffffffffffffffffffffffffffffffff16149150509392505050565b6000610bef84610f1d565b90508073ffffffffffffffffffffffffffffffffffffffff166323b872dd8430856040518463ffffffff1660e01b8152600401610c2e9392919061113f565b600060405180830381600087803b158015610c4857600080fd5b505af1158015610c5c573d6000803e3d6000fd5b5050505050505050565b603c826060015167ffffffffffffffff161015610c8257600080fd5b81600260008673ffffffffffffffffffffffffffffffffffffffff1673ffffffffffffffffffffffffffffffffffffffff168152602001908152602001600020600085815260200190815260200160002060008201518160000160006101000a81548173ffffffffffffffffffffffffffffffffffffffff021916908373ffffffffffffffffffffffffffffffffffffffff16021790555060208201518160010160006101000a8154816fffffffffffffffffffffffffffffffff02191690836fffffffffffffffffffffffffffffffff16021790555060408201518160010160106101000a8154816fffffffffffffffffffffffffffffffff02191690836fffffffffffffffffffffffffffffffff16021790555060608201518160020160006101000a81548167ffffffffffffffff021916908367ffffffffffffffff16021790555060808201518160020160086101000a81548167ffffffffffffffff021916908367ffffffffffffffff16021790555090505050505050565b600260008373ffffffffffffffffffffffffffffffffffffffff1673ffffffffffffffffffffffffffffffffffffffff1681526020019081526020016000206000828152602001908152602001600020600080820160006101000a81549073ffffffffffffffffffffffffffffffffffffffff02191690556001820160006101000a8154906fffffffffffffffffffffffffffffffff02191690556001820160106101000a8154906fffffffffffffffffffffffffffffffff02191690556002820160006101000a81549067ffffffffffffffff02191690556002820160086101000a81549067ffffffffffffffff021916905550505050565b600061271060015483610f0c91906114e9565b610f1691906113a1565b9050919050565b60008082905080915050919050565b6000828210610f3d57839050610f7f565b60008585610f4b9190611543565b90506000848483610f5c91906113d2565b610f669190611337565b905060008188610f7691906112a3565b90508093505050505b949350505050565b600081359050610f9681611742565b92915050565b600081519050610fab81611742565b92915050565b600081359050610fc081611759565b92915050565b600060208284031215610fdc57610fdb6116eb565b5b6000610fea84828501610f9c565b91505092915050565b6000806040838503121561100a576110096116eb565b5b600061101885828601610f87565b925050602061102985828601610fb1565b9150509250929050565b600080600080600060a0868803121561104f5761104e6116eb565b5b600061105d88828901610f87565b955050602061106e88828901610fb1565b945050604061107f88828901610fb1565b935050606061109088828901610fb1565b92505060806110a188828901610fb1565b9150509295509295909350565b6110b78161160b565b82525050565b6110c68161161d565b82525050565b60006110d9601483611292565b91506110e4826116f0565b602082019050919050565b60006110fc601083611292565b915061110782611719565b602082019050919050565b61111b81611633565b82525050565b61112a8161166f565b82525050565b61113981611679565b82525050565b600060608201905061115460008301866110ae565b61116160208301856110ae565b61116e6040830184611121565b949350505050565b600060a08201905061118b60008301886110ae565b6111986020830187611112565b6111a56040830186611112565b6111b26060830185611130565b6111bf6080830184611130565b9695505050505050565b600060a0820190506111de60008301886110ae565b6111eb6020830187611121565b6111f86040830186611121565b6112056060830185611121565b6112126080830184611121565b9695505050505050565b600060208201905061123160008301846110bd565b92915050565b60006020820190508181036000830152611250816110cc565b9050919050565b60006020820190508181036000830152611270816110ef565b9050919050565b600060208201905061128c6000830184611121565b92915050565b600082825260208201905092915050565b60006112ae82611629565b91506112b983611629565b9250817f7fffffffffffffffffffffffffffffffffffffffffffffffffffffffffffffff038313600083121516156112f4576112f361168d565b5b817f800000000000000000000000000000000000000000000000000000000000000003831260008312161561132c5761132b61168d565b5b828201905092915050565b600061134282611629565b915061134d83611629565b92508261135d5761135c6116bc565b5b600160000383147f8000000000000000000000000000000000000000000000000000000000000000831416156113965761139561168d565b5b828205905092915050565b60006113ac8261166f565b91506113b78361166f565b9250826113c7576113c66116bc565b5b828204905092915050565b60006113dd82611629565b91506113e883611629565b9250827f7fffffffffffffffffffffffffffffffffffffffffffffffffffffffffffffff04821160008413600084131616156114275761142661168d565b5b817f800000000000000000000000000000000000000000000000000000000000000005831260008412600084131616156114645761146361168d565b5b827f800000000000000000000000000000000000000000000000000000000000000005821260008413600084121616156114a1576114a061168d565b5b827f7fffffffffffffffffffffffffffffffffffffffffffffffffffffffffffffff05821260008412600084121616156114de576114dd61168d565b5b828202905092915050565b60006114f48261166f565b91506114ff8361166f565b9250817fffffffffffffffffffffffffffffffffffffffffffffffffffffffffffffffff04831182151516156115385761153761168d565b5b828202905092915050565b600061154e82611629565b915061155983611629565b9250827f8000000000000000000000000000000000000000000000000000000000000000018212600084121516156115945761159361168d565b5b827f7fffffffffffffffffffffffffffffffffffffffffffffffffffffffffffffff0182136000841216156115cc576115cb61168d565b5b828203905092915050565b60006115e28261166f565b91506115ed8361166f565b925082821015611600576115ff61168d565b5b828203905092915050565b60006116168261164f565b9050919050565b60008115159050919050565b6000819050919050565b60006fffffffffffffffffffffffffffffffff82169050919050565b600073ffffffffffffffffffffffffffffffffffffffff82169050919050565b6000819050919050565b600067ffffffffffffffff82169050919050565b7f4e487b7100000000000000000000000000000000000000000000000000000000600052601160045260246000fd5b7f4e487b7100000000000000000000000000000000000000000000000000000000600052601260045260246000fd5b600080fd5b7f5061757361626c653a206e6f7420706175736564000000000000000000000000600082015250565b7f5061757361626c653a2070617573656400000000000000000000000000000000600082015250565b61174b8161160b565b811461175657600080fd5b50565b6117628161166f565b811461176d57600080fd5b5056fea2646970667358221220b972e723ef5adffb06b84788ecd9a38e82b7c7e23b085e448a387abcec0e08b564736f6c63430008060033",
  "immutableReferences": {},
  "source": "// SPDX-License-Identifier: MIT\npragma solidity ^0.8.0;\n\nimport \"@openzeppelin/contracts/security/Pausable.sol\";\nimport \"@openzeppelin/contracts/token/ERC721/IERC721.sol\";\nimport \"../core/erc721/DragonFarmBase.sol\";\ncontract DragonFarmClockAuction is Pausable {\n  constructor(uint256 _ownerCut) {\n    require(_ownerCut <= 10000);\n    ownerCut = _ownerCut;\n  }\n  \n  //Auction of DragonFarm marketplace\n\n  struct Auction {\n     // Current owner of NFT\n    address seller;\n    // Price (in wei) at beginning of auction\n    uint128 startingPrice;\n    // Price (in wei) at end of auction\n    uint128 endingPrice;\n    // Duration (in seconds) of auction\n    uint64 duration;\n    // Time when auction started\n    // NOTE: 0 if this auction has been concluded\n    uint64 startedAt;\n  }\n\n  // Cut owner takes on each auction, measured in basis points (1/100 of a percent).\n  // Values 0-10,000 map to 0%-100%\n  uint256 public ownerCut;\n\n   // Map from token ID to their corresponding auction.\n  mapping (address => mapping (uint256 => Auction)) public auctions;\n\n\n  //Fallback function - dont get money from user\n\n\n\n   // Modifiers to check that inputs can be safely stored with a certain\n  // number of bits. We use constants and multiple modifiers to save gas.\n  modifier canBeStoredWith64Bits(uint256 _value) {\n    require(_value <= 18446744073709551615);\n    _;\n  }\n\n  modifier canBeStoredWith128Bits(uint256 _value) {\n    require(_value < 340282366920938463463374607431768211455);\n    _;\n  }\n\n   /// @dev Returns auction info for an NFT on auction.\n  /// @param _nftAddress - Address of the NFT.\n  /// @param _tokenId - ID of NFT on auction.\n  function getAuction(\n    address _nftAddress,\n    uint256 _tokenId\n  )\n    external\n    view\n    returns (\n      address seller,\n      uint256 startingPrice,\n      uint256 endingPrice,\n      uint256 duration,\n      uint256 startedAt\n    )\n  {\n    Auction storage _auction = auctions[_nftAddress][_tokenId];\n    require(_isOnAuction(_auction));\n    return (\n      _auction.seller,\n      _auction.startingPrice,\n      _auction.endingPrice,\n      _auction.duration,\n      _auction.startedAt\n    );\n  }\n\n  /// @dev Returns the current price of an auction.\n  /// @param _nftAddress - Address of the NFT.\n  /// @param _tokenId - ID of the token price we are checking.\n  function getCurrentPrice(\n    address _nftAddress,\n    uint256 _tokenId\n  )\n    external\n    view\n    returns (uint256)\n  {\n    Auction storage _auction = auctions[_nftAddress][_tokenId];\n    require(_isOnAuction(_auction));\n    return _getCurrentPrice(_auction);\n  }\n\n  /// @dev Creates and begins a new auction.\n  /// @param _nftAddress - address of a deployed contract implementing\n  ///  the Nonfungible Interface.\n  /// @param _tokenId - ID of token to auction, sender must be owner.\n  /// @param _startingPrice - Price of item (in wei) at beginning of auction.\n  /// @param _endingPrice - Price of item (in wei) at end of auction.\n  /// @param _duration - Length of time to move between starting\n  ///  price and ending price (in seconds).\n  function createAuction(\n    address _nftAddress,\n    uint256 _tokenId,\n    uint256 _startingPrice,\n    uint256 _endingPrice,\n    uint256 _duration\n  )\n    external\n    whenNotPaused\n    canBeStoredWith128Bits(_startingPrice)\n    canBeStoredWith128Bits(_endingPrice)\n    canBeStoredWith64Bits(_duration)\n  {\n    address _seller = msg.sender;\n    require(_owns(_nftAddress, _seller, _tokenId));\n    _escrow(_nftAddress, _seller, _tokenId);\n    Auction memory _auction = Auction(\n      _seller,\n      uint128(_startingPrice),\n      uint128(_endingPrice),\n      uint64(_duration),\n      uint64(block.timestamp)\n    );\n    _addAuction(\n      _nftAddress,\n      _tokenId,\n      _auction,\n      _seller\n    );\n  }\n\n  /// @dev Bids on an open auction, completing the auction and transferring\n  ///  ownership of the NFT if enough Ether is supplied.\n  /// @param _nftAddress - address of a deployed contract implementing\n  ///  the Nonfungible Interface.\n  /// @param _tokenId - ID of token to bid on.\n  function bid(\n    address _nftAddress,\n    uint256 _tokenId\n  )\n    external\n    payable\n    whenNotPaused\n  {\n    // _bid will throw if the bid or funds transfer fails\n    _bid(_nftAddress, _tokenId, msg.value);\n\n    _transfer(_nftAddress, msg.sender, _tokenId);\n  }\n\n  /// @dev Cancels an auction that hasn't been won yet.\n  ///  Returns the NFT to original owner.\n  /// @notice This is a state-modifying function that can\n  ///  be called while the contract is paused.\n  /// @param _nftAddress - Address of the NFT.\n  /// @param _tokenId - ID of token on auction\n  function cancelAuction(address _nftAddress, uint256 _tokenId) external {\n    Auction storage _auction = auctions[_nftAddress][_tokenId];\n    require(_isOnAuction(_auction));\n    require(msg.sender == _auction.seller);\n    _cancelAuction(_nftAddress, _tokenId, _auction.seller);\n  }\n\n  /// @dev Cancels an auction when the contract is paused.\n  ///  Only the owner may do this, and NFTs are returned to\n  ///  the seller. This should only be used in emergencies.\n  /// @param _nftAddress - Address of the NFT.\n  /// @param _tokenId - ID of the NFT on auction to cancel.\n  function cancelAuctionWhenPaused(\n    address _nftAddress,\n    uint256 _tokenId\n  )\n    external\n    whenPaused\n  {\n    Auction storage _auction = auctions[_nftAddress][_tokenId];\n    require(_isOnAuction(_auction));\n    _cancelAuction(_nftAddress, _tokenId, _auction.seller);\n  }\n\n  /// @dev Returns true if the NFT is on auction.\n  /// @param _auction - Auction to check.\n  function _isOnAuction(Auction storage _auction) internal view returns (bool) {\n    return (_auction.startedAt > 0);\n  }\n\n  /// @dev Gets the NFT object from an address, validating that implementsERC721 is true.\n  /// @param _nftAddress - Address of the NFT.\n  function _getNftContract(address _nftAddress) internal pure returns (IERC721) {\n    IERC721 candidateContract = IERC721(_nftAddress);\n    // require(candidateContract.implementsERC721());\n    return candidateContract;\n  }\n\n  /// @dev Returns current price of an NFT on auction. Broken into two\n  ///  functions (this one, that computes the duration from the auction\n  ///  structure, and the other that does the price computation) so we\n  ///  can easily test that the price computation works correctly.\n  function _getCurrentPrice(\n    Auction storage _auction\n  )\n    internal\n    view\n    returns (uint256)\n  {\n    uint256 _secondsPassed = 0;\n\n    // A bit of insurance against negative values (or wraparound).\n    // Probably not necessary (since Ethereum guarantees that the\n    // now variable doesn't ever go backwards).\n    if (block.timestamp > _auction.startedAt) {\n      _secondsPassed = block.timestamp - _auction.startedAt;\n    }\n\n    return _computeCurrentPrice(\n      _auction.startingPrice,\n      _auction.endingPrice,\n      _auction.duration,\n      _secondsPassed\n    );\n  }\n\n  /// @dev Computes the current price of an auction. Factored out\n  ///  from _currentPrice so we can run extensive unit tests.\n  ///  When testing, make this function external and turn on\n  ///  `Current price computation` test suite.\n  function _computeCurrentPrice(\n    uint256 _startingPrice,\n    uint256 _endingPrice,\n    uint256 _duration,\n    uint256 _secondsPassed\n  )\n    internal\n    pure\n    returns (uint256)\n  {\n    // NOTE: We don't use SafeMath (or similar) in this function because\n    //  all of our external functions carefully cap the maximum values for\n    //  time (at 64-bits) and currency (at 128-bits). _duration is\n    //  also known to be non-zero (see the require() statement in\n    //  _addAuction())\n    if (_secondsPassed >= _duration) {\n      // We've reached the end of the dynamic pricing portion\n      // of the auction, just return the end price.\n      return _endingPrice;\n    } else {\n      // Starting price can be higher than ending price (and often is!), so\n      // this delta can be negative.\n      int256 _totalPriceChange = int256(_endingPrice) - int256(_startingPrice);\n\n      // This multiplication can't overflow, _secondsPassed will easily fit within\n      // 64-bits, and _totalPriceChange will easily fit within 128-bits, their product\n      // will always fit within 256-bits.\n      int256 _currentPriceChange = _totalPriceChange * int256(_secondsPassed) / int256(_duration);\n\n      // _currentPriceChange can be negative, but if so, will have a magnitude\n      // less that _startingPrice. Thus, this result will always end up positive.\n      int256 _currentPrice = int256(_startingPrice) + _currentPriceChange;\n\n      return uint256(_currentPrice);\n    }\n  }\n\n  /// @dev Returns true if the claimant owns the token.\n  /// @param _nftAddress - The address of the NFT.\n  /// @param _claimant - Address claiming to own the token.\n  /// @param _tokenId - ID of token whose ownership to verify.\n  function _owns(address _nftAddress, address _claimant, uint256 _tokenId) internal view returns (bool) {\n    IERC721 _nftContract = _getNftContract(_nftAddress);\n    return (_nftContract.ownerOf(_tokenId) == _claimant);\n  }\n\n  /// @dev Adds an auction to the list of open auctions. Also fires the\n  ///  AuctionCreated event.\n  /// @param _tokenId The ID of the token to be put on auction.\n  /// @param _auction Auction to add.\n  function _addAuction(\n    address _nftAddress,\n    uint256 _tokenId,\n    Auction memory _auction,\n    address _seller\n  )\n    internal\n  {\n    // Require that all auctions have a duration of\n    // at least one minute. (Keeps our math from getting hairy!)\n    require(_auction.duration >= 1 minutes);\n\n    auctions[_nftAddress][_tokenId] = _auction;\n\n \n  }\n\n  /// @dev Removes an auction from the list of open auctions.\n  /// @param _tokenId - ID of NFT on auction.\n  function _removeAuction(address _nftAddress, uint256 _tokenId) internal {\n    delete auctions[_nftAddress][_tokenId];\n  }\n\n  /// @dev Cancels an auction unconditionally.\n  function _cancelAuction(address _nftAddress, uint256 _tokenId, address _seller) internal {\n    _removeAuction(_nftAddress, _tokenId);\n    _transfer(_nftAddress, _seller, _tokenId);\n  }\n\n  /// @dev Escrows the NFT, assigning ownership to this contract.\n  /// Throws if the escrow fails.\n  /// @param _nftAddress - The address of the NFT.\n  /// @param _owner - Current owner address of token to escrow.\n  /// @param _tokenId - ID of token whose approval to verify.\n  function _escrow(address _nftAddress, address _owner, uint256 _tokenId) internal {\n    IERC721 _nftContract = _getNftContract(_nftAddress);\n\n    // It will throw if transfer fails\n    _nftContract.transferFrom(_owner, address(this), _tokenId);\n  }\n\n  /// @dev Transfers an NFT owned by this contract to another address.\n  /// Returns true if the transfer succeeds.\n  /// @param _nftAddress - The address of the NFT.\n  /// @param _receiver - Address to transfer NFT to.\n  /// @param _tokenId - ID of token to transfer.\n  function _transfer(address _nftAddress, address _receiver, uint256 _tokenId) internal {\n    IERC721 _nftContract = _getNftContract(_nftAddress);\n\n    // It will throw if transfer fails\n    _nftContract.transferFrom(address(this), _receiver, _tokenId);\n  }\n\n  /// @dev Computes owner's cut of a sale.\n  /// @param _price - Sale price of NFT.\n  function _computeCut(uint256 _price) internal view returns (uint256) {\n    // NOTE: We don't use SafeMath (or similar) in this function because\n    //  all of our entry functions carefully cap the maximum values for\n    //  currency (at 128-bits), and ownerCut <= 10000 (see the require()\n    //  statement in the ClockAuction constructor). The result of this\n    //  function is always guaranteed to be <= _price.\n    return _price * ownerCut / 10000;\n  }\n\n  /// @dev Computes the price and transfers winnings.\n  /// Does NOT transfer ownership of token.\n  function _bid(\n    address _nftAddress,\n    uint256 _tokenId,\n    uint256 _bidAmount\n  )\n    internal\n    returns (uint256)\n  {\n    // Get a reference to the auction struct\n    Auction storage _auction = auctions[_nftAddress][_tokenId];\n\n    // Explicitly check that this auction is currently live.\n    // (Because of how Ethereum mappings work, we can't just count\n    // on the lookup above failing. An invalid _tokenId will just\n    // return an auction object that is all zeros.)\n    require(_isOnAuction(_auction));\n\n    // Check that the incoming bid is higher than the current\n    // price\n    uint256 _price = _getCurrentPrice(_auction);\n    require(_bidAmount >= _price);\n\n    // Grab a reference to the seller before the auction struct\n    // gets deleted.\n    // address _seller = _auction.seller;\n\n    // The bid is good! Remove the auction before sending the fees\n    // to the sender so we can't have a reentrancy attack.\n    _removeAuction(_nftAddress, _tokenId);\n\n    // Transfer proceeds to seller (if there are any!)\n    if (_price > 0) {\n      //  Calculate the auctioneer's cut.\n      // (NOTE: _computeCut() is guaranteed to return a\n      //  value <= price, so this subtraction can't go negative.)\n      uint256 _auctioneerCut = _computeCut(_price);\n      uint256 _sellerProceeds = _price - _auctioneerCut;\n\n      // NOTE: Doing a transfer() in the middle of a complex\n      // method like this is generally discouraged because of\n      // reentrancy attacks and DoS attacks if the seller is\n      // a contract with an invalid fallback function. We explicitly\n      // guard against reentrancy attacks by removing the auction\n      // before calling transfer(), and the only thing the seller\n      // can DoS is the sale of their own asset! (And if it's an\n      // accident, they can call cancelAuction(). )\n      // _seller.transfer(_sellerProceeds);\n    }\n\n    if (_bidAmount > _price) {\n      // Calculate any excess funds included with the bid. If the excess\n      // is anything worth worrying about, transfer it back to bidder.\n      // NOTE: We checked above that the bid amount is greater than or\n      // equal to the price so this cannot underflow.\n      uint256 _bidExcess = _bidAmount - _price;\n\n      // Return the funds. Similar to the previous transfer, this is\n      // not susceptible to a re-entry attack because the auction is\n      // removed before any transfers occur.\n      // msg.sender.transfer(_bidExcess);\n    }\n\n    // Tell the world!\n    // AuctionSuccessful(\n    //   _nftAddress,\n    //   _tokenId,\n    //   _price,\n    //   msg.sender\n    // );\n\n    return _price;\n  }\n\n\n\n}\n\n",
  "sourcePath": "/home/hieu/Blockchain/dragonfarm/src/contracts/marketplace/DragonFarmClockAuction.sol",
  "compiler": {
    "name": "solc",
    "version": "0.8.6+commit.11564f7e.Emscripten.clang"
  },
  "schemaVersion": "3.4.2",
  "updatedAt": "2021-08-06T11:29:40.509Z",
  "devdoc": {
    "kind": "dev",
    "methods": {
      "bid(address,uint256)": {
        "details": "Bids on an open auction, completing the auction and transferring  ownership of the NFT if enough Ether is supplied.",
        "params": {
          "_nftAddress": "- address of a deployed contract implementing  the Nonfungible Interface.",
          "_tokenId": "- ID of token to bid on."
        }
      },
      "cancelAuction(address,uint256)": {
        "details": "Cancels an auction that hasn't been won yet.  Returns the NFT to original owner.",
        "params": {
          "_nftAddress": "- Address of the NFT.",
          "_tokenId": "- ID of token on auction"
        }
      },
      "cancelAuctionWhenPaused(address,uint256)": {
        "details": "Cancels an auction when the contract is paused.  Only the owner may do this, and NFTs are returned to  the seller. This should only be used in emergencies.",
        "params": {
          "_nftAddress": "- Address of the NFT.",
          "_tokenId": "- ID of the NFT on auction to cancel."
        }
      },
      "createAuction(address,uint256,uint256,uint256,uint256)": {
        "details": "Creates and begins a new auction.",
        "params": {
          "_duration": "- Length of time to move between starting  price and ending price (in seconds).",
          "_endingPrice": "- Price of item (in wei) at end of auction.",
          "_nftAddress": "- address of a deployed contract implementing  the Nonfungible Interface.",
          "_startingPrice": "- Price of item (in wei) at beginning of auction.",
          "_tokenId": "- ID of token to auction, sender must be owner."
        }
      },
      "getAuction(address,uint256)": {
        "details": "Returns auction info for an NFT on auction.",
        "params": {
          "_nftAddress": "- Address of the NFT.",
          "_tokenId": "- ID of NFT on auction."
        }
      },
      "getCurrentPrice(address,uint256)": {
        "details": "Returns the current price of an auction.",
        "params": {
          "_nftAddress": "- Address of the NFT.",
          "_tokenId": "- ID of the token price we are checking."
        }
      },
      "paused()": {
        "details": "Returns true if the contract is paused, and false otherwise."
      }
    },
    "version": 1
  },
  "userdoc": {
    "kind": "user",
    "methods": {
      "cancelAuction(address,uint256)": {
        "notice": "This is a state-modifying function that can  be called while the contract is paused."
      }
    },
    "version": 1
  }
}