{
  "contractName": "DragonFarmCore",
  "abi": [
    {
      "inputs": [],
      "stateMutability": "nonpayable",
      "type": "constructor"
    },
    {
      "anonymous": false,
      "inputs": [
        {
          "indexed": true,
          "internalType": "address",
          "name": "owner",
          "type": "address"
        },
        {
          "indexed": true,
          "internalType": "address",
          "name": "approved",
          "type": "address"
        },
        {
          "indexed": true,
          "internalType": "uint256",
          "name": "tokenId",
          "type": "uint256"
        }
      ],
      "name": "Approval",
      "type": "event"
    },
    {
      "anonymous": false,
      "inputs": [
        {
          "indexed": true,
          "internalType": "address",
          "name": "owner",
          "type": "address"
        },
        {
          "indexed": true,
          "internalType": "address",
          "name": "operator",
          "type": "address"
        },
        {
          "indexed": false,
          "internalType": "bool",
          "name": "approved",
          "type": "bool"
        }
      ],
      "name": "ApprovalForAll",
      "type": "event"
    },
    {
      "anonymous": false,
      "inputs": [
        {
          "indexed": true,
          "internalType": "address",
          "name": "from",
          "type": "address"
        },
        {
          "indexed": true,
          "internalType": "address",
          "name": "to",
          "type": "address"
        },
        {
          "indexed": true,
          "internalType": "uint256",
          "name": "tokenId",
          "type": "uint256"
        }
      ],
      "name": "Transfer",
      "type": "event"
    },
    {
      "inputs": [
        {
          "internalType": "address",
          "name": "to",
          "type": "address"
        },
        {
          "internalType": "uint256",
          "name": "tokenId",
          "type": "uint256"
        }
      ],
      "name": "approve",
      "outputs": [],
      "stateMutability": "nonpayable",
      "type": "function"
    },
    {
      "inputs": [
        {
          "internalType": "address",
          "name": "owner",
          "type": "address"
        }
      ],
      "name": "balanceOf",
      "outputs": [
        {
          "internalType": "uint256",
          "name": "",
          "type": "uint256"
        }
      ],
      "stateMutability": "view",
      "type": "function"
    },
    {
      "inputs": [
        {
          "internalType": "uint256",
          "name": "tokenId",
          "type": "uint256"
        }
      ],
      "name": "getApproved",
      "outputs": [
        {
          "internalType": "address",
          "name": "",
          "type": "address"
        }
      ],
      "stateMutability": "view",
      "type": "function"
    },
    {
      "inputs": [
        {
          "internalType": "address",
          "name": "owner",
          "type": "address"
        },
        {
          "internalType": "address",
          "name": "operator",
          "type": "address"
        }
      ],
      "name": "isApprovedForAll",
      "outputs": [
        {
          "internalType": "bool",
          "name": "",
          "type": "bool"
        }
      ],
      "stateMutability": "view",
      "type": "function"
    },
    {
      "inputs": [],
      "name": "name",
      "outputs": [
        {
          "internalType": "string",
          "name": "",
          "type": "string"
        }
      ],
      "stateMutability": "view",
      "type": "function"
    },
    {
      "inputs": [
        {
          "internalType": "uint256",
          "name": "tokenId",
          "type": "uint256"
        }
      ],
      "name": "ownerOf",
      "outputs": [
        {
          "internalType": "address",
          "name": "",
          "type": "address"
        }
      ],
      "stateMutability": "view",
      "type": "function"
    },
    {
      "inputs": [
        {
          "internalType": "address",
          "name": "from",
          "type": "address"
        },
        {
          "internalType": "address",
          "name": "to",
          "type": "address"
        },
        {
          "internalType": "uint256",
          "name": "tokenId",
          "type": "uint256"
        }
      ],
      "name": "safeTransferFrom",
      "outputs": [],
      "stateMutability": "nonpayable",
      "type": "function"
    },
    {
      "inputs": [
        {
          "internalType": "address",
          "name": "from",
          "type": "address"
        },
        {
          "internalType": "address",
          "name": "to",
          "type": "address"
        },
        {
          "internalType": "uint256",
          "name": "tokenId",
          "type": "uint256"
        },
        {
          "internalType": "bytes",
          "name": "_data",
          "type": "bytes"
        }
      ],
      "name": "safeTransferFrom",
      "outputs": [],
      "stateMutability": "nonpayable",
      "type": "function"
    },
    {
      "inputs": [
        {
          "internalType": "address",
          "name": "operator",
          "type": "address"
        },
        {
          "internalType": "bool",
          "name": "approved",
          "type": "bool"
        }
      ],
      "name": "setApprovalForAll",
      "outputs": [],
      "stateMutability": "nonpayable",
      "type": "function"
    },
    {
      "inputs": [
        {
          "internalType": "bytes4",
          "name": "interfaceId",
          "type": "bytes4"
        }
      ],
      "name": "supportsInterface",
      "outputs": [
        {
          "internalType": "bool",
          "name": "",
          "type": "bool"
        }
      ],
      "stateMutability": "view",
      "type": "function"
    },
    {
      "inputs": [],
      "name": "symbol",
      "outputs": [
        {
          "internalType": "string",
          "name": "",
          "type": "string"
        }
      ],
      "stateMutability": "view",
      "type": "function"
    },
    {
      "inputs": [
        {
          "internalType": "uint256",
          "name": "tokenId",
          "type": "uint256"
        }
      ],
      "name": "tokenURI",
      "outputs": [
        {
          "internalType": "string",
          "name": "",
          "type": "string"
        }
      ],
      "stateMutability": "view",
      "type": "function"
    },
    {
      "inputs": [
        {
          "internalType": "address",
          "name": "from",
          "type": "address"
        },
        {
          "internalType": "address",
          "name": "to",
          "type": "address"
        },
        {
          "internalType": "uint256",
          "name": "tokenId",
          "type": "uint256"
        }
      ],
      "name": "transferFrom",
      "outputs": [],
      "stateMutability": "nonpayable",
      "type": "function"
    },
    {
      "inputs": [],
      "name": "totalSupply",
      "outputs": [
        {
          "internalType": "uint256",
          "name": "",
          "type": "uint256"
        }
      ],
      "stateMutability": "view",
      "type": "function"
    },
    {
      "inputs": [
        {
          "internalType": "uint256",
          "name": "_genes",
          "type": "uint256"
        },
        {
          "internalType": "address",
          "name": "_owner",
          "type": "address"
        }
      ],
      "name": "spawnDragon",
      "outputs": [
        {
          "internalType": "uint256",
          "name": "",
          "type": "uint256"
        }
      ],
      "stateMutability": "nonpayable",
      "type": "function"
    }
  ],
  "bytecode": "0x60806040523480156200001157600080fd5b506040518060400160405280600d81526020017f447261676f6e4661726d4e4654000000000000000000000000000000000000008152506040518060400160405280600581526020017f44464e465400000000000000000000000000000000000000000000000000000081525081600090805190602001906200009692919062000472565b508060019080519060200190620000af92919062000472565b5050506006604051806040016040528060008152602001428152509080600181540180825580915050600190039060005260206000209060020201600090919091909150600082015181600001556020820151816001015550506200011c6000336200017360201b60201c565b50620001306000336200017360201b60201c565b50620001446000336200017360201b60201c565b50620001586000336200017360201b60201c565b506200016c6000336200017360201b60201c565b506200074d565b600080604051806040016040528085815260200142815250905060068190806001815401808255809150506001900390600052602060002090600202016000909190919091506000820151816000015560208201518160010155505060006001620001e36200020e60201b60201c565b620001ef919062000622565b90506200020384826200021b60201b60201c565b809250505092915050565b6000600680549050905090565b600073ffffffffffffffffffffffffffffffffffffffff168273ffffffffffffffffffffffffffffffffffffffff1614156200028e576040517f08c379a0000000000000000000000000000000000000000000000000000000008152600401620002859062000592565b60405180910390fd5b6200029f816200040160201b60201c565b15620002e2576040517f08c379a0000000000000000000000000000000000000000000000000000000008152600401620002d99062000570565b60405180910390fd5b620002f6600083836200046d60201b60201c565b6001600360008473ffffffffffffffffffffffffffffffffffffffff1673ffffffffffffffffffffffffffffffffffffffff1681526020019081526020016000206000828254620003489190620005c5565b92505081905550816002600083815260200190815260200160002060006101000a81548173ffffffffffffffffffffffffffffffffffffffff021916908373ffffffffffffffffffffffffffffffffffffffff160217905550808273ffffffffffffffffffffffffffffffffffffffff16600073ffffffffffffffffffffffffffffffffffffffff167fddf252ad1be2c89b69c2b068fc378daa952ba7f163c4a11628f55a4df523b3ef60405160405180910390a45050565b60008073ffffffffffffffffffffffffffffffffffffffff166002600084815260200190815260200160002060009054906101000a900473ffffffffffffffffffffffffffffffffffffffff1673ffffffffffffffffffffffffffffffffffffffff1614159050919050565b505050565b828054620004809062000667565b90600052602060002090601f016020900481019282620004a45760008555620004f0565b82601f10620004bf57805160ff1916838001178555620004f0565b82800160010185558215620004f0579182015b82811115620004ef578251825591602001919060010190620004d2565b5b509050620004ff919062000503565b5090565b5b808211156200051e57600081600090555060010162000504565b5090565b600062000531601c83620005b4565b91506200053e82620006fb565b602082019050919050565b600062000558602083620005b4565b9150620005658262000724565b602082019050919050565b600060208201905081810360008301526200058b8162000522565b9050919050565b60006020820190508181036000830152620005ad8162000549565b9050919050565b600082825260208201905092915050565b6000620005d2826200065d565b9150620005df836200065d565b9250827fffffffffffffffffffffffffffffffffffffffffffffffffffffffffffffffff038211156200061757620006166200069d565b5b828201905092915050565b60006200062f826200065d565b91506200063c836200065d565b9250828210156200065257620006516200069d565b5b828203905092915050565b6000819050919050565b600060028204905060018216806200068057607f821691505b60208210811415620006975762000696620006cc565b5b50919050565b7f4e487b7100000000000000000000000000000000000000000000000000000000600052601160045260246000fd5b7f4e487b7100000000000000000000000000000000000000000000000000000000600052602260045260246000fd5b7f4552433732313a20746f6b656e20616c7265616479206d696e74656400000000600082015250565b7f4552433732313a206d696e7420746f20746865207a65726f2061646472657373600082015250565b6127d0806200075d6000396000f3fe608060405234801561001057600080fd5b50600436106100f55760003560e01c80636352211e11610097578063a22cb46511610066578063a22cb46514610298578063b88d4fde146102b4578063c87b56dd146102d0578063e985e9c514610300576100f5565b80636352211e146101ea57806370a082311461021a57806385f5d4931461024a57806395d89b411461027a576100f5565b8063095ea7b3116100d3578063095ea7b31461017857806318160ddd1461019457806323b872dd146101b257806342842e0e146101ce576100f5565b806301ffc9a7146100fa57806306fdde031461012a578063081812fc14610148575b600080fd5b610114600480360381019061010f9190611943565b610330565b6040516101219190611d4f565b60405180910390f35b610132610412565b60405161013f9190611d6a565b60405180910390f35b610162600480360381019061015d919061199d565b6104a4565b60405161016f9190611ce8565b60405180910390f35b610192600480360381019061018d9190611903565b610529565b005b61019c610641565b6040516101a99190611f4c565b60405180910390f35b6101cc60048036038101906101c791906117ed565b61064e565b005b6101e860048036038101906101e391906117ed565b6106ae565b005b61020460048036038101906101ff919061199d565b6106ce565b6040516102119190611ce8565b60405180910390f35b610234600480360381019061022f9190611780565b610780565b6040516102419190611f4c565b60405180910390f35b610264600480360381019061025f91906119ca565b610838565b6040516102719190611f4c565b60405180910390f35b61028261084c565b60405161028f9190611d6a565b60405180910390f35b6102b260048036038101906102ad91906118c3565b6108de565b005b6102ce60048036038101906102c99190611840565b610a5f565b005b6102ea60048036038101906102e5919061199d565b610ac1565b6040516102f79190611d6a565b60405180910390f35b61031a600480360381019061031591906117ad565b610b68565b6040516103279190611d4f565b60405180910390f35b60007f80ac58cd000000000000000000000000000000000000000000000000000000007bffffffffffffffffffffffffffffffffffffffffffffffffffffffff1916827bffffffffffffffffffffffffffffffffffffffffffffffffffffffff191614806103fb57507f5b5e139f000000000000000000000000000000000000000000000000000000007bffffffffffffffffffffffffffffffffffffffffffffffffffffffff1916827bffffffffffffffffffffffffffffffffffffffffffffffffffffffff1916145b8061040b575061040a82610bfc565b5b9050919050565b60606000805461042190612171565b80601f016020809104026020016040519081016040528092919081815260200182805461044d90612171565b801561049a5780601f1061046f5761010080835404028352916020019161049a565b820191906000526020600020905b81548152906001019060200180831161047d57829003601f168201915b5050505050905090565b60006104af82610c66565b6104ee576040517f08c379a00000000000000000000000000000000000000000000000000000000081526004016104e590611eac565b60405180910390fd5b6004600083815260200190815260200160002060009054906101000a900473ffffffffffffffffffffffffffffffffffffffff169050919050565b6000610534826106ce565b90508073ffffffffffffffffffffffffffffffffffffffff168373ffffffffffffffffffffffffffffffffffffffff1614156105a5576040517f08c379a000000000000000000000000000000000000000000000000000000000815260040161059c90611f0c565b60405180910390fd5b8073ffffffffffffffffffffffffffffffffffffffff166105c4610cd2565b73ffffffffffffffffffffffffffffffffffffffff1614806105f357506105f2816105ed610cd2565b610b68565b5b610632576040517f08c379a000000000000000000000000000000000000000000000000000000000815260040161062990611e2c565b60405180910390fd5b61063c8383610cda565b505050565b6000600680549050905090565b61065f610659610cd2565b82610d93565b61069e576040517f08c379a000000000000000000000000000000000000000000000000000000000815260040161069590611f2c565b60405180910390fd5b6106a9838383610e71565b505050565b6106c983838360405180602001604052806000815250610a5f565b505050565b6000806002600084815260200190815260200160002060009054906101000a900473ffffffffffffffffffffffffffffffffffffffff169050600073ffffffffffffffffffffffffffffffffffffffff168173ffffffffffffffffffffffffffffffffffffffff161415610777576040517f08c379a000000000000000000000000000000000000000000000000000000000815260040161076e90611e6c565b60405180910390fd5b80915050919050565b60008073ffffffffffffffffffffffffffffffffffffffff168273ffffffffffffffffffffffffffffffffffffffff1614156107f1576040517f08c379a00000000000000000000000000000000000000000000000000000000081526004016107e890611e4c565b60405180910390fd5b600360008373ffffffffffffffffffffffffffffffffffffffff1673ffffffffffffffffffffffffffffffffffffffff168152602001908152602001600020549050919050565b600061084483836110cd565b905092915050565b60606001805461085b90612171565b80601f016020809104026020016040519081016040528092919081815260200182805461088790612171565b80156108d45780601f106108a9576101008083540402835291602001916108d4565b820191906000526020600020905b8154815290600101906020018083116108b757829003601f168201915b5050505050905090565b6108e6610cd2565b73ffffffffffffffffffffffffffffffffffffffff168273ffffffffffffffffffffffffffffffffffffffff161415610954576040517f08c379a000000000000000000000000000000000000000000000000000000000815260040161094b90611dec565b60405180910390fd5b8060056000610961610cd2565b73ffffffffffffffffffffffffffffffffffffffff1673ffffffffffffffffffffffffffffffffffffffff16815260200190815260200160002060008473ffffffffffffffffffffffffffffffffffffffff1673ffffffffffffffffffffffffffffffffffffffff16815260200190815260200160002060006101000a81548160ff0219169083151502179055508173ffffffffffffffffffffffffffffffffffffffff16610a0e610cd2565b73ffffffffffffffffffffffffffffffffffffffff167f17307eab39ab6107e8899845ad3d59bd9653f200f220920489ca2b5937696c3183604051610a539190611d4f565b60405180910390a35050565b610a70610a6a610cd2565b83610d93565b610aaf576040517f08c379a0000000000000000000000000000000000000000000000000000000008152600401610aa690611f2c565b60405180910390fd5b610abb84848484611156565b50505050565b6060610acc82610c66565b610b0b576040517f08c379a0000000000000000000000000000000000000000000000000000000008152600401610b0290611eec565b60405180910390fd5b6000610b156111b2565b90506000815111610b355760405180602001604052806000815250610b60565b80610b3f846111c9565b604051602001610b50929190611cc4565b6040516020818303038152906040525b915050919050565b6000600560008473ffffffffffffffffffffffffffffffffffffffff1673ffffffffffffffffffffffffffffffffffffffff16815260200190815260200160002060008373ffffffffffffffffffffffffffffffffffffffff1673ffffffffffffffffffffffffffffffffffffffff16815260200190815260200160002060009054906101000a900460ff16905092915050565b60007f01ffc9a7000000000000000000000000000000000000000000000000000000007bffffffffffffffffffffffffffffffffffffffffffffffffffffffff1916827bffffffffffffffffffffffffffffffffffffffffffffffffffffffff1916149050919050565b60008073ffffffffffffffffffffffffffffffffffffffff166002600084815260200190815260200160002060009054906101000a900473ffffffffffffffffffffffffffffffffffffffff1673ffffffffffffffffffffffffffffffffffffffff1614159050919050565b600033905090565b816004600083815260200190815260200160002060006101000a81548173ffffffffffffffffffffffffffffffffffffffff021916908373ffffffffffffffffffffffffffffffffffffffff160217905550808273ffffffffffffffffffffffffffffffffffffffff16610d4d836106ce565b73ffffffffffffffffffffffffffffffffffffffff167f8c5be1e5ebec7d5bd14f71427d1e84f3dd0314c0f7b2291e5b200ac8c7c3b92560405160405180910390a45050565b6000610d9e82610c66565b610ddd576040517f08c379a0000000000000000000000000000000000000000000000000000000008152600401610dd490611e0c565b60405180910390fd5b6000610de8836106ce565b90508073ffffffffffffffffffffffffffffffffffffffff168473ffffffffffffffffffffffffffffffffffffffff161480610e5757508373ffffffffffffffffffffffffffffffffffffffff16610e3f846104a4565b73ffffffffffffffffffffffffffffffffffffffff16145b80610e685750610e678185610b68565b5b91505092915050565b8273ffffffffffffffffffffffffffffffffffffffff16610e91826106ce565b73ffffffffffffffffffffffffffffffffffffffff1614610ee7576040517f08c379a0000000000000000000000000000000000000000000000000000000008152600401610ede90611ecc565b60405180910390fd5b600073ffffffffffffffffffffffffffffffffffffffff168273ffffffffffffffffffffffffffffffffffffffff161415610f57576040517f08c379a0000000000000000000000000000000000000000000000000000000008152600401610f4e90611dcc565b60405180910390fd5b610f6283838361132a565b610f6d600082610cda565b6001600360008573ffffffffffffffffffffffffffffffffffffffff1673ffffffffffffffffffffffffffffffffffffffff1681526020019081526020016000206000828254610fbd9190612087565b925050819055506001600360008473ffffffffffffffffffffffffffffffffffffffff1673ffffffffffffffffffffffffffffffffffffffff16815260200190815260200160002060008282546110149190612000565b92505081905550816002600083815260200190815260200160002060006101000a81548173ffffffffffffffffffffffffffffffffffffffff021916908373ffffffffffffffffffffffffffffffffffffffff160217905550808273ffffffffffffffffffffffffffffffffffffffff168473ffffffffffffffffffffffffffffffffffffffff167fddf252ad1be2c89b69c2b068fc378daa952ba7f163c4a11628f55a4df523b3ef60405160405180910390a4505050565b600080604051806040016040528085815260200142815250905060068190806001815401808255809150506001900390600052602060002090600202016000909190919091506000820151816000015560208201518160010155505060006001611135610641565b61113f9190612087565b905061114b848261132f565b809250505092915050565b611161848484610e71565b61116d848484846114fd565b6111ac576040517f08c379a00000000000000000000000000000000000000000000000000000000081526004016111a390611d8c565b60405180910390fd5b50505050565b606060405180602001604052806000815250905090565b60606000821415611211576040518060400160405280600181526020017f30000000000000000000000000000000000000000000000000000000000000008152509050611325565b600082905060005b6000821461124357808061122c906121d4565b915050600a8261123c9190612056565b9150611219565b60008167ffffffffffffffff81111561125f5761125e61230a565b5b6040519080825280601f01601f1916602001820160405280156112915781602001600182028036833780820191505090505b5090505b6000851461131e576001826112aa9190612087565b9150600a856112b9919061221d565b60306112c59190612000565b60f81b8183815181106112db576112da6122db565b5b60200101907effffffffffffffffffffffffffffffffffffffffffffffffffffffffffffff1916908160001a905350600a856113179190612056565b9450611295565b8093505050505b919050565b505050565b600073ffffffffffffffffffffffffffffffffffffffff168273ffffffffffffffffffffffffffffffffffffffff16141561139f576040517f08c379a000000000000000000000000000000000000000000000000000000000815260040161139690611e8c565b60405180910390fd5b6113a881610c66565b156113e8576040517f08c379a00000000000000000000000000000000000000000000000000000000081526004016113df90611dac565b60405180910390fd5b6113f46000838361132a565b6001600360008473ffffffffffffffffffffffffffffffffffffffff1673ffffffffffffffffffffffffffffffffffffffff16815260200190815260200160002060008282546114449190612000565b92505081905550816002600083815260200190815260200160002060006101000a81548173ffffffffffffffffffffffffffffffffffffffff021916908373ffffffffffffffffffffffffffffffffffffffff160217905550808273ffffffffffffffffffffffffffffffffffffffff16600073ffffffffffffffffffffffffffffffffffffffff167fddf252ad1be2c89b69c2b068fc378daa952ba7f163c4a11628f55a4df523b3ef60405160405180910390a45050565b600061151e8473ffffffffffffffffffffffffffffffffffffffff16611694565b15611687578373ffffffffffffffffffffffffffffffffffffffff1663150b7a02611547610cd2565b8786866040518563ffffffff1660e01b81526004016115699493929190611d03565b602060405180830381600087803b15801561158357600080fd5b505af19250505080156115b457506040513d601f19601f820116820180604052508101906115b19190611970565b60015b611637573d80600081146115e4576040519150601f19603f3d011682016040523d82523d6000602084013e6115e9565b606091505b5060008151141561162f576040517f08c379a000000000000000000000000000000000000000000000000000000000815260040161162690611d8c565b60405180910390fd5b805181602001fd5b63150b7a0260e01b7bffffffffffffffffffffffffffffffffffffffffffffffffffffffff1916817bffffffffffffffffffffffffffffffffffffffffffffffffffffffff19161491505061168c565b600190505b949350505050565b600080823b905060008111915050919050565b60006116ba6116b584611f8c565b611f67565b9050828152602081018484840111156116d6576116d561233e565b5b6116e184828561212f565b509392505050565b6000813590506116f88161273e565b92915050565b60008135905061170d81612755565b92915050565b6000813590506117228161276c565b92915050565b6000815190506117378161276c565b92915050565b600082601f83011261175257611751612339565b5b81356117628482602086016116a7565b91505092915050565b60008135905061177a81612783565b92915050565b60006020828403121561179657611795612348565b5b60006117a4848285016116e9565b91505092915050565b600080604083850312156117c4576117c3612348565b5b60006117d2858286016116e9565b92505060206117e3858286016116e9565b9150509250929050565b60008060006060848603121561180657611805612348565b5b6000611814868287016116e9565b9350506020611825868287016116e9565b92505060406118368682870161176b565b9150509250925092565b6000806000806080858703121561185a57611859612348565b5b6000611868878288016116e9565b9450506020611879878288016116e9565b935050604061188a8782880161176b565b925050606085013567ffffffffffffffff8111156118ab576118aa612343565b5b6118b78782880161173d565b91505092959194509250565b600080604083850312156118da576118d9612348565b5b60006118e8858286016116e9565b92505060206118f9858286016116fe565b9150509250929050565b6000806040838503121561191a57611919612348565b5b6000611928858286016116e9565b92505060206119398582860161176b565b9150509250929050565b60006020828403121561195957611958612348565b5b600061196784828501611713565b91505092915050565b60006020828403121561198657611985612348565b5b600061199484828501611728565b91505092915050565b6000602082840312156119b3576119b2612348565b5b60006119c18482850161176b565b91505092915050565b600080604083850312156119e1576119e0612348565b5b60006119ef8582860161176b565b9250506020611a00858286016116e9565b9150509250929050565b611a13816120bb565b82525050565b611a22816120cd565b82525050565b6000611a3382611fbd565b611a3d8185611fd3565b9350611a4d81856020860161213e565b611a568161234d565b840191505092915050565b6000611a6c82611fc8565b611a768185611fe4565b9350611a8681856020860161213e565b611a8f8161234d565b840191505092915050565b6000611aa582611fc8565b611aaf8185611ff5565b9350611abf81856020860161213e565b80840191505092915050565b6000611ad8603283611fe4565b9150611ae38261235e565b604082019050919050565b6000611afb601c83611fe4565b9150611b06826123ad565b602082019050919050565b6000611b1e602483611fe4565b9150611b29826123d6565b604082019050919050565b6000611b41601983611fe4565b9150611b4c82612425565b602082019050919050565b6000611b64602c83611fe4565b9150611b6f8261244e565b604082019050919050565b6000611b87603883611fe4565b9150611b928261249d565b604082019050919050565b6000611baa602a83611fe4565b9150611bb5826124ec565b604082019050919050565b6000611bcd602983611fe4565b9150611bd88261253b565b604082019050919050565b6000611bf0602083611fe4565b9150611bfb8261258a565b602082019050919050565b6000611c13602c83611fe4565b9150611c1e826125b3565b604082019050919050565b6000611c36602983611fe4565b9150611c4182612602565b604082019050919050565b6000611c59602f83611fe4565b9150611c6482612651565b604082019050919050565b6000611c7c602183611fe4565b9150611c87826126a0565b604082019050919050565b6000611c9f603183611fe4565b9150611caa826126ef565b604082019050919050565b611cbe81612125565b82525050565b6000611cd08285611a9a565b9150611cdc8284611a9a565b91508190509392505050565b6000602082019050611cfd6000830184611a0a565b92915050565b6000608082019050611d186000830187611a0a565b611d256020830186611a0a565b611d326040830185611cb5565b8181036060830152611d448184611a28565b905095945050505050565b6000602082019050611d646000830184611a19565b92915050565b60006020820190508181036000830152611d848184611a61565b905092915050565b60006020820190508181036000830152611da581611acb565b9050919050565b60006020820190508181036000830152611dc581611aee565b9050919050565b60006020820190508181036000830152611de581611b11565b9050919050565b60006020820190508181036000830152611e0581611b34565b9050919050565b60006020820190508181036000830152611e2581611b57565b9050919050565b60006020820190508181036000830152611e4581611b7a565b9050919050565b60006020820190508181036000830152611e6581611b9d565b9050919050565b60006020820190508181036000830152611e8581611bc0565b9050919050565b60006020820190508181036000830152611ea581611be3565b9050919050565b60006020820190508181036000830152611ec581611c06565b9050919050565b60006020820190508181036000830152611ee581611c29565b9050919050565b60006020820190508181036000830152611f0581611c4c565b9050919050565b60006020820190508181036000830152611f2581611c6f565b9050919050565b60006020820190508181036000830152611f4581611c92565b9050919050565b6000602082019050611f616000830184611cb5565b92915050565b6000611f71611f82565b9050611f7d82826121a3565b919050565b6000604051905090565b600067ffffffffffffffff821115611fa757611fa661230a565b5b611fb08261234d565b9050602081019050919050565b600081519050919050565b600081519050919050565b600082825260208201905092915050565b600082825260208201905092915050565b600081905092915050565b600061200b82612125565b915061201683612125565b9250827fffffffffffffffffffffffffffffffffffffffffffffffffffffffffffffffff0382111561204b5761204a61224e565b5b828201905092915050565b600061206182612125565b915061206c83612125565b92508261207c5761207b61227d565b5b828204905092915050565b600061209282612125565b915061209d83612125565b9250828210156120b0576120af61224e565b5b828203905092915050565b60006120c682612105565b9050919050565b60008115159050919050565b60007fffffffff0000000000000000000000000000000000000000000000000000000082169050919050565b600073ffffffffffffffffffffffffffffffffffffffff82169050919050565b6000819050919050565b82818337600083830152505050565b60005b8381101561215c578082015181840152602081019050612141565b8381111561216b576000848401525b50505050565b6000600282049050600182168061218957607f821691505b6020821081141561219d5761219c6122ac565b5b50919050565b6121ac8261234d565b810181811067ffffffffffffffff821117156121cb576121ca61230a565b5b80604052505050565b60006121df82612125565b91507fffffffffffffffffffffffffffffffffffffffffffffffffffffffffffffffff8214156122125761221161224e565b5b600182019050919050565b600061222882612125565b915061223383612125565b9250826122435761224261227d565b5b828206905092915050565b7f4e487b7100000000000000000000000000000000000000000000000000000000600052601160045260246000fd5b7f4e487b7100000000000000000000000000000000000000000000000000000000600052601260045260246000fd5b7f4e487b7100000000000000000000000000000000000000000000000000000000600052602260045260246000fd5b7f4e487b7100000000000000000000000000000000000000000000000000000000600052603260045260246000fd5b7f4e487b7100000000000000000000000000000000000000000000000000000000600052604160045260246000fd5b600080fd5b600080fd5b600080fd5b600080fd5b6000601f19601f8301169050919050565b7f4552433732313a207472616e7366657220746f206e6f6e20455243373231526560008201527f63656976657220696d706c656d656e7465720000000000000000000000000000602082015250565b7f4552433732313a20746f6b656e20616c7265616479206d696e74656400000000600082015250565b7f4552433732313a207472616e7366657220746f20746865207a65726f2061646460008201527f7265737300000000000000000000000000000000000000000000000000000000602082015250565b7f4552433732313a20617070726f766520746f2063616c6c657200000000000000600082015250565b7f4552433732313a206f70657261746f7220717565727920666f72206e6f6e657860008201527f697374656e7420746f6b656e0000000000000000000000000000000000000000602082015250565b7f4552433732313a20617070726f76652063616c6c6572206973206e6f74206f7760008201527f6e6572206e6f7220617070726f76656420666f7220616c6c0000000000000000602082015250565b7f4552433732313a2062616c616e636520717565727920666f7220746865207a6560008201527f726f206164647265737300000000000000000000000000000000000000000000602082015250565b7f4552433732313a206f776e657220717565727920666f72206e6f6e657869737460008201527f656e7420746f6b656e0000000000000000000000000000000000000000000000602082015250565b7f4552433732313a206d696e7420746f20746865207a65726f2061646472657373600082015250565b7f4552433732313a20617070726f76656420717565727920666f72206e6f6e657860008201527f697374656e7420746f6b656e0000000000000000000000000000000000000000602082015250565b7f4552433732313a207472616e73666572206f6620746f6b656e2074686174206960008201527f73206e6f74206f776e0000000000000000000000000000000000000000000000602082015250565b7f4552433732314d657461646174613a2055524920717565727920666f72206e6f60008201527f6e6578697374656e7420746f6b656e0000000000000000000000000000000000602082015250565b7f4552433732313a20617070726f76616c20746f2063757272656e74206f776e6560008201527f7200000000000000000000000000000000000000000000000000000000000000602082015250565b7f4552433732313a207472616e736665722063616c6c6572206973206e6f74206f60008201527f776e6572206e6f7220617070726f766564000000000000000000000000000000602082015250565b612747816120bb565b811461275257600080fd5b50565b61275e816120cd565b811461276957600080fd5b50565b612775816120d9565b811461278057600080fd5b50565b61278c81612125565b811461279757600080fd5b5056fea26469706673582212203c8eff39efd6ee4c4b5394fba13b9c00e94d223c087eefdf13bebec05ae1f03364736f6c63430008060033",
  "immutableReferences": {},
  "source": "// SPDX-License-Identifier: MIT\npragma solidity ^0.8.0;\n\nimport \"@openzeppelin/contracts/token/ERC721/ERC721.sol\";\ncontract DragonFarmCore is ERC721{\n  constructor() ERC721(\"DragonFarmNFT\", \"DFNFT\") {\n    dragons.push(Dragon(0, block.timestamp)); // The first dragon\n    _spawnDragon(0, msg.sender);\n    _spawnDragon(0, msg.sender);\n    _spawnDragon(0, msg.sender);\n    _spawnDragon(0, msg.sender);\n    _spawnDragon(0, msg.sender);\n  }\n\n  struct Dragon {\n    uint256 genes;\n    uint256 bornAt;\n  }\n\n  Dragon[] dragons;\n  function totalSupply() public view returns(uint) {\n    return dragons.length;\n  }\n\n  function spawnDragon(uint256 _genes, address _owner) external returns(uint256) {\n    return _spawnDragon(_genes, _owner);\n  }\n  function _spawnDragon(uint256 _genes, address _owner) private returns (uint256) {\n    Dragon memory _dragon = Dragon(_genes, block.timestamp);\n    dragons.push(_dragon);\n    uint _dragonId = totalSupply() - 1;\n    _mint(_owner, _dragonId);\n    return _dragonId;\n  }\n\n}\n\n\n",
  "sourcePath": "/home/hieu/Blockchain/dragonfarm/src/contracts/core/erc721/DragonFarm.sol",
  "compiler": {
    "name": "solc",
    "version": "0.8.6+commit.11564f7e.Emscripten.clang"
  },
  "schemaVersion": "3.4.2",
  "updatedAt": "2021-08-06T08:54:49.597Z",
  "devdoc": {
    "kind": "dev",
    "methods": {
      "approve(address,uint256)": {
        "details": "See {IERC721-approve}."
      },
      "balanceOf(address)": {
        "details": "See {IERC721-balanceOf}."
      },
      "getApproved(uint256)": {
        "details": "See {IERC721-getApproved}."
      },
      "isApprovedForAll(address,address)": {
        "details": "See {IERC721-isApprovedForAll}."
      },
      "name()": {
        "details": "See {IERC721Metadata-name}."
      },
      "ownerOf(uint256)": {
        "details": "See {IERC721-ownerOf}."
      },
      "safeTransferFrom(address,address,uint256)": {
        "details": "See {IERC721-safeTransferFrom}."
      },
      "safeTransferFrom(address,address,uint256,bytes)": {
        "details": "See {IERC721-safeTransferFrom}."
      },
      "setApprovalForAll(address,bool)": {
        "details": "See {IERC721-setApprovalForAll}."
      },
      "supportsInterface(bytes4)": {
        "details": "See {IERC165-supportsInterface}."
      },
      "symbol()": {
        "details": "See {IERC721Metadata-symbol}."
      },
      "tokenURI(uint256)": {
        "details": "See {IERC721Metadata-tokenURI}."
      },
      "transferFrom(address,address,uint256)": {
        "details": "See {IERC721-transferFrom}."
      }
    },
    "version": 1
  },
  "userdoc": {
    "kind": "user",
    "methods": {},
    "version": 1
  }
}