{
  "contractName": "DragonFarmBreeding",
  "abi": [
    {
      "inputs": [],
      "name": "mixGenes",
      "outputs": [
        {
          "internalType": "uint256",
          "name": "",
          "type": "uint256"
        }
      ],
      "stateMutability": "view",
      "type": "function"
    },
    {
      "inputs": [
        {
          "internalType": "uint8[]",
          "name": "_traits",
          "type": "uint8[]"
        }
      ],
      "name": "encode",
      "outputs": [
        {
          "internalType": "uint256",
          "name": "_genes",
          "type": "uint256"
        }
      ],
      "stateMutability": "pure",
      "type": "function"
    },
    {
      "inputs": [
        {
          "internalType": "uint256",
          "name": "_genes",
          "type": "uint256"
        }
      ],
      "name": "decode",
      "outputs": [
        {
          "internalType": "uint8[]",
          "name": "",
          "type": "uint8[]"
        }
      ],
      "stateMutability": "pure",
      "type": "function"
    }
  ],
  "bytecode": "0x608060405234801561001057600080fd5b506109c0806100206000396000f3fe608060405234801561001057600080fd5b50600436106100415760003560e01c80631597ee441461004657806361a76900146100765780637359d77d146100a6575b600080fd5b610060600480360381019061005b91906103de565b6100c4565b60405161006d919061055e565b60405180910390f35b610090600480360381019061008b9190610427565b61011f565b60405161009d919061053c565b60405180910390f35b6100ae6101c9565b6040516100bb919061055e565b60405180910390f35b6000805b603081101561011957600582901b91508281602f6100e691906107ce565b815181106100f7576100f66108cc565b5b602002602001015160ff168217915080806101119061084a565b9150506100c8565b50919050565b60606000603067ffffffffffffffff81111561013e5761013d6108fb565b5b60405190808252806020026020018201604052801561016c5781602001602082028036833780820191505090505b50905060005b60308110156101bf5761018584826102c4565b828281518110610198576101976108cc565b5b602002602001019060ff16908160ff168152505080806101b79061084a565b915050610172565b8192505050919050565b6000807f400000000d185222104421041085108810a4114210c4090c1062280410a508ca905060007f3000000004c442420c4310480c2308c20c6318c60ca318ca0cc3314a0c2308c29050600042838360405160200161022b939291906104ff565b6040516020818303038152906040528051906020012060001c90506000806102528561011f565b9050600061025f8561011f565b90506000603067ffffffffffffffff81111561027e5761027d6108fb565b5b6040519080825280602002602001820160405280156102ac5781602001602082028036833780820191505090505b5090506102b8836100c4565b97505050505050505090565b60006102dd83600580856102d89190610774565b6102e5565b905092915050565b6000808260018560026102f89190610656565b61030291906107ce565b901b905082818616901c9150509392505050565b60006103296103248461059e565b610579565b9050808382526020820190508285602086028201111561034c5761034b61092f565b5b60005b8581101561037c578161036288826103c9565b84526020840193506020830192505060018101905061034f565b5050509392505050565b600082601f83011261039b5761039a61092a565b5b81356103ab848260208601610316565b91505092915050565b6000813590506103c38161095c565b92915050565b6000813590506103d881610973565b92915050565b6000602082840312156103f4576103f3610939565b5b600082013567ffffffffffffffff81111561041257610411610934565b5b61041e84828501610386565b91505092915050565b60006020828403121561043d5761043c610939565b5b600061044b848285016103b4565b91505092915050565b600061046083836104f0565b60208301905092915050565b6000610477826105da565b61048181856105f2565b935061048c836105ca565b8060005b838110156104bd5781516104a48882610454565b97506104af836105e5565b925050600181019050610490565b5085935050505092915050565b6104d381610802565b82525050565b6104ea6104e582610802565b610893565b82525050565b6104f98161080c565b82525050565b600061050b82866104d9565b60208201915061051b82856104d9565b60208201915061052b82846104d9565b602082019150819050949350505050565b60006020820190508181036000830152610556818461046c565b905092915050565b600060208201905061057360008301846104ca565b92915050565b6000610583610594565b905061058f8282610819565b919050565b6000604051905090565b600067ffffffffffffffff8211156105b9576105b86108fb565b5b602082029050602081019050919050565b6000819050602082019050919050565b600081519050919050565b6000602082019050919050565b600082825260208201905092915050565b6000808291508390505b600185111561064d578086048111156106295761062861089d565b5b60018516156106385780820291505b80810290506106468561094f565b945061060d565b94509492505050565b600061066182610802565b915061066c83610802565b92506106997fffffffffffffffffffffffffffffffffffffffffffffffffffffffffffffffff84846106a1565b905092915050565b6000826106b1576001905061076d565b816106bf576000905061076d565b81600181146106d557600281146106df5761070e565b600191505061076d565b60ff8411156106f1576106f061089d565b5b8360020a9150848211156107085761070761089d565b5b5061076d565b5060208310610133831016604e8410600b84101617156107435782820a90508381111561073e5761073d61089d565b5b61076d565b6107508484846001610603565b925090508184048111156107675761076661089d565b5b81810290505b9392505050565b600061077f82610802565b915061078a83610802565b9250817fffffffffffffffffffffffffffffffffffffffffffffffffffffffffffffffff04831182151516156107c3576107c261089d565b5b828202905092915050565b60006107d982610802565b91506107e483610802565b9250828210156107f7576107f661089d565b5b828203905092915050565b6000819050919050565b600060ff82169050919050565b6108228261093e565b810181811067ffffffffffffffff82111715610841576108406108fb565b5b80604052505050565b600061085582610802565b91507fffffffffffffffffffffffffffffffffffffffffffffffffffffffffffffffff8214156108885761088761089d565b5b600182019050919050565b6000819050919050565b7f4e487b7100000000000000000000000000000000000000000000000000000000600052601160045260246000fd5b7f4e487b7100000000000000000000000000000000000000000000000000000000600052603260045260246000fd5b7f4e487b7100000000000000000000000000000000000000000000000000000000600052604160045260246000fd5b600080fd5b600080fd5b600080fd5b600080fd5b6000601f19601f8301169050919050565b60008160011c9050919050565b61096581610802565b811461097057600080fd5b50565b61097c8161080c565b811461098757600080fd5b5056fea2646970667358221220bdec289cd9d84c58ae44d33156fe87cecc5db959156a245a59bac5ec2aa0fe2f64736f6c63430008060033",
  "immutableReferences": {},
  "source": "// SPDX-License-Identifier: MIT\npragma solidity ^0.8.0;\n\ncontract DragonFarmBreeding {\n    mapping(address => uint) classGenes;\n    \n    \n    function mixGenes() external view returns(uint) {\n        uint _genes1 = 0x400000000d185222104421041085108810a4114210c4090c1062280410a508ca;\n        uint _genes2 = 0x3000000004c442420c4310480c2308c20c6318c60ca318ca0cc3314a0c2308c2;\n        \n        // generate 256 bits of random, using as much entropy as we can from\n        // sources that can't change between calls.\n        uint randomN = uint256(keccak256(abi.encodePacked(block.timestamp, _genes1, _genes2)));\n        uint256 randomIndex = 0;\n        \n        \n        uint8[] memory genes1Array = decode(_genes1);\n        uint8[] memory genes2Array = decode(_genes2);\n        // All traits that will belong to baby\n        uint8[] memory babyArray = new uint8[](48);\n        \n        \n        \n        \n        return encode(genes1Array);\n    }\n    \n    function _get5Bits(uint256 _input, uint256 _slot) internal pure returns(uint8) {\n        return uint8(_sliceNumber(_input, uint256(5), _slot * 5));\n    }\n    \n    /// @dev Given an array of traits return the number that represent genes\n    function encode(uint8[] memory _traits) public pure returns (uint256 _genes) {\n        _genes = 0;\n        for(uint256 i = 0; i < 48; i++) {\n            _genes = _genes << 5;\n            // bitwise OR trait with _genes\n            _genes = _genes | _traits[47 - i];\n        }\n        return _genes;\n    }\n    \n    function decode(uint256 _genes) public pure returns(uint8[] memory) {\n        uint8[] memory traits = new uint8[](48);\n        uint256 i;\n        for(i = 0; i < 48; i++) {\n            traits[i] = _get5Bits(_genes, i);\n        }\n        return traits;\n    }\n    \n     /// @dev given a number get a slice of any bits, at certain offset\n    /// @param _n a number to be sliced\n    /// @param _nbits how many bits long is the new number\n    /// @param _offset how many bits to skip\n    function _sliceNumber(uint256 _n, uint256 _nbits, uint256 _offset) private pure returns (uint256) {\n        // mask is made by shifting left an offset number of times\n        uint256 mask = uint256((2**_nbits) - 1) << _offset;\n        // AND n with mask, and trim to max of _nbits bits\n        return uint256((_n & mask) >> _offset);\n    }\n}",
  "sourcePath": "/home/hieu/Blockchain/dragonfarm/src/contracts/core/erc721/DragonFarmBreeding.sol",
  "compiler": {
    "name": "solc",
    "version": "0.8.6+commit.11564f7e.Emscripten.clang"
  },
  "schemaVersion": "3.4.2",
  "updatedAt": "2021-08-10T02:12:18.516Z",
  "devdoc": {
    "kind": "dev",
    "methods": {
      "encode(uint8[])": {
        "details": "Given an array of traits return the number that represent genes"
      }
    },
    "version": 1
  },
  "userdoc": {
    "kind": "user",
    "methods": {},
    "version": 1
  }
}