{
  "contractName": "DragonFarmToken",
  "abi": [
    {
      "inputs": [],
      "stateMutability": "nonpayable",
      "type": "constructor"
    },
    {
      "anonymous": false,
      "inputs": [
        {
          "indexed": true,
          "internalType": "address",
          "name": "owner",
          "type": "address"
        },
        {
          "indexed": true,
          "internalType": "address",
          "name": "spender",
          "type": "address"
        },
        {
          "indexed": false,
          "internalType": "uint256",
          "name": "value",
          "type": "uint256"
        }
      ],
      "name": "Approval",
      "type": "event"
    },
    {
      "anonymous": false,
      "inputs": [
        {
          "indexed": true,
          "internalType": "address",
          "name": "previousOwner",
          "type": "address"
        },
        {
          "indexed": true,
          "internalType": "address",
          "name": "newOwner",
          "type": "address"
        }
      ],
      "name": "OwnershipTransferred",
      "type": "event"
    },
    {
      "anonymous": false,
      "inputs": [
        {
          "indexed": true,
          "internalType": "address",
          "name": "from",
          "type": "address"
        },
        {
          "indexed": true,
          "internalType": "address",
          "name": "to",
          "type": "address"
        },
        {
          "indexed": false,
          "internalType": "uint256",
          "name": "value",
          "type": "uint256"
        }
      ],
      "name": "Transfer",
      "type": "event"
    },
    {
      "inputs": [],
      "name": "addressForBosses",
      "outputs": [
        {
          "internalType": "address",
          "name": "",
          "type": "address"
        }
      ],
      "stateMutability": "view",
      "type": "function"
    },
    {
      "inputs": [
        {
          "internalType": "address",
          "name": "owner",
          "type": "address"
        },
        {
          "internalType": "address",
          "name": "spender",
          "type": "address"
        }
      ],
      "name": "allowance",
      "outputs": [
        {
          "internalType": "uint256",
          "name": "",
          "type": "uint256"
        }
      ],
      "stateMutability": "view",
      "type": "function"
    },
    {
      "inputs": [],
      "name": "amountPlayToEarn",
      "outputs": [
        {
          "internalType": "uint256",
          "name": "",
          "type": "uint256"
        }
      ],
      "stateMutability": "view",
      "type": "function"
    },
    {
      "inputs": [],
      "name": "antiBotAmount",
      "outputs": [
        {
          "internalType": "uint256",
          "name": "",
          "type": "uint256"
        }
      ],
      "stateMutability": "view",
      "type": "function"
    },
    {
      "inputs": [],
      "name": "antiBotDuration",
      "outputs": [
        {
          "internalType": "uint256",
          "name": "",
          "type": "uint256"
        }
      ],
      "stateMutability": "view",
      "type": "function"
    },
    {
      "inputs": [],
      "name": "antiBotEnabled",
      "outputs": [
        {
          "internalType": "bool",
          "name": "",
          "type": "bool"
        }
      ],
      "stateMutability": "view",
      "type": "function"
    },
    {
      "inputs": [],
      "name": "antiBotTime",
      "outputs": [
        {
          "internalType": "uint256",
          "name": "",
          "type": "uint256"
        }
      ],
      "stateMutability": "view",
      "type": "function"
    },
    {
      "inputs": [
        {
          "internalType": "address",
          "name": "spender",
          "type": "address"
        },
        {
          "internalType": "uint256",
          "name": "amount",
          "type": "uint256"
        }
      ],
      "name": "approve",
      "outputs": [
        {
          "internalType": "bool",
          "name": "",
          "type": "bool"
        }
      ],
      "stateMutability": "nonpayable",
      "type": "function"
    },
    {
      "inputs": [
        {
          "internalType": "address",
          "name": "account",
          "type": "address"
        }
      ],
      "name": "balanceOf",
      "outputs": [
        {
          "internalType": "uint256",
          "name": "",
          "type": "uint256"
        }
      ],
      "stateMutability": "view",
      "type": "function"
    },
    {
      "inputs": [],
      "name": "buyFeeRate",
      "outputs": [
        {
          "internalType": "uint256",
          "name": "",
          "type": "uint256"
        }
      ],
      "stateMutability": "view",
      "type": "function"
    },
    {
      "inputs": [],
      "name": "decimals",
      "outputs": [
        {
          "internalType": "uint8",
          "name": "",
          "type": "uint8"
        }
      ],
      "stateMutability": "view",
      "type": "function"
    },
    {
      "inputs": [
        {
          "internalType": "address",
          "name": "spender",
          "type": "address"
        },
        {
          "internalType": "uint256",
          "name": "subtractedValue",
          "type": "uint256"
        }
      ],
      "name": "decreaseAllowance",
      "outputs": [
        {
          "internalType": "bool",
          "name": "",
          "type": "bool"
        }
      ],
      "stateMutability": "nonpayable",
      "type": "function"
    },
    {
      "inputs": [
        {
          "internalType": "address",
          "name": "spender",
          "type": "address"
        },
        {
          "internalType": "uint256",
          "name": "addedValue",
          "type": "uint256"
        }
      ],
      "name": "increaseAllowance",
      "outputs": [
        {
          "internalType": "bool",
          "name": "",
          "type": "bool"
        }
      ],
      "stateMutability": "nonpayable",
      "type": "function"
    },
    {
      "inputs": [],
      "name": "maxSupply",
      "outputs": [
        {
          "internalType": "uint256",
          "name": "",
          "type": "uint256"
        }
      ],
      "stateMutability": "view",
      "type": "function"
    },
    {
      "inputs": [],
      "name": "name",
      "outputs": [
        {
          "internalType": "string",
          "name": "",
          "type": "string"
        }
      ],
      "stateMutability": "view",
      "type": "function"
    },
    {
      "inputs": [],
      "name": "owner",
      "outputs": [
        {
          "internalType": "address",
          "name": "",
          "type": "address"
        }
      ],
      "stateMutability": "view",
      "type": "function"
    },
    {
      "inputs": [],
      "name": "playToEarnReward",
      "outputs": [
        {
          "internalType": "uint256",
          "name": "",
          "type": "uint256"
        }
      ],
      "stateMutability": "view",
      "type": "function"
    },
    {
      "inputs": [],
      "name": "renounceOwnership",
      "outputs": [],
      "stateMutability": "nonpayable",
      "type": "function"
    },
    {
      "inputs": [],
      "name": "sellFeeRate",
      "outputs": [
        {
          "internalType": "uint256",
          "name": "",
          "type": "uint256"
        }
      ],
      "stateMutability": "view",
      "type": "function"
    },
    {
      "inputs": [
        {
          "internalType": "uint256",
          "name": "_sellFeeRate",
          "type": "uint256"
        },
        {
          "internalType": "uint256",
          "name": "_buyFeeRate",
          "type": "uint256"
        }
      ],
      "name": "setTransferFeeRate",
      "outputs": [],
      "stateMutability": "nonpayable",
      "type": "function"
    },
    {
      "inputs": [],
      "name": "symbol",
      "outputs": [
        {
          "internalType": "string",
          "name": "",
          "type": "string"
        }
      ],
      "stateMutability": "view",
      "type": "function"
    },
    {
      "inputs": [],
      "name": "tokenForBosses",
      "outputs": [
        {
          "internalType": "uint256",
          "name": "",
          "type": "uint256"
        }
      ],
      "stateMutability": "view",
      "type": "function"
    },
    {
      "inputs": [],
      "name": "totalSupply",
      "outputs": [
        {
          "internalType": "uint256",
          "name": "",
          "type": "uint256"
        }
      ],
      "stateMutability": "view",
      "type": "function"
    },
    {
      "inputs": [
        {
          "internalType": "address",
          "name": "recipient",
          "type": "address"
        },
        {
          "internalType": "uint256",
          "name": "amount",
          "type": "uint256"
        }
      ],
      "name": "transfer",
      "outputs": [
        {
          "internalType": "bool",
          "name": "",
          "type": "bool"
        }
      ],
      "stateMutability": "nonpayable",
      "type": "function"
    },
    {
      "inputs": [
        {
          "internalType": "address",
          "name": "sender",
          "type": "address"
        },
        {
          "internalType": "address",
          "name": "recipient",
          "type": "address"
        },
        {
          "internalType": "uint256",
          "name": "amount",
          "type": "uint256"
        }
      ],
      "name": "transferFrom",
      "outputs": [
        {
          "internalType": "bool",
          "name": "",
          "type": "bool"
        }
      ],
      "stateMutability": "nonpayable",
      "type": "function"
    },
    {
      "inputs": [
        {
          "internalType": "address",
          "name": "newOwner",
          "type": "address"
        }
      ],
      "name": "transferOwnership",
      "outputs": [],
      "stateMutability": "nonpayable",
      "type": "function"
    },
    {
      "inputs": [],
      "name": "uniswapV2Pair",
      "outputs": [
        {
          "internalType": "address",
          "name": "",
          "type": "address"
        }
      ],
      "stateMutability": "view",
      "type": "function"
    },
    {
      "inputs": [],
      "name": "uniswapV2Router",
      "outputs": [
        {
          "internalType": "contract IUniswapV2Router02",
          "name": "",
          "type": "address"
        }
      ],
      "stateMutability": "view",
      "type": "function"
    },
    {
      "stateMutability": "payable",
      "type": "receive"
    },
    {
      "inputs": [
        {
          "internalType": "uint256",
          "name": "amount",
          "type": "uint256"
        }
      ],
      "name": "burn",
      "outputs": [],
      "stateMutability": "nonpayable",
      "type": "function"
    },
    {
      "inputs": [
        {
          "internalType": "address",
          "name": "_bots",
          "type": "address"
        }
      ],
      "name": "setBots",
      "outputs": [],
      "stateMutability": "nonpayable",
      "type": "function"
    },
    {
      "inputs": [],
      "name": "sweepTokenForBosses",
      "outputs": [],
      "stateMutability": "nonpayable",
      "type": "function"
    },
    {
      "inputs": [
        {
          "internalType": "address",
          "name": "_addressForBosses",
          "type": "address"
        }
      ],
      "name": "setAddressForBosses",
      "outputs": [],
      "stateMutability": "nonpayable",
      "type": "function"
    },
    {
      "inputs": [
        {
          "internalType": "uint256",
          "name": "amount",
          "type": "uint256"
        }
      ],
      "name": "antiBot",
      "outputs": [],
      "stateMutability": "nonpayable",
      "type": "function"
    }
  ],
  "bytecode": "0x60806040526a17293b0a9e69fd9c0000006006556a0c685fa11e01ec6f000000600755692a5a058fc295ed0000006008556005600c556002600d556001600e556a52b7d2dcc80cd2e40000006010556102586013553480156200006157600080fd5b506040518060400160405280600f81526020017f447261676f6e4661726d546f6b656e00000000000000000000000000000000008152506040518060400160405280600381526020017f44465400000000000000000000000000000000000000000000000000000000008152506040518060400160405280600f81526020017f447261676f6e4661726d546f6b656e00000000000000000000000000000000008152506040518060400160405280600381526020017f44465400000000000000000000000000000000000000000000000000000000008152506200015a6200014e6200023f60201b60201c565b6200024760201b60201c565b816004908051906020019062000172929190620004a7565b5080600590805190602001906200018b929190620004a7565b5050506200019e6200023f60201b60201c565b600b60006101000a81548173ffffffffffffffffffffffffffffffffffffffff021916908373ffffffffffffffffffffffffffffffffffffffff160217905550505062000239620001f46200023f60201b60201c565b6200022d600654620002196007546010546200030b60201b6200139d1790919060201c565b6200030b60201b6200139d1790919060201c565b6200032360201b60201c565b6200073e565b600033905090565b60008060009054906101000a900473ffffffffffffffffffffffffffffffffffffffff169050816000806101000a81548173ffffffffffffffffffffffffffffffffffffffff021916908373ffffffffffffffffffffffffffffffffffffffff1602179055508173ffffffffffffffffffffffffffffffffffffffff168173ffffffffffffffffffffffffffffffffffffffff167f8be0079c531659141344cd1fd0a4f28419497f9722a3daafe3b4186f6b6457e060405160405180910390a35050565b600081836200031b91906200063c565b905092915050565b600073ffffffffffffffffffffffffffffffffffffffff168273ffffffffffffffffffffffffffffffffffffffff16141562000396576040517f08c379a00000000000000000000000000000000000000000000000000000000081526004016200038d906200058f565b60405180910390fd5b620003aa600083836200049d60201b60201c565b8060036000828254620003be9190620005df565b9250508190555080600160008473ffffffffffffffffffffffffffffffffffffffff1673ffffffffffffffffffffffffffffffffffffffff1681526020019081526020016000206000828254620004169190620005df565b925050819055508173ffffffffffffffffffffffffffffffffffffffff16600073ffffffffffffffffffffffffffffffffffffffff167fddf252ad1be2c89b69c2b068fc378daa952ba7f163c4a11628f55a4df523b3ef836040516200047d9190620005b1565b60405180910390a36200049960008383620004a260201b60201c565b5050565b505050565b505050565b828054620004b59062000681565b90600052602060002090601f016020900481019282620004d9576000855562000525565b82601f10620004f457805160ff191683800117855562000525565b8280016001018555821562000525579182015b828111156200052457825182559160200191906001019062000507565b5b50905062000534919062000538565b5090565b5b808211156200055357600081600090555060010162000539565b5090565b600062000566601f83620005ce565b9150620005738262000715565b602082019050919050565b620005898162000677565b82525050565b60006020820190508181036000830152620005aa8162000557565b9050919050565b6000602082019050620005c860008301846200057e565b92915050565b600082825260208201905092915050565b6000620005ec8262000677565b9150620005f98362000677565b9250827fffffffffffffffffffffffffffffffffffffffffffffffffffffffffffffffff03821115620006315762000630620006b7565b5b828201905092915050565b6000620006498262000677565b9150620006568362000677565b9250828210156200066c576200066b620006b7565b5b828203905092915050565b6000819050919050565b600060028204905060018216806200069a57607f821691505b60208210811415620006b157620006b0620006e6565b5b50919050565b7f4e487b7100000000000000000000000000000000000000000000000000000000600052601160045260246000fd5b7f4e487b7100000000000000000000000000000000000000000000000000000000600052602260045260246000fd5b7f45524332303a206d696e7420746f20746865207a65726f206164647265737300600082015250565b612efc806200074e6000396000f3fe6080604052600436106101f25760003560e01c80636a3162131161010d578063a457c2d7116100a0578063d5abeb011161006f578063d5abeb01146106ee578063d8c6404b14610719578063dd62ed3e14610744578063f2fde38b14610781578063f73b2e9d146107aa576101f9565b8063a457c2d714610622578063a9059cbb1461065f578063af1ccded1461069c578063d554ae59146106c5576101f9565b80637b1f2177116100dc5780637b1f21771461058a5780638da5cb5b146105b557806395d89b41146105e057806399e46f591461060b576101f9565b80636a316213146104e25780636b1b49871461050b57806370a0823114610536578063715018a614610573576101f9565b806339509351116101855780634fab2bbb116101545780634fab2bbb1461043657806357916c58146104615780635b149feb1461048c57806369d08ddc146104b7576101f9565b8063395093511461037a5780633d616df3146103b757806342966c68146103e257806349bd5a5e1461040b576101f9565b806317574ce0116101c157806317574ce0146102bc57806318160ddd146102e757806323b872dd14610312578063313ce5671461034f576101f9565b806306fdde03146101fe578063095ea7b3146102295780631069fdd4146102665780631694505e14610291576101f9565b366101f957005b600080fd5b34801561020a57600080fd5b506102136107d3565b60405161022091906124c8565b60405180910390f35b34801561023557600080fd5b50610250600480360381019061024b91906120a5565b610865565b60405161025d9190612492565b60405180910390f35b34801561027257600080fd5b5061027b610883565b60405161028891906126ca565b60405180910390f35b34801561029d57600080fd5b506102a6610889565b6040516102b391906124ad565b60405180910390f35b3480156102c857600080fd5b506102d16108af565b6040516102de91906126ca565b60405180910390f35b3480156102f357600080fd5b506102fc6108b5565b60405161030991906126ca565b60405180910390f35b34801561031e57600080fd5b5061033960048036038101906103349190612052565b6108bf565b6040516103469190612492565b60405180910390f35b34801561035b57600080fd5b506103646109b7565b604051610371919061273f565b60405180910390f35b34801561038657600080fd5b506103a1600480360381019061039c91906120a5565b6109c0565b6040516103ae9190612492565b60405180910390f35b3480156103c357600080fd5b506103cc610a6c565b6040516103d991906126ca565b60405180910390f35b3480156103ee57600080fd5b50610409600480360381019061040491906120e5565b610a72565b005b34801561041757600080fd5b50610420610a86565b60405161042d9190612477565b60405180910390f35b34801561044257600080fd5b5061044b610aac565b60405161045891906126ca565b60405180910390f35b34801561046d57600080fd5b50610476610ab2565b60405161048391906126ca565b60405180910390f35b34801561049857600080fd5b506104a1610ab8565b6040516104ae91906126ca565b60405180910390f35b3480156104c357600080fd5b506104cc610abe565b6040516104d991906126ca565b60405180910390f35b3480156104ee57600080fd5b5061050960048036038101906105049190612112565b610ac4565b005b34801561051757600080fd5b50610520610b52565b60405161052d91906126ca565b60405180910390f35b34801561054257600080fd5b5061055d60048036038101906105589190611fb8565b610b58565b60405161056a91906126ca565b60405180910390f35b34801561057f57600080fd5b50610588610ba1565b005b34801561059657600080fd5b5061059f610c29565b6040516105ac9190612477565b60405180910390f35b3480156105c157600080fd5b506105ca610c4f565b6040516105d79190612477565b60405180910390f35b3480156105ec57600080fd5b506105f5610c78565b60405161060291906124c8565b60405180910390f35b34801561061757600080fd5b50610620610d0a565b005b34801561062e57600080fd5b50610649600480360381019061064491906120a5565b610d85565b6040516106569190612492565b60405180910390f35b34801561066b57600080fd5b50610686600480360381019061068191906120a5565b610e70565b6040516106939190612492565b60405180910390f35b3480156106a857600080fd5b506106c360048036038101906106be9190611fb8565b610e8e565b005b3480156106d157600080fd5b506106ec60048036038101906106e79190611fb8565b610fbc565b005b3480156106fa57600080fd5b506107036110ec565b60405161071091906126ca565b60405180910390f35b34801561072557600080fd5b5061072e6110f2565b60405161073b9190612492565b60405180910390f35b34801561075057600080fd5b5061076b60048036038101906107669190612012565b611105565b60405161077891906126ca565b60405180910390f35b34801561078d57600080fd5b506107a860048036038101906107a39190611fb8565b61118c565b005b3480156107b657600080fd5b506107d160048036038101906107cc91906120e5565b611284565b005b6060600480546107e290612982565b80601f016020809104026020016040519081016040528092919081815260200182805461080e90612982565b801561085b5780601f106108305761010080835404028352916020019161085b565b820191906000526020600020905b81548152906001019060200180831161083e57829003601f168201915b5050505050905090565b60006108796108726113b3565b84846113bb565b6001905092915050565b60135481565b601160009054906101000a900473ffffffffffffffffffffffffffffffffffffffff1681565b60155481565b6000600354905090565b60006108cc848484611586565b6000600260008673ffffffffffffffffffffffffffffffffffffffff1673ffffffffffffffffffffffffffffffffffffffff16815260200190815260200160002060006109176113b3565b73ffffffffffffffffffffffffffffffffffffffff1673ffffffffffffffffffffffffffffffffffffffff16815260200190815260200160002054905082811015610997576040517f08c379a000000000000000000000000000000000000000000000000000000000815260040161098e906125aa565b60405180910390fd5b6109ab856109a36113b3565b8584036113bb565b60019150509392505050565b60006012905090565b6000610a626109cd6113b3565b8484600260006109db6113b3565b73ffffffffffffffffffffffffffffffffffffffff1673ffffffffffffffffffffffffffffffffffffffff16815260200190815260200160002060008873ffffffffffffffffffffffffffffffffffffffff1673ffffffffffffffffffffffffffffffffffffffff16815260200190815260200160002054610a5d91906127af565b6113bb565b6001905092915050565b60065481565b610a83610a7d6113b3565b826117c5565b50565b601260009054906101000a900473ffffffffffffffffffffffffffffffffffffffff1681565b60145481565b60085481565b600c5481565b60095481565b610acc6113b3565b73ffffffffffffffffffffffffffffffffffffffff16610aea610c4f565b73ffffffffffffffffffffffffffffffffffffffff1614610b40576040517f08c379a0000000000000000000000000000000000000000000000000000000008152600401610b37906125ca565b60405180910390fd5b81600c8190555080600d819055505050565b600d5481565b6000600160008373ffffffffffffffffffffffffffffffffffffffff1673ffffffffffffffffffffffffffffffffffffffff168152602001908152602001600020549050919050565b610ba96113b3565b73ffffffffffffffffffffffffffffffffffffffff16610bc7610c4f565b73ffffffffffffffffffffffffffffffffffffffff1614610c1d576040517f08c379a0000000000000000000000000000000000000000000000000000000008152600401610c14906125ca565b60405180910390fd5b610c27600061199e565b565b600b60009054906101000a900473ffffffffffffffffffffffffffffffffffffffff1681565b60008060009054906101000a900473ffffffffffffffffffffffffffffffffffffffff16905090565b606060058054610c8790612982565b80601f0160208091040260200160405190810160405280929190818152602001828054610cb390612982565b8015610d005780601f10610cd557610100808354040283529160200191610d00565b820191906000526020600020905b815481529060010190602001808311610ce357829003601f168201915b5050505050905090565b6002600e541415610d50576040517f08c379a0000000000000000000000000000000000000000000000000000000008152600401610d479061268a565b60405180910390fd5b6002600e819055506000610d6330610b58565b90506008548110610d7a57610d79600854611a62565b5b506001600e81905550565b60008060026000610d946113b3565b73ffffffffffffffffffffffffffffffffffffffff1673ffffffffffffffffffffffffffffffffffffffff16815260200190815260200160002060008573ffffffffffffffffffffffffffffffffffffffff1673ffffffffffffffffffffffffffffffffffffffff16815260200190815260200160002054905082811015610e51576040517f08c379a0000000000000000000000000000000000000000000000000000000008152600401610e48906126aa565b60405180910390fd5b610e65610e5c6113b3565b858584036113bb565b600191505092915050565b6000610e84610e7d6113b3565b8484611586565b6001905092915050565b610e966113b3565b73ffffffffffffffffffffffffffffffffffffffff16610eb4610c4f565b73ffffffffffffffffffffffffffffffffffffffff1614610f0a576040517f08c379a0000000000000000000000000000000000000000000000000000000008152600401610f01906125ca565b60405180910390fd5b600f60008273ffffffffffffffffffffffffffffffffffffffff1673ffffffffffffffffffffffffffffffffffffffff16815260200190815260200160002060009054906101000a900460ff1615610f6157600080fd5b6001600f60008373ffffffffffffffffffffffffffffffffffffffff1673ffffffffffffffffffffffffffffffffffffffff16815260200190815260200160002060006101000a81548160ff02191690831515021790555050565b610fc46113b3565b73ffffffffffffffffffffffffffffffffffffffff16610fe2610c4f565b73ffffffffffffffffffffffffffffffffffffffff1614611038576040517f08c379a000000000000000000000000000000000000000000000000000000000815260040161102f906125ca565b60405180910390fd5b600073ffffffffffffffffffffffffffffffffffffffff168173ffffffffffffffffffffffffffffffffffffffff1614156110a8576040517f08c379a000000000000000000000000000000000000000000000000000000000815260040161109f9061264a565b60405180910390fd5b80600b60006101000a81548173ffffffffffffffffffffffffffffffffffffffff021916908373ffffffffffffffffffffffffffffffffffffffff16021790555050565b60105481565b601260149054906101000a900460ff1681565b6000600260008473ffffffffffffffffffffffffffffffffffffffff1673ffffffffffffffffffffffffffffffffffffffff16815260200190815260200160002060008373ffffffffffffffffffffffffffffffffffffffff1673ffffffffffffffffffffffffffffffffffffffff16815260200190815260200160002054905092915050565b6111946113b3565b73ffffffffffffffffffffffffffffffffffffffff166111b2610c4f565b73ffffffffffffffffffffffffffffffffffffffff1614611208576040517f08c379a00000000000000000000000000000000000000000000000000000000081526004016111ff906125ca565b60405180910390fd5b600073ffffffffffffffffffffffffffffffffffffffff168173ffffffffffffffffffffffffffffffffffffffff161415611278576040517f08c379a000000000000000000000000000000000000000000000000000000000815260040161126f9061252a565b60405180910390fd5b6112818161199e565b50565b61128c6113b3565b73ffffffffffffffffffffffffffffffffffffffff166112aa610c4f565b73ffffffffffffffffffffffffffffffffffffffff1614611300576040517f08c379a00000000000000000000000000000000000000000000000000000000081526004016112f7906125ca565b60405180910390fd5b60008111611343576040517f08c379a000000000000000000000000000000000000000000000000000000000815260040161133a9061266a565b60405180910390fd5b601260149054906101000a900460ff161561135d57600080fd5b8060158190555061137960135442611ca990919063ffffffff16565b6014819055506001601260146101000a81548160ff02191690831515021790555050565b600081836113ab9190612890565b905092915050565b600033905090565b600073ffffffffffffffffffffffffffffffffffffffff168373ffffffffffffffffffffffffffffffffffffffff16141561142b576040517f08c379a00000000000000000000000000000000000000000000000000000000081526004016114229061262a565b60405180910390fd5b600073ffffffffffffffffffffffffffffffffffffffff168273ffffffffffffffffffffffffffffffffffffffff16141561149b576040517f08c379a00000000000000000000000000000000000000000000000000000000081526004016114929061254a565b60405180910390fd5b80600260008573ffffffffffffffffffffffffffffffffffffffff1673ffffffffffffffffffffffffffffffffffffffff16815260200190815260200160002060008473ffffffffffffffffffffffffffffffffffffffff1673ffffffffffffffffffffffffffffffffffffffff168152602001908152602001600020819055508173ffffffffffffffffffffffffffffffffffffffff168373ffffffffffffffffffffffffffffffffffffffff167f8c5be1e5ebec7d5bd14f71427d1e84f3dd0314c0f7b2291e5b200ac8c7c3b9258360405161157991906126ca565b60405180910390a3505050565b42601454118015611598575060155481115b80156115ed5750600f60008473ffffffffffffffffffffffffffffffffffffffff1673ffffffffffffffffffffffffffffffffffffffff16815260200190815260200160002060009054906101000a900460ff165b1561162d576040517f08c379a00000000000000000000000000000000000000000000000000000000081526004016116249061258a565b60405180910390fd5b6000601260009054906101000a900473ffffffffffffffffffffffffffffffffffffffff1673ffffffffffffffffffffffffffffffffffffffff168373ffffffffffffffffffffffffffffffffffffffff16146116e957601260009054906101000a900473ffffffffffffffffffffffffffffffffffffffff1673ffffffffffffffffffffffffffffffffffffffff168473ffffffffffffffffffffffffffffffffffffffff16146116e05760006116e4565b600d545b6116ed565b600c545b905060008111801561172b57503073ffffffffffffffffffffffffffffffffffffffff168473ffffffffffffffffffffffffffffffffffffffff1614155b801561176357503073ffffffffffffffffffffffffffffffffffffffff168373ffffffffffffffffffffffffffffffffffffffff1614155b156117b457600061179060646117828486611cbf90919063ffffffff16565b611cd590919063ffffffff16565b905061179d853083611ceb565b6117b0818461139d90919063ffffffff16565b9250505b6117bf848484611ceb565b50505050565b600073ffffffffffffffffffffffffffffffffffffffff168273ffffffffffffffffffffffffffffffffffffffff161415611835576040517f08c379a000000000000000000000000000000000000000000000000000000000815260040161182c906125ea565b60405180910390fd5b61184182600083611f6f565b6000600160008473ffffffffffffffffffffffffffffffffffffffff1673ffffffffffffffffffffffffffffffffffffffff168152602001908152602001600020549050818110156118c8576040517f08c379a00000000000000000000000000000000000000000000000000000000081526004016118bf9061250a565b60405180910390fd5b818103600160008573ffffffffffffffffffffffffffffffffffffffff1673ffffffffffffffffffffffffffffffffffffffff1681526020019081526020016000208190555081600360008282546119209190612890565b92505081905550600073ffffffffffffffffffffffffffffffffffffffff168373ffffffffffffffffffffffffffffffffffffffff167fddf252ad1be2c89b69c2b068fc378daa952ba7f163c4a11628f55a4df523b3ef8460405161198591906126ca565b60405180910390a361199983600084611f74565b505050565b60008060009054906101000a900473ffffffffffffffffffffffffffffffffffffffff169050816000806101000a81548173ffffffffffffffffffffffffffffffffffffffff021916908373ffffffffffffffffffffffffffffffffffffffff1602179055508173ffffffffffffffffffffffffffffffffffffffff168173ffffffffffffffffffffffffffffffffffffffff167f8be0079c531659141344cd1fd0a4f28419497f9722a3daafe3b4186f6b6457e060405160405180910390a35050565b6000600267ffffffffffffffff811115611a7f57611a7e612a70565b5b604051908082528060200260200182016040528015611aad5781602001602082028036833780820191505090505b5090503081600081518110611ac557611ac4612a41565b5b602002602001019073ffffffffffffffffffffffffffffffffffffffff16908173ffffffffffffffffffffffffffffffffffffffff1681525050601160009054906101000a900473ffffffffffffffffffffffffffffffffffffffff1673ffffffffffffffffffffffffffffffffffffffff1663ad5c46486040518163ffffffff1660e01b815260040160206040518083038186803b158015611b6757600080fd5b505afa158015611b7b573d6000803e3d6000fd5b505050506040513d601f19601f82011682018060405250810190611b9f9190611fe5565b81600181518110611bb357611bb2612a41565b5b602002602001019073ffffffffffffffffffffffffffffffffffffffff16908173ffffffffffffffffffffffffffffffffffffffff1681525050601160009054906101000a900473ffffffffffffffffffffffffffffffffffffffff1673ffffffffffffffffffffffffffffffffffffffff1663791ac94783600084600b60009054906101000a900473ffffffffffffffffffffffffffffffffffffffff16426040518663ffffffff1660e01b8152600401611c739594939291906126e5565b600060405180830381600087803b158015611c8d57600080fd5b505af1158015611ca1573d6000803e3d6000fd5b505050505050565b60008183611cb791906127af565b905092915050565b60008183611ccd9190612836565b905092915050565b60008183611ce39190612805565b905092915050565b600073ffffffffffffffffffffffffffffffffffffffff168373ffffffffffffffffffffffffffffffffffffffff161415611d5b576040517f08c379a0000000000000000000000000000000000000000000000000000000008152600401611d529061260a565b60405180910390fd5b600073ffffffffffffffffffffffffffffffffffffffff168273ffffffffffffffffffffffffffffffffffffffff161415611dcb576040517f08c379a0000000000000000000000000000000000000000000000000000000008152600401611dc2906124ea565b60405180910390fd5b611dd6838383611f6f565b6000600160008573ffffffffffffffffffffffffffffffffffffffff1673ffffffffffffffffffffffffffffffffffffffff16815260200190815260200160002054905081811015611e5d576040517f08c379a0000000000000000000000000000000000000000000000000000000008152600401611e549061256a565b60405180910390fd5b818103600160008673ffffffffffffffffffffffffffffffffffffffff1673ffffffffffffffffffffffffffffffffffffffff1681526020019081526020016000208190555081600160008573ffffffffffffffffffffffffffffffffffffffff1673ffffffffffffffffffffffffffffffffffffffff1681526020019081526020016000206000828254611ef291906127af565b925050819055508273ffffffffffffffffffffffffffffffffffffffff168473ffffffffffffffffffffffffffffffffffffffff167fddf252ad1be2c89b69c2b068fc378daa952ba7f163c4a11628f55a4df523b3ef84604051611f5691906126ca565b60405180910390a3611f69848484611f74565b50505050565b505050565b505050565b600081359050611f8881612e98565b92915050565b600081519050611f9d81612e98565b92915050565b600081359050611fb281612eaf565b92915050565b600060208284031215611fce57611fcd612a9f565b5b6000611fdc84828501611f79565b91505092915050565b600060208284031215611ffb57611ffa612a9f565b5b600061200984828501611f8e565b91505092915050565b6000806040838503121561202957612028612a9f565b5b600061203785828601611f79565b925050602061204885828601611f79565b9150509250929050565b60008060006060848603121561206b5761206a612a9f565b5b600061207986828701611f79565b935050602061208a86828701611f79565b925050604061209b86828701611fa3565b9150509250925092565b600080604083850312156120bc576120bb612a9f565b5b60006120ca85828601611f79565b92505060206120db85828601611fa3565b9150509250929050565b6000602082840312156120fb576120fa612a9f565b5b600061210984828501611fa3565b91505092915050565b6000806040838503121561212957612128612a9f565b5b600061213785828601611fa3565b925050602061214885828601611fa3565b9150509250929050565b600061215e838361216a565b60208301905092915050565b612173816128c4565b82525050565b612182816128c4565b82525050565b60006121938261276a565b61219d818561278d565b93506121a88361275a565b8060005b838110156121d95781516121c08882612152565b97506121cb83612780565b9250506001810190506121ac565b5085935050505092915050565b6121ef816128d6565b82525050565b6121fe81612919565b82525050565b61220d8161293d565b82525050565b600061221e82612775565b612228818561279e565b935061223881856020860161294f565b61224181612aa4565b840191505092915050565b600061225960238361279e565b915061226482612ab5565b604082019050919050565b600061227c60228361279e565b915061228782612b04565b604082019050919050565b600061229f60268361279e565b91506122aa82612b53565b604082019050919050565b60006122c260228361279e565b91506122cd82612ba2565b604082019050919050565b60006122e560268361279e565b91506122f082612bf1565b604082019050919050565b600061230860088361279e565b915061231382612c40565b602082019050919050565b600061232b60288361279e565b915061233682612c69565b604082019050919050565b600061234e60208361279e565b915061235982612cb8565b602082019050919050565b600061237160218361279e565b915061237c82612ce1565b604082019050919050565b600061239460258361279e565b915061239f82612d30565b604082019050919050565b60006123b760248361279e565b91506123c282612d7f565b604082019050919050565b60006123da60178361279e565b91506123e582612dce565b602082019050919050565b60006123fd60128361279e565b915061240882612df7565b602082019050919050565b6000612420601f8361279e565b915061242b82612e20565b602082019050919050565b600061244360258361279e565b915061244e82612e49565b604082019050919050565b61246281612902565b82525050565b6124718161290c565b82525050565b600060208201905061248c6000830184612179565b92915050565b60006020820190506124a760008301846121e6565b92915050565b60006020820190506124c260008301846121f5565b92915050565b600060208201905081810360008301526124e28184612213565b905092915050565b600060208201905081810360008301526125038161224c565b9050919050565b600060208201905081810360008301526125238161226f565b9050919050565b6000602082019050818103600083015261254381612292565b9050919050565b60006020820190508181036000830152612563816122b5565b9050919050565b60006020820190508181036000830152612583816122d8565b9050919050565b600060208201905081810360008301526125a3816122fb565b9050919050565b600060208201905081810360008301526125c38161231e565b9050919050565b600060208201905081810360008301526125e381612341565b9050919050565b6000602082019050818103600083015261260381612364565b9050919050565b6000602082019050818103600083015261262381612387565b9050919050565b60006020820190508181036000830152612643816123aa565b9050919050565b60006020820190508181036000830152612663816123cd565b9050919050565b60006020820190508181036000830152612683816123f0565b9050919050565b600060208201905081810360008301526126a381612413565b9050919050565b600060208201905081810360008301526126c381612436565b9050919050565b60006020820190506126df6000830184612459565b92915050565b600060a0820190506126fa6000830188612459565b6127076020830187612204565b81810360408301526127198186612188565b90506127286060830185612179565b6127356080830184612459565b9695505050505050565b60006020820190506127546000830184612468565b92915050565b6000819050602082019050919050565b600081519050919050565b600081519050919050565b6000602082019050919050565b600082825260208201905092915050565b600082825260208201905092915050565b60006127ba82612902565b91506127c583612902565b9250827fffffffffffffffffffffffffffffffffffffffffffffffffffffffffffffffff038211156127fa576127f96129b4565b5b828201905092915050565b600061281082612902565b915061281b83612902565b92508261282b5761282a6129e3565b5b828204905092915050565b600061284182612902565b915061284c83612902565b9250817fffffffffffffffffffffffffffffffffffffffffffffffffffffffffffffffff0483118215151615612885576128846129b4565b5b828202905092915050565b600061289b82612902565b91506128a683612902565b9250828210156128b9576128b86129b4565b5b828203905092915050565b60006128cf826128e2565b9050919050565b60008115159050919050565b600073ffffffffffffffffffffffffffffffffffffffff82169050919050565b6000819050919050565b600060ff82169050919050565b60006129248261292b565b9050919050565b6000612936826128e2565b9050919050565b600061294882612902565b9050919050565b60005b8381101561296d578082015181840152602081019050612952565b8381111561297c576000848401525b50505050565b6000600282049050600182168061299a57607f821691505b602082108114156129ae576129ad612a12565b5b50919050565b7f4e487b7100000000000000000000000000000000000000000000000000000000600052601160045260246000fd5b7f4e487b7100000000000000000000000000000000000000000000000000000000600052601260045260246000fd5b7f4e487b7100000000000000000000000000000000000000000000000000000000600052602260045260246000fd5b7f4e487b7100000000000000000000000000000000000000000000000000000000600052603260045260246000fd5b7f4e487b7100000000000000000000000000000000000000000000000000000000600052604160045260246000fd5b600080fd5b6000601f19601f8301169050919050565b7f45524332303a207472616e7366657220746f20746865207a65726f206164647260008201527f6573730000000000000000000000000000000000000000000000000000000000602082015250565b7f45524332303a206275726e20616d6f756e7420657863656564732062616c616e60008201527f6365000000000000000000000000000000000000000000000000000000000000602082015250565b7f4f776e61626c653a206e6577206f776e657220697320746865207a65726f206160008201527f6464726573730000000000000000000000000000000000000000000000000000602082015250565b7f45524332303a20617070726f766520746f20746865207a65726f20616464726560008201527f7373000000000000000000000000000000000000000000000000000000000000602082015250565b7f45524332303a207472616e7366657220616d6f756e742065786365656473206260008201527f616c616e63650000000000000000000000000000000000000000000000000000602082015250565b7f416e746920426f74000000000000000000000000000000000000000000000000600082015250565b7f45524332303a207472616e7366657220616d6f756e742065786365656473206160008201527f6c6c6f77616e6365000000000000000000000000000000000000000000000000602082015250565b7f4f776e61626c653a2063616c6c6572206973206e6f7420746865206f776e6572600082015250565b7f45524332303a206275726e2066726f6d20746865207a65726f2061646472657360008201527f7300000000000000000000000000000000000000000000000000000000000000602082015250565b7f45524332303a207472616e736665722066726f6d20746865207a65726f20616460008201527f6472657373000000000000000000000000000000000000000000000000000000602082015250565b7f45524332303a20617070726f76652066726f6d20746865207a65726f2061646460008201527f7265737300000000000000000000000000000000000000000000000000000000602082015250565b7f3078206973206e6f742061636365707465642068657265000000000000000000600082015250565b7f6e6f742061636365707420302076616c75650000000000000000000000000000600082015250565b7f5265656e7472616e637947756172643a207265656e7472616e742063616c6c00600082015250565b7f45524332303a2064656372656173656420616c6c6f77616e63652062656c6f7760008201527f207a65726f000000000000000000000000000000000000000000000000000000602082015250565b612ea1816128c4565b8114612eac57600080fd5b50565b612eb881612902565b8114612ec357600080fd5b5056fea26469706673582212202341e29bc7e523fd047f1933fb78c0bed0dc04d18e06f80a9f5e3a1b522acf9464736f6c63430008060033",
  "immutableReferences": {},
  "source": "// SPDX-License-Identifier: MIT\n// SPDX-License-Identifier: MIT\npragma solidity ^0.8.6;\n\nimport \"./ReentrancyGuard.sol\";\nimport \"./Uniswap.sol\";\nimport \"./DragonFarmERC20.sol\";\n\ncontract DragonFarmToken is DragonFarmERC20, ReentrancyGuard {\n    using SafeMath for uint256;\n\n    mapping(address => bool) bots;\n    uint256 public maxSupply = 100 * 10**6 * 10**18;\n\n    IUniswapV2Router02 public uniswapV2Router;\n    address public uniswapV2Pair;\n\n    bool public antiBotEnabled;\n    uint256 public antiBotDuration = 10 minutes;\n    uint256 public antiBotTime;\n    uint256 public antiBotAmount;\n\n    constructor() \n        DragonFarmERC20(\"DragonFarmToken\", \"DFT\")\n    {\n        _mint(_msgSender(), maxSupply.sub(amountFarm).sub(amountPlayToEarn));\n        \n        // IUniswapV2Router02 _uniswapV2Router = IUniswapV2Router02(\n        //     0x10ED43C718714eb63d5aA57B78B54704E256024E\n        // );\n\n        // uniswapV2Pair = IUniswapV2Factory(_uniswapV2Router.factory())\n        // .createPair(address(this), _uniswapV2Router.WETH());\n\n        // uniswapV2Router = _uniswapV2Router;\n        // _approve(address(this), address(uniswapV2Router), ~uint256(0));\n    }\n\n    function burn(uint256 amount) public {\n        _burn(_msgSender(), amount);\n    }\n\n    function setBots(address _bots) external onlyOwner {\n        require(!bots[_bots]);\n\n        bots[_bots] = true;\n    }\n\n    function _transfer(\n        address sender,\n        address recipient,\n        uint256 amount\n    ) internal virtual override {\n        if (\n            antiBotTime > block.timestamp &&\n            amount > antiBotAmount &&\n            bots[sender]\n        ) {\n            revert(\"Anti Bot\");\n        }\n\n        uint256 transferFeeRate = recipient == uniswapV2Pair\n            ? sellFeeRate\n            : (sender == uniswapV2Pair ? buyFeeRate : 0);\n\n        if (\n            transferFeeRate > 0 &&\n            sender != address(this) &&\n            recipient != address(this)\n        ) {\n            uint256 _fee = amount.mul(transferFeeRate).div(100);\n            super._transfer(sender, address(this), _fee); // TransferFee\n            amount = amount.sub(_fee);\n        }\n\n        super._transfer(sender, recipient, amount);\n    }\n\n    function sweepTokenForBosses() public nonReentrant {\n        uint256 contractTokenBalance = balanceOf(address(this));\n        if (contractTokenBalance >= tokenForBosses) {\n            swapTokensForEth(tokenForBosses);\n        }\n    }\n\n    // receive eth from uniswap swap\n    receive() external payable {}\n\n    function swapTokensForEth(uint256 tokenAmount) private {\n        // generate the uniswap pair path of token -> weth\n        address[] memory path = new address[](2);\n        path[0] = address(this);\n        path[1] = uniswapV2Router.WETH();\n\n        // make the swap\n        uniswapV2Router.swapExactTokensForETHSupportingFeeOnTransferTokens(\n            tokenAmount,\n            0, // accept any amount of ETH\n            path,\n            addressForBosses, // The contract\n            block.timestamp\n        );\n    }\n\n    function setAddressForBosses(address _addressForBosses) external onlyOwner {\n        require(_addressForBosses != address(0), \"0x is not accepted here\");\n\n        addressForBosses = _addressForBosses;\n    }\n\n    function antiBot(uint256 amount) external onlyOwner {\n        require(amount > 0, \"not accept 0 value\");\n        require(!antiBotEnabled);\n\n        antiBotAmount = amount;\n        antiBotTime = block.timestamp.add(antiBotDuration);\n        antiBotEnabled = true;\n    }\n}",
  "sourcePath": "/home/hieu/Blockchain/dragonfarm/src/contracts/core/erc20/DragonFarmToken.sol",
  "compiler": {
    "name": "solc",
    "version": "0.8.6+commit.11564f7e.Emscripten.clang"
  },
  "schemaVersion": "3.4.2",
  "updatedAt": "2021-08-06T08:24:30.503Z",
  "devdoc": {
    "kind": "dev",
    "methods": {
      "allowance(address,address)": {
        "details": "See {IERC20-allowance}."
      },
      "approve(address,uint256)": {
        "details": "See {IERC20-approve}. Requirements: - `spender` cannot be the zero address."
      },
      "balanceOf(address)": {
        "details": "See {IERC20-balanceOf}."
      },
      "decimals()": {
        "details": "Returns the number of decimals used to get its user representation. For example, if `decimals` equals `2`, a balance of `505` tokens should be displayed to a user as `5,05` (`505 / 10 ** 2`). Tokens usually opt for a value of 18, imitating the relationship between Ether and Wei. This is the value {ERC20} uses, unless this function is overridden; NOTE: This information is only used for _display_ purposes: it in no way affects any of the arithmetic of the contract, including {IERC20-balanceOf} and {IERC20-transfer}."
      },
      "decreaseAllowance(address,uint256)": {
        "details": "Atomically decreases the allowance granted to `spender` by the caller. This is an alternative to {approve} that can be used as a mitigation for problems described in {IERC20-approve}. Emits an {Approval} event indicating the updated allowance. Requirements: - `spender` cannot be the zero address. - `spender` must have allowance for the caller of at least `subtractedValue`."
      },
      "increaseAllowance(address,uint256)": {
        "details": "Atomically increases the allowance granted to `spender` by the caller. This is an alternative to {approve} that can be used as a mitigation for problems described in {IERC20-approve}. Emits an {Approval} event indicating the updated allowance. Requirements: - `spender` cannot be the zero address."
      },
      "name()": {
        "details": "Returns the name of the token."
      },
      "owner()": {
        "details": "Returns the address of the current owner."
      },
      "renounceOwnership()": {
        "details": "Leaves the contract without owner. It will not be possible to call `onlyOwner` functions anymore. Can only be called by the current owner. NOTE: Renouncing ownership will leave the contract without an owner, thereby removing any functionality that is only available to the owner."
      },
      "symbol()": {
        "details": "Returns the symbol of the token, usually a shorter version of the name."
      },
      "totalSupply()": {
        "details": "See {IERC20-totalSupply}."
      },
      "transfer(address,uint256)": {
        "details": "See {IERC20-transfer}. Requirements: - `recipient` cannot be the zero address. - the caller must have a balance of at least `amount`."
      },
      "transferFrom(address,address,uint256)": {
        "details": "See {IERC20-transferFrom}. Emits an {Approval} event indicating the updated allowance. This is not required by the EIP. See the note at the beginning of {ERC20}. Requirements: - `sender` and `recipient` cannot be the zero address. - `sender` must have a balance of at least `amount`. - the caller must have allowance for ``sender``'s tokens of at least `amount`."
      },
      "transferOwnership(address)": {
        "details": "Transfers ownership of the contract to a new account (`newOwner`). Can only be called by the current owner."
      }
    },
    "version": 1
  },
  "userdoc": {
    "kind": "user",
    "methods": {},
    "version": 1
  }
}