{
  "contractName": "DragonFarmCore",
  "abi": [
    {
      "inputs": [],
      "stateMutability": "nonpayable",
      "type": "constructor"
    },
    {
      "anonymous": false,
      "inputs": [
        {
          "indexed": true,
          "internalType": "address",
          "name": "owner",
          "type": "address"
        },
        {
          "indexed": true,
          "internalType": "address",
          "name": "approved",
          "type": "address"
        },
        {
          "indexed": true,
          "internalType": "uint256",
          "name": "tokenId",
          "type": "uint256"
        }
      ],
      "name": "Approval",
      "type": "event"
    },
    {
      "anonymous": false,
      "inputs": [
        {
          "indexed": true,
          "internalType": "address",
          "name": "owner",
          "type": "address"
        },
        {
          "indexed": true,
          "internalType": "address",
          "name": "operator",
          "type": "address"
        },
        {
          "indexed": false,
          "internalType": "bool",
          "name": "approved",
          "type": "bool"
        }
      ],
      "name": "ApprovalForAll",
      "type": "event"
    },
    {
      "anonymous": false,
      "inputs": [
        {
          "indexed": false,
          "internalType": "address",
          "name": "newContract",
          "type": "address"
        }
      ],
      "name": "ContractUpgrade",
      "type": "event"
    },
    {
      "anonymous": false,
      "inputs": [
        {
          "indexed": true,
          "internalType": "address",
          "name": "from",
          "type": "address"
        },
        {
          "indexed": true,
          "internalType": "address",
          "name": "to",
          "type": "address"
        },
        {
          "indexed": true,
          "internalType": "uint256",
          "name": "tokenId",
          "type": "uint256"
        }
      ],
      "name": "Transfer",
      "type": "event"
    },
    {
      "inputs": [
        {
          "internalType": "address",
          "name": "to",
          "type": "address"
        },
        {
          "internalType": "uint256",
          "name": "tokenId",
          "type": "uint256"
        }
      ],
      "name": "approve",
      "outputs": [],
      "stateMutability": "nonpayable",
      "type": "function"
    },
    {
      "inputs": [
        {
          "internalType": "address",
          "name": "_to",
          "type": "address"
        },
        {
          "internalType": "uint256",
          "name": "_tokenId",
          "type": "uint256"
        }
      ],
      "name": "approveDragon",
      "outputs": [],
      "stateMutability": "nonpayable",
      "type": "function"
    },
    {
      "inputs": [
        {
          "internalType": "address",
          "name": "owner",
          "type": "address"
        }
      ],
      "name": "balanceOf",
      "outputs": [
        {
          "internalType": "uint256",
          "name": "",
          "type": "uint256"
        }
      ],
      "stateMutability": "view",
      "type": "function",
      "constant": true
    },
    {
      "inputs": [],
      "name": "ceoAddress",
      "outputs": [
        {
          "internalType": "address",
          "name": "",
          "type": "address"
        }
      ],
      "stateMutability": "view",
      "type": "function",
      "constant": true
    },
    {
      "inputs": [],
      "name": "cfoAddress",
      "outputs": [
        {
          "internalType": "address",
          "name": "",
          "type": "address"
        }
      ],
      "stateMutability": "view",
      "type": "function",
      "constant": true
    },
    {
      "inputs": [],
      "name": "cooAddress",
      "outputs": [
        {
          "internalType": "address",
          "name": "",
          "type": "address"
        }
      ],
      "stateMutability": "view",
      "type": "function",
      "constant": true
    },
    {
      "inputs": [
        {
          "internalType": "uint256",
          "name": "tokenId",
          "type": "uint256"
        }
      ],
      "name": "getApproved",
      "outputs": [
        {
          "internalType": "address",
          "name": "",
          "type": "address"
        }
      ],
      "stateMutability": "view",
      "type": "function",
      "constant": true
    },
    {
      "inputs": [
        {
          "internalType": "address",
          "name": "owner",
          "type": "address"
        },
        {
          "internalType": "address",
          "name": "operator",
          "type": "address"
        }
      ],
      "name": "isApprovedForAll",
      "outputs": [
        {
          "internalType": "bool",
          "name": "",
          "type": "bool"
        }
      ],
      "stateMutability": "view",
      "type": "function",
      "constant": true
    },
    {
      "inputs": [
        {
          "internalType": "uint256",
          "name": "_tokenId",
          "type": "uint256"
        }
      ],
      "name": "killDragon",
      "outputs": [],
      "stateMutability": "nonpayable",
      "type": "function"
    },
    {
      "inputs": [],
      "name": "name",
      "outputs": [
        {
          "internalType": "string",
          "name": "",
          "type": "string"
        }
      ],
      "stateMutability": "view",
      "type": "function",
      "constant": true
    },
    {
      "inputs": [
        {
          "internalType": "uint256",
          "name": "tokenId",
          "type": "uint256"
        }
      ],
      "name": "ownerOf",
      "outputs": [
        {
          "internalType": "address",
          "name": "",
          "type": "address"
        }
      ],
      "stateMutability": "view",
      "type": "function",
      "constant": true
    },
    {
      "inputs": [],
      "name": "pause",
      "outputs": [],
      "stateMutability": "nonpayable",
      "type": "function"
    },
    {
      "inputs": [],
      "name": "paused",
      "outputs": [
        {
          "internalType": "bool",
          "name": "",
          "type": "bool"
        }
      ],
      "stateMutability": "view",
      "type": "function",
      "constant": true
    },
    {
      "inputs": [
        {
          "internalType": "address",
          "name": "from",
          "type": "address"
        },
        {
          "internalType": "address",
          "name": "to",
          "type": "address"
        },
        {
          "internalType": "uint256",
          "name": "tokenId",
          "type": "uint256"
        }
      ],
      "name": "safeTransferFrom",
      "outputs": [],
      "stateMutability": "nonpayable",
      "type": "function"
    },
    {
      "inputs": [
        {
          "internalType": "address",
          "name": "from",
          "type": "address"
        },
        {
          "internalType": "address",
          "name": "to",
          "type": "address"
        },
        {
          "internalType": "uint256",
          "name": "tokenId",
          "type": "uint256"
        },
        {
          "internalType": "bytes",
          "name": "_data",
          "type": "bytes"
        }
      ],
      "name": "safeTransferFrom",
      "outputs": [],
      "stateMutability": "nonpayable",
      "type": "function"
    },
    {
      "inputs": [
        {
          "internalType": "address",
          "name": "operator",
          "type": "address"
        },
        {
          "internalType": "bool",
          "name": "approved",
          "type": "bool"
        }
      ],
      "name": "setApprovalForAll",
      "outputs": [],
      "stateMutability": "nonpayable",
      "type": "function"
    },
    {
      "inputs": [
        {
          "internalType": "address",
          "name": "_newCEO",
          "type": "address"
        }
      ],
      "name": "setCEO",
      "outputs": [],
      "stateMutability": "nonpayable",
      "type": "function"
    },
    {
      "inputs": [
        {
          "internalType": "address",
          "name": "_newCFO",
          "type": "address"
        }
      ],
      "name": "setCFO",
      "outputs": [],
      "stateMutability": "nonpayable",
      "type": "function"
    },
    {
      "inputs": [
        {
          "internalType": "address",
          "name": "_newCOO",
          "type": "address"
        }
      ],
      "name": "setCOO",
      "outputs": [],
      "stateMutability": "nonpayable",
      "type": "function"
    },
    {
      "inputs": [
        {
          "internalType": "uint256",
          "name": "_genes",
          "type": "uint256"
        },
        {
          "internalType": "address",
          "name": "_owner",
          "type": "address"
        },
        {
          "internalType": "uint32",
          "name": "matronId",
          "type": "uint32"
        },
        {
          "internalType": "uint32",
          "name": "sireId",
          "type": "uint32"
        }
      ],
      "name": "spawnDragon",
      "outputs": [
        {
          "internalType": "uint256",
          "name": "",
          "type": "uint256"
        }
      ],
      "stateMutability": "nonpayable",
      "type": "function"
    },
    {
      "inputs": [
        {
          "internalType": "bytes4",
          "name": "interfaceId",
          "type": "bytes4"
        }
      ],
      "name": "supportsInterface",
      "outputs": [
        {
          "internalType": "bool",
          "name": "",
          "type": "bool"
        }
      ],
      "stateMutability": "view",
      "type": "function",
      "constant": true
    },
    {
      "inputs": [],
      "name": "symbol",
      "outputs": [
        {
          "internalType": "string",
          "name": "",
          "type": "string"
        }
      ],
      "stateMutability": "view",
      "type": "function",
      "constant": true
    },
    {
      "inputs": [
        {
          "internalType": "uint256",
          "name": "tokenId",
          "type": "uint256"
        }
      ],
      "name": "tokenURI",
      "outputs": [
        {
          "internalType": "string",
          "name": "",
          "type": "string"
        }
      ],
      "stateMutability": "view",
      "type": "function",
      "constant": true
    },
    {
      "inputs": [],
      "name": "totalSupply",
      "outputs": [
        {
          "internalType": "uint256",
          "name": "",
          "type": "uint256"
        }
      ],
      "stateMutability": "view",
      "type": "function",
      "constant": true
    },
    {
      "inputs": [
        {
          "internalType": "address",
          "name": "_to",
          "type": "address"
        },
        {
          "internalType": "uint256",
          "name": "_tokenId",
          "type": "uint256"
        }
      ],
      "name": "transferDragon",
      "outputs": [],
      "stateMutability": "nonpayable",
      "type": "function"
    },
    {
      "inputs": [
        {
          "internalType": "address",
          "name": "from",
          "type": "address"
        },
        {
          "internalType": "address",
          "name": "to",
          "type": "address"
        },
        {
          "internalType": "uint256",
          "name": "tokenId",
          "type": "uint256"
        }
      ],
      "name": "transferFrom",
      "outputs": [],
      "stateMutability": "nonpayable",
      "type": "function"
    },
    {
      "inputs": [],
      "name": "unpause",
      "outputs": [],
      "stateMutability": "nonpayable",
      "type": "function"
    }
  ],
  "bytecode": "0x60806040526000600860146101000a81548160ff0219169083151502179055503480156200002c57600080fd5b506040518060400160405280600d81526020017f447261676f6e4661726d4e4654000000000000000000000000000000000000008152506040518060400160405280600581526020017f44464e46540000000000000000000000000000000000000000000000000000008152508160009080519060200190620000b1929190620000d3565b508060019080519060200190620000ca929190620000d3565b505050620001e8565b828054620000e19062000183565b90600052602060002090601f01602090048101928262000105576000855562000151565b82601f106200012057805160ff191683800117855562000151565b8280016001018555821562000151579182015b828111156200015057825182559160200191906001019062000133565b5b50905062000160919062000164565b5090565b5b808211156200017f57600081600090555060010162000165565b5090565b600060028204905060018216806200019c57607f821691505b60208210811415620001b357620001b2620001b9565b5b50919050565b7f4e487b7100000000000000000000000000000000000000000000000000000000600052602260045260246000fd5b61322380620001f86000396000f3fe608060405234801561001057600080fd5b50600436106101a95760003560e01c806345459a3d116100f957806395d89b4111610097578063b88d4fde11610071578063b88d4fde14610480578063c87b56dd1461049c578063e985e9c5146104cc578063fd5a60e1146104fc576101a9565b806395d89b4114610428578063a22cb46514610446578063b047fb5014610462576101a9565b80635c975abb116100d35780635c975abb146103a05780636352211e146103be57806370a08231146103ee5780638456cb591461041e576101a9565b806345459a3d1461034c578063464a228e146103685780634e0a337914610384576101a9565b806318160ddd1161016657806327d7874c1161014057806327d7874c146102ee5780632ba73c151461030a5780633f4ba83a1461032657806342842e0e14610330576101a9565b806318160ddd1461028457806323b872dd146102a257806326bad324146102be576101a9565b806301ffc9a7146101ae5780630519ce79146101de57806306fdde03146101fc578063081812fc1461021a578063095ea7b31461024a5780630a0f816814610266575b600080fd5b6101c860048036038101906101c39190612348565b610518565b6040516101d5919061277b565b60405180910390f35b6101e66105fa565b6040516101f39190612714565b60405180910390f35b610204610620565b6040516102119190612796565b60405180910390f35b610234600480360381019061022f91906123a2565b6106b2565b6040516102419190612714565b60405180910390f35b610264600480360381019061025f9190612308565b610737565b005b61026e61084f565b60405161027b9190612714565b60405180910390f35b61028c610875565b6040516102999190612978565b60405180910390f35b6102bc60048036038101906102b791906121f2565b610882565b005b6102d860048036038101906102d391906123cf565b6108e2565b6040516102e59190612978565b60405180910390f35b61030860048036038101906103039190612185565b610a04565b005b610324600480360381019061031f9190612185565b610adc565b005b61032e610bb4565b005b61034a600480360381019061034591906121f2565b610c44565b005b61036660048036038101906103619190612308565b610c64565b005b610382600480360381019061037d9190612308565b610cb2565b005b61039e60048036038101906103999190612185565b610cfb565b005b6103a8610dd3565b6040516103b5919061277b565b60405180910390f35b6103d860048036038101906103d391906123a2565b610de6565b6040516103e59190612714565b60405180910390f35b61040860048036038101906104039190612185565b610e98565b6040516104159190612978565b60405180910390f35b610426610f50565b005b610430611091565b60405161043d9190612796565b60405180910390f35b610460600480360381019061045b91906122c8565b611123565b005b61046a6112a4565b6040516104779190612714565b60405180910390f35b61049a60048036038101906104959190612245565b6112ca565b005b6104b660048036038101906104b191906123a2565b61132c565b6040516104c39190612796565b60405180910390f35b6104e660048036038101906104e191906121b2565b6113d3565b6040516104f3919061277b565b60405180910390f35b610516600480360381019061051191906123a2565b611467565b005b60007f80ac58cd000000000000000000000000000000000000000000000000000000007bffffffffffffffffffffffffffffffffffffffffffffffffffffffff1916827bffffffffffffffffffffffffffffffffffffffffffffffffffffffff191614806105e357507f5b5e139f000000000000000000000000000000000000000000000000000000007bffffffffffffffffffffffffffffffffffffffffffffffffffffffff1916827bffffffffffffffffffffffffffffffffffffffffffffffffffffffff1916145b806105f357506105f282611473565b5b9050919050565b600760009054906101000a900473ffffffffffffffffffffffffffffffffffffffff1681565b60606000805461062f90612bad565b80601f016020809104026020016040519081016040528092919081815260200182805461065b90612bad565b80156106a85780601f1061067d576101008083540402835291602001916106a8565b820191906000526020600020905b81548152906001019060200180831161068b57829003601f168201915b5050505050905090565b60006106bd826114dd565b6106fc576040517f08c379a00000000000000000000000000000000000000000000000000000000081526004016106f3906128d8565b60405180910390fd5b6004600083815260200190815260200160002060009054906101000a900473ffffffffffffffffffffffffffffffffffffffff169050919050565b600061074282610de6565b90508073ffffffffffffffffffffffffffffffffffffffff168373ffffffffffffffffffffffffffffffffffffffff1614156107b3576040517f08c379a00000000000000000000000000000000000000000000000000000000081526004016107aa90612938565b60405180910390fd5b8073ffffffffffffffffffffffffffffffffffffffff166107d2611549565b73ffffffffffffffffffffffffffffffffffffffff1614806108015750610800816107fb611549565b6113d3565b5b610840576040517f08c379a000000000000000000000000000000000000000000000000000000000815260040161083790612858565b60405180910390fd5b61084a8383611551565b505050565b600660009054906101000a900473ffffffffffffffffffffffffffffffffffffffff1681565b6000600980549050905090565b61089361088d611549565b8261160a565b6108d2576040517f08c379a00000000000000000000000000000000000000000000000000000000081526004016108c990612958565b60405180910390fd5b6108dd8383836116e8565b505050565b6000600860009054906101000a900473ffffffffffffffffffffffffffffffffffffffff1673ffffffffffffffffffffffffffffffffffffffff163373ffffffffffffffffffffffffffffffffffffffff16148061098d5750600660009054906101000a900473ffffffffffffffffffffffffffffffffffffffff1673ffffffffffffffffffffffffffffffffffffffff163373ffffffffffffffffffffffffffffffffffffffff16145b806109e55750600760009054906101000a900473ffffffffffffffffffffffffffffffffffffffff1673ffffffffffffffffffffffffffffffffffffffff163373ffffffffffffffffffffffffffffffffffffffff16145b6109ee57600080fd5b6109fa85858585611944565b9050949350505050565b600660009054906101000a900473ffffffffffffffffffffffffffffffffffffffff1673ffffffffffffffffffffffffffffffffffffffff163373ffffffffffffffffffffffffffffffffffffffff1614610a5e57600080fd5b600073ffffffffffffffffffffffffffffffffffffffff168173ffffffffffffffffffffffffffffffffffffffff161415610a9857600080fd5b80600660006101000a81548173ffffffffffffffffffffffffffffffffffffffff021916908373ffffffffffffffffffffffffffffffffffffffff16021790555050565b600660009054906101000a900473ffffffffffffffffffffffffffffffffffffffff1673ffffffffffffffffffffffffffffffffffffffff163373ffffffffffffffffffffffffffffffffffffffff1614610b3657600080fd5b600073ffffffffffffffffffffffffffffffffffffffff168173ffffffffffffffffffffffffffffffffffffffff161415610b7057600080fd5b80600860006101000a81548173ffffffffffffffffffffffffffffffffffffffff021916908373ffffffffffffffffffffffffffffffffffffffff16021790555050565b600660009054906101000a900473ffffffffffffffffffffffffffffffffffffffff1673ffffffffffffffffffffffffffffffffffffffff163373ffffffffffffffffffffffffffffffffffffffff1614610c0e57600080fd5b600860149054906101000a900460ff16610c2757600080fd5b6000600860146101000a81548160ff021916908315150217905550565b610c5f838383604051806020016040528060008152506112ca565b505050565b3373ffffffffffffffffffffffffffffffffffffffff16610c8482610de6565b73ffffffffffffffffffffffffffffffffffffffff1614610ca457600080fd5b610cae8282610737565b5050565b600073ffffffffffffffffffffffffffffffffffffffff168273ffffffffffffffffffffffffffffffffffffffff161415610cec57600080fd5b610cf7338383610c44565b5050565b600660009054906101000a900473ffffffffffffffffffffffffffffffffffffffff1673ffffffffffffffffffffffffffffffffffffffff163373ffffffffffffffffffffffffffffffffffffffff1614610d5557600080fd5b600073ffffffffffffffffffffffffffffffffffffffff168173ffffffffffffffffffffffffffffffffffffffff161415610d8f57600080fd5b80600760006101000a81548173ffffffffffffffffffffffffffffffffffffffff021916908373ffffffffffffffffffffffffffffffffffffffff16021790555050565b600860149054906101000a900460ff1681565b6000806002600084815260200190815260200160002060009054906101000a900473ffffffffffffffffffffffffffffffffffffffff169050600073ffffffffffffffffffffffffffffffffffffffff168173ffffffffffffffffffffffffffffffffffffffff161415610e8f576040517f08c379a0000000000000000000000000000000000000000000000000000000008152600401610e8690612898565b60405180910390fd5b80915050919050565b60008073ffffffffffffffffffffffffffffffffffffffff168273ffffffffffffffffffffffffffffffffffffffff161415610f09576040517f08c379a0000000000000000000000000000000000000000000000000000000008152600401610f0090612878565b60405180910390fd5b600360008373ffffffffffffffffffffffffffffffffffffffff1673ffffffffffffffffffffffffffffffffffffffff168152602001908152602001600020549050919050565b600860009054906101000a900473ffffffffffffffffffffffffffffffffffffffff1673ffffffffffffffffffffffffffffffffffffffff163373ffffffffffffffffffffffffffffffffffffffff161480610ff95750600660009054906101000a900473ffffffffffffffffffffffffffffffffffffffff1673ffffffffffffffffffffffffffffffffffffffff163373ffffffffffffffffffffffffffffffffffffffff16145b806110515750600760009054906101000a900473ffffffffffffffffffffffffffffffffffffffff1673ffffffffffffffffffffffffffffffffffffffff163373ffffffffffffffffffffffffffffffffffffffff16145b61105a57600080fd5b600860149054906101000a900460ff161561107457600080fd5b6001600860146101000a81548160ff021916908315150217905550565b6060600180546110a090612bad565b80601f01602080910402602001604051908101604052809291908181526020018280546110cc90612bad565b80156111195780601f106110ee57610100808354040283529160200191611119565b820191906000526020600020905b8154815290600101906020018083116110fc57829003601f168201915b5050505050905090565b61112b611549565b73ffffffffffffffffffffffffffffffffffffffff168273ffffffffffffffffffffffffffffffffffffffff161415611199576040517f08c379a000000000000000000000000000000000000000000000000000000000815260040161119090612818565b60405180910390fd5b80600560006111a6611549565b73ffffffffffffffffffffffffffffffffffffffff1673ffffffffffffffffffffffffffffffffffffffff16815260200190815260200160002060008473ffffffffffffffffffffffffffffffffffffffff1673ffffffffffffffffffffffffffffffffffffffff16815260200190815260200160002060006101000a81548160ff0219169083151502179055508173ffffffffffffffffffffffffffffffffffffffff16611253611549565b73ffffffffffffffffffffffffffffffffffffffff167f17307eab39ab6107e8899845ad3d59bd9653f200f220920489ca2b5937696c3183604051611298919061277b565b60405180910390a35050565b600860009054906101000a900473ffffffffffffffffffffffffffffffffffffffff1681565b6112db6112d5611549565b8361160a565b61131a576040517f08c379a000000000000000000000000000000000000000000000000000000000815260040161131190612958565b60405180910390fd5b61132684848484611a35565b50505050565b6060611337826114dd565b611376576040517f08c379a000000000000000000000000000000000000000000000000000000000815260040161136d90612918565b60405180910390fd5b6000611380611a91565b905060008151116113a057604051806020016040528060008152506113cb565b806113aa84611aa8565b6040516020016113bb9291906126f0565b6040516020818303038152906040525b915050919050565b6000600560008473ffffffffffffffffffffffffffffffffffffffff1673ffffffffffffffffffffffffffffffffffffffff16815260200190815260200160002060008373ffffffffffffffffffffffffffffffffffffffff1673ffffffffffffffffffffffffffffffffffffffff16815260200190815260200160002060009054906101000a900460ff16905092915050565b61147081611c09565b50565b60007f01ffc9a7000000000000000000000000000000000000000000000000000000007bffffffffffffffffffffffffffffffffffffffffffffffffffffffff1916827bffffffffffffffffffffffffffffffffffffffffffffffffffffffff1916149050919050565b60008073ffffffffffffffffffffffffffffffffffffffff166002600084815260200190815260200160002060009054906101000a900473ffffffffffffffffffffffffffffffffffffffff1673ffffffffffffffffffffffffffffffffffffffff1614159050919050565b600033905090565b816004600083815260200190815260200160002060006101000a81548173ffffffffffffffffffffffffffffffffffffffff021916908373ffffffffffffffffffffffffffffffffffffffff160217905550808273ffffffffffffffffffffffffffffffffffffffff166115c483610de6565b73ffffffffffffffffffffffffffffffffffffffff167f8c5be1e5ebec7d5bd14f71427d1e84f3dd0314c0f7b2291e5b200ac8c7c3b92560405160405180910390a45050565b6000611615826114dd565b611654576040517f08c379a000000000000000000000000000000000000000000000000000000000815260040161164b90612838565b60405180910390fd5b600061165f83610de6565b90508073ffffffffffffffffffffffffffffffffffffffff168473ffffffffffffffffffffffffffffffffffffffff1614806116ce57508373ffffffffffffffffffffffffffffffffffffffff166116b6846106b2565b73ffffffffffffffffffffffffffffffffffffffff16145b806116df57506116de81856113d3565b5b91505092915050565b8273ffffffffffffffffffffffffffffffffffffffff1661170882610de6565b73ffffffffffffffffffffffffffffffffffffffff161461175e576040517f08c379a0000000000000000000000000000000000000000000000000000000008152600401611755906128f8565b60405180910390fd5b600073ffffffffffffffffffffffffffffffffffffffff168273ffffffffffffffffffffffffffffffffffffffff1614156117ce576040517f08c379a00000000000000000000000000000000000000000000000000000000081526004016117c5906127f8565b60405180910390fd5b6117d9838383611d1a565b6117e4600082611551565b6001600360008573ffffffffffffffffffffffffffffffffffffffff1673ffffffffffffffffffffffffffffffffffffffff16815260200190815260200160002060008282546118349190612ab3565b925050819055506001600360008473ffffffffffffffffffffffffffffffffffffffff1673ffffffffffffffffffffffffffffffffffffffff168152602001908152602001600020600082825461188b9190612a2c565b92505081905550816002600083815260200190815260200160002060006101000a81548173ffffffffffffffffffffffffffffffffffffffff021916908373ffffffffffffffffffffffffffffffffffffffff160217905550808273ffffffffffffffffffffffffffffffffffffffff168473ffffffffffffffffffffffffffffffffffffffff167fddf252ad1be2c89b69c2b068fc378daa952ba7f163c4a11628f55a4df523b3ef60405160405180910390a4505050565b60008060405180608001604052808781526020014281526020018563ffffffff1681526020018463ffffffff1681525090506009819080600181540180825580915050600190039060005260206000209060030201600090919091909150600082015181600001556020820151816001015560408201518160020160006101000a81548163ffffffff021916908363ffffffff16021790555060608201518160020160046101000a81548163ffffffff021916908363ffffffff160217905550505060006001611a12610875565b611a1c9190612ab3565b9050611a288682611d1f565b8092505050949350505050565b611a408484846116e8565b611a4c84848484611eed565b611a8b576040517f08c379a0000000000000000000000000000000000000000000000000000000008152600401611a82906127b8565b60405180910390fd5b50505050565b606060405180602001604052806000815250905090565b60606000821415611af0576040518060400160405280600181526020017f30000000000000000000000000000000000000000000000000000000000000008152509050611c04565b600082905060005b60008214611b22578080611b0b90612c10565b915050600a82611b1b9190612a82565b9150611af8565b60008167ffffffffffffffff811115611b3e57611b3d612d46565b5b6040519080825280601f01601f191660200182016040528015611b705781602001600182028036833780820191505090505b5090505b60008514611bfd57600182611b899190612ab3565b9150600a85611b989190612c59565b6030611ba49190612a2c565b60f81b818381518110611bba57611bb9612d17565b5b60200101907effffffffffffffffffffffffffffffffffffffffffffffffffffffffffffff1916908160001a905350600a85611bf69190612a82565b9450611b74565b8093505050505b919050565b6000611c1482610de6565b9050611c2281600084611d1a565b611c2d600083611551565b6001600360008373ffffffffffffffffffffffffffffffffffffffff1673ffffffffffffffffffffffffffffffffffffffff1681526020019081526020016000206000828254611c7d9190612ab3565b925050819055506002600083815260200190815260200160002060006101000a81549073ffffffffffffffffffffffffffffffffffffffff021916905581600073ffffffffffffffffffffffffffffffffffffffff168273ffffffffffffffffffffffffffffffffffffffff167fddf252ad1be2c89b69c2b068fc378daa952ba7f163c4a11628f55a4df523b3ef60405160405180910390a45050565b505050565b600073ffffffffffffffffffffffffffffffffffffffff168273ffffffffffffffffffffffffffffffffffffffff161415611d8f576040517f08c379a0000000000000000000000000000000000000000000000000000000008152600401611d86906128b8565b60405180910390fd5b611d98816114dd565b15611dd8576040517f08c379a0000000000000000000000000000000000000000000000000000000008152600401611dcf906127d8565b60405180910390fd5b611de460008383611d1a565b6001600360008473ffffffffffffffffffffffffffffffffffffffff1673ffffffffffffffffffffffffffffffffffffffff1681526020019081526020016000206000828254611e349190612a2c565b92505081905550816002600083815260200190815260200160002060006101000a81548173ffffffffffffffffffffffffffffffffffffffff021916908373ffffffffffffffffffffffffffffffffffffffff160217905550808273ffffffffffffffffffffffffffffffffffffffff16600073ffffffffffffffffffffffffffffffffffffffff167fddf252ad1be2c89b69c2b068fc378daa952ba7f163c4a11628f55a4df523b3ef60405160405180910390a45050565b6000611f0e8473ffffffffffffffffffffffffffffffffffffffff16612084565b15612077578373ffffffffffffffffffffffffffffffffffffffff1663150b7a02611f37611549565b8786866040518563ffffffff1660e01b8152600401611f59949392919061272f565b602060405180830381600087803b158015611f7357600080fd5b505af1925050508015611fa457506040513d601f19601f82011682018060405250810190611fa19190612375565b60015b612027573d8060008114611fd4576040519150601f19603f3d011682016040523d82523d6000602084013e611fd9565b606091505b5060008151141561201f576040517f08c379a0000000000000000000000000000000000000000000000000000000008152600401612016906127b8565b60405180910390fd5b805181602001fd5b63150b7a0260e01b7bffffffffffffffffffffffffffffffffffffffffffffffffffffffff1916817bffffffffffffffffffffffffffffffffffffffffffffffffffffffff19161491505061207c565b600190505b949350505050565b600080823b905060008111915050919050565b60006120aa6120a5846129b8565b612993565b9050828152602081018484840111156120c6576120c5612d7a565b5b6120d1848285612b6b565b509392505050565b6000813590506120e88161317a565b92915050565b6000813590506120fd81613191565b92915050565b600081359050612112816131a8565b92915050565b600081519050612127816131a8565b92915050565b600082601f83011261214257612141612d75565b5b8135612152848260208601612097565b91505092915050565b60008135905061216a816131bf565b92915050565b60008135905061217f816131d6565b92915050565b60006020828403121561219b5761219a612d84565b5b60006121a9848285016120d9565b91505092915050565b600080604083850312156121c9576121c8612d84565b5b60006121d7858286016120d9565b92505060206121e8858286016120d9565b9150509250929050565b60008060006060848603121561220b5761220a612d84565b5b6000612219868287016120d9565b935050602061222a868287016120d9565b925050604061223b8682870161215b565b9150509250925092565b6000806000806080858703121561225f5761225e612d84565b5b600061226d878288016120d9565b945050602061227e878288016120d9565b935050604061228f8782880161215b565b925050606085013567ffffffffffffffff8111156122b0576122af612d7f565b5b6122bc8782880161212d565b91505092959194509250565b600080604083850312156122df576122de612d84565b5b60006122ed858286016120d9565b92505060206122fe858286016120ee565b9150509250929050565b6000806040838503121561231f5761231e612d84565b5b600061232d858286016120d9565b925050602061233e8582860161215b565b9150509250929050565b60006020828403121561235e5761235d612d84565b5b600061236c84828501612103565b91505092915050565b60006020828403121561238b5761238a612d84565b5b600061239984828501612118565b91505092915050565b6000602082840312156123b8576123b7612d84565b5b60006123c68482850161215b565b91505092915050565b600080600080608085870312156123e9576123e8612d84565b5b60006123f78782880161215b565b9450506020612408878288016120d9565b935050604061241987828801612170565b925050606061242a87828801612170565b91505092959194509250565b61243f81612ae7565b82525050565b61244e81612af9565b82525050565b600061245f826129e9565b61246981856129ff565b9350612479818560208601612b7a565b61248281612d89565b840191505092915050565b6000612498826129f4565b6124a28185612a10565b93506124b2818560208601612b7a565b6124bb81612d89565b840191505092915050565b60006124d1826129f4565b6124db8185612a21565b93506124eb818560208601612b7a565b80840191505092915050565b6000612504603283612a10565b915061250f82612d9a565b604082019050919050565b6000612527601c83612a10565b915061253282612de9565b602082019050919050565b600061254a602483612a10565b915061255582612e12565b604082019050919050565b600061256d601983612a10565b915061257882612e61565b602082019050919050565b6000612590602c83612a10565b915061259b82612e8a565b604082019050919050565b60006125b3603883612a10565b91506125be82612ed9565b604082019050919050565b60006125d6602a83612a10565b91506125e182612f28565b604082019050919050565b60006125f9602983612a10565b915061260482612f77565b604082019050919050565b600061261c602083612a10565b915061262782612fc6565b602082019050919050565b600061263f602c83612a10565b915061264a82612fef565b604082019050919050565b6000612662602983612a10565b915061266d8261303e565b604082019050919050565b6000612685602f83612a10565b91506126908261308d565b604082019050919050565b60006126a8602183612a10565b91506126b3826130dc565b604082019050919050565b60006126cb603183612a10565b91506126d68261312b565b604082019050919050565b6126ea81612b51565b82525050565b60006126fc82856124c6565b915061270882846124c6565b91508190509392505050565b60006020820190506127296000830184612436565b92915050565b60006080820190506127446000830187612436565b6127516020830186612436565b61275e60408301856126e1565b81810360608301526127708184612454565b905095945050505050565b60006020820190506127906000830184612445565b92915050565b600060208201905081810360008301526127b0818461248d565b905092915050565b600060208201905081810360008301526127d1816124f7565b9050919050565b600060208201905081810360008301526127f18161251a565b9050919050565b600060208201905081810360008301526128118161253d565b9050919050565b6000602082019050818103600083015261283181612560565b9050919050565b6000602082019050818103600083015261285181612583565b9050919050565b60006020820190508181036000830152612871816125a6565b9050919050565b60006020820190508181036000830152612891816125c9565b9050919050565b600060208201905081810360008301526128b1816125ec565b9050919050565b600060208201905081810360008301526128d18161260f565b9050919050565b600060208201905081810360008301526128f181612632565b9050919050565b6000602082019050818103600083015261291181612655565b9050919050565b6000602082019050818103600083015261293181612678565b9050919050565b600060208201905081810360008301526129518161269b565b9050919050565b60006020820190508181036000830152612971816126be565b9050919050565b600060208201905061298d60008301846126e1565b92915050565b600061299d6129ae565b90506129a98282612bdf565b919050565b6000604051905090565b600067ffffffffffffffff8211156129d3576129d2612d46565b5b6129dc82612d89565b9050602081019050919050565b600081519050919050565b600081519050919050565b600082825260208201905092915050565b600082825260208201905092915050565b600081905092915050565b6000612a3782612b51565b9150612a4283612b51565b9250827fffffffffffffffffffffffffffffffffffffffffffffffffffffffffffffffff03821115612a7757612a76612c8a565b5b828201905092915050565b6000612a8d82612b51565b9150612a9883612b51565b925082612aa857612aa7612cb9565b5b828204905092915050565b6000612abe82612b51565b9150612ac983612b51565b925082821015612adc57612adb612c8a565b5b828203905092915050565b6000612af282612b31565b9050919050565b60008115159050919050565b60007fffffffff0000000000000000000000000000000000000000000000000000000082169050919050565b600073ffffffffffffffffffffffffffffffffffffffff82169050919050565b6000819050919050565b600063ffffffff82169050919050565b82818337600083830152505050565b60005b83811015612b98578082015181840152602081019050612b7d565b83811115612ba7576000848401525b50505050565b60006002820490506001821680612bc557607f821691505b60208210811415612bd957612bd8612ce8565b5b50919050565b612be882612d89565b810181811067ffffffffffffffff82111715612c0757612c06612d46565b5b80604052505050565b6000612c1b82612b51565b91507fffffffffffffffffffffffffffffffffffffffffffffffffffffffffffffffff821415612c4e57612c4d612c8a565b5b600182019050919050565b6000612c6482612b51565b9150612c6f83612b51565b925082612c7f57612c7e612cb9565b5b828206905092915050565b7f4e487b7100000000000000000000000000000000000000000000000000000000600052601160045260246000fd5b7f4e487b7100000000000000000000000000000000000000000000000000000000600052601260045260246000fd5b7f4e487b7100000000000000000000000000000000000000000000000000000000600052602260045260246000fd5b7f4e487b7100000000000000000000000000000000000000000000000000000000600052603260045260246000fd5b7f4e487b7100000000000000000000000000000000000000000000000000000000600052604160045260246000fd5b600080fd5b600080fd5b600080fd5b600080fd5b6000601f19601f8301169050919050565b7f4552433732313a207472616e7366657220746f206e6f6e20455243373231526560008201527f63656976657220696d706c656d656e7465720000000000000000000000000000602082015250565b7f4552433732313a20746f6b656e20616c7265616479206d696e74656400000000600082015250565b7f4552433732313a207472616e7366657220746f20746865207a65726f2061646460008201527f7265737300000000000000000000000000000000000000000000000000000000602082015250565b7f4552433732313a20617070726f766520746f2063616c6c657200000000000000600082015250565b7f4552433732313a206f70657261746f7220717565727920666f72206e6f6e657860008201527f697374656e7420746f6b656e0000000000000000000000000000000000000000602082015250565b7f4552433732313a20617070726f76652063616c6c6572206973206e6f74206f7760008201527f6e6572206e6f7220617070726f76656420666f7220616c6c0000000000000000602082015250565b7f4552433732313a2062616c616e636520717565727920666f7220746865207a6560008201527f726f206164647265737300000000000000000000000000000000000000000000602082015250565b7f4552433732313a206f776e657220717565727920666f72206e6f6e657869737460008201527f656e7420746f6b656e0000000000000000000000000000000000000000000000602082015250565b7f4552433732313a206d696e7420746f20746865207a65726f2061646472657373600082015250565b7f4552433732313a20617070726f76656420717565727920666f72206e6f6e657860008201527f697374656e7420746f6b656e0000000000000000000000000000000000000000602082015250565b7f4552433732313a207472616e73666572206f6620746f6b656e2074686174206960008201527f73206e6f74206f776e0000000000000000000000000000000000000000000000602082015250565b7f4552433732314d657461646174613a2055524920717565727920666f72206e6f60008201527f6e6578697374656e7420746f6b656e0000000000000000000000000000000000602082015250565b7f4552433732313a20617070726f76616c20746f2063757272656e74206f776e6560008201527f7200000000000000000000000000000000000000000000000000000000000000602082015250565b7f4552433732313a207472616e736665722063616c6c6572206973206e6f74206f60008201527f776e6572206e6f7220617070726f766564000000000000000000000000000000602082015250565b61318381612ae7565b811461318e57600080fd5b50565b61319a81612af9565b81146131a557600080fd5b50565b6131b181612b05565b81146131bc57600080fd5b50565b6131c881612b51565b81146131d357600080fd5b50565b6131df81612b5b565b81146131ea57600080fd5b5056fea2646970667358221220968b4624c04bc39524fafe822cb5e9b995bf6cf6023f94035f661d1840ccbf6b64736f6c63430008060033",
  "immutableReferences": {},
  "source": "// SPDX-License-Identifier: MIT\npragma solidity ^0.8.0;\n\nimport \"@openzeppelin/contracts/token/ERC721/ERC721.sol\";\nimport \"@openzeppelin/contracts/access/Ownable.sol\";\nimport \"./DragonFarmBase.sol\";\ncontract DragonFarmCore is ERC721, DragonFarmBase {\n    constructor() ERC721(\"DragonFarmNFT\", \"DFNFT\") {\n    }\n\n}\n",
  "sourcePath": "/home/hieu/Blockchain/dragonfarm/src/contracts/core/erc721/DragonFarmCore copy.sol",
  "compiler": {
    "name": "solc",
    "version": "0.8.6+commit.11564f7e.Emscripten.clang"
  },
  "schemaVersion": "3.4.2",
  "updatedAt": "2021-08-06T09:45:48.921Z",
  "networkType": "ethereum",
  "devdoc": {
    "kind": "dev",
    "methods": {
      "approve(address,uint256)": {
        "details": "See {IERC721-approve}."
      },
      "balanceOf(address)": {
        "details": "See {IERC721-balanceOf}."
      },
      "getApproved(uint256)": {
        "details": "See {IERC721-getApproved}."
      },
      "isApprovedForAll(address,address)": {
        "details": "See {IERC721-isApprovedForAll}."
      },
      "name()": {
        "details": "See {IERC721Metadata-name}."
      },
      "ownerOf(uint256)": {
        "details": "See {IERC721-ownerOf}."
      },
      "pause()": {
        "details": "Called by any \"C-level\" role to pause the contract. Used only when  a bug or exploit is detected and we need to limit damage."
      },
      "safeTransferFrom(address,address,uint256)": {
        "details": "See {IERC721-safeTransferFrom}."
      },
      "safeTransferFrom(address,address,uint256,bytes)": {
        "details": "See {IERC721-safeTransferFrom}."
      },
      "setApprovalForAll(address,bool)": {
        "details": "See {IERC721-setApprovalForAll}."
      },
      "setCEO(address)": {
        "details": "Assigns a new address to act as the CEO. Only available to the current CEO.",
        "params": {
          "_newCEO": "The address of the new CEO"
        }
      },
      "setCFO(address)": {
        "details": "Assigns a new address to act as the CFO. Only available to the current CEO.",
        "params": {
          "_newCFO": "The address of the new CFO"
        }
      },
      "setCOO(address)": {
        "details": "Assigns a new address to act as the COO. Only available to the current CEO.",
        "params": {
          "_newCOO": "The address of the new COO"
        }
      },
      "supportsInterface(bytes4)": {
        "details": "See {IERC165-supportsInterface}."
      },
      "symbol()": {
        "details": "See {IERC721Metadata-symbol}."
      },
      "tokenURI(uint256)": {
        "details": "See {IERC721Metadata-tokenURI}."
      },
      "transferFrom(address,address,uint256)": {
        "details": "See {IERC721-transferFrom}."
      },
      "unpause()": {
        "details": "Unpauses the smart contract. Can only be called by the CEO, since  one reason we may pause the contract is when CFO or COO accounts are  compromised."
      }
    },
    "version": 1
  },
  "userdoc": {
    "kind": "user",
    "methods": {
      "unpause()": {
        "notice": "This is public rather than external so it can be called by  derived contracts."
      }
    },
    "version": 1
  }
}