{
  "contractName": "DragonSoul",
  "abi": [
    {
      "inputs": [],
      "stateMutability": "nonpayable",
      "type": "constructor"
    },
    {
      "anonymous": false,
      "inputs": [
        {
          "indexed": true,
          "internalType": "address",
          "name": "owner",
          "type": "address"
        },
        {
          "indexed": true,
          "internalType": "address",
          "name": "spender",
          "type": "address"
        },
        {
          "indexed": false,
          "internalType": "uint256",
          "name": "value",
          "type": "uint256"
        }
      ],
      "name": "Approval",
      "type": "event"
    },
    {
      "anonymous": false,
      "inputs": [
        {
          "indexed": true,
          "internalType": "address",
          "name": "previousOwner",
          "type": "address"
        },
        {
          "indexed": true,
          "internalType": "address",
          "name": "newOwner",
          "type": "address"
        }
      ],
      "name": "OwnershipTransferred",
      "type": "event"
    },
    {
      "anonymous": false,
      "inputs": [
        {
          "indexed": true,
          "internalType": "address",
          "name": "from",
          "type": "address"
        },
        {
          "indexed": true,
          "internalType": "address",
          "name": "to",
          "type": "address"
        },
        {
          "indexed": false,
          "internalType": "uint256",
          "name": "value",
          "type": "uint256"
        }
      ],
      "name": "Transfer",
      "type": "event"
    },
    {
      "inputs": [
        {
          "internalType": "address",
          "name": "owner",
          "type": "address"
        },
        {
          "internalType": "address",
          "name": "spender",
          "type": "address"
        }
      ],
      "name": "allowance",
      "outputs": [
        {
          "internalType": "uint256",
          "name": "",
          "type": "uint256"
        }
      ],
      "stateMutability": "view",
      "type": "function"
    },
    {
      "inputs": [],
      "name": "amountPlayToEarn",
      "outputs": [
        {
          "internalType": "uint256",
          "name": "",
          "type": "uint256"
        }
      ],
      "stateMutability": "view",
      "type": "function"
    },
    {
      "inputs": [
        {
          "internalType": "address",
          "name": "spender",
          "type": "address"
        },
        {
          "internalType": "uint256",
          "name": "amount",
          "type": "uint256"
        }
      ],
      "name": "approve",
      "outputs": [
        {
          "internalType": "bool",
          "name": "",
          "type": "bool"
        }
      ],
      "stateMutability": "nonpayable",
      "type": "function"
    },
    {
      "inputs": [
        {
          "internalType": "address",
          "name": "account",
          "type": "address"
        }
      ],
      "name": "balanceOf",
      "outputs": [
        {
          "internalType": "uint256",
          "name": "",
          "type": "uint256"
        }
      ],
      "stateMutability": "view",
      "type": "function"
    },
    {
      "inputs": [],
      "name": "decimals",
      "outputs": [
        {
          "internalType": "uint8",
          "name": "",
          "type": "uint8"
        }
      ],
      "stateMutability": "view",
      "type": "function"
    },
    {
      "inputs": [
        {
          "internalType": "address",
          "name": "spender",
          "type": "address"
        },
        {
          "internalType": "uint256",
          "name": "subtractedValue",
          "type": "uint256"
        }
      ],
      "name": "decreaseAllowance",
      "outputs": [
        {
          "internalType": "bool",
          "name": "",
          "type": "bool"
        }
      ],
      "stateMutability": "nonpayable",
      "type": "function"
    },
    {
      "inputs": [
        {
          "internalType": "address",
          "name": "spender",
          "type": "address"
        },
        {
          "internalType": "uint256",
          "name": "addedValue",
          "type": "uint256"
        }
      ],
      "name": "increaseAllowance",
      "outputs": [
        {
          "internalType": "bool",
          "name": "",
          "type": "bool"
        }
      ],
      "stateMutability": "nonpayable",
      "type": "function"
    },
    {
      "inputs": [],
      "name": "maxSupply",
      "outputs": [
        {
          "internalType": "uint256",
          "name": "",
          "type": "uint256"
        }
      ],
      "stateMutability": "view",
      "type": "function"
    },
    {
      "inputs": [],
      "name": "name",
      "outputs": [
        {
          "internalType": "string",
          "name": "",
          "type": "string"
        }
      ],
      "stateMutability": "view",
      "type": "function"
    },
    {
      "inputs": [],
      "name": "owner",
      "outputs": [
        {
          "internalType": "address",
          "name": "",
          "type": "address"
        }
      ],
      "stateMutability": "view",
      "type": "function"
    },
    {
      "inputs": [],
      "name": "renounceOwnership",
      "outputs": [],
      "stateMutability": "nonpayable",
      "type": "function"
    },
    {
      "inputs": [],
      "name": "symbol",
      "outputs": [
        {
          "internalType": "string",
          "name": "",
          "type": "string"
        }
      ],
      "stateMutability": "view",
      "type": "function"
    },
    {
      "inputs": [],
      "name": "tokenForManger",
      "outputs": [
        {
          "internalType": "uint256",
          "name": "",
          "type": "uint256"
        }
      ],
      "stateMutability": "view",
      "type": "function"
    },
    {
      "inputs": [],
      "name": "totalSupply",
      "outputs": [
        {
          "internalType": "uint256",
          "name": "",
          "type": "uint256"
        }
      ],
      "stateMutability": "view",
      "type": "function"
    },
    {
      "inputs": [
        {
          "internalType": "address",
          "name": "recipient",
          "type": "address"
        },
        {
          "internalType": "uint256",
          "name": "amount",
          "type": "uint256"
        }
      ],
      "name": "transfer",
      "outputs": [
        {
          "internalType": "bool",
          "name": "",
          "type": "bool"
        }
      ],
      "stateMutability": "nonpayable",
      "type": "function"
    },
    {
      "inputs": [
        {
          "internalType": "address",
          "name": "sender",
          "type": "address"
        },
        {
          "internalType": "address",
          "name": "recipient",
          "type": "address"
        },
        {
          "internalType": "uint256",
          "name": "amount",
          "type": "uint256"
        }
      ],
      "name": "transferFrom",
      "outputs": [
        {
          "internalType": "bool",
          "name": "",
          "type": "bool"
        }
      ],
      "stateMutability": "nonpayable",
      "type": "function"
    },
    {
      "inputs": [
        {
          "internalType": "address",
          "name": "newOwner",
          "type": "address"
        }
      ],
      "name": "transferOwnership",
      "outputs": [],
      "stateMutability": "nonpayable",
      "type": "function"
    },
    {
      "inputs": [
        {
          "internalType": "uint256",
          "name": "amount",
          "type": "uint256"
        }
      ],
      "name": "burn",
      "outputs": [],
      "stateMutability": "nonpayable",
      "type": "function"
    },
    {
      "inputs": [
        {
          "internalType": "address",
          "name": "to",
          "type": "address"
        },
        {
          "internalType": "uint256",
          "name": "amount",
          "type": "uint256"
        }
      ],
      "name": "mint",
      "outputs": [],
      "stateMutability": "nonpayable",
      "type": "function"
    },
    {
      "inputs": [
        {
          "internalType": "address",
          "name": "newOwner",
          "type": "address"
        }
      ],
      "name": "_transferOwnership",
      "outputs": [],
      "stateMutability": "nonpayable",
      "type": "function"
    }
  ],
  "bytecode": "0x608060405260016006556a52b7d2dcc80cd2e40000006007556a17293b0a9e69fd9c0000006008556a0c685fa11e01ec6f000000600955692a5a058fc295ed000000600a553480156200005157600080fd5b506040518060400160405280600b81526020017f447261676f6e20536f756c0000000000000000000000000000000000000000008152506040518060400160405280600381526020017f44525300000000000000000000000000000000000000000000000000000000008152508160039080519060200190620000d6929190620003da565b508060049080519060200190620000ef929190620003da565b50505062000112620001066200017160201b60201c565b6200017960201b60201c565b6200016b620001266200017160201b60201c565b6200015f6008546200014b6009546007546200023f60201b62000b9e1790919060201c565b6200023f60201b62000b9e1790919060201c565b6200025760201b60201c565b62000671565b600033905090565b6000600560009054906101000a900473ffffffffffffffffffffffffffffffffffffffff16905081600560006101000a81548173ffffffffffffffffffffffffffffffffffffffff021916908373ffffffffffffffffffffffffffffffffffffffff1602179055508173ffffffffffffffffffffffffffffffffffffffff168173ffffffffffffffffffffffffffffffffffffffff167f8be0079c531659141344cd1fd0a4f28419497f9722a3daafe3b4186f6b6457e060405160405180910390a35050565b600081836200024f91906200056f565b905092915050565b600073ffffffffffffffffffffffffffffffffffffffff168273ffffffffffffffffffffffffffffffffffffffff161415620002ca576040517f08c379a0000000000000000000000000000000000000000000000000000000008152600401620002c190620004c2565b60405180910390fd5b620002de60008383620003d060201b60201c565b8060026000828254620002f2919062000512565b92505081905550806000808473ffffffffffffffffffffffffffffffffffffffff1673ffffffffffffffffffffffffffffffffffffffff168152602001908152602001600020600082825462000349919062000512565b925050819055508173ffffffffffffffffffffffffffffffffffffffff16600073ffffffffffffffffffffffffffffffffffffffff167fddf252ad1be2c89b69c2b068fc378daa952ba7f163c4a11628f55a4df523b3ef83604051620003b09190620004e4565b60405180910390a3620003cc60008383620003d560201b60201c565b5050565b505050565b505050565b828054620003e890620005b4565b90600052602060002090601f0160209004810192826200040c576000855562000458565b82601f106200042757805160ff191683800117855562000458565b8280016001018555821562000458579182015b82811115620004575782518255916020019190600101906200043a565b5b5090506200046791906200046b565b5090565b5b80821115620004865760008160009055506001016200046c565b5090565b600062000499601f8362000501565b9150620004a68262000648565b602082019050919050565b620004bc81620005aa565b82525050565b60006020820190508181036000830152620004dd816200048a565b9050919050565b6000602082019050620004fb6000830184620004b1565b92915050565b600082825260208201905092915050565b60006200051f82620005aa565b91506200052c83620005aa565b9250827fffffffffffffffffffffffffffffffffffffffffffffffffffffffffffffffff03821115620005645762000563620005ea565b5b828201905092915050565b60006200057c82620005aa565b91506200058983620005aa565b9250828210156200059f576200059e620005ea565b5b828203905092915050565b6000819050919050565b60006002820490506001821680620005cd57607f821691505b60208210811415620005e457620005e362000619565b5b50919050565b7f4e487b7100000000000000000000000000000000000000000000000000000000600052601160045260246000fd5b7f4e487b7100000000000000000000000000000000000000000000000000000000600052602260045260246000fd5b7f45524332303a206d696e7420746f20746865207a65726f206164647265737300600082015250565b61211b80620006816000396000f3fe608060405234801561001057600080fd5b506004361061012c5760003560e01c806370a08231116100ad578063a9059cbb11610071578063a9059cbb14610335578063d29d44ee14610365578063d5abeb0114610381578063dd62ed3e1461039f578063f2fde38b146103cf5761012c565b806370a082311461028f578063715018a6146102bf5780638da5cb5b146102c957806395d89b41146102e7578063a457c2d7146103055761012c565b8063313ce567116100f4578063313ce567146101eb57806339509351146102095780633d616df31461023957806340c10f191461025757806342966c68146102735761012c565b806303ae76941461013157806306fdde031461014f578063095ea7b31461016d57806318160ddd1461019d57806323b872dd146101bb575b600080fd5b6101396103eb565b6040516101469190611a90565b60405180910390f35b6101576103f1565b60405161016491906118ee565b60405180910390f35b6101876004803603810190610182919061163a565b610483565b60405161019491906118d3565b60405180910390f35b6101a56104a1565b6040516101b29190611a90565b60405180910390f35b6101d560048036038101906101d091906115eb565b6104ab565b6040516101e291906118d3565b60405180910390f35b6101f36105a3565b6040516102009190611aab565b60405180910390f35b610223600480360381019061021e919061163a565b6105ac565b60405161023091906118d3565b60405180910390f35b610241610658565b60405161024e9190611a90565b60405180910390f35b610271600480360381019061026c919061163a565b61065e565b005b61028d60048036038101906102889190611676565b6106e8565b005b6102a960048036038101906102a49190611586565b6106fc565b6040516102b69190611a90565b60405180910390f35b6102c7610744565b005b6102d16107cc565b6040516102de91906118b8565b60405180910390f35b6102ef6107f6565b6040516102fc91906118ee565b60405180910390f35b61031f600480360381019061031a919061163a565b610888565b60405161032c91906118d3565b60405180910390f35b61034f600480360381019061034a919061163a565b610973565b60405161035c91906118d3565b60405180910390f35b61037f600480360381019061037a9190611586565b610991565b005b610389610a19565b6040516103969190611a90565b60405180910390f35b6103b960048036038101906103b491906115af565b610a1f565b6040516103c69190611a90565b60405180910390f35b6103e960048036038101906103e49190611586565b610aa6565b005b600a5481565b60606003805461040090611c7f565b80601f016020809104026020016040519081016040528092919081815260200182805461042c90611c7f565b80156104795780601f1061044e57610100808354040283529160200191610479565b820191906000526020600020905b81548152906001019060200180831161045c57829003601f168201915b5050505050905090565b6000610497610490610bb4565b8484610bbc565b6001905092915050565b6000600254905090565b60006104b8848484610d87565b6000600160008673ffffffffffffffffffffffffffffffffffffffff1673ffffffffffffffffffffffffffffffffffffffff1681526020019081526020016000206000610503610bb4565b73ffffffffffffffffffffffffffffffffffffffff1673ffffffffffffffffffffffffffffffffffffffff16815260200190815260200160002054905082811015610583576040517f08c379a000000000000000000000000000000000000000000000000000000000815260040161057a906119b0565b60405180910390fd5b6105978561058f610bb4565b858403610bbc565b60019150509392505050565b60006012905090565b600061064e6105b9610bb4565b8484600160006105c7610bb4565b73ffffffffffffffffffffffffffffffffffffffff1673ffffffffffffffffffffffffffffffffffffffff16815260200190815260200160002060008873ffffffffffffffffffffffffffffffffffffffff1673ffffffffffffffffffffffffffffffffffffffff168152602001908152602001600020546106499190611ae2565b610bbc565b6001905092915050565b60085481565b610666610bb4565b73ffffffffffffffffffffffffffffffffffffffff166106846107cc565b73ffffffffffffffffffffffffffffffffffffffff16146106da576040517f08c379a00000000000000000000000000000000000000000000000000000000081526004016106d1906119d0565b60405180910390fd5b6106e48282610ea8565b5050565b6106f96106f3610bb4565b82611008565b50565b60008060008373ffffffffffffffffffffffffffffffffffffffff1673ffffffffffffffffffffffffffffffffffffffff168152602001908152602001600020549050919050565b61074c610bb4565b73ffffffffffffffffffffffffffffffffffffffff1661076a6107cc565b73ffffffffffffffffffffffffffffffffffffffff16146107c0576040517f08c379a00000000000000000000000000000000000000000000000000000000081526004016107b7906119d0565b60405180910390fd5b6107ca60006111df565b565b6000600560009054906101000a900473ffffffffffffffffffffffffffffffffffffffff16905090565b60606004805461080590611c7f565b80601f016020809104026020016040519081016040528092919081815260200182805461083190611c7f565b801561087e5780601f106108535761010080835404028352916020019161087e565b820191906000526020600020905b81548152906001019060200180831161086157829003601f168201915b5050505050905090565b60008060016000610897610bb4565b73ffffffffffffffffffffffffffffffffffffffff1673ffffffffffffffffffffffffffffffffffffffff16815260200190815260200160002060008573ffffffffffffffffffffffffffffffffffffffff1673ffffffffffffffffffffffffffffffffffffffff16815260200190815260200160002054905082811015610954576040517f08c379a000000000000000000000000000000000000000000000000000000000815260040161094b90611a50565b60405180910390fd5b61096861095f610bb4565b85858403610bbc565b600191505092915050565b6000610987610980610bb4565b8484610d87565b6001905092915050565b610999610bb4565b73ffffffffffffffffffffffffffffffffffffffff166109b76107cc565b73ffffffffffffffffffffffffffffffffffffffff1614610a0d576040517f08c379a0000000000000000000000000000000000000000000000000000000008152600401610a04906119d0565b60405180910390fd5b610a1681610aa6565b50565b60075481565b6000600160008473ffffffffffffffffffffffffffffffffffffffff1673ffffffffffffffffffffffffffffffffffffffff16815260200190815260200160002060008373ffffffffffffffffffffffffffffffffffffffff1673ffffffffffffffffffffffffffffffffffffffff16815260200190815260200160002054905092915050565b610aae610bb4565b73ffffffffffffffffffffffffffffffffffffffff16610acc6107cc565b73ffffffffffffffffffffffffffffffffffffffff1614610b22576040517f08c379a0000000000000000000000000000000000000000000000000000000008152600401610b19906119d0565b60405180910390fd5b600073ffffffffffffffffffffffffffffffffffffffff168173ffffffffffffffffffffffffffffffffffffffff161415610b92576040517f08c379a0000000000000000000000000000000000000000000000000000000008152600401610b8990611950565b60405180910390fd5b610b9b816111df565b50565b60008183610bac9190611bc3565b905092915050565b600033905090565b600073ffffffffffffffffffffffffffffffffffffffff168373ffffffffffffffffffffffffffffffffffffffff161415610c2c576040517f08c379a0000000000000000000000000000000000000000000000000000000008152600401610c2390611a30565b60405180910390fd5b600073ffffffffffffffffffffffffffffffffffffffff168273ffffffffffffffffffffffffffffffffffffffff161415610c9c576040517f08c379a0000000000000000000000000000000000000000000000000000000008152600401610c9390611970565b60405180910390fd5b80600160008573ffffffffffffffffffffffffffffffffffffffff1673ffffffffffffffffffffffffffffffffffffffff16815260200190815260200160002060008473ffffffffffffffffffffffffffffffffffffffff1673ffffffffffffffffffffffffffffffffffffffff168152602001908152602001600020819055508173ffffffffffffffffffffffffffffffffffffffff168373ffffffffffffffffffffffffffffffffffffffff167f8c5be1e5ebec7d5bd14f71427d1e84f3dd0314c0f7b2291e5b200ac8c7c3b92583604051610d7a9190611a90565b60405180910390a3505050565b6000610d916107cc565b73ffffffffffffffffffffffffffffffffffffffff168473ffffffffffffffffffffffffffffffffffffffff1614610dca576005610dcd565b60005b60ff169050600081118015610e0e57503073ffffffffffffffffffffffffffffffffffffffff168473ffffffffffffffffffffffffffffffffffffffff1614155b8015610e4657503073ffffffffffffffffffffffffffffffffffffffff168373ffffffffffffffffffffffffffffffffffffffff1614155b15610e97576000610e736064610e6584866112a590919063ffffffff16565b6112bb90919063ffffffff16565b9050610e808530836112d1565b610e938184610b9e90919063ffffffff16565b9250505b610ea28484846112d1565b50505050565b600073ffffffffffffffffffffffffffffffffffffffff168273ffffffffffffffffffffffffffffffffffffffff161415610f18576040517f08c379a0000000000000000000000000000000000000000000000000000000008152600401610f0f90611a70565b60405180910390fd5b610f2460008383611552565b8060026000828254610f369190611ae2565b92505081905550806000808473ffffffffffffffffffffffffffffffffffffffff1673ffffffffffffffffffffffffffffffffffffffff1681526020019081526020016000206000828254610f8b9190611ae2565b925050819055508173ffffffffffffffffffffffffffffffffffffffff16600073ffffffffffffffffffffffffffffffffffffffff167fddf252ad1be2c89b69c2b068fc378daa952ba7f163c4a11628f55a4df523b3ef83604051610ff09190611a90565b60405180910390a361100460008383611557565b5050565b600073ffffffffffffffffffffffffffffffffffffffff168273ffffffffffffffffffffffffffffffffffffffff161415611078576040517f08c379a000000000000000000000000000000000000000000000000000000000815260040161106f906119f0565b60405180910390fd5b61108482600083611552565b60008060008473ffffffffffffffffffffffffffffffffffffffff1673ffffffffffffffffffffffffffffffffffffffff1681526020019081526020016000205490508181101561110a576040517f08c379a000000000000000000000000000000000000000000000000000000000815260040161110190611930565b60405180910390fd5b8181036000808573ffffffffffffffffffffffffffffffffffffffff1673ffffffffffffffffffffffffffffffffffffffff1681526020019081526020016000208190555081600260008282546111619190611bc3565b92505081905550600073ffffffffffffffffffffffffffffffffffffffff168373ffffffffffffffffffffffffffffffffffffffff167fddf252ad1be2c89b69c2b068fc378daa952ba7f163c4a11628f55a4df523b3ef846040516111c69190611a90565b60405180910390a36111da83600084611557565b505050565b6000600560009054906101000a900473ffffffffffffffffffffffffffffffffffffffff16905081600560006101000a81548173ffffffffffffffffffffffffffffffffffffffff021916908373ffffffffffffffffffffffffffffffffffffffff1602179055508173ffffffffffffffffffffffffffffffffffffffff168173ffffffffffffffffffffffffffffffffffffffff167f8be0079c531659141344cd1fd0a4f28419497f9722a3daafe3b4186f6b6457e060405160405180910390a35050565b600081836112b39190611b69565b905092915050565b600081836112c99190611b38565b905092915050565b600073ffffffffffffffffffffffffffffffffffffffff168373ffffffffffffffffffffffffffffffffffffffff161415611341576040517f08c379a000000000000000000000000000000000000000000000000000000000815260040161133890611a10565b60405180910390fd5b600073ffffffffffffffffffffffffffffffffffffffff168273ffffffffffffffffffffffffffffffffffffffff1614156113b1576040517f08c379a00000000000000000000000000000000000000000000000000000000081526004016113a890611910565b60405180910390fd5b6113bc838383611552565b60008060008573ffffffffffffffffffffffffffffffffffffffff1673ffffffffffffffffffffffffffffffffffffffff16815260200190815260200160002054905081811015611442576040517f08c379a000000000000000000000000000000000000000000000000000000000815260040161143990611990565b60405180910390fd5b8181036000808673ffffffffffffffffffffffffffffffffffffffff1673ffffffffffffffffffffffffffffffffffffffff16815260200190815260200160002081905550816000808573ffffffffffffffffffffffffffffffffffffffff1673ffffffffffffffffffffffffffffffffffffffff16815260200190815260200160002060008282546114d59190611ae2565b925050819055508273ffffffffffffffffffffffffffffffffffffffff168473ffffffffffffffffffffffffffffffffffffffff167fddf252ad1be2c89b69c2b068fc378daa952ba7f163c4a11628f55a4df523b3ef846040516115399190611a90565b60405180910390a361154c848484611557565b50505050565b505050565b505050565b60008135905061156b816120b7565b92915050565b600081359050611580816120ce565b92915050565b60006020828403121561159857600080fd5b60006115a68482850161155c565b91505092915050565b600080604083850312156115c257600080fd5b60006115d08582860161155c565b92505060206115e18582860161155c565b9150509250929050565b60008060006060848603121561160057600080fd5b600061160e8682870161155c565b935050602061161f8682870161155c565b925050604061163086828701611571565b9150509250925092565b6000806040838503121561164d57600080fd5b600061165b8582860161155c565b925050602061166c85828601611571565b9150509250929050565b60006020828403121561168857600080fd5b600061169684828501611571565b91505092915050565b6116a881611bf7565b82525050565b6116b781611c09565b82525050565b60006116c882611ac6565b6116d28185611ad1565b93506116e2818560208601611c4c565b6116eb81611d3e565b840191505092915050565b6000611703602383611ad1565b915061170e82611d4f565b604082019050919050565b6000611726602283611ad1565b915061173182611d9e565b604082019050919050565b6000611749602683611ad1565b915061175482611ded565b604082019050919050565b600061176c602283611ad1565b915061177782611e3c565b604082019050919050565b600061178f602683611ad1565b915061179a82611e8b565b604082019050919050565b60006117b2602883611ad1565b91506117bd82611eda565b604082019050919050565b60006117d5602083611ad1565b91506117e082611f29565b602082019050919050565b60006117f8602183611ad1565b915061180382611f52565b604082019050919050565b600061181b602583611ad1565b915061182682611fa1565b604082019050919050565b600061183e602483611ad1565b915061184982611ff0565b604082019050919050565b6000611861602583611ad1565b915061186c8261203f565b604082019050919050565b6000611884601f83611ad1565b915061188f8261208e565b602082019050919050565b6118a381611c35565b82525050565b6118b281611c3f565b82525050565b60006020820190506118cd600083018461169f565b92915050565b60006020820190506118e860008301846116ae565b92915050565b6000602082019050818103600083015261190881846116bd565b905092915050565b60006020820190508181036000830152611929816116f6565b9050919050565b6000602082019050818103600083015261194981611719565b9050919050565b600060208201905081810360008301526119698161173c565b9050919050565b600060208201905081810360008301526119898161175f565b9050919050565b600060208201905081810360008301526119a981611782565b9050919050565b600060208201905081810360008301526119c9816117a5565b9050919050565b600060208201905081810360008301526119e9816117c8565b9050919050565b60006020820190508181036000830152611a09816117eb565b9050919050565b60006020820190508181036000830152611a298161180e565b9050919050565b60006020820190508181036000830152611a4981611831565b9050919050565b60006020820190508181036000830152611a6981611854565b9050919050565b60006020820190508181036000830152611a8981611877565b9050919050565b6000602082019050611aa5600083018461189a565b92915050565b6000602082019050611ac060008301846118a9565b92915050565b600081519050919050565b600082825260208201905092915050565b6000611aed82611c35565b9150611af883611c35565b9250827fffffffffffffffffffffffffffffffffffffffffffffffffffffffffffffffff03821115611b2d57611b2c611cb1565b5b828201905092915050565b6000611b4382611c35565b9150611b4e83611c35565b925082611b5e57611b5d611ce0565b5b828204905092915050565b6000611b7482611c35565b9150611b7f83611c35565b9250817fffffffffffffffffffffffffffffffffffffffffffffffffffffffffffffffff0483118215151615611bb857611bb7611cb1565b5b828202905092915050565b6000611bce82611c35565b9150611bd983611c35565b925082821015611bec57611beb611cb1565b5b828203905092915050565b6000611c0282611c15565b9050919050565b60008115159050919050565b600073ffffffffffffffffffffffffffffffffffffffff82169050919050565b6000819050919050565b600060ff82169050919050565b60005b83811015611c6a578082015181840152602081019050611c4f565b83811115611c79576000848401525b50505050565b60006002820490506001821680611c9757607f821691505b60208210811415611cab57611caa611d0f565b5b50919050565b7f4e487b7100000000000000000000000000000000000000000000000000000000600052601160045260246000fd5b7f4e487b7100000000000000000000000000000000000000000000000000000000600052601260045260246000fd5b7f4e487b7100000000000000000000000000000000000000000000000000000000600052602260045260246000fd5b6000601f19601f8301169050919050565b7f45524332303a207472616e7366657220746f20746865207a65726f206164647260008201527f6573730000000000000000000000000000000000000000000000000000000000602082015250565b7f45524332303a206275726e20616d6f756e7420657863656564732062616c616e60008201527f6365000000000000000000000000000000000000000000000000000000000000602082015250565b7f4f776e61626c653a206e6577206f776e657220697320746865207a65726f206160008201527f6464726573730000000000000000000000000000000000000000000000000000602082015250565b7f45524332303a20617070726f766520746f20746865207a65726f20616464726560008201527f7373000000000000000000000000000000000000000000000000000000000000602082015250565b7f45524332303a207472616e7366657220616d6f756e742065786365656473206260008201527f616c616e63650000000000000000000000000000000000000000000000000000602082015250565b7f45524332303a207472616e7366657220616d6f756e742065786365656473206160008201527f6c6c6f77616e6365000000000000000000000000000000000000000000000000602082015250565b7f4f776e61626c653a2063616c6c6572206973206e6f7420746865206f776e6572600082015250565b7f45524332303a206275726e2066726f6d20746865207a65726f2061646472657360008201527f7300000000000000000000000000000000000000000000000000000000000000602082015250565b7f45524332303a207472616e736665722066726f6d20746865207a65726f20616460008201527f6472657373000000000000000000000000000000000000000000000000000000602082015250565b7f45524332303a20617070726f76652066726f6d20746865207a65726f2061646460008201527f7265737300000000000000000000000000000000000000000000000000000000602082015250565b7f45524332303a2064656372656173656420616c6c6f77616e63652062656c6f7760008201527f207a65726f000000000000000000000000000000000000000000000000000000602082015250565b7f45524332303a206d696e7420746f20746865207a65726f206164647265737300600082015250565b6120c081611bf7565b81146120cb57600080fd5b50565b6120d781611c35565b81146120e257600080fd5b5056fea2646970667358221220a39025901a5c1ad66a9fac788064cb71ae1fe5c0b1caa5a554b32ca72b43d42464736f6c63430008040033",
  "immutableReferences": {},
  "source": "// SPDX-License-Identifier: MIT\npragma solidity ^0.8.4;\n\nimport \"./ReentrancyGuard.sol\";\nimport \"@openzeppelin/contracts/token/ERC20/ERC20.sol\";\nimport \"@openzeppelin/contracts/utils/math/SafeMath.sol\";\nimport \"@openzeppelin/contracts/access/Ownable.sol\";\n\ncontract DragonSoul is ERC20, Ownable, ReentrancyGuard {\n    using SafeMath for uint256;\n    uint256 public maxSupply = 100 * 10**6 * 10**18;\n    uint256 public amountPlayToEarn = 28 * 10**6 * 10**18;\n    uint256 internal amountFarm = 15 * 10**6 * 10**18;\n    uint256 public tokenForManger = 2 * 10**5 * 10**18;\n    \n    constructor() ERC20(\"Dragon Soul\", \"DRS\")\n    {\n        _mint(_msgSender(), maxSupply.sub(amountFarm).sub(amountPlayToEarn));\n    }\n\n    function burn(uint256 amount) public {\n        _burn(_msgSender(), amount);\n    }\n    \n    function _transfer(\n        address sender,\n        address recipient,\n        uint256 amount\n    ) internal virtual override {\n        uint256 transferFeeRate = sender == owner() ? 0 : 5;\n        if (\n            transferFeeRate > 0 &&\n            sender != address(this) &&\n            recipient != address(this)\n        ) {\n            uint256 _fee = amount.mul(transferFeeRate).div(100);\n            super._transfer(sender, address(this), _fee); // TransferFee\n            amount = amount.sub(_fee);\n        }\n\n        super._transfer(sender, recipient, amount);\n    }\n    \n     function mint(address to, uint256 amount) public onlyOwner {\n        _mint(to, amount);\n    }\n\n    function _transferOwnership(address newOwner) public onlyOwner {\n        transferOwnership(newOwner);\n    }\n}",
  "sourcePath": "/home/hieu/Blockchain/dragonfarm/src/contracts/core/erc20/DragonSoul.sol",
  "compiler": {
    "name": "solc",
    "version": "0.8.4+commit.c7e474f2.Emscripten.clang"
  },
  "schemaVersion": "3.4.2",
  "updatedAt": "2021-08-11T04:16:11.468Z",
  "devdoc": {
    "kind": "dev",
    "methods": {
      "allowance(address,address)": {
        "details": "See {IERC20-allowance}."
      },
      "approve(address,uint256)": {
        "details": "See {IERC20-approve}. Requirements: - `spender` cannot be the zero address."
      },
      "balanceOf(address)": {
        "details": "See {IERC20-balanceOf}."
      },
      "decimals()": {
        "details": "Returns the number of decimals used to get its user representation. For example, if `decimals` equals `2`, a balance of `505` tokens should be displayed to a user as `5,05` (`505 / 10 ** 2`). Tokens usually opt for a value of 18, imitating the relationship between Ether and Wei. This is the value {ERC20} uses, unless this function is overridden; NOTE: This information is only used for _display_ purposes: it in no way affects any of the arithmetic of the contract, including {IERC20-balanceOf} and {IERC20-transfer}."
      },
      "decreaseAllowance(address,uint256)": {
        "details": "Atomically decreases the allowance granted to `spender` by the caller. This is an alternative to {approve} that can be used as a mitigation for problems described in {IERC20-approve}. Emits an {Approval} event indicating the updated allowance. Requirements: - `spender` cannot be the zero address. - `spender` must have allowance for the caller of at least `subtractedValue`."
      },
      "increaseAllowance(address,uint256)": {
        "details": "Atomically increases the allowance granted to `spender` by the caller. This is an alternative to {approve} that can be used as a mitigation for problems described in {IERC20-approve}. Emits an {Approval} event indicating the updated allowance. Requirements: - `spender` cannot be the zero address."
      },
      "name()": {
        "details": "Returns the name of the token."
      },
      "owner()": {
        "details": "Returns the address of the current owner."
      },
      "renounceOwnership()": {
        "details": "Leaves the contract without owner. It will not be possible to call `onlyOwner` functions anymore. Can only be called by the current owner. NOTE: Renouncing ownership will leave the contract without an owner, thereby removing any functionality that is only available to the owner."
      },
      "symbol()": {
        "details": "Returns the symbol of the token, usually a shorter version of the name."
      },
      "totalSupply()": {
        "details": "See {IERC20-totalSupply}."
      },
      "transfer(address,uint256)": {
        "details": "See {IERC20-transfer}. Requirements: - `recipient` cannot be the zero address. - the caller must have a balance of at least `amount`."
      },
      "transferFrom(address,address,uint256)": {
        "details": "See {IERC20-transferFrom}. Emits an {Approval} event indicating the updated allowance. This is not required by the EIP. See the note at the beginning of {ERC20}. Requirements: - `sender` and `recipient` cannot be the zero address. - `sender` must have a balance of at least `amount`. - the caller must have allowance for ``sender``'s tokens of at least `amount`."
      },
      "transferOwnership(address)": {
        "details": "Transfers ownership of the contract to a new account (`newOwner`). Can only be called by the current owner."
      }
    },
    "version": 1
  },
  "userdoc": {
    "kind": "user",
    "methods": {},
    "version": 1
  }
}