{
  "contractName": "DragonFarmERC20",
  "abi": [
    {
      "inputs": [
        {
          "internalType": "string",
          "name": "",
          "type": "string"
        },
        {
          "internalType": "string",
          "name": "",
          "type": "string"
        }
      ],
      "stateMutability": "nonpayable",
      "type": "constructor"
    },
    {
      "anonymous": false,
      "inputs": [
        {
          "indexed": true,
          "internalType": "address",
          "name": "owner",
          "type": "address"
        },
        {
          "indexed": true,
          "internalType": "address",
          "name": "spender",
          "type": "address"
        },
        {
          "indexed": false,
          "internalType": "uint256",
          "name": "value",
          "type": "uint256"
        }
      ],
      "name": "Approval",
      "type": "event"
    },
    {
      "anonymous": false,
      "inputs": [
        {
          "indexed": true,
          "internalType": "address",
          "name": "previousOwner",
          "type": "address"
        },
        {
          "indexed": true,
          "internalType": "address",
          "name": "newOwner",
          "type": "address"
        }
      ],
      "name": "OwnershipTransferred",
      "type": "event"
    },
    {
      "anonymous": false,
      "inputs": [
        {
          "indexed": true,
          "internalType": "address",
          "name": "from",
          "type": "address"
        },
        {
          "indexed": true,
          "internalType": "address",
          "name": "to",
          "type": "address"
        },
        {
          "indexed": false,
          "internalType": "uint256",
          "name": "value",
          "type": "uint256"
        }
      ],
      "name": "Transfer",
      "type": "event"
    },
    {
      "inputs": [],
      "name": "addressForBosses",
      "outputs": [
        {
          "internalType": "address",
          "name": "",
          "type": "address"
        }
      ],
      "stateMutability": "view",
      "type": "function"
    },
    {
      "inputs": [
        {
          "internalType": "address",
          "name": "owner",
          "type": "address"
        },
        {
          "internalType": "address",
          "name": "spender",
          "type": "address"
        }
      ],
      "name": "allowance",
      "outputs": [
        {
          "internalType": "uint256",
          "name": "",
          "type": "uint256"
        }
      ],
      "stateMutability": "view",
      "type": "function"
    },
    {
      "inputs": [],
      "name": "amountPlayToEarn",
      "outputs": [
        {
          "internalType": "uint256",
          "name": "",
          "type": "uint256"
        }
      ],
      "stateMutability": "view",
      "type": "function"
    },
    {
      "inputs": [
        {
          "internalType": "address",
          "name": "spender",
          "type": "address"
        },
        {
          "internalType": "uint256",
          "name": "amount",
          "type": "uint256"
        }
      ],
      "name": "approve",
      "outputs": [
        {
          "internalType": "bool",
          "name": "",
          "type": "bool"
        }
      ],
      "stateMutability": "nonpayable",
      "type": "function"
    },
    {
      "inputs": [
        {
          "internalType": "address",
          "name": "account",
          "type": "address"
        }
      ],
      "name": "balanceOf",
      "outputs": [
        {
          "internalType": "uint256",
          "name": "",
          "type": "uint256"
        }
      ],
      "stateMutability": "view",
      "type": "function"
    },
    {
      "inputs": [],
      "name": "buyFeeRate",
      "outputs": [
        {
          "internalType": "uint256",
          "name": "",
          "type": "uint256"
        }
      ],
      "stateMutability": "view",
      "type": "function"
    },
    {
      "inputs": [],
      "name": "decimals",
      "outputs": [
        {
          "internalType": "uint8",
          "name": "",
          "type": "uint8"
        }
      ],
      "stateMutability": "view",
      "type": "function"
    },
    {
      "inputs": [
        {
          "internalType": "address",
          "name": "spender",
          "type": "address"
        },
        {
          "internalType": "uint256",
          "name": "subtractedValue",
          "type": "uint256"
        }
      ],
      "name": "decreaseAllowance",
      "outputs": [
        {
          "internalType": "bool",
          "name": "",
          "type": "bool"
        }
      ],
      "stateMutability": "nonpayable",
      "type": "function"
    },
    {
      "inputs": [
        {
          "internalType": "address",
          "name": "spender",
          "type": "address"
        },
        {
          "internalType": "uint256",
          "name": "addedValue",
          "type": "uint256"
        }
      ],
      "name": "increaseAllowance",
      "outputs": [
        {
          "internalType": "bool",
          "name": "",
          "type": "bool"
        }
      ],
      "stateMutability": "nonpayable",
      "type": "function"
    },
    {
      "inputs": [],
      "name": "name",
      "outputs": [
        {
          "internalType": "string",
          "name": "",
          "type": "string"
        }
      ],
      "stateMutability": "view",
      "type": "function"
    },
    {
      "inputs": [],
      "name": "owner",
      "outputs": [
        {
          "internalType": "address",
          "name": "",
          "type": "address"
        }
      ],
      "stateMutability": "view",
      "type": "function"
    },
    {
      "inputs": [],
      "name": "playToEarnReward",
      "outputs": [
        {
          "internalType": "uint256",
          "name": "",
          "type": "uint256"
        }
      ],
      "stateMutability": "view",
      "type": "function"
    },
    {
      "inputs": [],
      "name": "renounceOwnership",
      "outputs": [],
      "stateMutability": "nonpayable",
      "type": "function"
    },
    {
      "inputs": [],
      "name": "sellFeeRate",
      "outputs": [
        {
          "internalType": "uint256",
          "name": "",
          "type": "uint256"
        }
      ],
      "stateMutability": "view",
      "type": "function"
    },
    {
      "inputs": [],
      "name": "symbol",
      "outputs": [
        {
          "internalType": "string",
          "name": "",
          "type": "string"
        }
      ],
      "stateMutability": "view",
      "type": "function"
    },
    {
      "inputs": [],
      "name": "tokenForBosses",
      "outputs": [
        {
          "internalType": "uint256",
          "name": "",
          "type": "uint256"
        }
      ],
      "stateMutability": "view",
      "type": "function"
    },
    {
      "inputs": [],
      "name": "totalSupply",
      "outputs": [
        {
          "internalType": "uint256",
          "name": "",
          "type": "uint256"
        }
      ],
      "stateMutability": "view",
      "type": "function"
    },
    {
      "inputs": [
        {
          "internalType": "address",
          "name": "recipient",
          "type": "address"
        },
        {
          "internalType": "uint256",
          "name": "amount",
          "type": "uint256"
        }
      ],
      "name": "transfer",
      "outputs": [
        {
          "internalType": "bool",
          "name": "",
          "type": "bool"
        }
      ],
      "stateMutability": "nonpayable",
      "type": "function"
    },
    {
      "inputs": [
        {
          "internalType": "address",
          "name": "sender",
          "type": "address"
        },
        {
          "internalType": "address",
          "name": "recipient",
          "type": "address"
        },
        {
          "internalType": "uint256",
          "name": "amount",
          "type": "uint256"
        }
      ],
      "name": "transferFrom",
      "outputs": [
        {
          "internalType": "bool",
          "name": "",
          "type": "bool"
        }
      ],
      "stateMutability": "nonpayable",
      "type": "function"
    },
    {
      "inputs": [
        {
          "internalType": "address",
          "name": "newOwner",
          "type": "address"
        }
      ],
      "name": "transferOwnership",
      "outputs": [],
      "stateMutability": "nonpayable",
      "type": "function"
    },
    {
      "inputs": [
        {
          "internalType": "uint256",
          "name": "_sellFeeRate",
          "type": "uint256"
        },
        {
          "internalType": "uint256",
          "name": "_buyFeeRate",
          "type": "uint256"
        }
      ],
      "name": "setTransferFeeRate",
      "outputs": [],
      "stateMutability": "nonpayable",
      "type": "function"
    }
  ],
  "bytecode": "0x60806040526a17293b0a9e69fd9c0000006006556a0c685fa11e01ec6f000000600755692a5a058fc295ed0000006008556005600c556002600d553480156200004757600080fd5b5060405162001f8f38038062001f8f83398181016040528101906200006d91906200037f565b6040518060400160405280600f81526020017f447261676f6e4661726d546f6b656e00000000000000000000000000000000008152506040518060400160405280600381526020017f4446540000000000000000000000000000000000000000000000000000000000815250620000f9620000ed6200018560201b60201c565b6200018d60201b60201c565b81600490805190602001906200011192919062000251565b5080600590805190602001906200012a92919062000251565b5050506200013d6200018560201b60201c565b600b60006101000a81548173ffffffffffffffffffffffffffffffffffffffff021916908373ffffffffffffffffffffffffffffffffffffffff160217905550505062000588565b600033905090565b60008060009054906101000a900473ffffffffffffffffffffffffffffffffffffffff169050816000806101000a81548173ffffffffffffffffffffffffffffffffffffffff021916908373ffffffffffffffffffffffffffffffffffffffff1602179055508173ffffffffffffffffffffffffffffffffffffffff168173ffffffffffffffffffffffffffffffffffffffff167f8be0079c531659141344cd1fd0a4f28419497f9722a3daafe3b4186f6b6457e060405160405180910390a35050565b8280546200025f9062000499565b90600052602060002090601f016020900481019282620002835760008555620002cf565b82601f106200029e57805160ff1916838001178555620002cf565b82800160010185558215620002cf579182015b82811115620002ce578251825591602001919060010190620002b1565b5b509050620002de9190620002e2565b5090565b5b80821115620002fd576000816000905550600101620002e3565b5090565b60006200031862000312846200042d565b62000404565b90508281526020810184848401111562000337576200033662000568565b5b6200034484828562000463565b509392505050565b600082601f83011262000364576200036362000563565b5b81516200037684826020860162000301565b91505092915050565b6000806040838503121562000399576200039862000572565b5b600083015167ffffffffffffffff811115620003ba57620003b96200056d565b5b620003c8858286016200034c565b925050602083015167ffffffffffffffff811115620003ec57620003eb6200056d565b5b620003fa858286016200034c565b9150509250929050565b60006200041062000423565b90506200041e8282620004cf565b919050565b6000604051905090565b600067ffffffffffffffff8211156200044b576200044a62000534565b5b620004568262000577565b9050602081019050919050565b60005b838110156200048357808201518184015260208101905062000466565b8381111562000493576000848401525b50505050565b60006002820490506001821680620004b257607f821691505b60208210811415620004c957620004c862000505565b5b50919050565b620004da8262000577565b810181811067ffffffffffffffff82111715620004fc57620004fb62000534565b5b80604052505050565b7f4e487b7100000000000000000000000000000000000000000000000000000000600052602260045260246000fd5b7f4e487b7100000000000000000000000000000000000000000000000000000000600052604160045260246000fd5b600080fd5b600080fd5b600080fd5b600080fd5b6000601f19601f8301169050919050565b6119f780620005986000396000f3fe608060405234801561001057600080fd5b50600436106101375760003560e01c80636a316213116100b85780638da5cb5b1161007c5780638da5cb5b1461033057806395d89b411461034e578063a457c2d71461036c578063a9059cbb1461039c578063dd62ed3e146103cc578063f2fde38b146103fc57610137565b80636a3162131461029e5780636b1b4987146102ba57806370a08231146102d8578063715018a6146103085780637b1f21771461031257610137565b806339509351116100ff57806339509351146101f65780633d616df31461022657806357916c58146102445780635b149feb1461026257806369d08ddc1461028057610137565b806306fdde031461013c578063095ea7b31461015a57806318160ddd1461018a57806323b872dd146101a8578063313ce567146101d8575b600080fd5b610144610418565b60405161015191906113da565b60405180910390f35b610174600480360381019061016f9190611174565b6104aa565b60405161018191906113bf565b60405180910390f35b6101926104c8565b60405161019f919061151c565b60405180910390f35b6101c260048036038101906101bd9190611121565b6104d2565b6040516101cf91906113bf565b60405180910390f35b6101e06105ca565b6040516101ed9190611537565b60405180910390f35b610210600480360381019061020b9190611174565b6105d3565b60405161021d91906113bf565b60405180910390f35b61022e61067f565b60405161023b919061151c565b60405180910390f35b61024c610685565b604051610259919061151c565b60405180910390f35b61026a61068b565b604051610277919061151c565b60405180910390f35b610288610691565b604051610295919061151c565b60405180910390f35b6102b860048036038101906102b391906111b4565b610697565b005b6102c2610725565b6040516102cf919061151c565b60405180910390f35b6102f260048036038101906102ed91906110b4565b61072b565b6040516102ff919061151c565b60405180910390f35b610310610774565b005b61031a6107fc565b60405161032791906113a4565b60405180910390f35b610338610822565b60405161034591906113a4565b60405180910390f35b61035661084b565b60405161036391906113da565b60405180910390f35b61038660048036038101906103819190611174565b6108dd565b60405161039391906113bf565b60405180910390f35b6103b660048036038101906103b19190611174565b6109c8565b6040516103c391906113bf565b60405180910390f35b6103e660048036038101906103e191906110e1565b6109e6565b6040516103f3919061151c565b60405180910390f35b610416600480360381019061041191906110b4565b610a6d565b005b6060600480546104279061164c565b80601f01602080910402602001604051908101604052809291908181526020018280546104539061164c565b80156104a05780601f10610475576101008083540402835291602001916104a0565b820191906000526020600020905b81548152906001019060200180831161048357829003601f168201915b5050505050905090565b60006104be6104b7610b65565b8484610b6d565b6001905092915050565b6000600354905090565b60006104df848484610d38565b6000600260008673ffffffffffffffffffffffffffffffffffffffff1673ffffffffffffffffffffffffffffffffffffffff168152602001908152602001600020600061052a610b65565b73ffffffffffffffffffffffffffffffffffffffff1673ffffffffffffffffffffffffffffffffffffffff168152602001908152602001600020549050828110156105aa576040517f08c379a00000000000000000000000000000000000000000000000000000000081526004016105a19061147c565b60405180910390fd5b6105be856105b6610b65565b858403610b6d565b60019150509392505050565b60006012905090565b60006106756105e0610b65565b8484600260006105ee610b65565b73ffffffffffffffffffffffffffffffffffffffff1673ffffffffffffffffffffffffffffffffffffffff16815260200190815260200160002060008873ffffffffffffffffffffffffffffffffffffffff1673ffffffffffffffffffffffffffffffffffffffff16815260200190815260200160002054610670919061156e565b610b6d565b6001905092915050565b60065481565b60085481565b600c5481565b60095481565b61069f610b65565b73ffffffffffffffffffffffffffffffffffffffff166106bd610822565b73ffffffffffffffffffffffffffffffffffffffff1614610713576040517f08c379a000000000000000000000000000000000000000000000000000000000815260040161070a9061149c565b60405180910390fd5b81600c8190555080600d819055505050565b600d5481565b6000600160008373ffffffffffffffffffffffffffffffffffffffff1673ffffffffffffffffffffffffffffffffffffffff168152602001908152602001600020549050919050565b61077c610b65565b73ffffffffffffffffffffffffffffffffffffffff1661079a610822565b73ffffffffffffffffffffffffffffffffffffffff16146107f0576040517f08c379a00000000000000000000000000000000000000000000000000000000081526004016107e79061149c565b60405180910390fd5b6107fa6000610fbc565b565b600b60009054906101000a900473ffffffffffffffffffffffffffffffffffffffff1681565b60008060009054906101000a900473ffffffffffffffffffffffffffffffffffffffff16905090565b60606005805461085a9061164c565b80601f01602080910402602001604051908101604052809291908181526020018280546108869061164c565b80156108d35780601f106108a8576101008083540402835291602001916108d3565b820191906000526020600020905b8154815290600101906020018083116108b657829003601f168201915b5050505050905090565b600080600260006108ec610b65565b73ffffffffffffffffffffffffffffffffffffffff1673ffffffffffffffffffffffffffffffffffffffff16815260200190815260200160002060008573ffffffffffffffffffffffffffffffffffffffff1673ffffffffffffffffffffffffffffffffffffffff168152602001908152602001600020549050828110156109a9576040517f08c379a00000000000000000000000000000000000000000000000000000000081526004016109a0906114fc565b60405180910390fd5b6109bd6109b4610b65565b85858403610b6d565b600191505092915050565b60006109dc6109d5610b65565b8484610d38565b6001905092915050565b6000600260008473ffffffffffffffffffffffffffffffffffffffff1673ffffffffffffffffffffffffffffffffffffffff16815260200190815260200160002060008373ffffffffffffffffffffffffffffffffffffffff1673ffffffffffffffffffffffffffffffffffffffff16815260200190815260200160002054905092915050565b610a75610b65565b73ffffffffffffffffffffffffffffffffffffffff16610a93610822565b73ffffffffffffffffffffffffffffffffffffffff1614610ae9576040517f08c379a0000000000000000000000000000000000000000000000000000000008152600401610ae09061149c565b60405180910390fd5b600073ffffffffffffffffffffffffffffffffffffffff168173ffffffffffffffffffffffffffffffffffffffff161415610b59576040517f08c379a0000000000000000000000000000000000000000000000000000000008152600401610b509061141c565b60405180910390fd5b610b6281610fbc565b50565b600033905090565b600073ffffffffffffffffffffffffffffffffffffffff168373ffffffffffffffffffffffffffffffffffffffff161415610bdd576040517f08c379a0000000000000000000000000000000000000000000000000000000008152600401610bd4906114dc565b60405180910390fd5b600073ffffffffffffffffffffffffffffffffffffffff168273ffffffffffffffffffffffffffffffffffffffff161415610c4d576040517f08c379a0000000000000000000000000000000000000000000000000000000008152600401610c449061143c565b60405180910390fd5b80600260008573ffffffffffffffffffffffffffffffffffffffff1673ffffffffffffffffffffffffffffffffffffffff16815260200190815260200160002060008473ffffffffffffffffffffffffffffffffffffffff1673ffffffffffffffffffffffffffffffffffffffff168152602001908152602001600020819055508173ffffffffffffffffffffffffffffffffffffffff168373ffffffffffffffffffffffffffffffffffffffff167f8c5be1e5ebec7d5bd14f71427d1e84f3dd0314c0f7b2291e5b200ac8c7c3b92583604051610d2b919061151c565b60405180910390a3505050565b600073ffffffffffffffffffffffffffffffffffffffff168373ffffffffffffffffffffffffffffffffffffffff161415610da8576040517f08c379a0000000000000000000000000000000000000000000000000000000008152600401610d9f906114bc565b60405180910390fd5b600073ffffffffffffffffffffffffffffffffffffffff168273ffffffffffffffffffffffffffffffffffffffff161415610e18576040517f08c379a0000000000000000000000000000000000000000000000000000000008152600401610e0f906113fc565b60405180910390fd5b610e23838383611080565b6000600160008573ffffffffffffffffffffffffffffffffffffffff1673ffffffffffffffffffffffffffffffffffffffff16815260200190815260200160002054905081811015610eaa576040517f08c379a0000000000000000000000000000000000000000000000000000000008152600401610ea19061145c565b60405180910390fd5b818103600160008673ffffffffffffffffffffffffffffffffffffffff1673ffffffffffffffffffffffffffffffffffffffff1681526020019081526020016000208190555081600160008573ffffffffffffffffffffffffffffffffffffffff1673ffffffffffffffffffffffffffffffffffffffff1681526020019081526020016000206000828254610f3f919061156e565b925050819055508273ffffffffffffffffffffffffffffffffffffffff168473ffffffffffffffffffffffffffffffffffffffff167fddf252ad1be2c89b69c2b068fc378daa952ba7f163c4a11628f55a4df523b3ef84604051610fa3919061151c565b60405180910390a3610fb6848484611085565b50505050565b60008060009054906101000a900473ffffffffffffffffffffffffffffffffffffffff169050816000806101000a81548173ffffffffffffffffffffffffffffffffffffffff021916908373ffffffffffffffffffffffffffffffffffffffff1602179055508173ffffffffffffffffffffffffffffffffffffffff168173ffffffffffffffffffffffffffffffffffffffff167f8be0079c531659141344cd1fd0a4f28419497f9722a3daafe3b4186f6b6457e060405160405180910390a35050565b505050565b505050565b60008135905061109981611993565b92915050565b6000813590506110ae816119aa565b92915050565b6000602082840312156110ca576110c96116dc565b5b60006110d88482850161108a565b91505092915050565b600080604083850312156110f8576110f76116dc565b5b60006111068582860161108a565b92505060206111178582860161108a565b9150509250929050565b60008060006060848603121561113a576111396116dc565b5b60006111488682870161108a565b93505060206111598682870161108a565b925050604061116a8682870161109f565b9150509250925092565b6000806040838503121561118b5761118a6116dc565b5b60006111998582860161108a565b92505060206111aa8582860161109f565b9150509250929050565b600080604083850312156111cb576111ca6116dc565b5b60006111d98582860161109f565b92505060206111ea8582860161109f565b9150509250929050565b6111fd816115c4565b82525050565b61120c816115d6565b82525050565b600061121d82611552565b611227818561155d565b9350611237818560208601611619565b611240816116e1565b840191505092915050565b600061125860238361155d565b9150611263826116f2565b604082019050919050565b600061127b60268361155d565b915061128682611741565b604082019050919050565b600061129e60228361155d565b91506112a982611790565b604082019050919050565b60006112c160268361155d565b91506112cc826117df565b604082019050919050565b60006112e460288361155d565b91506112ef8261182e565b604082019050919050565b600061130760208361155d565b91506113128261187d565b602082019050919050565b600061132a60258361155d565b9150611335826118a6565b604082019050919050565b600061134d60248361155d565b9150611358826118f5565b604082019050919050565b600061137060258361155d565b915061137b82611944565b604082019050919050565b61138f81611602565b82525050565b61139e8161160c565b82525050565b60006020820190506113b960008301846111f4565b92915050565b60006020820190506113d46000830184611203565b92915050565b600060208201905081810360008301526113f48184611212565b905092915050565b600060208201905081810360008301526114158161124b565b9050919050565b600060208201905081810360008301526114358161126e565b9050919050565b6000602082019050818103600083015261145581611291565b9050919050565b60006020820190508181036000830152611475816112b4565b9050919050565b60006020820190508181036000830152611495816112d7565b9050919050565b600060208201905081810360008301526114b5816112fa565b9050919050565b600060208201905081810360008301526114d58161131d565b9050919050565b600060208201905081810360008301526114f581611340565b9050919050565b6000602082019050818103600083015261151581611363565b9050919050565b60006020820190506115316000830184611386565b92915050565b600060208201905061154c6000830184611395565b92915050565b600081519050919050565b600082825260208201905092915050565b600061157982611602565b915061158483611602565b9250827fffffffffffffffffffffffffffffffffffffffffffffffffffffffffffffffff038211156115b9576115b861167e565b5b828201905092915050565b60006115cf826115e2565b9050919050565b60008115159050919050565b600073ffffffffffffffffffffffffffffffffffffffff82169050919050565b6000819050919050565b600060ff82169050919050565b60005b8381101561163757808201518184015260208101905061161c565b83811115611646576000848401525b50505050565b6000600282049050600182168061166457607f821691505b60208210811415611678576116776116ad565b5b50919050565b7f4e487b7100000000000000000000000000000000000000000000000000000000600052601160045260246000fd5b7f4e487b7100000000000000000000000000000000000000000000000000000000600052602260045260246000fd5b600080fd5b6000601f19601f8301169050919050565b7f45524332303a207472616e7366657220746f20746865207a65726f206164647260008201527f6573730000000000000000000000000000000000000000000000000000000000602082015250565b7f4f776e61626c653a206e6577206f776e657220697320746865207a65726f206160008201527f6464726573730000000000000000000000000000000000000000000000000000602082015250565b7f45524332303a20617070726f766520746f20746865207a65726f20616464726560008201527f7373000000000000000000000000000000000000000000000000000000000000602082015250565b7f45524332303a207472616e7366657220616d6f756e742065786365656473206260008201527f616c616e63650000000000000000000000000000000000000000000000000000602082015250565b7f45524332303a207472616e7366657220616d6f756e742065786365656473206160008201527f6c6c6f77616e6365000000000000000000000000000000000000000000000000602082015250565b7f4f776e61626c653a2063616c6c6572206973206e6f7420746865206f776e6572600082015250565b7f45524332303a207472616e736665722066726f6d20746865207a65726f20616460008201527f6472657373000000000000000000000000000000000000000000000000000000602082015250565b7f45524332303a20617070726f76652066726f6d20746865207a65726f2061646460008201527f7265737300000000000000000000000000000000000000000000000000000000602082015250565b7f45524332303a2064656372656173656420616c6c6f77616e63652062656c6f7760008201527f207a65726f000000000000000000000000000000000000000000000000000000602082015250565b61199c816115c4565b81146119a757600080fd5b50565b6119b381611602565b81146119be57600080fd5b5056fea264697066735822122017e9a7993cb729e6b2841022b50033286061d4ff02af3bc4e502e610dae29f0264736f6c63430008060033",
  "immutableReferences": {},
  "source": "// SPDX-License-Identifier: MIT\npragma solidity ^0.8.6;\n\nimport \"@openzeppelin/contracts/token/ERC20/ERC20.sol\";\nimport \"@openzeppelin/contracts/utils/math/SafeMath.sol\";\nimport \"@openzeppelin/contracts/access/Ownable.sol\";\n\ncontract DragonFarmERC20 is Ownable, ERC20 {\n    using SafeMath for uint256;\n\n    uint256 public amountPlayToEarn = 28 * 10**6 * 10**18;\n    uint256 internal amountFarm = 15 * 10**6 * 10**18;\n    uint256 public tokenForBosses = 2 * 10**5 * 10**18;\n\n    uint256 public playToEarnReward;\n    uint256 private farmReward;\n    // ManagerInterface public manager;\n\n\n    address public addressForBosses;\n    uint256 public sellFeeRate = 5;\n    uint256 public buyFeeRate = 2;\n\n    constructor(string memory, string memory) ERC20(\"DragonFarmToken\", \"DFT\") {\n        addressForBosses = _msgSender();\n    }\n\n    function setTransferFeeRate(uint256 _sellFeeRate, uint256 _buyFeeRate)\n        public\n        onlyOwner\n    {\n        sellFeeRate = _sellFeeRate;\n        buyFeeRate = _buyFeeRate;\n    }\n}",
  "sourcePath": "/home/hieu/Blockchain/dragonfarm/src/contracts/core/erc20/DragonFarmERC20.sol",
  "compiler": {
    "name": "solc",
    "version": "0.8.6+commit.11564f7e.Emscripten.clang"
  },
  "schemaVersion": "3.4.2",
  "updatedAt": "2021-08-06T07:49:21.521Z",
  "devdoc": {
    "kind": "dev",
    "methods": {
      "allowance(address,address)": {
        "details": "See {IERC20-allowance}."
      },
      "approve(address,uint256)": {
        "details": "See {IERC20-approve}. Requirements: - `spender` cannot be the zero address."
      },
      "balanceOf(address)": {
        "details": "See {IERC20-balanceOf}."
      },
      "decimals()": {
        "details": "Returns the number of decimals used to get its user representation. For example, if `decimals` equals `2`, a balance of `505` tokens should be displayed to a user as `5,05` (`505 / 10 ** 2`). Tokens usually opt for a value of 18, imitating the relationship between Ether and Wei. This is the value {ERC20} uses, unless this function is overridden; NOTE: This information is only used for _display_ purposes: it in no way affects any of the arithmetic of the contract, including {IERC20-balanceOf} and {IERC20-transfer}."
      },
      "decreaseAllowance(address,uint256)": {
        "details": "Atomically decreases the allowance granted to `spender` by the caller. This is an alternative to {approve} that can be used as a mitigation for problems described in {IERC20-approve}. Emits an {Approval} event indicating the updated allowance. Requirements: - `spender` cannot be the zero address. - `spender` must have allowance for the caller of at least `subtractedValue`."
      },
      "increaseAllowance(address,uint256)": {
        "details": "Atomically increases the allowance granted to `spender` by the caller. This is an alternative to {approve} that can be used as a mitigation for problems described in {IERC20-approve}. Emits an {Approval} event indicating the updated allowance. Requirements: - `spender` cannot be the zero address."
      },
      "name()": {
        "details": "Returns the name of the token."
      },
      "owner()": {
        "details": "Returns the address of the current owner."
      },
      "renounceOwnership()": {
        "details": "Leaves the contract without owner. It will not be possible to call `onlyOwner` functions anymore. Can only be called by the current owner. NOTE: Renouncing ownership will leave the contract without an owner, thereby removing any functionality that is only available to the owner."
      },
      "symbol()": {
        "details": "Returns the symbol of the token, usually a shorter version of the name."
      },
      "totalSupply()": {
        "details": "See {IERC20-totalSupply}."
      },
      "transfer(address,uint256)": {
        "details": "See {IERC20-transfer}. Requirements: - `recipient` cannot be the zero address. - the caller must have a balance of at least `amount`."
      },
      "transferFrom(address,address,uint256)": {
        "details": "See {IERC20-transferFrom}. Emits an {Approval} event indicating the updated allowance. This is not required by the EIP. See the note at the beginning of {ERC20}. Requirements: - `sender` and `recipient` cannot be the zero address. - `sender` must have a balance of at least `amount`. - the caller must have allowance for ``sender``'s tokens of at least `amount`."
      },
      "transferOwnership(address)": {
        "details": "Transfers ownership of the contract to a new account (`newOwner`). Can only be called by the current owner."
      }
    },
    "version": 1
  },
  "userdoc": {
    "kind": "user",
    "methods": {},
    "version": 1
  }
}