{
  "contractName": "DragonFarmCore",
  "abi": [
    {
      "inputs": [],
      "stateMutability": "nonpayable",
      "type": "constructor"
    },
    {
      "anonymous": false,
      "inputs": [
        {
          "indexed": true,
          "internalType": "address",
          "name": "owner",
          "type": "address"
        },
        {
          "indexed": true,
          "internalType": "address",
          "name": "approved",
          "type": "address"
        },
        {
          "indexed": true,
          "internalType": "uint256",
          "name": "tokenId",
          "type": "uint256"
        }
      ],
      "name": "Approval",
      "type": "event"
    },
    {
      "anonymous": false,
      "inputs": [
        {
          "indexed": true,
          "internalType": "address",
          "name": "owner",
          "type": "address"
        },
        {
          "indexed": true,
          "internalType": "address",
          "name": "operator",
          "type": "address"
        },
        {
          "indexed": false,
          "internalType": "bool",
          "name": "approved",
          "type": "bool"
        }
      ],
      "name": "ApprovalForAll",
      "type": "event"
    },
    {
      "anonymous": false,
      "inputs": [
        {
          "indexed": true,
          "internalType": "address",
          "name": "from",
          "type": "address"
        },
        {
          "indexed": true,
          "internalType": "address",
          "name": "to",
          "type": "address"
        },
        {
          "indexed": true,
          "internalType": "uint256",
          "name": "tokenId",
          "type": "uint256"
        }
      ],
      "name": "Transfer",
      "type": "event"
    },
    {
      "inputs": [
        {
          "internalType": "address",
          "name": "to",
          "type": "address"
        },
        {
          "internalType": "uint256",
          "name": "tokenId",
          "type": "uint256"
        }
      ],
      "name": "approve",
      "outputs": [],
      "stateMutability": "nonpayable",
      "type": "function"
    },
    {
      "inputs": [
        {
          "internalType": "address",
          "name": "owner",
          "type": "address"
        }
      ],
      "name": "balanceOf",
      "outputs": [
        {
          "internalType": "uint256",
          "name": "",
          "type": "uint256"
        }
      ],
      "stateMutability": "view",
      "type": "function",
      "constant": true
    },
    {
      "inputs": [
        {
          "internalType": "uint256",
          "name": "tokenId",
          "type": "uint256"
        }
      ],
      "name": "getApproved",
      "outputs": [
        {
          "internalType": "address",
          "name": "",
          "type": "address"
        }
      ],
      "stateMutability": "view",
      "type": "function",
      "constant": true
    },
    {
      "inputs": [
        {
          "internalType": "address",
          "name": "owner",
          "type": "address"
        },
        {
          "internalType": "address",
          "name": "operator",
          "type": "address"
        }
      ],
      "name": "isApprovedForAll",
      "outputs": [
        {
          "internalType": "bool",
          "name": "",
          "type": "bool"
        }
      ],
      "stateMutability": "view",
      "type": "function",
      "constant": true
    },
    {
      "inputs": [],
      "name": "name",
      "outputs": [
        {
          "internalType": "string",
          "name": "",
          "type": "string"
        }
      ],
      "stateMutability": "view",
      "type": "function",
      "constant": true
    },
    {
      "inputs": [
        {
          "internalType": "uint256",
          "name": "tokenId",
          "type": "uint256"
        }
      ],
      "name": "ownerOf",
      "outputs": [
        {
          "internalType": "address",
          "name": "",
          "type": "address"
        }
      ],
      "stateMutability": "view",
      "type": "function",
      "constant": true
    },
    {
      "inputs": [
        {
          "internalType": "address",
          "name": "from",
          "type": "address"
        },
        {
          "internalType": "address",
          "name": "to",
          "type": "address"
        },
        {
          "internalType": "uint256",
          "name": "tokenId",
          "type": "uint256"
        }
      ],
      "name": "safeTransferFrom",
      "outputs": [],
      "stateMutability": "nonpayable",
      "type": "function"
    },
    {
      "inputs": [
        {
          "internalType": "address",
          "name": "from",
          "type": "address"
        },
        {
          "internalType": "address",
          "name": "to",
          "type": "address"
        },
        {
          "internalType": "uint256",
          "name": "tokenId",
          "type": "uint256"
        },
        {
          "internalType": "bytes",
          "name": "_data",
          "type": "bytes"
        }
      ],
      "name": "safeTransferFrom",
      "outputs": [],
      "stateMutability": "nonpayable",
      "type": "function"
    },
    {
      "inputs": [
        {
          "internalType": "address",
          "name": "operator",
          "type": "address"
        },
        {
          "internalType": "bool",
          "name": "approved",
          "type": "bool"
        }
      ],
      "name": "setApprovalForAll",
      "outputs": [],
      "stateMutability": "nonpayable",
      "type": "function"
    },
    {
      "inputs": [
        {
          "internalType": "bytes4",
          "name": "interfaceId",
          "type": "bytes4"
        }
      ],
      "name": "supportsInterface",
      "outputs": [
        {
          "internalType": "bool",
          "name": "",
          "type": "bool"
        }
      ],
      "stateMutability": "view",
      "type": "function",
      "constant": true
    },
    {
      "inputs": [],
      "name": "symbol",
      "outputs": [
        {
          "internalType": "string",
          "name": "",
          "type": "string"
        }
      ],
      "stateMutability": "view",
      "type": "function",
      "constant": true
    },
    {
      "inputs": [
        {
          "internalType": "uint256",
          "name": "tokenId",
          "type": "uint256"
        }
      ],
      "name": "tokenURI",
      "outputs": [
        {
          "internalType": "string",
          "name": "",
          "type": "string"
        }
      ],
      "stateMutability": "view",
      "type": "function",
      "constant": true
    },
    {
      "inputs": [
        {
          "internalType": "address",
          "name": "from",
          "type": "address"
        },
        {
          "internalType": "address",
          "name": "to",
          "type": "address"
        },
        {
          "internalType": "uint256",
          "name": "tokenId",
          "type": "uint256"
        }
      ],
      "name": "transferFrom",
      "outputs": [],
      "stateMutability": "nonpayable",
      "type": "function"
    },
    {
      "inputs": [],
      "name": "totalSupply",
      "outputs": [
        {
          "internalType": "uint256",
          "name": "",
          "type": "uint256"
        }
      ],
      "stateMutability": "view",
      "type": "function",
      "constant": true
    },
    {
      "inputs": [
        {
          "internalType": "uint256",
          "name": "_genes",
          "type": "uint256"
        },
        {
          "internalType": "address",
          "name": "_owner",
          "type": "address"
        },
        {
          "internalType": "uint32",
          "name": "matronId",
          "type": "uint32"
        },
        {
          "internalType": "uint32",
          "name": "sireId",
          "type": "uint32"
        }
      ],
      "name": "spawnDragon",
      "outputs": [
        {
          "internalType": "uint256",
          "name": "",
          "type": "uint256"
        }
      ],
      "stateMutability": "nonpayable",
      "type": "function"
    },
    {
      "inputs": [
        {
          "internalType": "address",
          "name": "_to",
          "type": "address"
        },
        {
          "internalType": "uint256",
          "name": "_tokenId",
          "type": "uint256"
        }
      ],
      "name": "transferDragon",
      "outputs": [],
      "stateMutability": "nonpayable",
      "type": "function"
    },
    {
      "inputs": [
        {
          "internalType": "address",
          "name": "_to",
          "type": "address"
        },
        {
          "internalType": "uint256",
          "name": "_tokenId",
          "type": "uint256"
        }
      ],
      "name": "approveDragon",
      "outputs": [],
      "stateMutability": "nonpayable",
      "type": "function"
    },
    {
      "inputs": [
        {
          "internalType": "uint256",
          "name": "_tokenId",
          "type": "uint256"
        }
      ],
      "name": "killDragon",
      "outputs": [],
      "stateMutability": "nonpayable",
      "type": "function"
    }
  ],
  "bytecode": "0x60806040523480156200001157600080fd5b506040518060400160405280600d81526020017f447261676f6e4661726d4e4654000000000000000000000000000000000000008152506040518060400160405280600581526020017f44464e46540000000000000000000000000000000000000000000000000000008152508160009080519060200190620000969291906200053a565b508060019080519060200190620000af9291906200053a565b5050506006604051806080016040528060008152602001428152602001600063ffffffff168152602001600063ffffffff168152509080600181540180825580915050600190039060005260206000209060030201600090919091909150600082015181600001556020820151816001015560408201518160020160006101000a81548163ffffffff021916908363ffffffff16021790555060608201518160020160046101000a81548163ffffffff021916908363ffffffff160217905550505062000187600033600080620001d360201b60201c565b506200019e600033600080620001d360201b60201c565b50620001b5600033600080620001d360201b60201c565b50620001cc600033600080620001d360201b60201c565b5062000815565b60008060405180608001604052808781526020014281526020018563ffffffff1681526020018463ffffffff1681525090506006819080600181540180825580915050600190039060005260206000209060030201600090919091909150600082015181600001556020820151816001015560408201518160020160006101000a81548163ffffffff021916908363ffffffff16021790555060608201518160020160046101000a81548163ffffffff021916908363ffffffff160217905550505060006001620002a9620002d660201b60201c565b620002b59190620006ea565b9050620002c98682620002e360201b60201c565b8092505050949350505050565b6000600680549050905090565b600073ffffffffffffffffffffffffffffffffffffffff168273ffffffffffffffffffffffffffffffffffffffff16141562000356576040517f08c379a00000000000000000000000000000000000000000000000000000000081526004016200034d906200065a565b60405180910390fd5b6200036781620004c960201b60201c565b15620003aa576040517f08c379a0000000000000000000000000000000000000000000000000000000008152600401620003a19062000638565b60405180910390fd5b620003be600083836200053560201b60201c565b6001600360008473ffffffffffffffffffffffffffffffffffffffff1673ffffffffffffffffffffffffffffffffffffffff16815260200190815260200160002060008282546200041091906200068d565b92505081905550816002600083815260200190815260200160002060006101000a81548173ffffffffffffffffffffffffffffffffffffffff021916908373ffffffffffffffffffffffffffffffffffffffff160217905550808273ffffffffffffffffffffffffffffffffffffffff16600073ffffffffffffffffffffffffffffffffffffffff167fddf252ad1be2c89b69c2b068fc378daa952ba7f163c4a11628f55a4df523b3ef60405160405180910390a45050565b60008073ffffffffffffffffffffffffffffffffffffffff166002600084815260200190815260200160002060009054906101000a900473ffffffffffffffffffffffffffffffffffffffff1673ffffffffffffffffffffffffffffffffffffffff1614159050919050565b505050565b82805462000548906200072f565b90600052602060002090601f0160209004810192826200056c5760008555620005b8565b82601f106200058757805160ff1916838001178555620005b8565b82800160010185558215620005b8579182015b82811115620005b75782518255916020019190600101906200059a565b5b509050620005c79190620005cb565b5090565b5b80821115620005e6576000816000905550600101620005cc565b5090565b6000620005f9601c836200067c565b91506200060682620007c3565b602082019050919050565b6000620006206020836200067c565b91506200062d82620007ec565b602082019050919050565b600060208201905081810360008301526200065381620005ea565b9050919050565b60006020820190508181036000830152620006758162000611565b9050919050565b600082825260208201905092915050565b60006200069a8262000725565b9150620006a78362000725565b9250827fffffffffffffffffffffffffffffffffffffffffffffffffffffffffffffffff03821115620006df57620006de62000765565b5b828201905092915050565b6000620006f78262000725565b9150620007048362000725565b9250828210156200071a576200071962000765565b5b828203905092915050565b6000819050919050565b600060028204905060018216806200074857607f821691505b602082108114156200075f576200075e62000794565b5b50919050565b7f4e487b7100000000000000000000000000000000000000000000000000000000600052601160045260246000fd5b7f4e487b7100000000000000000000000000000000000000000000000000000000600052602260045260246000fd5b7f4552433732313a20746f6b656e20616c7265616479206d696e74656400000000600082015250565b7f4552433732313a206d696e7420746f20746865207a65726f2061646472657373600082015250565b612ac880620008256000396000f3fe608060405234801561001057600080fd5b50600436106101165760003560e01c8063464a228e116100a2578063a22cb46511610071578063a22cb465146102f1578063b88d4fde1461030d578063c87b56dd14610329578063e985e9c514610359578063fd5a60e11461038957610116565b8063464a228e146102575780636352211e1461027357806370a08231146102a357806395d89b41146102d357610116565b806318160ddd116100e957806318160ddd146101b557806323b872dd146101d357806326bad324146101ef57806342842e0e1461021f57806345459a3d1461023b57610116565b806301ffc9a71461011b57806306fdde031461014b578063081812fc14610169578063095ea7b314610199575b600080fd5b61013560048036038101906101309190611bed565b6103a5565b6040516101429190612020565b60405180910390f35b610153610487565b604051610160919061203b565b60405180910390f35b610183600480360381019061017e9190611c47565b610519565b6040516101909190611fb9565b60405180910390f35b6101b360048036038101906101ae9190611bad565b61059e565b005b6101bd6106b6565b6040516101ca919061221d565b60405180910390f35b6101ed60048036038101906101e89190611a97565b6106c3565b005b61020960048036038101906102049190611c74565b610723565b604051610216919061221d565b60405180910390f35b61023960048036038101906102349190611a97565b61073b565b005b61025560048036038101906102509190611bad565b61075b565b005b610271600480360381019061026c9190611bad565b6107a9565b005b61028d60048036038101906102889190611c47565b6107f2565b60405161029a9190611fb9565b60405180910390f35b6102bd60048036038101906102b89190611a2a565b6108a4565b6040516102ca919061221d565b60405180910390f35b6102db61095c565b6040516102e8919061203b565b60405180910390f35b61030b60048036038101906103069190611b6d565b6109ee565b005b61032760048036038101906103229190611aea565b610b6f565b005b610343600480360381019061033e9190611c47565b610bd1565b604051610350919061203b565b60405180910390f35b610373600480360381019061036e9190611a57565b610c78565b6040516103809190612020565b60405180910390f35b6103a3600480360381019061039e9190611c47565b610d0c565b005b60007f80ac58cd000000000000000000000000000000000000000000000000000000007bffffffffffffffffffffffffffffffffffffffffffffffffffffffff1916827bffffffffffffffffffffffffffffffffffffffffffffffffffffffff1916148061047057507f5b5e139f000000000000000000000000000000000000000000000000000000007bffffffffffffffffffffffffffffffffffffffffffffffffffffffff1916827bffffffffffffffffffffffffffffffffffffffffffffffffffffffff1916145b80610480575061047f82610d18565b5b9050919050565b60606000805461049690612452565b80601f01602080910402602001604051908101604052809291908181526020018280546104c290612452565b801561050f5780601f106104e45761010080835404028352916020019161050f565b820191906000526020600020905b8154815290600101906020018083116104f257829003601f168201915b5050505050905090565b600061052482610d82565b610563576040517f08c379a000000000000000000000000000000000000000000000000000000000815260040161055a9061217d565b60405180910390fd5b6004600083815260200190815260200160002060009054906101000a900473ffffffffffffffffffffffffffffffffffffffff169050919050565b60006105a9826107f2565b90508073ffffffffffffffffffffffffffffffffffffffff168373ffffffffffffffffffffffffffffffffffffffff16141561061a576040517f08c379a0000000000000000000000000000000000000000000000000000000008152600401610611906121dd565b60405180910390fd5b8073ffffffffffffffffffffffffffffffffffffffff16610639610dee565b73ffffffffffffffffffffffffffffffffffffffff161480610668575061066781610662610dee565b610c78565b5b6106a7576040517f08c379a000000000000000000000000000000000000000000000000000000000815260040161069e906120fd565b60405180910390fd5b6106b18383610df6565b505050565b6000600680549050905090565b6106d46106ce610dee565b82610eaf565b610713576040517f08c379a000000000000000000000000000000000000000000000000000000000815260040161070a906121fd565b60405180910390fd5b61071e838383610f8d565b505050565b6000610731858585856111e9565b9050949350505050565b61075683838360405180602001604052806000815250610b6f565b505050565b3373ffffffffffffffffffffffffffffffffffffffff1661077b826107f2565b73ffffffffffffffffffffffffffffffffffffffff161461079b57600080fd5b6107a5828261059e565b5050565b600073ffffffffffffffffffffffffffffffffffffffff168273ffffffffffffffffffffffffffffffffffffffff1614156107e357600080fd5b6107ee33838361073b565b5050565b6000806002600084815260200190815260200160002060009054906101000a900473ffffffffffffffffffffffffffffffffffffffff169050600073ffffffffffffffffffffffffffffffffffffffff168173ffffffffffffffffffffffffffffffffffffffff16141561089b576040517f08c379a00000000000000000000000000000000000000000000000000000000081526004016108929061213d565b60405180910390fd5b80915050919050565b60008073ffffffffffffffffffffffffffffffffffffffff168273ffffffffffffffffffffffffffffffffffffffff161415610915576040517f08c379a000000000000000000000000000000000000000000000000000000000815260040161090c9061211d565b60405180910390fd5b600360008373ffffffffffffffffffffffffffffffffffffffff1673ffffffffffffffffffffffffffffffffffffffff168152602001908152602001600020549050919050565b60606001805461096b90612452565b80601f016020809104026020016040519081016040528092919081815260200182805461099790612452565b80156109e45780601f106109b9576101008083540402835291602001916109e4565b820191906000526020600020905b8154815290600101906020018083116109c757829003601f168201915b5050505050905090565b6109f6610dee565b73ffffffffffffffffffffffffffffffffffffffff168273ffffffffffffffffffffffffffffffffffffffff161415610a64576040517f08c379a0000000000000000000000000000000000000000000000000000000008152600401610a5b906120bd565b60405180910390fd5b8060056000610a71610dee565b73ffffffffffffffffffffffffffffffffffffffff1673ffffffffffffffffffffffffffffffffffffffff16815260200190815260200160002060008473ffffffffffffffffffffffffffffffffffffffff1673ffffffffffffffffffffffffffffffffffffffff16815260200190815260200160002060006101000a81548160ff0219169083151502179055508173ffffffffffffffffffffffffffffffffffffffff16610b1e610dee565b73ffffffffffffffffffffffffffffffffffffffff167f17307eab39ab6107e8899845ad3d59bd9653f200f220920489ca2b5937696c3183604051610b639190612020565b60405180910390a35050565b610b80610b7a610dee565b83610eaf565b610bbf576040517f08c379a0000000000000000000000000000000000000000000000000000000008152600401610bb6906121fd565b60405180910390fd5b610bcb848484846112da565b50505050565b6060610bdc82610d82565b610c1b576040517f08c379a0000000000000000000000000000000000000000000000000000000008152600401610c12906121bd565b60405180910390fd5b6000610c25611336565b90506000815111610c455760405180602001604052806000815250610c70565b80610c4f8461134d565b604051602001610c60929190611f95565b6040516020818303038152906040525b915050919050565b6000600560008473ffffffffffffffffffffffffffffffffffffffff1673ffffffffffffffffffffffffffffffffffffffff16815260200190815260200160002060008373ffffffffffffffffffffffffffffffffffffffff1673ffffffffffffffffffffffffffffffffffffffff16815260200190815260200160002060009054906101000a900460ff16905092915050565b610d15816114ae565b50565b60007f01ffc9a7000000000000000000000000000000000000000000000000000000007bffffffffffffffffffffffffffffffffffffffffffffffffffffffff1916827bffffffffffffffffffffffffffffffffffffffffffffffffffffffff1916149050919050565b60008073ffffffffffffffffffffffffffffffffffffffff166002600084815260200190815260200160002060009054906101000a900473ffffffffffffffffffffffffffffffffffffffff1673ffffffffffffffffffffffffffffffffffffffff1614159050919050565b600033905090565b816004600083815260200190815260200160002060006101000a81548173ffffffffffffffffffffffffffffffffffffffff021916908373ffffffffffffffffffffffffffffffffffffffff160217905550808273ffffffffffffffffffffffffffffffffffffffff16610e69836107f2565b73ffffffffffffffffffffffffffffffffffffffff167f8c5be1e5ebec7d5bd14f71427d1e84f3dd0314c0f7b2291e5b200ac8c7c3b92560405160405180910390a45050565b6000610eba82610d82565b610ef9576040517f08c379a0000000000000000000000000000000000000000000000000000000008152600401610ef0906120dd565b60405180910390fd5b6000610f04836107f2565b90508073ffffffffffffffffffffffffffffffffffffffff168473ffffffffffffffffffffffffffffffffffffffff161480610f7357508373ffffffffffffffffffffffffffffffffffffffff16610f5b84610519565b73ffffffffffffffffffffffffffffffffffffffff16145b80610f845750610f838185610c78565b5b91505092915050565b8273ffffffffffffffffffffffffffffffffffffffff16610fad826107f2565b73ffffffffffffffffffffffffffffffffffffffff1614611003576040517f08c379a0000000000000000000000000000000000000000000000000000000008152600401610ffa9061219d565b60405180910390fd5b600073ffffffffffffffffffffffffffffffffffffffff168273ffffffffffffffffffffffffffffffffffffffff161415611073576040517f08c379a000000000000000000000000000000000000000000000000000000000815260040161106a9061209d565b60405180910390fd5b61107e8383836115bf565b611089600082610df6565b6001600360008573ffffffffffffffffffffffffffffffffffffffff1673ffffffffffffffffffffffffffffffffffffffff16815260200190815260200160002060008282546110d99190612358565b925050819055506001600360008473ffffffffffffffffffffffffffffffffffffffff1673ffffffffffffffffffffffffffffffffffffffff168152602001908152602001600020600082825461113091906122d1565b92505081905550816002600083815260200190815260200160002060006101000a81548173ffffffffffffffffffffffffffffffffffffffff021916908373ffffffffffffffffffffffffffffffffffffffff160217905550808273ffffffffffffffffffffffffffffffffffffffff168473ffffffffffffffffffffffffffffffffffffffff167fddf252ad1be2c89b69c2b068fc378daa952ba7f163c4a11628f55a4df523b3ef60405160405180910390a4505050565b60008060405180608001604052808781526020014281526020018563ffffffff1681526020018463ffffffff1681525090506006819080600181540180825580915050600190039060005260206000209060030201600090919091909150600082015181600001556020820151816001015560408201518160020160006101000a81548163ffffffff021916908363ffffffff16021790555060608201518160020160046101000a81548163ffffffff021916908363ffffffff1602179055505050600060016112b76106b6565b6112c19190612358565b90506112cd86826115c4565b8092505050949350505050565b6112e5848484610f8d565b6112f184848484611792565b611330576040517f08c379a00000000000000000000000000000000000000000000000000000000081526004016113279061205d565b60405180910390fd5b50505050565b606060405180602001604052806000815250905090565b60606000821415611395576040518060400160405280600181526020017f300000000000000000000000000000000000000000000000000000000000000081525090506114a9565b600082905060005b600082146113c75780806113b0906124b5565b915050600a826113c09190612327565b915061139d565b60008167ffffffffffffffff8111156113e3576113e26125eb565b5b6040519080825280601f01601f1916602001820160405280156114155781602001600182028036833780820191505090505b5090505b600085146114a25760018261142e9190612358565b9150600a8561143d91906124fe565b603061144991906122d1565b60f81b81838151811061145f5761145e6125bc565b5b60200101907effffffffffffffffffffffffffffffffffffffffffffffffffffffffffffff1916908160001a905350600a8561149b9190612327565b9450611419565b8093505050505b919050565b60006114b9826107f2565b90506114c7816000846115bf565b6114d2600083610df6565b6001600360008373ffffffffffffffffffffffffffffffffffffffff1673ffffffffffffffffffffffffffffffffffffffff16815260200190815260200160002060008282546115229190612358565b925050819055506002600083815260200190815260200160002060006101000a81549073ffffffffffffffffffffffffffffffffffffffff021916905581600073ffffffffffffffffffffffffffffffffffffffff168273ffffffffffffffffffffffffffffffffffffffff167fddf252ad1be2c89b69c2b068fc378daa952ba7f163c4a11628f55a4df523b3ef60405160405180910390a45050565b505050565b600073ffffffffffffffffffffffffffffffffffffffff168273ffffffffffffffffffffffffffffffffffffffff161415611634576040517f08c379a000000000000000000000000000000000000000000000000000000000815260040161162b9061215d565b60405180910390fd5b61163d81610d82565b1561167d576040517f08c379a00000000000000000000000000000000000000000000000000000000081526004016116749061207d565b60405180910390fd5b611689600083836115bf565b6001600360008473ffffffffffffffffffffffffffffffffffffffff1673ffffffffffffffffffffffffffffffffffffffff16815260200190815260200160002060008282546116d991906122d1565b92505081905550816002600083815260200190815260200160002060006101000a81548173ffffffffffffffffffffffffffffffffffffffff021916908373ffffffffffffffffffffffffffffffffffffffff160217905550808273ffffffffffffffffffffffffffffffffffffffff16600073ffffffffffffffffffffffffffffffffffffffff167fddf252ad1be2c89b69c2b068fc378daa952ba7f163c4a11628f55a4df523b3ef60405160405180910390a45050565b60006117b38473ffffffffffffffffffffffffffffffffffffffff16611929565b1561191c578373ffffffffffffffffffffffffffffffffffffffff1663150b7a026117dc610dee565b8786866040518563ffffffff1660e01b81526004016117fe9493929190611fd4565b602060405180830381600087803b15801561181857600080fd5b505af192505050801561184957506040513d601f19601f820116820180604052508101906118469190611c1a565b60015b6118cc573d8060008114611879576040519150601f19603f3d011682016040523d82523d6000602084013e61187e565b606091505b506000815114156118c4576040517f08c379a00000000000000000000000000000000000000000000000000000000081526004016118bb9061205d565b60405180910390fd5b805181602001fd5b63150b7a0260e01b7bffffffffffffffffffffffffffffffffffffffffffffffffffffffff1916817bffffffffffffffffffffffffffffffffffffffffffffffffffffffff191614915050611921565b600190505b949350505050565b600080823b905060008111915050919050565b600061194f61194a8461225d565b612238565b90508281526020810184848401111561196b5761196a61261f565b5b611976848285612410565b509392505050565b60008135905061198d81612a1f565b92915050565b6000813590506119a281612a36565b92915050565b6000813590506119b781612a4d565b92915050565b6000815190506119cc81612a4d565b92915050565b600082601f8301126119e7576119e661261a565b5b81356119f784826020860161193c565b91505092915050565b600081359050611a0f81612a64565b92915050565b600081359050611a2481612a7b565b92915050565b600060208284031215611a4057611a3f612629565b5b6000611a4e8482850161197e565b91505092915050565b60008060408385031215611a6e57611a6d612629565b5b6000611a7c8582860161197e565b9250506020611a8d8582860161197e565b9150509250929050565b600080600060608486031215611ab057611aaf612629565b5b6000611abe8682870161197e565b9350506020611acf8682870161197e565b9250506040611ae086828701611a00565b9150509250925092565b60008060008060808587031215611b0457611b03612629565b5b6000611b128782880161197e565b9450506020611b238782880161197e565b9350506040611b3487828801611a00565b925050606085013567ffffffffffffffff811115611b5557611b54612624565b5b611b61878288016119d2565b91505092959194509250565b60008060408385031215611b8457611b83612629565b5b6000611b928582860161197e565b9250506020611ba385828601611993565b9150509250929050565b60008060408385031215611bc457611bc3612629565b5b6000611bd28582860161197e565b9250506020611be385828601611a00565b9150509250929050565b600060208284031215611c0357611c02612629565b5b6000611c11848285016119a8565b91505092915050565b600060208284031215611c3057611c2f612629565b5b6000611c3e848285016119bd565b91505092915050565b600060208284031215611c5d57611c5c612629565b5b6000611c6b84828501611a00565b91505092915050565b60008060008060808587031215611c8e57611c8d612629565b5b6000611c9c87828801611a00565b9450506020611cad8782880161197e565b9350506040611cbe87828801611a15565b9250506060611ccf87828801611a15565b91505092959194509250565b611ce48161238c565b82525050565b611cf38161239e565b82525050565b6000611d048261228e565b611d0e81856122a4565b9350611d1e81856020860161241f565b611d278161262e565b840191505092915050565b6000611d3d82612299565b611d4781856122b5565b9350611d5781856020860161241f565b611d608161262e565b840191505092915050565b6000611d7682612299565b611d8081856122c6565b9350611d9081856020860161241f565b80840191505092915050565b6000611da96032836122b5565b9150611db48261263f565b604082019050919050565b6000611dcc601c836122b5565b9150611dd78261268e565b602082019050919050565b6000611def6024836122b5565b9150611dfa826126b7565b604082019050919050565b6000611e126019836122b5565b9150611e1d82612706565b602082019050919050565b6000611e35602c836122b5565b9150611e408261272f565b604082019050919050565b6000611e586038836122b5565b9150611e638261277e565b604082019050919050565b6000611e7b602a836122b5565b9150611e86826127cd565b604082019050919050565b6000611e9e6029836122b5565b9150611ea98261281c565b604082019050919050565b6000611ec16020836122b5565b9150611ecc8261286b565b602082019050919050565b6000611ee4602c836122b5565b9150611eef82612894565b604082019050919050565b6000611f076029836122b5565b9150611f12826128e3565b604082019050919050565b6000611f2a602f836122b5565b9150611f3582612932565b604082019050919050565b6000611f4d6021836122b5565b9150611f5882612981565b604082019050919050565b6000611f706031836122b5565b9150611f7b826129d0565b604082019050919050565b611f8f816123f6565b82525050565b6000611fa18285611d6b565b9150611fad8284611d6b565b91508190509392505050565b6000602082019050611fce6000830184611cdb565b92915050565b6000608082019050611fe96000830187611cdb565b611ff66020830186611cdb565b6120036040830185611f86565b81810360608301526120158184611cf9565b905095945050505050565b60006020820190506120356000830184611cea565b92915050565b600060208201905081810360008301526120558184611d32565b905092915050565b6000602082019050818103600083015261207681611d9c565b9050919050565b6000602082019050818103600083015261209681611dbf565b9050919050565b600060208201905081810360008301526120b681611de2565b9050919050565b600060208201905081810360008301526120d681611e05565b9050919050565b600060208201905081810360008301526120f681611e28565b9050919050565b6000602082019050818103600083015261211681611e4b565b9050919050565b6000602082019050818103600083015261213681611e6e565b9050919050565b6000602082019050818103600083015261215681611e91565b9050919050565b6000602082019050818103600083015261217681611eb4565b9050919050565b6000602082019050818103600083015261219681611ed7565b9050919050565b600060208201905081810360008301526121b681611efa565b9050919050565b600060208201905081810360008301526121d681611f1d565b9050919050565b600060208201905081810360008301526121f681611f40565b9050919050565b6000602082019050818103600083015261221681611f63565b9050919050565b60006020820190506122326000830184611f86565b92915050565b6000612242612253565b905061224e8282612484565b919050565b6000604051905090565b600067ffffffffffffffff821115612278576122776125eb565b5b6122818261262e565b9050602081019050919050565b600081519050919050565b600081519050919050565b600082825260208201905092915050565b600082825260208201905092915050565b600081905092915050565b60006122dc826123f6565b91506122e7836123f6565b9250827fffffffffffffffffffffffffffffffffffffffffffffffffffffffffffffffff0382111561231c5761231b61252f565b5b828201905092915050565b6000612332826123f6565b915061233d836123f6565b92508261234d5761234c61255e565b5b828204905092915050565b6000612363826123f6565b915061236e836123f6565b9250828210156123815761238061252f565b5b828203905092915050565b6000612397826123d6565b9050919050565b60008115159050919050565b60007fffffffff0000000000000000000000000000000000000000000000000000000082169050919050565b600073ffffffffffffffffffffffffffffffffffffffff82169050919050565b6000819050919050565b600063ffffffff82169050919050565b82818337600083830152505050565b60005b8381101561243d578082015181840152602081019050612422565b8381111561244c576000848401525b50505050565b6000600282049050600182168061246a57607f821691505b6020821081141561247e5761247d61258d565b5b50919050565b61248d8261262e565b810181811067ffffffffffffffff821117156124ac576124ab6125eb565b5b80604052505050565b60006124c0826123f6565b91507fffffffffffffffffffffffffffffffffffffffffffffffffffffffffffffffff8214156124f3576124f261252f565b5b600182019050919050565b6000612509826123f6565b9150612514836123f6565b9250826125245761252361255e565b5b828206905092915050565b7f4e487b7100000000000000000000000000000000000000000000000000000000600052601160045260246000fd5b7f4e487b7100000000000000000000000000000000000000000000000000000000600052601260045260246000fd5b7f4e487b7100000000000000000000000000000000000000000000000000000000600052602260045260246000fd5b7f4e487b7100000000000000000000000000000000000000000000000000000000600052603260045260246000fd5b7f4e487b7100000000000000000000000000000000000000000000000000000000600052604160045260246000fd5b600080fd5b600080fd5b600080fd5b600080fd5b6000601f19601f8301169050919050565b7f4552433732313a207472616e7366657220746f206e6f6e20455243373231526560008201527f63656976657220696d706c656d656e7465720000000000000000000000000000602082015250565b7f4552433732313a20746f6b656e20616c7265616479206d696e74656400000000600082015250565b7f4552433732313a207472616e7366657220746f20746865207a65726f2061646460008201527f7265737300000000000000000000000000000000000000000000000000000000602082015250565b7f4552433732313a20617070726f766520746f2063616c6c657200000000000000600082015250565b7f4552433732313a206f70657261746f7220717565727920666f72206e6f6e657860008201527f697374656e7420746f6b656e0000000000000000000000000000000000000000602082015250565b7f4552433732313a20617070726f76652063616c6c6572206973206e6f74206f7760008201527f6e6572206e6f7220617070726f76656420666f7220616c6c0000000000000000602082015250565b7f4552433732313a2062616c616e636520717565727920666f7220746865207a6560008201527f726f206164647265737300000000000000000000000000000000000000000000602082015250565b7f4552433732313a206f776e657220717565727920666f72206e6f6e657869737460008201527f656e7420746f6b656e0000000000000000000000000000000000000000000000602082015250565b7f4552433732313a206d696e7420746f20746865207a65726f2061646472657373600082015250565b7f4552433732313a20617070726f76656420717565727920666f72206e6f6e657860008201527f697374656e7420746f6b656e0000000000000000000000000000000000000000602082015250565b7f4552433732313a207472616e73666572206f6620746f6b656e2074686174206960008201527f73206e6f74206f776e0000000000000000000000000000000000000000000000602082015250565b7f4552433732314d657461646174613a2055524920717565727920666f72206e6f60008201527f6e6578697374656e7420746f6b656e0000000000000000000000000000000000602082015250565b7f4552433732313a20617070726f76616c20746f2063757272656e74206f776e6560008201527f7200000000000000000000000000000000000000000000000000000000000000602082015250565b7f4552433732313a207472616e736665722063616c6c6572206973206e6f74206f60008201527f776e6572206e6f7220617070726f766564000000000000000000000000000000602082015250565b612a288161238c565b8114612a3357600080fd5b50565b612a3f8161239e565b8114612a4a57600080fd5b50565b612a56816123aa565b8114612a6157600080fd5b50565b612a6d816123f6565b8114612a7857600080fd5b50565b612a8481612400565b8114612a8f57600080fd5b5056fea26469706673582212204df029d059c06d5079d7524508b343f8cfd74db2736f7eef011c353388596bbc64736f6c63430008060033",
  "immutableReferences": {},
  "source": "// SPDX-License-Identifier: MIT\npragma solidity ^0.8.0;\n\nimport \"@openzeppelin/contracts/token/ERC721/ERC721.sol\";\nimport \"@openzeppelin/contracts/access/Ownable.sol\";\n\ncontract DragonFarmCore is ERC721 {\n    constructor() ERC721(\"DragonFarmNFT\", \"DFNFT\") {\n        dragons.push(Dragon(0, block.timestamp, 0, 0)); // The first dragon\n        _spawnDragon(0, msg.sender, 0, 0);\n        _spawnDragon(0, msg.sender, 0, 0);\n        _spawnDragon(0, msg.sender, 0, 0);\n        _spawnDragon(0, msg.sender, 0, 0);\n    }\n\n    struct Dragon {\n        uint256 genes;\n        uint256 bornAt;\n        uint32 matronId;\n        uint32 sireId;\n    }\n\n    Dragon[] dragons;\n\n    function totalSupply() public view returns (uint256) {\n        return dragons.length;\n    }\n\n    function spawnDragon(uint256 _genes, address _owner, uint32 matronId, uint32 sireId)\n        external\n        returns (uint256)\n    {\n        return _spawnDragon(_genes, _owner, matronId, sireId);\n    }\n\n    function _spawnDragon(uint256 _genes, address _owner, uint32 matronId, uint32 sireId)\n        private\n        returns (uint256)\n    {\n        Dragon memory _dragon = Dragon(_genes, block.timestamp, matronId, sireId);\n        dragons.push(_dragon);\n        uint256 _dragonId = totalSupply() - 1;\n        _mint(_owner, _dragonId);\n        return _dragonId;\n    }\n\n    //Transfer dragon to another address\n    function transferDragon(address _to, uint256 _tokenId) external {\n        // Safety check to prevent burn Dragon\n        require(_to != address(0));\n        safeTransferFrom(msg.sender, _to, _tokenId);\n    }\n\n    //Approve another address the right to transfer a dragon\n    function approveDragon(address _to, uint256 _tokenId) external {\n        require(ownerOf(_tokenId) == msg.sender);\n        approve(_to, _tokenId);\n    }\n\n    //Burn dragon\n\n    function killDragon(uint256 _tokenId) external {\n      _burn(_tokenId);\n    }\n}\n",
  "sourcePath": "/home/hieu/Blockchain/dragonfarm/src/contracts/core/erc721/DragonFarmCore.sol",
  "compiler": {
    "name": "solc",
    "version": "0.8.6+commit.11564f7e.Emscripten.clang"
  },
  "schemaVersion": "3.4.2",
  "updatedAt": "2021-08-06T09:18:24.440Z",
  "networkType": "ethereum",
  "devdoc": {
    "kind": "dev",
    "methods": {
      "approve(address,uint256)": {
        "details": "See {IERC721-approve}."
      },
      "balanceOf(address)": {
        "details": "See {IERC721-balanceOf}."
      },
      "getApproved(uint256)": {
        "details": "See {IERC721-getApproved}."
      },
      "isApprovedForAll(address,address)": {
        "details": "See {IERC721-isApprovedForAll}."
      },
      "name()": {
        "details": "See {IERC721Metadata-name}."
      },
      "ownerOf(uint256)": {
        "details": "See {IERC721-ownerOf}."
      },
      "safeTransferFrom(address,address,uint256)": {
        "details": "See {IERC721-safeTransferFrom}."
      },
      "safeTransferFrom(address,address,uint256,bytes)": {
        "details": "See {IERC721-safeTransferFrom}."
      },
      "setApprovalForAll(address,bool)": {
        "details": "See {IERC721-setApprovalForAll}."
      },
      "supportsInterface(bytes4)": {
        "details": "See {IERC165-supportsInterface}."
      },
      "symbol()": {
        "details": "See {IERC721Metadata-symbol}."
      },
      "tokenURI(uint256)": {
        "details": "See {IERC721Metadata-tokenURI}."
      },
      "transferFrom(address,address,uint256)": {
        "details": "See {IERC721-transferFrom}."
      }
    },
    "version": 1
  },
  "userdoc": {
    "kind": "user",
    "methods": {},
    "version": 1
  }
}