{
  "contractName": "DragonFarmCore",
  "abi": [
    {
      "inputs": [
        {
          "internalType": "address",
          "name": "_marketAddress",
          "type": "address"
        }
      ],
      "stateMutability": "nonpayable",
      "type": "constructor"
    },
    {
      "anonymous": false,
      "inputs": [
        {
          "indexed": true,
          "internalType": "address",
          "name": "owner",
          "type": "address"
        },
        {
          "indexed": true,
          "internalType": "address",
          "name": "approved",
          "type": "address"
        },
        {
          "indexed": true,
          "internalType": "uint256",
          "name": "tokenId",
          "type": "uint256"
        }
      ],
      "name": "Approval",
      "type": "event"
    },
    {
      "anonymous": false,
      "inputs": [
        {
          "indexed": true,
          "internalType": "address",
          "name": "owner",
          "type": "address"
        },
        {
          "indexed": true,
          "internalType": "address",
          "name": "operator",
          "type": "address"
        },
        {
          "indexed": false,
          "internalType": "bool",
          "name": "approved",
          "type": "bool"
        }
      ],
      "name": "ApprovalForAll",
      "type": "event"
    },
    {
      "anonymous": false,
      "inputs": [
        {
          "indexed": false,
          "internalType": "address",
          "name": "newContract",
          "type": "address"
        }
      ],
      "name": "ContractUpgrade",
      "type": "event"
    },
    {
      "anonymous": false,
      "inputs": [
        {
          "indexed": true,
          "internalType": "address",
          "name": "previousOwner",
          "type": "address"
        },
        {
          "indexed": true,
          "internalType": "address",
          "name": "newOwner",
          "type": "address"
        }
      ],
      "name": "OwnershipTransferred",
      "type": "event"
    },
    {
      "anonymous": false,
      "inputs": [
        {
          "indexed": true,
          "internalType": "address",
          "name": "from",
          "type": "address"
        },
        {
          "indexed": true,
          "internalType": "address",
          "name": "to",
          "type": "address"
        },
        {
          "indexed": true,
          "internalType": "uint256",
          "name": "tokenId",
          "type": "uint256"
        }
      ],
      "name": "Transfer",
      "type": "event"
    },
    {
      "inputs": [
        {
          "internalType": "address",
          "name": "to",
          "type": "address"
        },
        {
          "internalType": "uint256",
          "name": "tokenId",
          "type": "uint256"
        }
      ],
      "name": "approve",
      "outputs": [],
      "stateMutability": "nonpayable",
      "type": "function"
    },
    {
      "inputs": [
        {
          "internalType": "address",
          "name": "owner",
          "type": "address"
        }
      ],
      "name": "balanceOf",
      "outputs": [
        {
          "internalType": "uint256",
          "name": "",
          "type": "uint256"
        }
      ],
      "stateMutability": "view",
      "type": "function"
    },
    {
      "inputs": [],
      "name": "ceoAddress",
      "outputs": [
        {
          "internalType": "address",
          "name": "",
          "type": "address"
        }
      ],
      "stateMutability": "view",
      "type": "function"
    },
    {
      "inputs": [],
      "name": "cfoAddress",
      "outputs": [
        {
          "internalType": "address",
          "name": "",
          "type": "address"
        }
      ],
      "stateMutability": "view",
      "type": "function"
    },
    {
      "inputs": [],
      "name": "cooAddress",
      "outputs": [
        {
          "internalType": "address",
          "name": "",
          "type": "address"
        }
      ],
      "stateMutability": "view",
      "type": "function"
    },
    {
      "inputs": [
        {
          "internalType": "uint256",
          "name": "tokenId",
          "type": "uint256"
        }
      ],
      "name": "getApproved",
      "outputs": [
        {
          "internalType": "address",
          "name": "",
          "type": "address"
        }
      ],
      "stateMutability": "view",
      "type": "function"
    },
    {
      "inputs": [
        {
          "internalType": "address",
          "name": "_owner",
          "type": "address"
        }
      ],
      "name": "getNftsOf",
      "outputs": [
        {
          "internalType": "uint256[]",
          "name": "",
          "type": "uint256[]"
        }
      ],
      "stateMutability": "view",
      "type": "function"
    },
    {
      "inputs": [
        {
          "internalType": "address",
          "name": "owner",
          "type": "address"
        },
        {
          "internalType": "address",
          "name": "operator",
          "type": "address"
        }
      ],
      "name": "isApprovedForAll",
      "outputs": [
        {
          "internalType": "bool",
          "name": "",
          "type": "bool"
        }
      ],
      "stateMutability": "view",
      "type": "function"
    },
    {
      "inputs": [],
      "name": "name",
      "outputs": [
        {
          "internalType": "string",
          "name": "",
          "type": "string"
        }
      ],
      "stateMutability": "view",
      "type": "function"
    },
    {
      "inputs": [],
      "name": "owner",
      "outputs": [
        {
          "internalType": "address",
          "name": "",
          "type": "address"
        }
      ],
      "stateMutability": "view",
      "type": "function"
    },
    {
      "inputs": [
        {
          "internalType": "uint256",
          "name": "tokenId",
          "type": "uint256"
        }
      ],
      "name": "ownerOf",
      "outputs": [
        {
          "internalType": "address",
          "name": "",
          "type": "address"
        }
      ],
      "stateMutability": "view",
      "type": "function"
    },
    {
      "inputs": [],
      "name": "pause",
      "outputs": [],
      "stateMutability": "nonpayable",
      "type": "function"
    },
    {
      "inputs": [],
      "name": "paused",
      "outputs": [
        {
          "internalType": "bool",
          "name": "",
          "type": "bool"
        }
      ],
      "stateMutability": "view",
      "type": "function"
    },
    {
      "inputs": [],
      "name": "renounceOwnership",
      "outputs": [],
      "stateMutability": "nonpayable",
      "type": "function"
    },
    {
      "inputs": [
        {
          "internalType": "address",
          "name": "from",
          "type": "address"
        },
        {
          "internalType": "address",
          "name": "to",
          "type": "address"
        },
        {
          "internalType": "uint256",
          "name": "tokenId",
          "type": "uint256"
        }
      ],
      "name": "safeTransferFrom",
      "outputs": [],
      "stateMutability": "nonpayable",
      "type": "function"
    },
    {
      "inputs": [
        {
          "internalType": "address",
          "name": "from",
          "type": "address"
        },
        {
          "internalType": "address",
          "name": "to",
          "type": "address"
        },
        {
          "internalType": "uint256",
          "name": "tokenId",
          "type": "uint256"
        },
        {
          "internalType": "bytes",
          "name": "_data",
          "type": "bytes"
        }
      ],
      "name": "safeTransferFrom",
      "outputs": [],
      "stateMutability": "nonpayable",
      "type": "function"
    },
    {
      "inputs": [
        {
          "internalType": "address",
          "name": "operator",
          "type": "address"
        },
        {
          "internalType": "bool",
          "name": "approved",
          "type": "bool"
        }
      ],
      "name": "setApprovalForAll",
      "outputs": [],
      "stateMutability": "nonpayable",
      "type": "function"
    },
    {
      "inputs": [
        {
          "internalType": "address",
          "name": "_newCEO",
          "type": "address"
        }
      ],
      "name": "setCEO",
      "outputs": [],
      "stateMutability": "nonpayable",
      "type": "function"
    },
    {
      "inputs": [
        {
          "internalType": "address",
          "name": "_newCFO",
          "type": "address"
        }
      ],
      "name": "setCFO",
      "outputs": [],
      "stateMutability": "nonpayable",
      "type": "function"
    },
    {
      "inputs": [
        {
          "internalType": "address",
          "name": "_newCOO",
          "type": "address"
        }
      ],
      "name": "setCOO",
      "outputs": [],
      "stateMutability": "nonpayable",
      "type": "function"
    },
    {
      "inputs": [
        {
          "internalType": "bytes4",
          "name": "interfaceId",
          "type": "bytes4"
        }
      ],
      "name": "supportsInterface",
      "outputs": [
        {
          "internalType": "bool",
          "name": "",
          "type": "bool"
        }
      ],
      "stateMutability": "view",
      "type": "function"
    },
    {
      "inputs": [],
      "name": "symbol",
      "outputs": [
        {
          "internalType": "string",
          "name": "",
          "type": "string"
        }
      ],
      "stateMutability": "view",
      "type": "function"
    },
    {
      "inputs": [
        {
          "internalType": "uint256",
          "name": "tokenId",
          "type": "uint256"
        }
      ],
      "name": "tokenURI",
      "outputs": [
        {
          "internalType": "string",
          "name": "",
          "type": "string"
        }
      ],
      "stateMutability": "view",
      "type": "function"
    },
    {
      "inputs": [],
      "name": "totalSupply",
      "outputs": [
        {
          "internalType": "uint256",
          "name": "",
          "type": "uint256"
        }
      ],
      "stateMutability": "view",
      "type": "function"
    },
    {
      "inputs": [
        {
          "internalType": "address",
          "name": "from",
          "type": "address"
        },
        {
          "internalType": "address",
          "name": "to",
          "type": "address"
        },
        {
          "internalType": "uint256",
          "name": "tokenId",
          "type": "uint256"
        }
      ],
      "name": "transferFrom",
      "outputs": [],
      "stateMutability": "nonpayable",
      "type": "function"
    },
    {
      "inputs": [
        {
          "internalType": "address",
          "name": "newOwner",
          "type": "address"
        }
      ],
      "name": "transferOwnership",
      "outputs": [],
      "stateMutability": "nonpayable",
      "type": "function"
    },
    {
      "inputs": [],
      "name": "unpause",
      "outputs": [],
      "stateMutability": "nonpayable",
      "type": "function"
    },
    {
      "inputs": [
        {
          "internalType": "uint256",
          "name": "_genes",
          "type": "uint256"
        },
        {
          "internalType": "address",
          "name": "_owner",
          "type": "address"
        }
      ],
      "name": "spawnDragon",
      "outputs": [
        {
          "internalType": "uint256",
          "name": "",
          "type": "uint256"
        }
      ],
      "stateMutability": "nonpayable",
      "type": "function"
    },
    {
      "inputs": [
        {
          "internalType": "address",
          "name": "_to",
          "type": "address"
        },
        {
          "internalType": "uint256",
          "name": "_tokenId",
          "type": "uint256"
        }
      ],
      "name": "transferDragon",
      "outputs": [],
      "stateMutability": "nonpayable",
      "type": "function"
    },
    {
      "inputs": [
        {
          "internalType": "address",
          "name": "_to",
          "type": "address"
        },
        {
          "internalType": "uint256",
          "name": "_tokenId",
          "type": "uint256"
        }
      ],
      "name": "approveDragon",
      "outputs": [],
      "stateMutability": "nonpayable",
      "type": "function"
    },
    {
      "inputs": [
        {
          "internalType": "uint256",
          "name": "_tokenId",
          "type": "uint256"
        }
      ],
      "name": "killDragon",
      "outputs": [],
      "stateMutability": "nonpayable",
      "type": "function"
    }
  ],
  "bytecode": "0x60806040526000600960146101000a81548160ff0219169083151502179055503480156200002c57600080fd5b5060405162003c5f38038062003c5f8339818101604052810190620000529190620002ef565b6040518060400160405280600d81526020017f447261676f6e4661726d4e4654000000000000000000000000000000000000008152506040518060400160405280600581526020017f44464e46540000000000000000000000000000000000000000000000000000008152508160009080519060200190620000d692919062000228565b508060019080519060200190620000ef92919062000228565b50505062000112620001066200015a60201b60201c565b6200016260201b60201c565b80600c60006101000a81548173ffffffffffffffffffffffffffffffffffffffff021916908373ffffffffffffffffffffffffffffffffffffffff16021790555050620003d9565b600033905090565b6000600660009054906101000a900473ffffffffffffffffffffffffffffffffffffffff16905081600660006101000a81548173ffffffffffffffffffffffffffffffffffffffff021916908373ffffffffffffffffffffffffffffffffffffffff1602179055508173ffffffffffffffffffffffffffffffffffffffff168173ffffffffffffffffffffffffffffffffffffffff167f8be0079c531659141344cd1fd0a4f28419497f9722a3daafe3b4186f6b6457e060405160405180910390a35050565b828054620002369062000355565b90600052602060002090601f0160209004810192826200025a5760008555620002a6565b82601f106200027557805160ff1916838001178555620002a6565b82800160010185558215620002a6579182015b82811115620002a557825182559160200191906001019062000288565b5b509050620002b59190620002b9565b5090565b5b80821115620002d4576000816000905550600101620002ba565b5090565b600081519050620002e981620003bf565b92915050565b600060208284031215620003085762000307620003ba565b5b60006200031884828501620002d8565b91505092915050565b60006200032e8262000335565b9050919050565b600073ffffffffffffffffffffffffffffffffffffffff82169050919050565b600060028204905060018216806200036e57607f821691505b602082108114156200038557620003846200038b565b5b50919050565b7f4e487b7100000000000000000000000000000000000000000000000000000000600052602260045260246000fd5b600080fd5b620003ca8162000321565b8114620003d657600080fd5b50565b61387680620003e96000396000f3fe608060405234801561001057600080fd5b50600436106101e55760003560e01c80635c975abb1161010f57806395d89b41116100a2578063c87b56dd11610071578063c87b56dd14610530578063e985e9c514610560578063f2fde38b14610590578063fd5a60e1146105ac576101e5565b806395d89b41146104bc578063a22cb465146104da578063b047fb50146104f6578063b88d4fde14610514576101e5565b8063715018a6116100de578063715018a61461045a5780638456cb591461046457806385f5d4931461046e5780638da5cb5b1461049e576101e5565b80635c975abb146103ac57806360827d3f146103ca5780636352211e146103fa57806370a082311461042a576101e5565b806323b872dd1161018757806342842e0e1161015657806342842e0e1461033c57806345459a3d14610358578063464a228e146103745780634e0a337914610390576101e5565b806323b872dd146102de57806327d7874c146102fa5780632ba73c15146103165780633f4ba83a14610332576101e5565b8063081812fc116101c3578063081812fc14610256578063095ea7b3146102865780630a0f8168146102a257806318160ddd146102c0576101e5565b806301ffc9a7146101ea5780630519ce791461021a57806306fdde0314610238575b600080fd5b61020460048036038101906101ff919061280b565b6105c8565b6040516102119190612d04565b60405180910390f35b6102226106aa565b60405161022f9190612c7b565b60405180910390f35b6102406106d0565b60405161024d9190612d1f565b60405180910390f35b610270600480360381019061026b9190612865565b610762565b60405161027d9190612c7b565b60405180910390f35b6102a0600480360381019061029b91906127cb565b6107e7565b005b6102aa6108ff565b6040516102b79190612c7b565b60405180910390f35b6102c8610925565b6040516102d59190612f41565b60405180910390f35b6102f860048036038101906102f391906126b5565b610932565b005b610314600480360381019061030f9190612648565b610992565b005b610330600480360381019061032b9190612648565b610aa7565b005b61033a610bbc565b005b610356600480360381019061035191906126b5565b610c89565b005b610372600480360381019061036d91906127cb565b610ca9565b005b61038e600480360381019061038991906127cb565b610cf7565b005b6103aa60048036038101906103a59190612648565b610d40565b005b6103b4610e55565b6040516103c19190612d04565b60405180910390f35b6103e460048036038101906103df9190612648565b610e68565b6040516103f19190612ce2565b60405180910390f35b610414600480360381019061040f9190612865565b610eff565b6040516104219190612c7b565b60405180910390f35b610444600480360381019061043f9190612648565b610fb1565b6040516104519190612f41565b60405180910390f35b610462611069565b005b61046c6110f1565b005b61048860048036038101906104839190612892565b611232565b6040516104959190612f41565b60405180910390f35b6104a6611383565b6040516104b39190612c7b565b60405180910390f35b6104c46113ad565b6040516104d19190612d1f565b60405180910390f35b6104f460048036038101906104ef919061278b565b61143f565b005b6104fe6115c0565b60405161050b9190612c7b565b60405180910390f35b61052e60048036038101906105299190612708565b6115e6565b005b61054a60048036038101906105459190612865565b611648565b6040516105579190612d1f565b60405180910390f35b61057a60048036038101906105759190612675565b6116ef565b6040516105879190612d04565b60405180910390f35b6105aa60048036038101906105a59190612648565b611783565b005b6105c660048036038101906105c19190612865565b61187b565b005b60007f80ac58cd000000000000000000000000000000000000000000000000000000007bffffffffffffffffffffffffffffffffffffffffffffffffffffffff1916827bffffffffffffffffffffffffffffffffffffffffffffffffffffffff1916148061069357507f5b5e139f000000000000000000000000000000000000000000000000000000007bffffffffffffffffffffffffffffffffffffffffffffffffffffffff1916827bffffffffffffffffffffffffffffffffffffffffffffffffffffffff1916145b806106a357506106a282611887565b5b9050919050565b600860009054906101000a900473ffffffffffffffffffffffffffffffffffffffff1681565b6060600080546106df9061319f565b80601f016020809104026020016040519081016040528092919081815260200182805461070b9061319f565b80156107585780601f1061072d57610100808354040283529160200191610758565b820191906000526020600020905b81548152906001019060200180831161073b57829003601f168201915b5050505050905090565b600061076d826118f1565b6107ac576040517f08c379a00000000000000000000000000000000000000000000000000000000081526004016107a390612e81565b60405180910390fd5b6004600083815260200190815260200160002060009054906101000a900473ffffffffffffffffffffffffffffffffffffffff169050919050565b60006107f282610eff565b90508073ffffffffffffffffffffffffffffffffffffffff168373ffffffffffffffffffffffffffffffffffffffff161415610863576040517f08c379a000000000000000000000000000000000000000000000000000000000815260040161085a90612f01565b60405180910390fd5b8073ffffffffffffffffffffffffffffffffffffffff1661088261195d565b73ffffffffffffffffffffffffffffffffffffffff1614806108b157506108b0816108ab61195d565b6116ef565b5b6108f0576040517f08c379a00000000000000000000000000000000000000000000000000000000081526004016108e790612e01565b60405180910390fd5b6108fa8383611965565b505050565b600760009054906101000a900473ffffffffffffffffffffffffffffffffffffffff1681565b6000600a80549050905090565b61094361093d61195d565b82611a1e565b610982576040517f08c379a000000000000000000000000000000000000000000000000000000000815260040161097990612f21565b60405180910390fd5b61098d838383611afc565b505050565b600760009054906101000a900473ffffffffffffffffffffffffffffffffffffffff1673ffffffffffffffffffffffffffffffffffffffff163373ffffffffffffffffffffffffffffffffffffffff161480610a2057506109f1611383565b73ffffffffffffffffffffffffffffffffffffffff163373ffffffffffffffffffffffffffffffffffffffff16145b610a2957600080fd5b600073ffffffffffffffffffffffffffffffffffffffff168173ffffffffffffffffffffffffffffffffffffffff161415610a6357600080fd5b80600760006101000a81548173ffffffffffffffffffffffffffffffffffffffff021916908373ffffffffffffffffffffffffffffffffffffffff16021790555050565b600760009054906101000a900473ffffffffffffffffffffffffffffffffffffffff1673ffffffffffffffffffffffffffffffffffffffff163373ffffffffffffffffffffffffffffffffffffffff161480610b355750610b06611383565b73ffffffffffffffffffffffffffffffffffffffff163373ffffffffffffffffffffffffffffffffffffffff16145b610b3e57600080fd5b600073ffffffffffffffffffffffffffffffffffffffff168173ffffffffffffffffffffffffffffffffffffffff161415610b7857600080fd5b80600960006101000a81548173ffffffffffffffffffffffffffffffffffffffff021916908373ffffffffffffffffffffffffffffffffffffffff16021790555050565b600760009054906101000a900473ffffffffffffffffffffffffffffffffffffffff1673ffffffffffffffffffffffffffffffffffffffff163373ffffffffffffffffffffffffffffffffffffffff161480610c4a5750610c1b611383565b73ffffffffffffffffffffffffffffffffffffffff163373ffffffffffffffffffffffffffffffffffffffff16145b610c5357600080fd5b600960149054906101000a900460ff16610c6c57600080fd5b6000600960146101000a81548160ff021916908315150217905550565b610ca4838383604051806020016040528060008152506115e6565b505050565b3373ffffffffffffffffffffffffffffffffffffffff16610cc982610eff565b73ffffffffffffffffffffffffffffffffffffffff1614610ce957600080fd5b610cf382826107e7565b5050565b600073ffffffffffffffffffffffffffffffffffffffff168273ffffffffffffffffffffffffffffffffffffffff161415610d3157600080fd5b610d3c338383610c89565b5050565b600760009054906101000a900473ffffffffffffffffffffffffffffffffffffffff1673ffffffffffffffffffffffffffffffffffffffff163373ffffffffffffffffffffffffffffffffffffffff161480610dce5750610d9f611383565b73ffffffffffffffffffffffffffffffffffffffff163373ffffffffffffffffffffffffffffffffffffffff16145b610dd757600080fd5b600073ffffffffffffffffffffffffffffffffffffffff168173ffffffffffffffffffffffffffffffffffffffff161415610e1157600080fd5b80600860006101000a81548173ffffffffffffffffffffffffffffffffffffffff021916908373ffffffffffffffffffffffffffffffffffffffff16021790555050565b600960149054906101000a900460ff1681565b6060600b60008373ffffffffffffffffffffffffffffffffffffffff1673ffffffffffffffffffffffffffffffffffffffff168152602001908152602001600020805480602002602001604051908101604052809291908181526020018280548015610ef357602002820191906000526020600020905b815481526020019060010190808311610edf575b50505050509050919050565b6000806002600084815260200190815260200160002060009054906101000a900473ffffffffffffffffffffffffffffffffffffffff169050600073ffffffffffffffffffffffffffffffffffffffff168173ffffffffffffffffffffffffffffffffffffffff161415610fa8576040517f08c379a0000000000000000000000000000000000000000000000000000000008152600401610f9f90612e41565b60405180910390fd5b80915050919050565b60008073ffffffffffffffffffffffffffffffffffffffff168273ffffffffffffffffffffffffffffffffffffffff161415611022576040517f08c379a000000000000000000000000000000000000000000000000000000000815260040161101990612e21565b60405180910390fd5b600360008373ffffffffffffffffffffffffffffffffffffffff1673ffffffffffffffffffffffffffffffffffffffff168152602001908152602001600020549050919050565b61107161195d565b73ffffffffffffffffffffffffffffffffffffffff1661108f611383565b73ffffffffffffffffffffffffffffffffffffffff16146110e5576040517f08c379a00000000000000000000000000000000000000000000000000000000081526004016110dc90612ea1565b60405180910390fd5b6110ef6000611d58565b565b600960009054906101000a900473ffffffffffffffffffffffffffffffffffffffff1673ffffffffffffffffffffffffffffffffffffffff163373ffffffffffffffffffffffffffffffffffffffff16148061119a5750600760009054906101000a900473ffffffffffffffffffffffffffffffffffffffff1673ffffffffffffffffffffffffffffffffffffffff163373ffffffffffffffffffffffffffffffffffffffff16145b806111f25750600860009054906101000a900473ffffffffffffffffffffffffffffffffffffffff1673ffffffffffffffffffffffffffffffffffffffff163373ffffffffffffffffffffffffffffffffffffffff16145b6111fb57600080fd5b600960149054906101000a900460ff161561121557600080fd5b6001600960146101000a81548160ff021916908315150217905550565b6000600960009054906101000a900473ffffffffffffffffffffffffffffffffffffffff1673ffffffffffffffffffffffffffffffffffffffff163373ffffffffffffffffffffffffffffffffffffffff1614806112dd5750600760009054906101000a900473ffffffffffffffffffffffffffffffffffffffff1673ffffffffffffffffffffffffffffffffffffffff163373ffffffffffffffffffffffffffffffffffffffff16145b806113355750600860009054906101000a900473ffffffffffffffffffffffffffffffffffffffff1673ffffffffffffffffffffffffffffffffffffffff163373ffffffffffffffffffffffffffffffffffffffff16145b61133e57600080fd5b600061134a8484611e1e565b9050611379600c60009054906101000a900473ffffffffffffffffffffffffffffffffffffffff16600161143f565b8091505092915050565b6000600660009054906101000a900473ffffffffffffffffffffffffffffffffffffffff16905090565b6060600180546113bc9061319f565b80601f01602080910402602001604051908101604052809291908181526020018280546113e89061319f565b80156114355780601f1061140a57610100808354040283529160200191611435565b820191906000526020600020905b81548152906001019060200180831161141857829003601f168201915b5050505050905090565b61144761195d565b73ffffffffffffffffffffffffffffffffffffffff168273ffffffffffffffffffffffffffffffffffffffff1614156114b5576040517f08c379a00000000000000000000000000000000000000000000000000000000081526004016114ac90612dc1565b60405180910390fd5b80600560006114c261195d565b73ffffffffffffffffffffffffffffffffffffffff1673ffffffffffffffffffffffffffffffffffffffff16815260200190815260200160002060008473ffffffffffffffffffffffffffffffffffffffff1673ffffffffffffffffffffffffffffffffffffffff16815260200190815260200160002060006101000a81548160ff0219169083151502179055508173ffffffffffffffffffffffffffffffffffffffff1661156f61195d565b73ffffffffffffffffffffffffffffffffffffffff167f17307eab39ab6107e8899845ad3d59bd9653f200f220920489ca2b5937696c31836040516115b49190612d04565b60405180910390a35050565b600960009054906101000a900473ffffffffffffffffffffffffffffffffffffffff1681565b6115f76115f161195d565b83611a1e565b611636576040517f08c379a000000000000000000000000000000000000000000000000000000000815260040161162d90612f21565b60405180910390fd5b61164284848484611f0d565b50505050565b6060611653826118f1565b611692576040517f08c379a000000000000000000000000000000000000000000000000000000000815260040161168990612ee1565b60405180910390fd5b600061169c611f69565b905060008151116116bc57604051806020016040528060008152506116e7565b806116c684611f80565b6040516020016116d7929190612c57565b6040516020818303038152906040525b915050919050565b6000600560008473ffffffffffffffffffffffffffffffffffffffff1673ffffffffffffffffffffffffffffffffffffffff16815260200190815260200160002060008373ffffffffffffffffffffffffffffffffffffffff1673ffffffffffffffffffffffffffffffffffffffff16815260200190815260200160002060009054906101000a900460ff16905092915050565b61178b61195d565b73ffffffffffffffffffffffffffffffffffffffff166117a9611383565b73ffffffffffffffffffffffffffffffffffffffff16146117ff576040517f08c379a00000000000000000000000000000000000000000000000000000000081526004016117f690612ea1565b60405180910390fd5b600073ffffffffffffffffffffffffffffffffffffffff168173ffffffffffffffffffffffffffffffffffffffff16141561186f576040517f08c379a000000000000000000000000000000000000000000000000000000000815260040161186690612d61565b60405180910390fd5b61187881611d58565b50565b611884816120e1565b50565b60007f01ffc9a7000000000000000000000000000000000000000000000000000000007bffffffffffffffffffffffffffffffffffffffffffffffffffffffff1916827bffffffffffffffffffffffffffffffffffffffffffffffffffffffff1916149050919050565b60008073ffffffffffffffffffffffffffffffffffffffff166002600084815260200190815260200160002060009054906101000a900473ffffffffffffffffffffffffffffffffffffffff1673ffffffffffffffffffffffffffffffffffffffff1614159050919050565b600033905090565b816004600083815260200190815260200160002060006101000a81548173ffffffffffffffffffffffffffffffffffffffff021916908373ffffffffffffffffffffffffffffffffffffffff160217905550808273ffffffffffffffffffffffffffffffffffffffff166119d883610eff565b73ffffffffffffffffffffffffffffffffffffffff167f8c5be1e5ebec7d5bd14f71427d1e84f3dd0314c0f7b2291e5b200ac8c7c3b92560405160405180910390a45050565b6000611a29826118f1565b611a68576040517f08c379a0000000000000000000000000000000000000000000000000000000008152600401611a5f90612de1565b60405180910390fd5b6000611a7383610eff565b90508073ffffffffffffffffffffffffffffffffffffffff168473ffffffffffffffffffffffffffffffffffffffff161480611ae257508373ffffffffffffffffffffffffffffffffffffffff16611aca84610762565b73ffffffffffffffffffffffffffffffffffffffff16145b80611af35750611af281856116ef565b5b91505092915050565b8273ffffffffffffffffffffffffffffffffffffffff16611b1c82610eff565b73ffffffffffffffffffffffffffffffffffffffff1614611b72576040517f08c379a0000000000000000000000000000000000000000000000000000000008152600401611b6990612ec1565b60405180910390fd5b600073ffffffffffffffffffffffffffffffffffffffff168273ffffffffffffffffffffffffffffffffffffffff161415611be2576040517f08c379a0000000000000000000000000000000000000000000000000000000008152600401611bd990612da1565b60405180910390fd5b611bed8383836121f2565b611bf8600082611965565b6001600360008573ffffffffffffffffffffffffffffffffffffffff1673ffffffffffffffffffffffffffffffffffffffff1681526020019081526020016000206000828254611c4891906130b5565b925050819055506001600360008473ffffffffffffffffffffffffffffffffffffffff1673ffffffffffffffffffffffffffffffffffffffff1681526020019081526020016000206000828254611c9f919061302e565b92505081905550816002600083815260200190815260200160002060006101000a81548173ffffffffffffffffffffffffffffffffffffffff021916908373ffffffffffffffffffffffffffffffffffffffff160217905550808273ffffffffffffffffffffffffffffffffffffffff168473ffffffffffffffffffffffffffffffffffffffff167fddf252ad1be2c89b69c2b068fc378daa952ba7f163c4a11628f55a4df523b3ef60405160405180910390a4505050565b6000600660009054906101000a900473ffffffffffffffffffffffffffffffffffffffff16905081600660006101000a81548173ffffffffffffffffffffffffffffffffffffffff021916908373ffffffffffffffffffffffffffffffffffffffff1602179055508173ffffffffffffffffffffffffffffffffffffffff168173ffffffffffffffffffffffffffffffffffffffff167f8be0079c531659141344cd1fd0a4f28419497f9722a3daafe3b4186f6b6457e060405160405180910390a35050565b6000806040518060400160405280858152602001428152509050600a8190806001815401808255809150506001900390600052602060002090600202016000909190919091506000820151816000015560208201518160010155505060006001611e86610925565b611e9091906130b5565b9050611e9c84826121f7565b600b60008573ffffffffffffffffffffffffffffffffffffffff1673ffffffffffffffffffffffffffffffffffffffff168152602001908152602001600020819080600181540180825580915050600190039060005260206000200160009091909190915055809250505092915050565b611f18848484611afc565b611f24848484846123c5565b611f63576040517f08c379a0000000000000000000000000000000000000000000000000000000008152600401611f5a90612d41565b60405180910390fd5b50505050565b606060405180602001604052806000815250905090565b60606000821415611fc8576040518060400160405280600181526020017f300000000000000000000000000000000000000000000000000000000000000081525090506120dc565b600082905060005b60008214611ffa578080611fe390613202565b915050600a82611ff39190613084565b9150611fd0565b60008167ffffffffffffffff81111561201657612015613338565b5b6040519080825280601f01601f1916602001820160405280156120485781602001600182028036833780820191505090505b5090505b600085146120d55760018261206191906130b5565b9150600a85612070919061324b565b603061207c919061302e565b60f81b81838151811061209257612091613309565b5b60200101907effffffffffffffffffffffffffffffffffffffffffffffffffffffffffffff1916908160001a905350600a856120ce9190613084565b945061204c565b8093505050505b919050565b60006120ec82610eff565b90506120fa816000846121f2565b612105600083611965565b6001600360008373ffffffffffffffffffffffffffffffffffffffff1673ffffffffffffffffffffffffffffffffffffffff168152602001908152602001600020600082825461215591906130b5565b925050819055506002600083815260200190815260200160002060006101000a81549073ffffffffffffffffffffffffffffffffffffffff021916905581600073ffffffffffffffffffffffffffffffffffffffff168273ffffffffffffffffffffffffffffffffffffffff167fddf252ad1be2c89b69c2b068fc378daa952ba7f163c4a11628f55a4df523b3ef60405160405180910390a45050565b505050565b600073ffffffffffffffffffffffffffffffffffffffff168273ffffffffffffffffffffffffffffffffffffffff161415612267576040517f08c379a000000000000000000000000000000000000000000000000000000000815260040161225e90612e61565b60405180910390fd5b612270816118f1565b156122b0576040517f08c379a00000000000000000000000000000000000000000000000000000000081526004016122a790612d81565b60405180910390fd5b6122bc600083836121f2565b6001600360008473ffffffffffffffffffffffffffffffffffffffff1673ffffffffffffffffffffffffffffffffffffffff168152602001908152602001600020600082825461230c919061302e565b92505081905550816002600083815260200190815260200160002060006101000a81548173ffffffffffffffffffffffffffffffffffffffff021916908373ffffffffffffffffffffffffffffffffffffffff160217905550808273ffffffffffffffffffffffffffffffffffffffff16600073ffffffffffffffffffffffffffffffffffffffff167fddf252ad1be2c89b69c2b068fc378daa952ba7f163c4a11628f55a4df523b3ef60405160405180910390a45050565b60006123e68473ffffffffffffffffffffffffffffffffffffffff1661255c565b1561254f578373ffffffffffffffffffffffffffffffffffffffff1663150b7a0261240f61195d565b8786866040518563ffffffff1660e01b81526004016124319493929190612c96565b602060405180830381600087803b15801561244b57600080fd5b505af192505050801561247c57506040513d601f19601f820116820180604052508101906124799190612838565b60015b6124ff573d80600081146124ac576040519150601f19603f3d011682016040523d82523d6000602084013e6124b1565b606091505b506000815114156124f7576040517f08c379a00000000000000000000000000000000000000000000000000000000081526004016124ee90612d41565b60405180910390fd5b805181602001fd5b63150b7a0260e01b7bffffffffffffffffffffffffffffffffffffffffffffffffffffffff1916817bffffffffffffffffffffffffffffffffffffffffffffffffffffffff191614915050612554565b600190505b949350505050565b600080823b905060008111915050919050565b600061258261257d84612f81565b612f5c565b90508281526020810184848401111561259e5761259d61336c565b5b6125a984828561315d565b509392505050565b6000813590506125c0816137e4565b92915050565b6000813590506125d5816137fb565b92915050565b6000813590506125ea81613812565b92915050565b6000815190506125ff81613812565b92915050565b600082601f83011261261a57612619613367565b5b813561262a84826020860161256f565b91505092915050565b60008135905061264281613829565b92915050565b60006020828403121561265e5761265d613376565b5b600061266c848285016125b1565b91505092915050565b6000806040838503121561268c5761268b613376565b5b600061269a858286016125b1565b92505060206126ab858286016125b1565b9150509250929050565b6000806000606084860312156126ce576126cd613376565b5b60006126dc868287016125b1565b93505060206126ed868287016125b1565b92505060406126fe86828701612633565b9150509250925092565b6000806000806080858703121561272257612721613376565b5b6000612730878288016125b1565b9450506020612741878288016125b1565b935050604061275287828801612633565b925050606085013567ffffffffffffffff81111561277357612772613371565b5b61277f87828801612605565b91505092959194509250565b600080604083850312156127a2576127a1613376565b5b60006127b0858286016125b1565b92505060206127c1858286016125c6565b9150509250929050565b600080604083850312156127e2576127e1613376565b5b60006127f0858286016125b1565b925050602061280185828601612633565b9150509250929050565b60006020828403121561282157612820613376565b5b600061282f848285016125db565b91505092915050565b60006020828403121561284e5761284d613376565b5b600061285c848285016125f0565b91505092915050565b60006020828403121561287b5761287a613376565b5b600061288984828501612633565b91505092915050565b600080604083850312156128a9576128a8613376565b5b60006128b785828601612633565b92505060206128c8858286016125b1565b9150509250929050565b60006128de8383612c39565b60208301905092915050565b6128f3816130e9565b82525050565b600061290482612fc2565b61290e8185612ff0565b935061291983612fb2565b8060005b8381101561294a57815161293188826128d2565b975061293c83612fe3565b92505060018101905061291d565b5085935050505092915050565b612960816130fb565b82525050565b600061297182612fcd565b61297b8185613001565b935061298b81856020860161316c565b6129948161337b565b840191505092915050565b60006129aa82612fd8565b6129b48185613012565b93506129c481856020860161316c565b6129cd8161337b565b840191505092915050565b60006129e382612fd8565b6129ed8185613023565b93506129fd81856020860161316c565b80840191505092915050565b6000612a16603283613012565b9150612a218261338c565b604082019050919050565b6000612a39602683613012565b9150612a44826133db565b604082019050919050565b6000612a5c601c83613012565b9150612a678261342a565b602082019050919050565b6000612a7f602483613012565b9150612a8a82613453565b604082019050919050565b6000612aa2601983613012565b9150612aad826134a2565b602082019050919050565b6000612ac5602c83613012565b9150612ad0826134cb565b604082019050919050565b6000612ae8603883613012565b9150612af38261351a565b604082019050919050565b6000612b0b602a83613012565b9150612b1682613569565b604082019050919050565b6000612b2e602983613012565b9150612b39826135b8565b604082019050919050565b6000612b51602083613012565b9150612b5c82613607565b602082019050919050565b6000612b74602c83613012565b9150612b7f82613630565b604082019050919050565b6000612b97602083613012565b9150612ba28261367f565b602082019050919050565b6000612bba602983613012565b9150612bc5826136a8565b604082019050919050565b6000612bdd602f83613012565b9150612be8826136f7565b604082019050919050565b6000612c00602183613012565b9150612c0b82613746565b604082019050919050565b6000612c23603183613012565b9150612c2e82613795565b604082019050919050565b612c4281613153565b82525050565b612c5181613153565b82525050565b6000612c6382856129d8565b9150612c6f82846129d8565b91508190509392505050565b6000602082019050612c9060008301846128ea565b92915050565b6000608082019050612cab60008301876128ea565b612cb860208301866128ea565b612cc56040830185612c48565b8181036060830152612cd78184612966565b905095945050505050565b60006020820190508181036000830152612cfc81846128f9565b905092915050565b6000602082019050612d196000830184612957565b92915050565b60006020820190508181036000830152612d39818461299f565b905092915050565b60006020820190508181036000830152612d5a81612a09565b9050919050565b60006020820190508181036000830152612d7a81612a2c565b9050919050565b60006020820190508181036000830152612d9a81612a4f565b9050919050565b60006020820190508181036000830152612dba81612a72565b9050919050565b60006020820190508181036000830152612dda81612a95565b9050919050565b60006020820190508181036000830152612dfa81612ab8565b9050919050565b60006020820190508181036000830152612e1a81612adb565b9050919050565b60006020820190508181036000830152612e3a81612afe565b9050919050565b60006020820190508181036000830152612e5a81612b21565b9050919050565b60006020820190508181036000830152612e7a81612b44565b9050919050565b60006020820190508181036000830152612e9a81612b67565b9050919050565b60006020820190508181036000830152612eba81612b8a565b9050919050565b60006020820190508181036000830152612eda81612bad565b9050919050565b60006020820190508181036000830152612efa81612bd0565b9050919050565b60006020820190508181036000830152612f1a81612bf3565b9050919050565b60006020820190508181036000830152612f3a81612c16565b9050919050565b6000602082019050612f566000830184612c48565b92915050565b6000612f66612f77565b9050612f7282826131d1565b919050565b6000604051905090565b600067ffffffffffffffff821115612f9c57612f9b613338565b5b612fa58261337b565b9050602081019050919050565b6000819050602082019050919050565b600081519050919050565b600081519050919050565b600081519050919050565b6000602082019050919050565b600082825260208201905092915050565b600082825260208201905092915050565b600082825260208201905092915050565b600081905092915050565b600061303982613153565b915061304483613153565b9250827fffffffffffffffffffffffffffffffffffffffffffffffffffffffffffffffff038211156130795761307861327c565b5b828201905092915050565b600061308f82613153565b915061309a83613153565b9250826130aa576130a96132ab565b5b828204905092915050565b60006130c082613153565b91506130cb83613153565b9250828210156130de576130dd61327c565b5b828203905092915050565b60006130f482613133565b9050919050565b60008115159050919050565b60007fffffffff0000000000000000000000000000000000000000000000000000000082169050919050565b600073ffffffffffffffffffffffffffffffffffffffff82169050919050565b6000819050919050565b82818337600083830152505050565b60005b8381101561318a57808201518184015260208101905061316f565b83811115613199576000848401525b50505050565b600060028204905060018216806131b757607f821691505b602082108114156131cb576131ca6132da565b5b50919050565b6131da8261337b565b810181811067ffffffffffffffff821117156131f9576131f8613338565b5b80604052505050565b600061320d82613153565b91507fffffffffffffffffffffffffffffffffffffffffffffffffffffffffffffffff8214156132405761323f61327c565b5b600182019050919050565b600061325682613153565b915061326183613153565b925082613271576132706132ab565b5b828206905092915050565b7f4e487b7100000000000000000000000000000000000000000000000000000000600052601160045260246000fd5b7f4e487b7100000000000000000000000000000000000000000000000000000000600052601260045260246000fd5b7f4e487b7100000000000000000000000000000000000000000000000000000000600052602260045260246000fd5b7f4e487b7100000000000000000000000000000000000000000000000000000000600052603260045260246000fd5b7f4e487b7100000000000000000000000000000000000000000000000000000000600052604160045260246000fd5b600080fd5b600080fd5b600080fd5b600080fd5b6000601f19601f8301169050919050565b7f4552433732313a207472616e7366657220746f206e6f6e20455243373231526560008201527f63656976657220696d706c656d656e7465720000000000000000000000000000602082015250565b7f4f776e61626c653a206e6577206f776e657220697320746865207a65726f206160008201527f6464726573730000000000000000000000000000000000000000000000000000602082015250565b7f4552433732313a20746f6b656e20616c7265616479206d696e74656400000000600082015250565b7f4552433732313a207472616e7366657220746f20746865207a65726f2061646460008201527f7265737300000000000000000000000000000000000000000000000000000000602082015250565b7f4552433732313a20617070726f766520746f2063616c6c657200000000000000600082015250565b7f4552433732313a206f70657261746f7220717565727920666f72206e6f6e657860008201527f697374656e7420746f6b656e0000000000000000000000000000000000000000602082015250565b7f4552433732313a20617070726f76652063616c6c6572206973206e6f74206f7760008201527f6e6572206e6f7220617070726f76656420666f7220616c6c0000000000000000602082015250565b7f4552433732313a2062616c616e636520717565727920666f7220746865207a6560008201527f726f206164647265737300000000000000000000000000000000000000000000602082015250565b7f4552433732313a206f776e657220717565727920666f72206e6f6e657869737460008201527f656e7420746f6b656e0000000000000000000000000000000000000000000000602082015250565b7f4552433732313a206d696e7420746f20746865207a65726f2061646472657373600082015250565b7f4552433732313a20617070726f76656420717565727920666f72206e6f6e657860008201527f697374656e7420746f6b656e0000000000000000000000000000000000000000602082015250565b7f4f776e61626c653a2063616c6c6572206973206e6f7420746865206f776e6572600082015250565b7f4552433732313a207472616e73666572206f6620746f6b656e2074686174206960008201527f73206e6f74206f776e0000000000000000000000000000000000000000000000602082015250565b7f4552433732314d657461646174613a2055524920717565727920666f72206e6f60008201527f6e6578697374656e7420746f6b656e0000000000000000000000000000000000602082015250565b7f4552433732313a20617070726f76616c20746f2063757272656e74206f776e6560008201527f7200000000000000000000000000000000000000000000000000000000000000602082015250565b7f4552433732313a207472616e736665722063616c6c6572206973206e6f74206f60008201527f776e6572206e6f7220617070726f766564000000000000000000000000000000602082015250565b6137ed816130e9565b81146137f857600080fd5b50565b613804816130fb565b811461380f57600080fd5b50565b61381b81613107565b811461382657600080fd5b50565b61383281613153565b811461383d57600080fd5b5056fea2646970667358221220a325d8ad7f240cd0a8ca4eb741b6412a87b9afce95326a3c9087a8ea8f772ff664736f6c63430008060033",
  "immutableReferences": {},
  "source": "// SPDX-License-Identifier: MIT\npragma solidity ^0.8.0;\n\nimport \"@openzeppelin/contracts/token/ERC721/ERC721.sol\";\nimport \"@openzeppelin/contracts/access/Ownable.sol\";\nimport \"./DragonFarmBase.sol\";\nimport \"../erc20/DragonSoul.sol\";\ncontract DragonFarmCore is DragonFarmBase {\n    address marketAddress;\n    address dragonSoulAddress;\n\n    constructor(address _marketAddress) ERC721(\"DragonFarmNFT\", \"DFNFT\") {\n        marketAddress = _marketAddress;\n    }\n    \n    function spawnDragon(uint256 _genes, address _owner)\n        onlyCLevel\n        external\n        returns (uint256)\n    {\n        uint256 dragonId = _spawnDragon(_genes, _owner);\n        setApprovalForAll(marketAddress, true);\n        return dragonId;\n    }\n    \n     function transferDragon(address _to, uint256 _tokenId) public {\n        // Safety check to prevent burn Dragon\n        require(_to != address(0));\n        safeTransferFrom(msg.sender, _to, _tokenId);\n    }\n    \n    // function buyDragon(uint256 _tokenId) external {\n    //     DragonSoul dragonSoul = DragonSoul(payable(dragonSoulAddress));\n    //     dragonSoul.approve(ownerOf(_tokenId), 1000000000000000000);\n    //     // transferDragon(msg.sender, _tokenId);\n    // }\n\n    //Approve another address the right to transfer a dragon\n    function approveDragon(address _to, uint256 _tokenId) external {\n        require(ownerOf(_tokenId) == msg.sender);\n        approve(_to, _tokenId);\n    }\n\n    //Burn dragon\n\n    function killDragon(uint256 _tokenId) external {\n      _burn(_tokenId);\n    }\n    \n\n}\n",
  "sourcePath": "/home/hieu/Blockchain/dragonfarm/src/contracts/core/erc721/DragonFarmCore.sol",
  "compiler": {
    "name": "solc",
    "version": "0.8.6+commit.11564f7e.Emscripten.clang"
  },
  "schemaVersion": "3.4.2",
  "updatedAt": "2021-08-10T02:12:18.519Z",
  "devdoc": {
    "kind": "dev",
    "methods": {
      "approve(address,uint256)": {
        "details": "See {IERC721-approve}."
      },
      "balanceOf(address)": {
        "details": "See {IERC721-balanceOf}."
      },
      "getApproved(uint256)": {
        "details": "See {IERC721-getApproved}."
      },
      "isApprovedForAll(address,address)": {
        "details": "See {IERC721-isApprovedForAll}."
      },
      "name()": {
        "details": "See {IERC721Metadata-name}."
      },
      "owner()": {
        "details": "Returns the address of the current owner."
      },
      "ownerOf(uint256)": {
        "details": "See {IERC721-ownerOf}."
      },
      "pause()": {
        "details": "Called by any \"C-level\" role to pause the contract. Used only when  a bug or exploit is detected and we need to limit damage."
      },
      "renounceOwnership()": {
        "details": "Leaves the contract without owner. It will not be possible to call `onlyOwner` functions anymore. Can only be called by the current owner. NOTE: Renouncing ownership will leave the contract without an owner, thereby removing any functionality that is only available to the owner."
      },
      "safeTransferFrom(address,address,uint256)": {
        "details": "See {IERC721-safeTransferFrom}."
      },
      "safeTransferFrom(address,address,uint256,bytes)": {
        "details": "See {IERC721-safeTransferFrom}."
      },
      "setApprovalForAll(address,bool)": {
        "details": "See {IERC721-setApprovalForAll}."
      },
      "setCEO(address)": {
        "details": "Assigns a new address to act as the CEO. Only available to the current CEO.",
        "params": {
          "_newCEO": "The address of the new CEO"
        }
      },
      "setCFO(address)": {
        "details": "Assigns a new address to act as the CFO. Only available to the current CEO.",
        "params": {
          "_newCFO": "The address of the new CFO"
        }
      },
      "setCOO(address)": {
        "details": "Assigns a new address to act as the COO. Only available to the current CEO.",
        "params": {
          "_newCOO": "The address of the new COO"
        }
      },
      "supportsInterface(bytes4)": {
        "details": "See {IERC165-supportsInterface}."
      },
      "symbol()": {
        "details": "See {IERC721Metadata-symbol}."
      },
      "tokenURI(uint256)": {
        "details": "See {IERC721Metadata-tokenURI}."
      },
      "transferFrom(address,address,uint256)": {
        "details": "See {IERC721-transferFrom}."
      },
      "transferOwnership(address)": {
        "details": "Transfers ownership of the contract to a new account (`newOwner`). Can only be called by the current owner."
      },
      "unpause()": {
        "details": "Unpauses the smart contract. Can only be called by the CEO, since  one reason we may pause the contract is when CFO or COO accounts are  compromised."
      }
    },
    "version": 1
  },
  "userdoc": {
    "kind": "user",
    "methods": {
      "unpause()": {
        "notice": "This is public rather than external so it can be called by  derived contracts."
      }
    },
    "version": 1
  }
}