{
  "contractName": "DRASFarm",
  "abi": [
    {
      "inputs": [
        {
          "internalType": "contract IERC20",
          "name": "_tether",
          "type": "address"
        },
        {
          "internalType": "contract DragonSoul",
          "name": "_dragonSoul",
          "type": "address"
        }
      ],
      "stateMutability": "nonpayable",
      "type": "constructor"
    },
    {
      "anonymous": false,
      "inputs": [
        {
          "indexed": true,
          "internalType": "address",
          "name": "from",
          "type": "address"
        },
        {
          "indexed": false,
          "internalType": "uint256",
          "name": "amount",
          "type": "uint256"
        }
      ],
      "name": "Stake",
      "type": "event"
    },
    {
      "anonymous": false,
      "inputs": [
        {
          "indexed": true,
          "internalType": "address",
          "name": "from",
          "type": "address"
        },
        {
          "indexed": false,
          "internalType": "uint256",
          "name": "amount",
          "type": "uint256"
        }
      ],
      "name": "Unstake",
      "type": "event"
    },
    {
      "anonymous": false,
      "inputs": [
        {
          "indexed": true,
          "internalType": "address",
          "name": "to",
          "type": "address"
        },
        {
          "indexed": false,
          "internalType": "uint256",
          "name": "amount",
          "type": "uint256"
        }
      ],
      "name": "YieldWithdraw",
      "type": "event"
    },
    {
      "inputs": [],
      "name": "dragonSoul",
      "outputs": [
        {
          "internalType": "contract DragonSoul",
          "name": "",
          "type": "address"
        }
      ],
      "stateMutability": "view",
      "type": "function"
    },
    {
      "inputs": [
        {
          "internalType": "address",
          "name": "",
          "type": "address"
        }
      ],
      "name": "dragonSoulBalance",
      "outputs": [
        {
          "internalType": "uint256",
          "name": "",
          "type": "uint256"
        }
      ],
      "stateMutability": "view",
      "type": "function"
    },
    {
      "inputs": [
        {
          "internalType": "address",
          "name": "",
          "type": "address"
        }
      ],
      "name": "isStaking",
      "outputs": [
        {
          "internalType": "bool",
          "name": "",
          "type": "bool"
        }
      ],
      "stateMutability": "view",
      "type": "function"
    },
    {
      "inputs": [],
      "name": "name",
      "outputs": [
        {
          "internalType": "string",
          "name": "",
          "type": "string"
        }
      ],
      "stateMutability": "view",
      "type": "function"
    },
    {
      "inputs": [
        {
          "internalType": "address",
          "name": "",
          "type": "address"
        }
      ],
      "name": "stakingBalance",
      "outputs": [
        {
          "internalType": "uint256",
          "name": "",
          "type": "uint256"
        }
      ],
      "stateMutability": "view",
      "type": "function"
    },
    {
      "inputs": [
        {
          "internalType": "address",
          "name": "",
          "type": "address"
        }
      ],
      "name": "startTime",
      "outputs": [
        {
          "internalType": "uint256",
          "name": "",
          "type": "uint256"
        }
      ],
      "stateMutability": "view",
      "type": "function"
    },
    {
      "inputs": [],
      "name": "tether",
      "outputs": [
        {
          "internalType": "contract IERC20",
          "name": "",
          "type": "address"
        }
      ],
      "stateMutability": "view",
      "type": "function"
    },
    {
      "inputs": [],
      "name": "daiBalance",
      "outputs": [
        {
          "internalType": "uint256",
          "name": "",
          "type": "uint256"
        }
      ],
      "stateMutability": "view",
      "type": "function"
    },
    {
      "inputs": [
        {
          "internalType": "uint256",
          "name": "amount",
          "type": "uint256"
        }
      ],
      "name": "stake",
      "outputs": [],
      "stateMutability": "nonpayable",
      "type": "function"
    },
    {
      "inputs": [
        {
          "internalType": "uint256",
          "name": "amount",
          "type": "uint256"
        }
      ],
      "name": "unstake",
      "outputs": [],
      "stateMutability": "nonpayable",
      "type": "function"
    },
    {
      "inputs": [
        {
          "internalType": "address",
          "name": "user",
          "type": "address"
        }
      ],
      "name": "calculateYieldTime",
      "outputs": [
        {
          "internalType": "uint256",
          "name": "",
          "type": "uint256"
        }
      ],
      "stateMutability": "view",
      "type": "function"
    },
    {
      "inputs": [
        {
          "internalType": "address",
          "name": "user",
          "type": "address"
        }
      ],
      "name": "calculateYieldTotal",
      "outputs": [
        {
          "internalType": "uint256",
          "name": "",
          "type": "uint256"
        }
      ],
      "stateMutability": "view",
      "type": "function"
    },
    {
      "inputs": [],
      "name": "withdrawYield",
      "outputs": [],
      "stateMutability": "nonpayable",
      "type": "function"
    }
  ],
  "bytecode": "0x60806040526040518060400160405280600881526020017f445241534661726d00000000000000000000000000000000000000000000000081525060049080519060200190620000519291906200010f565b503480156200005f57600080fd5b50604051620019d3380380620019d38339818101604052810190620000859190620001ed565b81600560006101000a81548173ffffffffffffffffffffffffffffffffffffffff021916908373ffffffffffffffffffffffffffffffffffffffff16021790555080600660006101000a81548173ffffffffffffffffffffffffffffffffffffffff021916908373ffffffffffffffffffffffffffffffffffffffff160217905550505062000323565b8280546200011d906200028a565b90600052602060002090601f0160209004810192826200014157600085556200018d565b82601f106200015c57805160ff19168380011785556200018d565b828001600101855582156200018d579182015b828111156200018c5782518255916020019190600101906200016f565b5b5090506200019c9190620001a0565b5090565b5b80821115620001bb576000816000905550600101620001a1565b5090565b600081519050620001d081620002ef565b92915050565b600081519050620001e78162000309565b92915050565b600080604083850312156200020157600080fd5b60006200021185828601620001d6565b92505060206200022485828601620001bf565b9150509250929050565b60006200023b826200026a565b9050919050565b60006200024f826200022e565b9050919050565b600062000263826200022e565b9050919050565b600073ffffffffffffffffffffffffffffffffffffffff82169050919050565b60006002820490506001821680620002a357607f821691505b60208210811415620002ba57620002b9620002c0565b5b50919050565b7f4e487b7100000000000000000000000000000000000000000000000000000000600052602260045260246000fd5b620002fa8162000242565b81146200030657600080fd5b50565b620003148162000256565b81146200032057600080fd5b50565b6116a080620003336000396000f3fe608060405234801561001057600080fd5b50600436106100cf5760003560e01c80635efc071a1161008c5780636f49712b116100665780636f49712b14610228578063980d611614610258578063a694fc3a14610288578063e507a8a4146102a4576100cf565b80635efc071a146101aa57806363b3bf0f146101c85780636e1dc66e146101f8576100cf565b806306872661146100d457806306fdde03146101045780630de7d631146101225780630e7bb707146101405780632e17de781461015e57806345bc78ab1461017a575b600080fd5b6100ee60048036038101906100e99190610fec565b6102ae565b6040516100fb91906112cb565b60405180910390f35b61010c61035f565b6040516101199190611249565b60405180910390f35b61012a6103ed565b6040516101379190611213565b60405180910390f35b610148610413565b60405161015591906112cb565b60405180910390f35b6101786004803603810190610173919061103e565b6104c5565b005b610194600480360381019061018f9190610fec565b61084d565b6040516101a191906112cb565b60405180910390f35b6101b2610865565b6040516101bf919061122e565b60405180910390f35b6101e260048036038101906101dd9190610fec565b61088b565b6040516101ef91906112cb565b60405180910390f35b610212600480360381019061020d9190610fec565b6108a3565b60405161021f91906112cb565b60405180910390f35b610242600480360381019061023d9190610fec565b6108bb565b60405161024f91906111f8565b60405180910390f35b610272600480360381019061026d9190610fec565b6108db565b60405161027f91906112cb565b60405180910390f35b6102a2600480360381019061029d919061103e565b61093a565b005b6102ac610ce4565b005b600080670de0b6b3a76400006102c3846108db565b6102cd9190611389565b9050600062015180905060006102e38383610f82565b90506000683635c9adc5dea000006005836000808a73ffffffffffffffffffffffffffffffffffffffff1673ffffffffffffffffffffffffffffffffffffffff1681526020019081526020016000205461033d9190611389565b6103479190611389565b6103519190611358565b905080945050505050919050565b6004805461036c906114da565b80601f0160208091040260200160405190810160405280929190818152602001828054610398906114da565b80156103e55780601f106103ba576101008083540402835291602001916103e5565b820191906000526020600020905b8154815290600101906020018083116103c857829003601f168201915b505050505081565b600660009054906101000a900473ffffffffffffffffffffffffffffffffffffffff1681565b6000600560009054906101000a900473ffffffffffffffffffffffffffffffffffffffff1673ffffffffffffffffffffffffffffffffffffffff166370a08231336040518263ffffffff1660e01b8152600401610470919061117d565b60206040518083038186803b15801561048857600080fd5b505afa15801561049c573d6000803e3d6000fd5b505050506040513d601f19601f820116820180604052508101906104c09190611067565b905090565b600180156105115750806000803373ffffffffffffffffffffffffffffffffffffffff1673ffffffffffffffffffffffffffffffffffffffff1681526020019081526020016000205410155b600160003373ffffffffffffffffffffffffffffffffffffffff1673ffffffffffffffffffffffffffffffffffffffff16815260200190815260200160002060006101000a81548160ff02191690831515021790556105a5576040517f08c379a000000000000000000000000000000000000000000000000000000000815260040161059c906112ab565b60405180910390fd5b60006105b0336102ae565b905042600260003373ffffffffffffffffffffffffffffffffffffffff1673ffffffffffffffffffffffffffffffffffffffff16815260200190815260200160002081905550600082905060009250806000803373ffffffffffffffffffffffffffffffffffffffff1673ffffffffffffffffffffffffffffffffffffffff168152602001908152602001600020600082825461064d91906113e3565b92505081905550600560009054906101000a900473ffffffffffffffffffffffffffffffffffffffff1673ffffffffffffffffffffffffffffffffffffffff1663a9059cbb33836040518363ffffffff1660e01b81526004016106b19291906111cf565b602060405180830381600087803b1580156106cb57600080fd5b505af11580156106df573d6000803e3d6000fd5b505050506040513d601f19601f820116820180604052508101906107039190611015565b5081600360003373ffffffffffffffffffffffffffffffffffffffff1673ffffffffffffffffffffffffffffffffffffffff16815260200190815260200160002060008282546107539190611302565b9250508190555060008060003373ffffffffffffffffffffffffffffffffffffffff1673ffffffffffffffffffffffffffffffffffffffff1681526020019081526020016000205414156107fa576000600160003373ffffffffffffffffffffffffffffffffffffffff1673ffffffffffffffffffffffffffffffffffffffff16815260200190815260200160002060006101000a81548160ff0219169083151502179055505b3373ffffffffffffffffffffffffffffffffffffffff167f85082129d87b2fe11527cb1b3b7a520aeb5aa6913f88a3d8757fe40d1db02fdd8260405161084091906112cb565b60405180910390a2505050565b60006020528060005260406000206000915090505481565b600560009054906101000a900473ffffffffffffffffffffffffffffffffffffffff1681565b60036020528060005260406000206000915090505481565b60026020528060005260406000206000915090505481565b60016020528060005260406000206000915054906101000a900460ff1681565b6000804290506000600260008573ffffffffffffffffffffffffffffffffffffffff1673ffffffffffffffffffffffffffffffffffffffff168152602001908152602001600020548261092e91906113e3565b90508092505050919050565b6000811180156109f4575080600560009054906101000a900473ffffffffffffffffffffffffffffffffffffffff1673ffffffffffffffffffffffffffffffffffffffff166370a08231336040518263ffffffff1660e01b81526004016109a1919061117d565b60206040518083038186803b1580156109b957600080fd5b505afa1580156109cd573d6000803e3d6000fd5b505050506040513d601f19601f820116820180604052508101906109f19190611067565b10155b610a33576040517f08c379a0000000000000000000000000000000000000000000000000000000008152600401610a2a9061128b565b60405180910390fd5b60011515600160003373ffffffffffffffffffffffffffffffffffffffff1673ffffffffffffffffffffffffffffffffffffffff16815260200190815260200160002060009054906101000a900460ff1615151415610af1576000610a97336102ae565b905080600360003373ffffffffffffffffffffffffffffffffffffffff1673ffffffffffffffffffffffffffffffffffffffff1681526020019081526020016000206000828254610ae89190611302565b92505081905550505b600560009054906101000a900473ffffffffffffffffffffffffffffffffffffffff1673ffffffffffffffffffffffffffffffffffffffff166323b872dd3330846040518463ffffffff1660e01b8152600401610b5093929190611198565b602060405180830381600087803b158015610b6a57600080fd5b505af1158015610b7e573d6000803e3d6000fd5b505050506040513d601f19601f82011682018060405250810190610ba29190611015565b50806000803373ffffffffffffffffffffffffffffffffffffffff1673ffffffffffffffffffffffffffffffffffffffff1681526020019081526020016000206000828254610bf19190611302565b9250508190555042600260003373ffffffffffffffffffffffffffffffffffffffff1673ffffffffffffffffffffffffffffffffffffffff1681526020019081526020016000208190555060018060003373ffffffffffffffffffffffffffffffffffffffff1673ffffffffffffffffffffffffffffffffffffffff16815260200190815260200160002060006101000a81548160ff0219169083151502179055503373ffffffffffffffffffffffffffffffffffffffff167febedb8b3c678666e7f36970bc8f57abf6d8fa2e828c0da91ea5b75bf68ed101a82604051610cd991906112cb565b60405180910390a250565b6000610cef336102ae565b90506000811180610d3f57506000600360003373ffffffffffffffffffffffffffffffffffffffff1673ffffffffffffffffffffffffffffffffffffffff16815260200190815260200160002054115b610d7e576040517f08c379a0000000000000000000000000000000000000000000000000000000008152600401610d759061126b565b60405180910390fd5b6000600360003373ffffffffffffffffffffffffffffffffffffffff1673ffffffffffffffffffffffffffffffffffffffff1681526020019081526020016000205414610e5e576000600360003373ffffffffffffffffffffffffffffffffffffffff1673ffffffffffffffffffffffffffffffffffffffff1681526020019081526020016000205490506000600360003373ffffffffffffffffffffffffffffffffffffffff1673ffffffffffffffffffffffffffffffffffffffff168152602001908152602001600020819055508082610e5a9190611302565b9150505b42600260003373ffffffffffffffffffffffffffffffffffffffff1673ffffffffffffffffffffffffffffffffffffffff16815260200190815260200160002081905550600660009054906101000a900473ffffffffffffffffffffffffffffffffffffffff1673ffffffffffffffffffffffffffffffffffffffff166340c10f1933836040518363ffffffff1660e01b8152600401610eff9291906111cf565b600060405180830381600087803b158015610f1957600080fd5b505af1158015610f2d573d6000803e3d6000fd5b505050503373ffffffffffffffffffffffffffffffffffffffff167f92044e3943309ee5950e21bc7421d02c1df75f0df33c0d97c1143687b49a4c5782604051610f7791906112cb565b60405180910390a250565b60008183610f909190611358565b905092915050565b600081359050610fa781611625565b92915050565b600081519050610fbc8161163c565b92915050565b600081359050610fd181611653565b92915050565b600081519050610fe681611653565b92915050565b600060208284031215610ffe57600080fd5b600061100c84828501610f98565b91505092915050565b60006020828403121561102757600080fd5b600061103584828501610fad565b91505092915050565b60006020828403121561105057600080fd5b600061105e84828501610fc2565b91505092915050565b60006020828403121561107957600080fd5b600061108784828501610fd7565b91505092915050565b61109981611417565b82525050565b6110a881611429565b82525050565b6110b78161145f565b82525050565b6110c681611483565b82525050565b60006110d7826112e6565b6110e181856112f1565b93506110f18185602086016114a7565b6110fa81611599565b840191505092915050565b60006111126013836112f1565b915061111d826115aa565b602082019050919050565b6000611135601c836112f1565b9150611140826115d3565b602082019050919050565b60006111586012836112f1565b9150611163826115fc565b602082019050919050565b61117781611455565b82525050565b60006020820190506111926000830184611090565b92915050565b60006060820190506111ad6000830186611090565b6111ba6020830185611090565b6111c7604083018461116e565b949350505050565b60006040820190506111e46000830185611090565b6111f1602083018461116e565b9392505050565b600060208201905061120d600083018461109f565b92915050565b600060208201905061122860008301846110ae565b92915050565b600060208201905061124360008301846110bd565b92915050565b6000602082019050818103600083015261126381846110cc565b905092915050565b6000602082019050818103600083015261128481611105565b9050919050565b600060208201905081810360008301526112a481611128565b9050919050565b600060208201905081810360008301526112c48161114b565b9050919050565b60006020820190506112e0600083018461116e565b92915050565b600081519050919050565b600082825260208201905092915050565b600061130d82611455565b915061131883611455565b9250827fffffffffffffffffffffffffffffffffffffffffffffffffffffffffffffffff0382111561134d5761134c61150c565b5b828201905092915050565b600061136382611455565b915061136e83611455565b92508261137e5761137d61153b565b5b828204905092915050565b600061139482611455565b915061139f83611455565b9250817fffffffffffffffffffffffffffffffffffffffffffffffffffffffffffffffff04831182151516156113d8576113d761150c565b5b828202905092915050565b60006113ee82611455565b91506113f983611455565b92508282101561140c5761140b61150c565b5b828203905092915050565b600061142282611435565b9050919050565b60008115159050919050565b600073ffffffffffffffffffffffffffffffffffffffff82169050919050565b6000819050919050565b600061146a82611471565b9050919050565b600061147c82611435565b9050919050565b600061148e82611495565b9050919050565b60006114a082611435565b9050919050565b60005b838110156114c55780820151818401526020810190506114aa565b838111156114d4576000848401525b50505050565b600060028204905060018216806114f257607f821691505b602082108114156115065761150561156a565b5b50919050565b7f4e487b7100000000000000000000000000000000000000000000000000000000600052601160045260246000fd5b7f4e487b7100000000000000000000000000000000000000000000000000000000600052601260045260246000fd5b7f4e487b7100000000000000000000000000000000000000000000000000000000600052602260045260246000fd5b6000601f19601f8301169050919050565b7f4e6f7468696e6720746f20776974686472617700000000000000000000000000600082015250565b7f596f752063616e6e6f74207374616b65207a65726f20746f6b656e7300000000600082015250565b7f4e6f7468696e6720746f20756e7374616b650000000000000000000000000000600082015250565b61162e81611417565b811461163957600080fd5b50565b61164581611429565b811461165057600080fd5b50565b61165c81611455565b811461166757600080fd5b5056fea26469706673582212207066579817d9784c1d5d3e76b31c999439d3fa574562d4345405d10fd8a25bcc64736f6c63430008040033",
  "immutableReferences": {},
  "source": "// SPDX-License-Identifier: MIT\npragma solidity 0.8.4;\n\nimport \"@openzeppelin/contracts/token/ERC20/IERC20.sol\";\nimport \"../core/erc20/DragonSoul.sol\";\nimport \"../core/erc20/USDT.sol\";\nimport \"@openzeppelin/contracts/utils/math/SafeMath.sol\";\n\ncontract DRASFarm {\n    using SafeMath for uint256;\n    \n    mapping(address => uint256) public stakingBalance;\n    mapping(address => bool) public isStaking;\n    mapping(address => uint256) public startTime;\n    mapping(address => uint256) public dragonSoulBalance;\n\n    string public name = \"DRASFarm\";\n\n    IERC20 public tether;\n    DragonSoul public dragonSoul;\n\n    event Stake(address indexed from, uint256 amount);\n    event Unstake(address indexed from, uint256 amount);\n    event YieldWithdraw(address indexed to, uint256 amount);\n\n    constructor(\n        IERC20 _tether,\n        DragonSoul _dragonSoul\n        ) {\n            tether = _tether;\n            dragonSoul = _dragonSoul;\n        }\n    \n    function daiBalance() external view returns(uint256) {\n        return tether.balanceOf(msg.sender);\n    }\n    \n    function stake(uint256 amount) public {\n        require(\n            amount > 0 &&\n            tether.balanceOf(msg.sender) >= amount, \n            \"You cannot stake zero tokens\");\n            \n        if(isStaking[msg.sender] == true){\n            uint256 toTransfer = calculateYieldTotal(msg.sender);\n            dragonSoulBalance[msg.sender] += toTransfer;\n        }\n        \n        tether.transferFrom(msg.sender, address(this), amount);\n        stakingBalance[msg.sender] += amount;\n        startTime[msg.sender] = block.timestamp;\n        isStaking[msg.sender] = true;\n        emit Stake(msg.sender, amount);\n    }\n\n    function unstake(uint256 amount) public {\n        require(\n            isStaking[msg.sender] = true &&\n            stakingBalance[msg.sender] >= amount, \n            \"Nothing to unstake\"\n        );\n        uint256 yieldTransfer = calculateYieldTotal(msg.sender);\n        startTime[msg.sender] = block.timestamp;\n        uint256 balTransfer = amount;\n        amount = 0;\n        stakingBalance[msg.sender] -= balTransfer;\n        tether.transfer(msg.sender, balTransfer);\n        dragonSoulBalance[msg.sender] += yieldTransfer;\n        if(stakingBalance[msg.sender] == 0){\n            isStaking[msg.sender] = false;\n        }\n        emit Unstake(msg.sender, balTransfer);\n    }\n\n    function calculateYieldTime(address user) public view returns(uint256){\n        uint256 end = block.timestamp;\n        uint256 totalTime = end - startTime[user];\n        return totalTime;\n    }\n\n    function calculateYieldTotal(address user) public view returns(uint256) {\n        uint256 time = calculateYieldTime(user) * 10**18;\n        uint256 rate = 60*60*24; // 1day - in seconds\n        uint256 timeRate = SafeMath.div(time, rate);\n        //Rate 0.5% perday\n        uint256 rawYield = (stakingBalance[user] * timeRate * 5) / (10**18*10**3);\n        return rawYield;\n    } \n\n    function withdrawYield() public {\n        uint256 toTransfer = calculateYieldTotal(msg.sender);\n\n        require(\n            toTransfer > 0 ||\n            dragonSoulBalance[msg.sender] > 0,\n            \"Nothing to withdraw\"\n            );\n            \n        if(dragonSoulBalance[msg.sender] != 0){\n            uint256 oldBalance = dragonSoulBalance[msg.sender];\n            dragonSoulBalance[msg.sender] = 0;\n            toTransfer += oldBalance;\n        }\n\n        startTime[msg.sender] = block.timestamp;\n        dragonSoul.mint(msg.sender, toTransfer);\n        emit YieldWithdraw(msg.sender, toTransfer);\n    } \n}\n\n",
  "sourcePath": "/home/hieu/Blockchain/dragonfarm/src/contracts/farm/DRASFarm.sol",
  "compiler": {
    "name": "solc",
    "version": "0.8.4+commit.c7e474f2.Emscripten.clang"
  },
  "schemaVersion": "3.4.2",
  "updatedAt": "2021-08-11T04:16:11.492Z",
  "devdoc": {
    "kind": "dev",
    "methods": {},
    "version": 1
  },
  "userdoc": {
    "kind": "user",
    "methods": {},
    "version": 1
  }
}