{
  "contractName": "GeneScience",
  "abi": [
    {
      "inputs": [
        {
          "internalType": "address",
          "name": "_privilegedBirtherAddress",
          "type": "address"
        },
        {
          "internalType": "address",
          "name": "_kittyCoreAddress",
          "type": "address"
        }
      ],
      "stateMutability": "nonpayable",
      "type": "constructor"
    },
    {
      "inputs": [],
      "name": "isGeneScience",
      "outputs": [
        {
          "internalType": "bool",
          "name": "",
          "type": "bool"
        }
      ],
      "stateMutability": "view",
      "type": "function"
    },
    {
      "inputs": [],
      "name": "privilegedBirtherWindowSize",
      "outputs": [
        {
          "internalType": "uint256",
          "name": "",
          "type": "uint256"
        }
      ],
      "stateMutability": "view",
      "type": "function"
    },
    {
      "inputs": [
        {
          "internalType": "address",
          "name": "_birtherAddress",
          "type": "address"
        }
      ],
      "name": "setPrivilegedBirther",
      "outputs": [],
      "stateMutability": "nonpayable",
      "type": "function"
    },
    {
      "inputs": [
        {
          "internalType": "uint256",
          "name": "_genes",
          "type": "uint256"
        }
      ],
      "name": "decode",
      "outputs": [
        {
          "internalType": "uint8[]",
          "name": "",
          "type": "uint8[]"
        }
      ],
      "stateMutability": "pure",
      "type": "function"
    },
    {
      "inputs": [
        {
          "internalType": "uint8[]",
          "name": "_traits",
          "type": "uint8[]"
        }
      ],
      "name": "encode",
      "outputs": [
        {
          "internalType": "uint256",
          "name": "_genes",
          "type": "uint256"
        }
      ],
      "stateMutability": "pure",
      "type": "function"
    },
    {
      "inputs": [
        {
          "internalType": "uint256",
          "name": "_genes",
          "type": "uint256"
        }
      ],
      "name": "expressingTraits",
      "outputs": [
        {
          "internalType": "uint8[12]",
          "name": "",
          "type": "uint8[12]"
        }
      ],
      "stateMutability": "pure",
      "type": "function"
    },
    {
      "inputs": [
        {
          "internalType": "uint256",
          "name": "_genes1",
          "type": "uint256"
        },
        {
          "internalType": "uint256",
          "name": "_genes2",
          "type": "uint256"
        },
        {
          "internalType": "uint256",
          "name": "_targetBlock",
          "type": "uint256"
        }
      ],
      "name": "mixGenes",
      "outputs": [
        {
          "internalType": "uint256",
          "name": "",
          "type": "uint256"
        }
      ],
      "stateMutability": "nonpayable",
      "type": "function"
    }
  ],
  "bytecode": "0x608060405260016000806101000a81548160ff02191690831515021790555060056001553480156200003057600080fd5b506040516200172138038062001721833981810160405281019062000056919062000132565b600073ffffffffffffffffffffffffffffffffffffffff168173ffffffffffffffffffffffffffffffffffffffff1614156200009157600080fd5b80600260006101000a81548173ffffffffffffffffffffffffffffffffffffffff021916908373ffffffffffffffffffffffffffffffffffffffff16021790555081600060016101000a81548173ffffffffffffffffffffffffffffffffffffffff021916908373ffffffffffffffffffffffffffffffffffffffff1602179055505050620001cc565b6000815190506200012c81620001b2565b92915050565b600080604083850312156200014c576200014b620001ad565b5b60006200015c858286016200011b565b92505060206200016f858286016200011b565b9150509250929050565b600062000186826200018d565b9050919050565b600073ffffffffffffffffffffffffffffffffffffffff82169050919050565b600080fd5b620001bd8162000179565b8114620001c957600080fd5b50565b61154580620001dc6000396000f3fe608060405234801561001057600080fd5b506004361061007d5760003560e01c806354c15b821161005b57806354c15b821461010057806361a769001461011e57806377a74a201461014e578063fe2787e81461017e5761007d565b80630d9f5aed146100825780631597ee44146100b257806333695c59146100e2575b600080fd5b61009c60048036038101906100979190610ca9565b61019a565b6040516100a99190610eb4565b60405180910390f35b6100cc60048036038101906100c79190610c33565b61072a565b6040516100d99190610eb4565b60405180910390f35b6100ea610785565b6040516100f79190610eb4565b60405180910390f35b61010861078b565b6040516101159190610e99565b60405180910390f35b61013860048036038101906101339190610c7c565b61079c565b6040516101459190610e77565b60405180910390f35b61016860048036038101906101639190610c7c565b610846565b6040516101759190610e5b565b60405180910390f35b61019860048036038101906101939190610bd9565b6108b9565b005b60008073ffffffffffffffffffffffffffffffffffffffff16600060019054906101000a900473ffffffffffffffffffffffffffffffffffffffff1673ffffffffffffffffffffffffffffffffffffffff1614806102455750600060019054906101000a900473ffffffffffffffffffffffffffffffffffffffff1673ffffffffffffffffffffffffffffffffffffffff163273ffffffffffffffffffffffffffffffffffffffff16145b1561025b5781431161025657600080fd5b610275565b600154826102699190610f86565b431161027457600080fd5b5b60006002905060008114156102b55760ff831660ff43166102969190610f86565b92504383106102b057610100836102ad919061120f565b92505b600290505b808585856040516020016102cc9493929190610e0d565b6040516020818303038152906040528051906020012060001c90506000806102f38761079c565b905060006103008761079c565b90506000603067ffffffffffffffff81111561031f5761031e611469565b5b60405190808252806020026020018201604052801561034d5781602001602082028036833780820191505090505b50905060008060005b600c81101561053d57600080600391505b60018210610528578160048461037d91906111b5565b6103879190610f86565b94506103958a60028b6109d6565b90506002896103a49190610f86565b9850600081141561044f578785815181106103c2576103c161143a565b5b60200260200101519350876001866103da919061120f565b815181106103eb576103ea61143a565b5b60200260200101518886815181106104065761040561143a565b5b602002602001019060ff16908160ff16815250508388600187610429919061120f565b8151811061043a5761043961143a565b5b602002602001019060ff16908160ff16815250505b61045b8a60028b6109d6565b905060028961046a9190610f86565b98506000811415610515578685815181106104885761048761143a565b5b60200260200101519350866001866104a0919061120f565b815181106104b1576104b061143a565b5b60200260200101518786815181106104cc576104cb61143a565b5b602002602001019060ff16908160ff168152505083876001876104ef919061120f565b81518110610500576104ff61143a565b5b602002602001019060ff16908160ff16815250505b8180610520906112cc565b925050610367565b5050808061053590611327565b915050610356565b50600091505b60308210156107115760008060048461055c919061137a565b1480156105a9575060018584815181106105795761057861143a565b5b60200260200101511660ff16600187858151811061059a5761059961143a565b5b60200260200101511660ff1614155b156106105760006105bc8960038a6109d6565b90506003886105cb9190610f86565b975061060c8785815181106105e3576105e261143a565b5b60200260200101518786815181106105fe576105fd61143a565b5b602002602001015183610a07565b9150505b60008160ff16111561064957808484815181106106305761062f61143a565b5b602002602001019060ff16908160ff16815250506106fd565b60006106578960018a6109d6565b90506001886106669190610f86565b975060008114156106b8578684815181106106845761068361143a565b5b602002602001015185858151811061069f5761069e61143a565b5b602002602001019060ff16908160ff16815250506106fb565b8584815181106106cb576106ca61143a565b5b60200260200101518585815181106106e6576106e561143a565b5b602002602001019060ff16908160ff16815250505b505b50818061070990611327565b925050610543565b61071a8361072a565b9750505050505050509392505050565b6000805b603081101561077f57600582901b91508281602f61074c919061120f565b8151811061075d5761075c61143a565b5b602002602001015160ff1682179150808061077790611327565b91505061072e565b50919050565b60015481565b60008054906101000a900460ff1681565b60606000603067ffffffffffffffff8111156107bb576107ba611469565b5b6040519080825280602002602001820160405280156107e95781602001602082028036833780820191505090505b50905060005b603081101561083c576108028482610aa3565b8282815181106108155761081461143a565b5b602002602001019060ff16908160ff1681525050808061083490611327565b9150506107ef565b8192505050919050565b61084e610ac4565b610856610ac4565b60005b600c8110156108af576108788460048361087391906111b5565b610aa3565b8282600c811061088b5761088a61143a565b5b602002019060ff16908160ff168152505080806108a790611327565b915050610859565b5080915050919050565b600260009054906101000a900473ffffffffffffffffffffffffffffffffffffffff1673ffffffffffffffffffffffffffffffffffffffff1663b047fb506040518163ffffffff1660e01b8152600401602060405180830381600087803b15801561092357600080fd5b505af1158015610937573d6000803e3d6000fd5b505050506040513d601f19601f8201168201806040525081019061095b9190610c06565b73ffffffffffffffffffffffffffffffffffffffff163373ffffffffffffffffffffffffffffffffffffffff161461099257600080fd5b80600060016101000a81548173ffffffffffffffffffffffffffffffffffffffff021916908373ffffffffffffffffffffffffffffffffffffffff16021790555050565b6000808260018560026109e99190611097565b6109f3919061120f565b901b905082818616901c9150509392505050565b60008084905060008490508060ff168260ff161115610a27578590508491505b60018282610a359190611243565b60ff16148015610a5457506000600283610a4f91906113ab565b60ff16145b15610a9a57600060178360ff161015610a705760019050610a75565b600090505b808511610a98576010600284610a8b9190611013565b610a959190610fdc565b93505b505b50509392505050565b6000610abc8360058085610ab791906111b5565b6109d6565b905092915050565b604051806101800160405280600c90602082028036833780820191505090505090565b6000610afa610af584610ef4565b610ecf565b90508083825260208201905082856020860282011115610b1d57610b1c61149d565b5b60005b85811015610b4d5781610b338882610bc4565b845260208401935060208301925050600181019050610b20565b5050509392505050565b600081359050610b66816114ca565b92915050565b600081519050610b7b816114ca565b92915050565b600082601f830112610b9657610b95611498565b5b8135610ba6848260208601610ae7565b91505092915050565b600081359050610bbe816114e1565b92915050565b600081359050610bd3816114f8565b92915050565b600060208284031215610bef57610bee6114a7565b5b6000610bfd84828501610b57565b91505092915050565b600060208284031215610c1c57610c1b6114a7565b5b6000610c2a84828501610b6c565b91505092915050565b600060208284031215610c4957610c486114a7565b5b600082013567ffffffffffffffff811115610c6757610c666114a2565b5b610c7384828501610b81565b91505092915050565b600060208284031215610c9257610c916114a7565b5b6000610ca084828501610baf565b91505092915050565b600080600060608486031215610cc257610cc16114a7565b5b6000610cd086828701610baf565b9350506020610ce186828701610baf565b9250506040610cf286828701610baf565b9150509250925092565b6000610d088383610dfe565b60208301905092915050565b610d1d81610f3a565b610d278184610f6a565b9250610d3282610f20565b8060005b83811015610d63578151610d4a8782610cfc565b9650610d5583610f50565b925050600181019050610d36565b505050505050565b6000610d7682610f45565b610d808185610f75565b9350610d8b83610f2a565b8060005b83811015610dbc578151610da38882610cfc565b9750610dae83610f5d565b925050600181019050610d8f565b5085935050505092915050565b610dd281611289565b82525050565b610de1816112b5565b82525050565b610df8610df3826112b5565b611370565b82525050565b610e07816112bf565b82525050565b6000610e198287610de7565b602082019150610e298286610de7565b602082019150610e398285610de7565b602082019150610e498284610de7565b60208201915081905095945050505050565b600061018082019050610e716000830184610d14565b92915050565b60006020820190508181036000830152610e918184610d6b565b905092915050565b6000602082019050610eae6000830184610dc9565b92915050565b6000602082019050610ec96000830184610dd8565b92915050565b6000610ed9610eea565b9050610ee582826112f6565b919050565b6000604051905090565b600067ffffffffffffffff821115610f0f57610f0e611469565b5b602082029050602081019050919050565b6000819050919050565b6000819050602082019050919050565b6000600c9050919050565b600081519050919050565b6000602082019050919050565b6000602082019050919050565b600081905092915050565b600082825260208201905092915050565b6000610f91826112b5565b9150610f9c836112b5565b9250827fffffffffffffffffffffffffffffffffffffffffffffffffffffffffffffffff03821115610fd157610fd06113dc565b5b828201905092915050565b6000610fe7826112bf565b9150610ff2836112bf565b92508260ff03821115611008576110076113dc565b5b828201905092915050565b600061101e826112bf565b9150611029836112bf565b9250826110395761103861140b565b5b828204905092915050565b6000808291508390505b600185111561108e5780860481111561106a576110696113dc565b5b60018516156110795780820291505b8081029050611087856114bd565b945061104e565b94509492505050565b60006110a2826112b5565b91506110ad836112b5565b92506110da7fffffffffffffffffffffffffffffffffffffffffffffffffffffffffffffffff84846110e2565b905092915050565b6000826110f257600190506111ae565b8161110057600090506111ae565b816001811461111657600281146111205761114f565b60019150506111ae565b60ff841115611132576111316113dc565b5b8360020a915084821115611149576111486113dc565b5b506111ae565b5060208310610133831016604e8410600b84101617156111845782820a90508381111561117f5761117e6113dc565b5b6111ae565b6111918484846001611044565b925090508184048111156111a8576111a76113dc565b5b81810290505b9392505050565b60006111c0826112b5565b91506111cb836112b5565b9250817fffffffffffffffffffffffffffffffffffffffffffffffffffffffffffffffff0483118215151615611204576112036113dc565b5b828202905092915050565b600061121a826112b5565b9150611225836112b5565b925082821015611238576112376113dc565b5b828203905092915050565b600061124e826112bf565b9150611259836112bf565b92508282101561126c5761126b6113dc565b5b828203905092915050565b600061128282611295565b9050919050565b60008115159050919050565b600073ffffffffffffffffffffffffffffffffffffffff82169050919050565b6000819050919050565b600060ff82169050919050565b60006112d7826112b5565b915060008214156112eb576112ea6113dc565b5b600182039050919050565b6112ff826114ac565b810181811067ffffffffffffffff8211171561131e5761131d611469565b5b80604052505050565b6000611332826112b5565b91507fffffffffffffffffffffffffffffffffffffffffffffffffffffffffffffffff821415611365576113646113dc565b5b600182019050919050565b6000819050919050565b6000611385826112b5565b9150611390836112b5565b9250826113a05761139f61140b565b5b828206905092915050565b60006113b6826112bf565b91506113c1836112bf565b9250826113d1576113d061140b565b5b828206905092915050565b7f4e487b7100000000000000000000000000000000000000000000000000000000600052601160045260246000fd5b7f4e487b7100000000000000000000000000000000000000000000000000000000600052601260045260246000fd5b7f4e487b7100000000000000000000000000000000000000000000000000000000600052603260045260246000fd5b7f4e487b7100000000000000000000000000000000000000000000000000000000600052604160045260246000fd5b600080fd5b600080fd5b600080fd5b600080fd5b6000601f19601f8301169050919050565b60008160011c9050919050565b6114d381611277565b81146114de57600080fd5b50565b6114ea816112b5565b81146114f557600080fd5b50565b611501816112bf565b811461150c57600080fd5b5056fea264697066735822122073f82c6b4c4c4d215377623b53a97818858ecb1b3b19cc93581d9d83485f6f7364736f6c63430008060033",
  "immutableReferences": {},
  "source": "// SPDX-License-Identifier: MIT\n/**\n *Submitted for verification at Etherscan.io on 2019-02-05\n*/\n\npragma solidity ^0.8.0;\n\nabstract contract KittyCoreInterface {\n    function cooAddress() public virtual returns(address);\n}\n\n/// @title GeneScience implements the trait calculation for new kitties\n/// @author Axiom Zen, Dieter Shirley <dete@axiomzen.co> (https://github.com/dete), Fabiano P. Soriani <fabianosoriani@gmail.com> (https://github.com/flockonus), Jordan Schalm <jordan.schalm@gmail.com> (https://github.com/jordanschalm), Abhishek Chadha <abhishek@dapperlabs.com> (https://github.com/achadha235)\ncontract GeneScience {\n    bool public isGeneScience = true;\n\n    uint256 internal constant maskLast8Bits = uint256(0xff);\n    uint256 internal constant maskFirst248Bits = uint256(0xff);\n\n    // This is the privileged birther address. If this is set to 0, privileged birthing is disabled\n    address internal _privilegedBirther;\n    // Privileged window size for birthers, set to 5 blocks.\n    uint256 public privilegedBirtherWindowSize = 5;\n    KittyCoreInterface _kittyCore;\n\n    constructor (address _privilegedBirtherAddress, address _kittyCoreAddress) {\n        require(_kittyCoreAddress != address(0));\n        _kittyCore = KittyCoreInterface(_kittyCoreAddress);\n        _privilegedBirther = _privilegedBirtherAddress;\n    }\n\n    /// @dev set the privileged birther address\n    /// @param _birtherAddress the new birther address\n    function setPrivilegedBirther(address _birtherAddress) public {\n        require(msg.sender == _kittyCore.cooAddress());\n        _privilegedBirther = _birtherAddress;\n    }\n\n\n    function _ascend(uint8 trait1, uint8 trait2, uint256 rand) internal pure returns(uint8 ascension) {\n        ascension = 0;\n\n        uint8 smallT = trait1;\n        uint8 bigT = trait2;\n\n        if (smallT > bigT) {\n            bigT = trait1;\n            smallT = trait2;\n        }\n\n        // https://github.com/axiomzen/cryptokitties/issues/244\n        if ((bigT - smallT == 1) && smallT % 2 == 0) {\n\n            // The rand argument is expected to be a random number 0-7.\n            // 1st and 2nd tier: 1/4 chance (rand is 0 or 1)\n            // 3rd and 4th tier: 1/8 chance (rand is 0)\n\n            // must be at least this much to ascend\n            uint256 maxRand;\n            if (smallT < 23) maxRand = 1;\n            else maxRand = 0;\n\n            if (rand <= maxRand ) {\n                ascension = (smallT / 2) + 16;\n            }\n        }\n    }\n\n    /// @dev given a number get a slice of any bits, at certain offset\n    /// @param _n a number to be sliced\n    /// @param _nbits how many bits long is the new number\n    /// @param _offset how many bits to skip\n    function _sliceNumber(uint256 _n, uint256 _nbits, uint256 _offset) private pure returns (uint256) {\n        // mask is made by shifting left an offset number of times\n        uint256 mask = uint256((2**_nbits) - 1) << _offset;\n        // AND n with mask, and trim to max of _nbits bits\n        return uint256((_n & mask) >> _offset);\n    }\n\n    /// @dev Get a 5 bit slice from an input as a number\n    /// @param _input bits, encoded as uint\n    /// @param _slot from 0 to 50\n    function _get5Bits(uint256 _input, uint256 _slot) internal pure returns(uint8) {\n        return uint8(_sliceNumber(_input, uint256(5), _slot * 5));\n    }\n\n    /// @dev Parse a kitten gene and returns all of 12 \"trait stack\" that makes the characteristics\n    /// @param _genes kitten gene\n    /// @return the 48 traits that composes the genetic code, logically divided in stacks of 4, where only the first trait of each stack may express\n    function decode(uint256 _genes) public pure returns(uint8[] memory) {\n        uint8[] memory traits = new uint8[](48);\n        uint256 i;\n        for(i = 0; i < 48; i++) {\n            traits[i] = _get5Bits(_genes, i);\n        }\n        return traits;\n    }\n\n    /// @dev Given an array of traits return the number that represent genes\n    function encode(uint8[] memory _traits) public pure returns (uint256 _genes) {\n        _genes = 0;\n        for(uint256 i = 0; i < 48; i++) {\n            _genes = _genes << 5;\n            // bitwise OR trait with _genes\n            _genes = _genes | _traits[47 - i];\n        }\n        return _genes;\n    }\n\n    /// @dev return the expressing traits\n    /// @param _genes the long number expressing cat genes\n    function expressingTraits(uint256 _genes) public pure returns(uint8[12] memory) {\n        uint8[12] memory express;\n        for(uint256 i = 0; i < 12; i++) {\n            express[i] = _get5Bits(_genes, i * 4);\n        }\n        return express;\n    }\n\n    /// @dev the function as defined in the breeding contract - as defined in CK bible\n    function mixGenes(uint256 _genes1, uint256 _genes2, uint256 _targetBlock) public returns (uint256) {\n        if (_privilegedBirther == address(0) || tx.origin == _privilegedBirther) {\n            // Allow immediate births if there is no privileged birther, or if the originator\n            // of the transaction is the privileged birther\n            require(block.number > _targetBlock);\n        } else {\n            require(block.number > _targetBlock + privilegedBirtherWindowSize);\n        }\n\n\n        // Try to grab the hash of the \"target block\". This should be available the vast\n        // majority of the time (it will only fail if no-one calls giveBirth() within 256\n        // blocks of the target block, which is about 40 minutes. Since anyone can call\n        // giveBirth() and they are rewarded with ether if it succeeds, this is quite unlikely.)\n        uint256 randomN = 2;\n\n        if (randomN == 0) {\n            // We don't want to completely bail if the target block is no-longer available,\n            // nor do we want to just use the current block's hash (since it could allow a\n            // caller to game the random result). Compute the most recent block that has the\n            // the same value modulo 256 as the target block. The hash for this block will\n            // still be available, and  while it can still change as time passes  it will\n            // only change every 40 minutes. Again, someone is very likely to jump in with\n            // the giveBirth() call before it can cycle too many times.\n            _targetBlock = (block.number & maskFirst248Bits) + (_targetBlock & maskLast8Bits);\n\n            // The computation above could result in a block LARGER than the current block,\n            // if so, subtract 256.\n            if (_targetBlock >= block.number) _targetBlock -= 256;\n\n            randomN = 2;\n\n            // DEBUG ONLY\n            // assert(block.number != _targetBlock);\n            // assert((block.number - _targetBlock) <= 256);\n            // assert(randomN != 0);\n        }\n\n        // generate 256 bits of random, using as much entropy as we can from\n        // sources that can't change between calls.\n        randomN = uint256(keccak256(abi.encodePacked(randomN, _genes1, _genes2, _targetBlock)));\n        uint256 randomIndex = 0;\n\n        uint8[] memory genes1Array = decode(_genes1);\n        uint8[] memory genes2Array = decode(_genes2);\n        // All traits that will belong to baby\n        uint8[] memory babyArray = new uint8[](48);\n        // A pointer to the trait we are dealing with currently\n        uint256 traitPos;\n        // Trait swap value holder\n        uint8 swap;\n        // iterate all 12 characteristics\n        for(uint256 i = 0; i < 12; i++) {\n            // pick 4 traits for characteristic i\n            uint256 j;\n            // store the current random value\n            uint256 rand;\n            for(j = 3; j >= 1; j--) {\n                traitPos = (i * 4) + j;\n\n                rand = _sliceNumber(randomN, 2, randomIndex); // 0~3\n                randomIndex += 2;\n\n                // 1/4 of a chance of gene swapping forward towards expressing.\n                if (rand == 0) {\n                    // do it for parent 1\n                    swap = genes1Array[traitPos];\n                    genes1Array[traitPos] = genes1Array[traitPos - 1];\n                    genes1Array[traitPos - 1] = swap;\n\n                }\n\n                rand = _sliceNumber(randomN, 2, randomIndex); // 0~3\n                randomIndex += 2;\n\n                if (rand == 0) {\n                    // do it for parent 2\n                    swap = genes2Array[traitPos];\n                    genes2Array[traitPos] = genes2Array[traitPos - 1];\n                    genes2Array[traitPos - 1] = swap;\n                }\n            }\n\n        }\n\n        // DEBUG ONLY - We should have used 72 2-bit slices above for the swapping\n        // which will have consumed 144 bits.\n        // assert(randomIndex == 144);\n\n        // We have 256 - 144 = 112 bits of randomness left at this point. We will use up to\n        // four bits for the first slot of each trait (three for the possible ascension, one\n        // to pick between mom and dad if the ascension fails, for a total of 48 bits. The other\n        // traits use one bit to pick between parents (36 gene pairs, 36 genes), leaving us\n        // well within our entropy budget.\n\n        // done shuffling parent genes, now let's decide on choosing trait and if ascending.\n        // NOTE: Ascensions ONLY happen in the \"top slot\" of each characteristic. This saves\n        //  gas and also ensures ascensions only happen when they're visible.\n        for(traitPos = 0; traitPos < 48; traitPos++) {\n\n            // See if this trait pair should ascend\n            uint8 ascendedTrait = 0;\n\n            // There are two checks here. The first is straightforward, only the trait\n            // in the first slot can ascend. The first slot is zero mod 4.\n            //\n            // The second check is more subtle: Only values that are one apart can ascend,\n            // which is what we check inside the _ascend method. However, this simple mask\n            // and compare is very cheap (9 gas) and will filter out about half of the\n            // non-ascending pairs without a function call.\n            //\n            // The comparison itself just checks that one value is even, and the other\n            // is odd.\n            if ((traitPos % 4 == 0) && (genes1Array[traitPos] & 1) != (genes2Array[traitPos] & 1)) {\n                uint rand = _sliceNumber(randomN, 3, randomIndex);\n                randomIndex += 3;\n\n                ascendedTrait = _ascend(genes1Array[traitPos], genes2Array[traitPos], rand);\n            }\n\n            if (ascendedTrait > 0) {\n                babyArray[traitPos] = uint8(ascendedTrait);\n            } else {\n                // did not ascend, pick one of the parent's traits for the baby\n                // We use the top bit of rand for this (the bottom three bits were used\n                // to check for the ascension itself).\n                uint rand = _sliceNumber(randomN, 1, randomIndex);\n                randomIndex += 1;\n\n                if (rand == 0) {\n                    babyArray[traitPos] = uint8(genes1Array[traitPos]);\n                } else {\n                    babyArray[traitPos] = uint8(genes2Array[traitPos]);\n                }\n            }\n        }\n\n        return encode(babyArray);\n    }\n}",
  "sourcePath": "/home/hieu/Blockchain/dragonfarm/src/contracts/core/erc721/CryptoKittiesGenes.sol",
  "compiler": {
    "name": "solc",
    "version": "0.8.6+commit.11564f7e.Emscripten.clang"
  },
  "schemaVersion": "3.4.2",
  "updatedAt": "2021-08-10T02:12:18.503Z",
  "devdoc": {
    "author": "Axiom Zen, Dieter Shirley <dete@axiomzen.co> (https://github.com/dete), Fabiano P. Soriani <fabianosoriani@gmail.com> (https://github.com/flockonus), Jordan Schalm <jordan.schalm@gmail.com> (https://github.com/jordanschalm), Abhishek Chadha <abhishek@dapperlabs.com> (https://github.com/achadha235)",
    "kind": "dev",
    "methods": {
      "decode(uint256)": {
        "details": "Parse a kitten gene and returns all of 12 \"trait stack\" that makes the characteristics",
        "params": {
          "_genes": "kitten gene"
        },
        "returns": {
          "_0": "the 48 traits that composes the genetic code, logically divided in stacks of 4, where only the first trait of each stack may express"
        }
      },
      "encode(uint8[])": {
        "details": "Given an array of traits return the number that represent genes"
      },
      "expressingTraits(uint256)": {
        "details": "return the expressing traits",
        "params": {
          "_genes": "the long number expressing cat genes"
        }
      },
      "mixGenes(uint256,uint256,uint256)": {
        "details": "the function as defined in the breeding contract - as defined in CK bible"
      },
      "setPrivilegedBirther(address)": {
        "details": "set the privileged birther address",
        "params": {
          "_birtherAddress": "the new birther address"
        }
      }
    },
    "title": "GeneScience implements the trait calculation for new kitties",
    "version": 1
  },
  "userdoc": {
    "kind": "user",
    "methods": {},
    "version": 1
  }
}