{
  "contractName": "NFTMarket",
  "abi": [
    {
      "inputs": [],
      "stateMutability": "nonpayable",
      "type": "constructor"
    },
    {
      "anonymous": false,
      "inputs": [
        {
          "indexed": true,
          "internalType": "uint256",
          "name": "itemId",
          "type": "uint256"
        },
        {
          "indexed": true,
          "internalType": "uint256",
          "name": "tokenId",
          "type": "uint256"
        },
        {
          "indexed": false,
          "internalType": "address",
          "name": "seller",
          "type": "address"
        },
        {
          "indexed": false,
          "internalType": "address",
          "name": "owner",
          "type": "address"
        },
        {
          "indexed": false,
          "internalType": "uint256",
          "name": "price",
          "type": "uint256"
        },
        {
          "indexed": false,
          "internalType": "bool",
          "name": "sold",
          "type": "bool"
        }
      ],
      "name": "MarketItemCreated",
      "type": "event"
    },
    {
      "inputs": [
        {
          "internalType": "address",
          "name": "_dragonSoulAddress",
          "type": "address"
        }
      ],
      "name": "setDragonSoulAddress",
      "outputs": [],
      "stateMutability": "nonpayable",
      "type": "function"
    },
    {
      "inputs": [
        {
          "internalType": "address",
          "name": "_nftContractrAddress",
          "type": "address"
        }
      ],
      "name": "setNFTContractAddress",
      "outputs": [],
      "stateMutability": "nonpayable",
      "type": "function"
    },
    {
      "inputs": [],
      "name": "getListingPrice",
      "outputs": [
        {
          "internalType": "uint256",
          "name": "",
          "type": "uint256"
        }
      ],
      "stateMutability": "view",
      "type": "function"
    },
    {
      "inputs": [
        {
          "internalType": "uint256",
          "name": "tokenId",
          "type": "uint256"
        },
        {
          "internalType": "uint256",
          "name": "price",
          "type": "uint256"
        }
      ],
      "name": "createMarketItem",
      "outputs": [],
      "stateMutability": "payable",
      "type": "function"
    },
    {
      "inputs": [
        {
          "internalType": "uint256",
          "name": "itemId",
          "type": "uint256"
        }
      ],
      "name": "createMarketSale",
      "outputs": [],
      "stateMutability": "payable",
      "type": "function"
    },
    {
      "inputs": [],
      "name": "fetchMarketItems",
      "outputs": [
        {
          "components": [
            {
              "internalType": "uint256",
              "name": "itemId",
              "type": "uint256"
            },
            {
              "internalType": "uint256",
              "name": "tokenId",
              "type": "uint256"
            },
            {
              "internalType": "address payable",
              "name": "seller",
              "type": "address"
            },
            {
              "internalType": "address payable",
              "name": "owner",
              "type": "address"
            },
            {
              "internalType": "uint256",
              "name": "price",
              "type": "uint256"
            },
            {
              "internalType": "bool",
              "name": "sold",
              "type": "bool"
            }
          ],
          "internalType": "struct NFTMarket.MarketItem[]",
          "name": "",
          "type": "tuple[]"
        }
      ],
      "stateMutability": "view",
      "type": "function"
    },
    {
      "inputs": [],
      "name": "fetchMyNFTs",
      "outputs": [
        {
          "components": [
            {
              "internalType": "uint256",
              "name": "itemId",
              "type": "uint256"
            },
            {
              "internalType": "uint256",
              "name": "tokenId",
              "type": "uint256"
            },
            {
              "internalType": "address payable",
              "name": "seller",
              "type": "address"
            },
            {
              "internalType": "address payable",
              "name": "owner",
              "type": "address"
            },
            {
              "internalType": "uint256",
              "name": "price",
              "type": "uint256"
            },
            {
              "internalType": "bool",
              "name": "sold",
              "type": "bool"
            }
          ],
          "internalType": "struct NFTMarket.MarketItem[]",
          "name": "",
          "type": "tuple[]"
        }
      ],
      "stateMutability": "view",
      "type": "function"
    },
    {
      "inputs": [],
      "name": "fetchItemsCreated",
      "outputs": [
        {
          "components": [
            {
              "internalType": "uint256",
              "name": "itemId",
              "type": "uint256"
            },
            {
              "internalType": "uint256",
              "name": "tokenId",
              "type": "uint256"
            },
            {
              "internalType": "address payable",
              "name": "seller",
              "type": "address"
            },
            {
              "internalType": "address payable",
              "name": "owner",
              "type": "address"
            },
            {
              "internalType": "uint256",
              "name": "price",
              "type": "uint256"
            },
            {
              "internalType": "bool",
              "name": "sold",
              "type": "bool"
            }
          ],
          "internalType": "struct NFTMarket.MarketItem[]",
          "name": "",
          "type": "tuple[]"
        }
      ],
      "stateMutability": "view",
      "type": "function"
    }
  ],
  "bytecode": "0x60806040526001600055600060065534801561001a57600080fd5b5033600360006101000a81548173ffffffffffffffffffffffffffffffffffffffff021916908373ffffffffffffffffffffffffffffffffffffffff16021790555061192d8061006b6000396000f3fe60806040526004361061007b5760003560e01c8063361c19951161004e578063361c19951461012a578063be9af53614610146578063e8ae2e1214610162578063f064c32e1461018b5761007b565b80630f08efe01461008057806312e85585146100ab578063202e3740146100d657806323949cd114610101575b600080fd5b34801561008c57600080fd5b506100956101b6565b6040516100a29190611535565b60405180910390f35b3480156100b757600080fd5b506100c061042a565b6040516100cd91906115b7565b60405180910390f35b3480156100e257600080fd5b506100eb610434565b6040516100f89190611535565b60405180910390f35b34801561010d57600080fd5b50610128600480360381019061012391906111f8565b61072c565b005b610144600480360381019061013f919061127f565b6107ca565b005b610160600480360381019061015b9190611252565b610ad5565b005b34801561016e57600080fd5b50610189600480360381019061018491906111f8565b610d9b565b005b34801561019757600080fd5b506101a0610e39565b6040516101ad9190611535565b60405180910390f35b606060006101c46001611131565b905060006101d26002611131565b6101dc6001611131565b6101e69190611672565b90506000808267ffffffffffffffff811115610205576102046117dd565b5b60405190808252806020026020018201604052801561023e57816020015b61022b611155565b8152602001906001900390816102235790505b50905060005b8481101561041f57600073ffffffffffffffffffffffffffffffffffffffff1660086000600184610275919061161c565b815260200190815260200160002060030160009054906101000a900473ffffffffffffffffffffffffffffffffffffffff1673ffffffffffffffffffffffffffffffffffffffff16141561040c5760006001826102d2919061161c565b90506000600860008381526020019081526020016000209050806040518060c001604052908160008201548152602001600182015481526020016002820160009054906101000a900473ffffffffffffffffffffffffffffffffffffffff1673ffffffffffffffffffffffffffffffffffffffff1673ffffffffffffffffffffffffffffffffffffffff1681526020016003820160009054906101000a900473ffffffffffffffffffffffffffffffffffffffff1673ffffffffffffffffffffffffffffffffffffffff1673ffffffffffffffffffffffffffffffffffffffff168152602001600482015481526020016005820160009054906101000a900460ff1615151515815250508486815181106103ef576103ee6117ae565b5b6020026020010181905250600185610407919061161c565b945050505b808061041790611736565b915050610244565b508094505050505090565b6000600654905090565b606060006104426001611131565b905060008060005b838110156104eb573373ffffffffffffffffffffffffffffffffffffffff166008600060018461047a919061161c565b815260200190815260200160002060030160009054906101000a900473ffffffffffffffffffffffffffffffffffffffff1673ffffffffffffffffffffffffffffffffffffffff1614156104d8576001836104d5919061161c565b92505b80806104e390611736565b91505061044a565b5060008267ffffffffffffffff811115610508576105076117dd565b5b60405190808252806020026020018201604052801561054157816020015b61052e611155565b8152602001906001900390816105265790505b50905060005b84811015610721573373ffffffffffffffffffffffffffffffffffffffff1660086000600184610577919061161c565b815260200190815260200160002060030160009054906101000a900473ffffffffffffffffffffffffffffffffffffffff1673ffffffffffffffffffffffffffffffffffffffff16141561070e5760006001826105d4919061161c565b90506000600860008381526020019081526020016000209050806040518060c001604052908160008201548152602001600182015481526020016002820160009054906101000a900473ffffffffffffffffffffffffffffffffffffffff1673ffffffffffffffffffffffffffffffffffffffff1673ffffffffffffffffffffffffffffffffffffffff1681526020016003820160009054906101000a900473ffffffffffffffffffffffffffffffffffffffff1673ffffffffffffffffffffffffffffffffffffffff1673ffffffffffffffffffffffffffffffffffffffff168152602001600482015481526020016005820160009054906101000a900460ff1615151515815250508486815181106106f1576106f06117ae565b5b6020026020010181905250600185610709919061161c565b945050505b808061071990611736565b915050610547565b508094505050505090565b600360009054906101000a900473ffffffffffffffffffffffffffffffffffffffff1673ffffffffffffffffffffffffffffffffffffffff163373ffffffffffffffffffffffffffffffffffffffff161461078657600080fd5b80600760006101000a81548173ffffffffffffffffffffffffffffffffffffffff021916908373ffffffffffffffffffffffffffffffffffffffff16021790555050565b60026000541415610810576040517f08c379a000000000000000000000000000000000000000000000000000000000815260040161080790611577565b60405180910390fd5b60026000819055506000811161085b576040517f08c379a000000000000000000000000000000000000000000000000000000000815260040161085290611597565b60405180910390fd5b600654341461089f576040517f08c379a000000000000000000000000000000000000000000000000000000000815260040161089690611557565b60405180910390fd5b6108a9600161113f565b60006108b56001611131565b90506040518060c001604052808281526020018481526020013373ffffffffffffffffffffffffffffffffffffffff168152602001600073ffffffffffffffffffffffffffffffffffffffff1681526020018381526020016000151581525060086000838152602001908152602001600020600082015181600001556020820151816001015560408201518160020160006101000a81548173ffffffffffffffffffffffffffffffffffffffff021916908373ffffffffffffffffffffffffffffffffffffffff16021790555060608201518160030160006101000a81548173ffffffffffffffffffffffffffffffffffffffff021916908373ffffffffffffffffffffffffffffffffffffffff1602179055506080820151816004015560a08201518160050160006101000a81548160ff021916908315150217905550905050600760009054906101000a900473ffffffffffffffffffffffffffffffffffffffff1673ffffffffffffffffffffffffffffffffffffffff166323b872dd3330866040518463ffffffff1660e01b8152600401610a55939291906114b9565b600060405180830381600087803b158015610a6f57600080fd5b505af1158015610a83573d6000803e3d6000fd5b5050505082817f4a29ff6f650682addfdf8030b3eeb4610ec651b42d8603f2527633347f9489c9336000866000604051610ac094939291906114f0565b60405180910390a35060016000819055505050565b60026000541415610b1b576040517f08c379a0000000000000000000000000000000000000000000000000000000008152600401610b1290611577565b60405180910390fd5b60026000819055506000600860008381526020019081526020016000206004015490506000600860008481526020019081526020016000206001015490506008600084815260200190815260200160002060020160009054906101000a900473ffffffffffffffffffffffffffffffffffffffff1673ffffffffffffffffffffffffffffffffffffffff166108fc349081150290604051600060405180830381858888f19350505050158015610bd5573d6000803e3d6000fd5b50600760009054906101000a900473ffffffffffffffffffffffffffffffffffffffff1673ffffffffffffffffffffffffffffffffffffffff166323b872dd3033846040518463ffffffff1660e01b8152600401610c35939291906114b9565b600060405180830381600087803b158015610c4f57600080fd5b505af1158015610c63573d6000803e3d6000fd5b5050505060016008600085815260200190815260200160002060050160006101000a81548160ff021916908315150217905550610ca0600261113f565b6000600560009054906101000a900473ffffffffffffffffffffffffffffffffffffffff1690508073ffffffffffffffffffffffffffffffffffffffff166323b872dd336008600088815260200190815260200160002060020160009054906101000a900473ffffffffffffffffffffffffffffffffffffffff16866040518463ffffffff1660e01b8152600401610d3a93929190611482565b602060405180830381600087803b158015610d5457600080fd5b505af1158015610d68573d6000803e3d6000fd5b505050506040513d601f19601f82011682018060405250810190610d8c9190611225565b50505050600160008190555050565b600360009054906101000a900473ffffffffffffffffffffffffffffffffffffffff1673ffffffffffffffffffffffffffffffffffffffff163373ffffffffffffffffffffffffffffffffffffffff1614610df557600080fd5b80600560006101000a81548173ffffffffffffffffffffffffffffffffffffffff021916908373ffffffffffffffffffffffffffffffffffffffff16021790555050565b60606000610e476001611131565b905060008060005b83811015610ef0573373ffffffffffffffffffffffffffffffffffffffff1660086000600184610e7f919061161c565b815260200190815260200160002060020160009054906101000a900473ffffffffffffffffffffffffffffffffffffffff1673ffffffffffffffffffffffffffffffffffffffff161415610edd57600183610eda919061161c565b92505b8080610ee890611736565b915050610e4f565b5060008267ffffffffffffffff811115610f0d57610f0c6117dd565b5b604051908082528060200260200182016040528015610f4657816020015b610f33611155565b815260200190600190039081610f2b5790505b50905060005b84811015611126573373ffffffffffffffffffffffffffffffffffffffff1660086000600184610f7c919061161c565b815260200190815260200160002060020160009054906101000a900473ffffffffffffffffffffffffffffffffffffffff1673ffffffffffffffffffffffffffffffffffffffff161415611113576000600182610fd9919061161c565b90506000600860008381526020019081526020016000209050806040518060c001604052908160008201548152602001600182015481526020016002820160009054906101000a900473ffffffffffffffffffffffffffffffffffffffff1673ffffffffffffffffffffffffffffffffffffffff1673ffffffffffffffffffffffffffffffffffffffff1681526020016003820160009054906101000a900473ffffffffffffffffffffffffffffffffffffffff1673ffffffffffffffffffffffffffffffffffffffff1673ffffffffffffffffffffffffffffffffffffffff168152602001600482015481526020016005820160009054906101000a900460ff1615151515815250508486815181106110f6576110f56117ae565b5b602002602001018190525060018561110e919061161c565b945050505b808061111e90611736565b915050610f4c565b508094505050505090565b600081600001549050919050565b6001816000016000828254019250508190555050565b6040518060c001604052806000815260200160008152602001600073ffffffffffffffffffffffffffffffffffffffff168152602001600073ffffffffffffffffffffffffffffffffffffffff168152602001600081526020016000151581525090565b6000813590506111c8816118b2565b92915050565b6000815190506111dd816118c9565b92915050565b6000813590506111f2816118e0565b92915050565b60006020828403121561120e5761120d61180c565b5b600061121c848285016111b9565b91505092915050565b60006020828403121561123b5761123a61180c565b5b6000611249848285016111ce565b91505092915050565b6000602082840312156112685761126761180c565b5b6000611276848285016111e3565b91505092915050565b600080604083850312156112965761129561180c565b5b60006112a4858286016111e3565b92505060206112b5858286016111e3565b9150509250929050565b60006112cb83836113e9565b60c08301905092915050565b6112e081611700565b82525050565b6112ef816116b8565b82525050565b6112fe816116a6565b82525050565b600061130f826115e2565b61131981856115fa565b9350611324836115d2565b8060005b8381101561135557815161133c88826112bf565b9750611347836115ed565b925050600181019050611328565b5085935050505092915050565b61136b816116ca565b82525050565b61137a816116ca565b82525050565b600061138d60248361160b565b915061139882611811565b604082019050919050565b60006113b0601f8361160b565b91506113bb82611860565b602082019050919050565b60006113d3601c8361160b565b91506113de82611889565b602082019050919050565b60c0820160008201516113ff6000850182611464565b5060208201516114126020850182611464565b50604082015161142560408501826112e6565b50606082015161143860608501826112e6565b50608082015161144b6080850182611464565b5060a082015161145e60a0850182611362565b50505050565b61146d816116f6565b82525050565b61147c816116f6565b82525050565b600060608201905061149760008301866112f5565b6114a460208301856112d7565b6114b16040830184611473565b949350505050565b60006060820190506114ce60008301866112f5565b6114db60208301856112f5565b6114e86040830184611473565b949350505050565b600060808201905061150560008301876112f5565b61151260208301866112f5565b61151f6040830185611473565b61152c6060830184611371565b95945050505050565b6000602082019050818103600083015261154f8184611304565b905092915050565b6000602082019050818103600083015261157081611380565b9050919050565b60006020820190508181036000830152611590816113a3565b9050919050565b600060208201905081810360008301526115b0816113c6565b9050919050565b60006020820190506115cc6000830184611473565b92915050565b6000819050602082019050919050565b600081519050919050565b6000602082019050919050565b600082825260208201905092915050565b600082825260208201905092915050565b6000611627826116f6565b9150611632836116f6565b9250827fffffffffffffffffffffffffffffffffffffffffffffffffffffffffffffffff038211156116675761166661177f565b5b828201905092915050565b600061167d826116f6565b9150611688836116f6565b92508282101561169b5761169a61177f565b5b828203905092915050565b60006116b1826116d6565b9050919050565b60006116c3826116d6565b9050919050565b60008115159050919050565b600073ffffffffffffffffffffffffffffffffffffffff82169050919050565b6000819050919050565b600061170b82611712565b9050919050565b600061171d82611724565b9050919050565b600061172f826116d6565b9050919050565b6000611741826116f6565b91507fffffffffffffffffffffffffffffffffffffffffffffffffffffffffffffffff8214156117745761177361177f565b5b600182019050919050565b7f4e487b7100000000000000000000000000000000000000000000000000000000600052601160045260246000fd5b7f4e487b7100000000000000000000000000000000000000000000000000000000600052603260045260246000fd5b7f4e487b7100000000000000000000000000000000000000000000000000000000600052604160045260246000fd5b600080fd5b7f5072696365206d75737420626520657175616c20746f206c697374696e67207060008201527f7269636500000000000000000000000000000000000000000000000000000000602082015250565b7f5265656e7472616e637947756172643a207265656e7472616e742063616c6c00600082015250565b7f5072696365206d757374206265206174206c6561737420312077656900000000600082015250565b6118bb816116a6565b81146118c657600080fd5b50565b6118d2816116ca565b81146118dd57600080fd5b50565b6118e9816116f6565b81146118f457600080fd5b5056fea26469706673582212201a31836a4a239dc12a1ad50625f7c5986e96620a487ac1dad19fc37fc00038d164736f6c63430008060033",
  "immutableReferences": {},
  "source": "// SPDX-License-Identifier: MIT OR Apache-2.0\npragma solidity ^0.8.3;\n\nimport \"@openzeppelin/contracts/utils/Counters.sol\";\nimport \"@openzeppelin/contracts/token/ERC721/ERC721.sol\";\nimport \"@openzeppelin/contracts/token/ERC20/ERC20.sol\";\nimport \"../core/erc20/DragonSoul.sol\";\nimport \"hardhat/console.sol\";\n\ncontract NFTMarket is ReentrancyGuard {\n  using Counters for Counters.Counter;\n  Counters.Counter private _itemIds;\n  Counters.Counter private _itemsSold;\n\n  address payable owner;\n  address manager;\n  address dragonSoulAddress;\n  uint256 listingPrice = 0 ether;\n    \n  address nftContract;    \n\n  constructor() {\n    owner = payable(msg.sender);\n  }\n\n  struct MarketItem {\n    uint itemId;\n    uint256 tokenId;\n    address payable seller;\n    address payable owner;\n    uint256 price;\n    bool sold;\n  }\n\n  mapping(uint256 => MarketItem) private idToMarketItem;\n\n  event MarketItemCreated (\n    uint indexed itemId,\n    uint256 indexed tokenId,\n    address seller,\n    address owner,\n    uint256 price,\n    bool sold\n  );\n  \n  modifier onlyOwner {\n      require(msg.sender == owner);\n      _;\n  }\n  \n  function setDragonSoulAddress(address _dragonSoulAddress) public onlyOwner {\n      dragonSoulAddress = _dragonSoulAddress;\n  }\n    \n  function setNFTContractAddress(address _nftContractrAddress) public onlyOwner {\n      nftContract = _nftContractrAddress;\n  }\n    \n  /* Returns the listing price of the contract */\n  function getListingPrice() public view returns (uint256) {\n    return listingPrice;\n  }\n  \n  /* Places an item for sale on the marketplace */\n  function createMarketItem(\n    uint256 tokenId,\n    uint256 price\n  ) public payable nonReentrant {\n    require(price > 0, \"Price must be at least 1 wei\");\n    require(msg.value == listingPrice, \"Price must be equal to listing price\");\n\n    _itemIds.increment();\n    uint256 itemId = _itemIds.current();\n  \n    idToMarketItem[itemId] =  MarketItem(\n      itemId,\n      tokenId,\n      payable(msg.sender),\n      payable(address(0)),\n      price,\n      false\n    );\n\n    IERC721(nftContract).transferFrom(msg.sender, address(this), tokenId);\n    \n    emit MarketItemCreated(\n      itemId,\n      tokenId,\n      msg.sender,\n      address(0),\n      price,\n      false\n    );\n  }\n\n  /* Creates the sale of a marketplace item */\n  /* Transfers ownership of the item, as well as funds between parties */\n  function createMarketSale(\n    uint256 itemId\n    ) public payable nonReentrant {\n    uint price = idToMarketItem[itemId].price;\n    uint tokenId = idToMarketItem[itemId].tokenId;\n\n    idToMarketItem[itemId].seller.transfer(msg.value);\n    IERC721(nftContract).transferFrom(address(this), msg.sender, tokenId);\n    idToMarketItem[itemId].sold = true;\n    _itemsSold.increment();\n    \n    ERC20 dragonSoul = ERC20(payable(dragonSoulAddress));\n    dragonSoul.transferFrom(msg.sender, idToMarketItem[itemId].seller, price);\n    \n  }\n\n  /* Returns all unsold market items */\n  function fetchMarketItems() public view returns (MarketItem[] memory) {\n    uint itemCount = _itemIds.current();\n    uint unsoldItemCount = _itemIds.current() - _itemsSold.current();\n    uint currentIndex = 0;\n\n    MarketItem[] memory items = new MarketItem[](unsoldItemCount);\n    for (uint i = 0; i < itemCount; i++) {\n      if (idToMarketItem[i + 1].owner == address(0)) {\n        uint currentId = i + 1;\n        MarketItem storage currentItem = idToMarketItem[currentId];\n        items[currentIndex] = currentItem;\n        currentIndex += 1;\n      }\n    }\n    return items;\n  }\n\n  /* Returns onlyl items that a user has purchased */\n  function fetchMyNFTs() public view returns (MarketItem[] memory) {\n    uint totalItemCount = _itemIds.current();\n    uint itemCount = 0;\n    uint currentIndex = 0;\n\n    for (uint i = 0; i < totalItemCount; i++) {\n      if (idToMarketItem[i + 1].owner == msg.sender) {\n        itemCount += 1;\n      }\n    }\n\n    MarketItem[] memory items = new MarketItem[](itemCount);\n    for (uint i = 0; i < totalItemCount; i++) {\n      if (idToMarketItem[i + 1].owner == msg.sender) {\n        uint currentId = i + 1;\n        MarketItem storage currentItem = idToMarketItem[currentId];\n        items[currentIndex] = currentItem;\n        currentIndex += 1;\n      }\n    }\n    return items;\n  }\n\n  /* Returns only items a user has created */\n  function fetchItemsCreated() public view returns (MarketItem[] memory) {\n    uint totalItemCount = _itemIds.current();\n    uint itemCount = 0;\n    uint currentIndex = 0;\n\n    for (uint i = 0; i < totalItemCount; i++) {\n      if (idToMarketItem[i + 1].seller == msg.sender) {\n        itemCount += 1;\n      }\n    }\n\n    MarketItem[] memory items = new MarketItem[](itemCount);\n    for (uint i = 0; i < totalItemCount; i++) {\n      if (idToMarketItem[i + 1].seller == msg.sender) {\n        uint currentId = i + 1;\n        MarketItem storage currentItem = idToMarketItem[currentId];\n        items[currentIndex] = currentItem;\n        currentIndex += 1;\n      }\n    }\n    return items;\n  }\n}\n",
  "sourcePath": "/home/hieu/Blockchain/dragonfarm/src/contracts/marketplace/Market.sol",
  "compiler": {
    "name": "solc",
    "version": "0.8.6+commit.11564f7e.Emscripten.clang"
  },
  "schemaVersion": "3.4.2",
  "updatedAt": "2021-08-10T02:12:18.533Z",
  "devdoc": {
    "kind": "dev",
    "methods": {},
    "version": 1
  },
  "userdoc": {
    "kind": "user",
    "methods": {},
    "version": 1
  }
}