{
  "contractName": "NFTMarket",
  "abi": [
    {
      "inputs": [],
      "stateMutability": "nonpayable",
      "type": "constructor"
    },
    {
      "anonymous": false,
      "inputs": [
        {
          "indexed": true,
          "internalType": "uint256",
          "name": "itemId",
          "type": "uint256"
        },
        {
          "indexed": true,
          "internalType": "uint256",
          "name": "tokenId",
          "type": "uint256"
        },
        {
          "indexed": false,
          "internalType": "address",
          "name": "seller",
          "type": "address"
        },
        {
          "indexed": false,
          "internalType": "address",
          "name": "owner",
          "type": "address"
        },
        {
          "indexed": false,
          "internalType": "uint256",
          "name": "price",
          "type": "uint256"
        },
        {
          "indexed": false,
          "internalType": "bool",
          "name": "sold",
          "type": "bool"
        }
      ],
      "name": "MarketItemCreated",
      "type": "event"
    },
    {
      "inputs": [
        {
          "internalType": "address",
          "name": "_dragonSoulAddress",
          "type": "address"
        }
      ],
      "name": "setDragonSoulAddress",
      "outputs": [],
      "stateMutability": "nonpayable",
      "type": "function"
    },
    {
      "inputs": [
        {
          "internalType": "address",
          "name": "_nftContractrAddress",
          "type": "address"
        }
      ],
      "name": "setNFTContractAddress",
      "outputs": [],
      "stateMutability": "nonpayable",
      "type": "function"
    },
    {
      "inputs": [],
      "name": "getListingPrice",
      "outputs": [
        {
          "internalType": "uint256",
          "name": "",
          "type": "uint256"
        }
      ],
      "stateMutability": "view",
      "type": "function"
    },
    {
      "inputs": [
        {
          "internalType": "uint256",
          "name": "tokenId",
          "type": "uint256"
        },
        {
          "internalType": "uint256",
          "name": "price",
          "type": "uint256"
        }
      ],
      "name": "createMarketItem",
      "outputs": [],
      "stateMutability": "payable",
      "type": "function"
    },
    {
      "inputs": [
        {
          "internalType": "uint256",
          "name": "itemId",
          "type": "uint256"
        }
      ],
      "name": "createMarketSale",
      "outputs": [],
      "stateMutability": "payable",
      "type": "function"
    },
    {
      "inputs": [],
      "name": "fetchMarketItems",
      "outputs": [
        {
          "components": [
            {
              "internalType": "uint256",
              "name": "itemId",
              "type": "uint256"
            },
            {
              "internalType": "uint256",
              "name": "tokenId",
              "type": "uint256"
            },
            {
              "internalType": "address payable",
              "name": "seller",
              "type": "address"
            },
            {
              "internalType": "address payable",
              "name": "owner",
              "type": "address"
            },
            {
              "internalType": "uint256",
              "name": "price",
              "type": "uint256"
            },
            {
              "internalType": "bool",
              "name": "sold",
              "type": "bool"
            }
          ],
          "internalType": "struct NFTMarket.MarketItem[]",
          "name": "",
          "type": "tuple[]"
        }
      ],
      "stateMutability": "view",
      "type": "function"
    },
    {
      "inputs": [],
      "name": "fetchMyNFTs",
      "outputs": [
        {
          "components": [
            {
              "internalType": "uint256",
              "name": "itemId",
              "type": "uint256"
            },
            {
              "internalType": "uint256",
              "name": "tokenId",
              "type": "uint256"
            },
            {
              "internalType": "address payable",
              "name": "seller",
              "type": "address"
            },
            {
              "internalType": "address payable",
              "name": "owner",
              "type": "address"
            },
            {
              "internalType": "uint256",
              "name": "price",
              "type": "uint256"
            },
            {
              "internalType": "bool",
              "name": "sold",
              "type": "bool"
            }
          ],
          "internalType": "struct NFTMarket.MarketItem[]",
          "name": "",
          "type": "tuple[]"
        }
      ],
      "stateMutability": "view",
      "type": "function"
    },
    {
      "inputs": [],
      "name": "fetchItemsCreated",
      "outputs": [
        {
          "components": [
            {
              "internalType": "uint256",
              "name": "itemId",
              "type": "uint256"
            },
            {
              "internalType": "uint256",
              "name": "tokenId",
              "type": "uint256"
            },
            {
              "internalType": "address payable",
              "name": "seller",
              "type": "address"
            },
            {
              "internalType": "address payable",
              "name": "owner",
              "type": "address"
            },
            {
              "internalType": "uint256",
              "name": "price",
              "type": "uint256"
            },
            {
              "internalType": "bool",
              "name": "sold",
              "type": "bool"
            }
          ],
          "internalType": "struct NFTMarket.MarketItem[]",
          "name": "",
          "type": "tuple[]"
        }
      ],
      "stateMutability": "view",
      "type": "function"
    }
  ],
  "bytecode": "0x60806040526001600055600060065534801561001a57600080fd5b5033600360006101000a81548173ffffffffffffffffffffffffffffffffffffffff021916908373ffffffffffffffffffffffffffffffffffffffff16021790555061199e8061006b6000396000f3fe60806040526004361061007b5760003560e01c8063361c19951161004e578063361c19951461012a578063be9af53614610146578063e8ae2e1214610162578063f064c32e1461018b5761007b565b80630f08efe01461008057806312e85585146100ab578063202e3740146100d657806323949cd114610101575b600080fd5b34801561008c57600080fd5b506100956101b6565b6040516100a29190611609565b60405180910390f35b3480156100b757600080fd5b506100c0610476565b6040516100cd919061168b565b60405180910390f35b3480156100e257600080fd5b506100eb610480565b6040516100f89190611609565b60405180910390f35b34801561010d57600080fd5b50610128600480360381019061012391906112dc565b6107c4565b005b610144600480360381019061013f9190611357565b610862565b005b610160600480360381019061015b919061132e565b610b6d565b005b34801561016e57600080fd5b50610189600480360381019061018491906112dc565b610e33565b005b34801561019757600080fd5b506101a0610ed1565b6040516101ad9190611609565b60405180910390f35b606060006101c46001611215565b905060006101d26002611215565b6101dc6001611215565b6101e69190611746565b90506000808267ffffffffffffffff81111561022b577f4e487b7100000000000000000000000000000000000000000000000000000000600052604160045260246000fd5b60405190808252806020026020018201604052801561026457816020015b610251611239565b8152602001906001900390816102495790505b50905060005b8481101561046b57600073ffffffffffffffffffffffffffffffffffffffff166008600060018461029b91906116f0565b815260200190815260200160002060030160009054906101000a900473ffffffffffffffffffffffffffffffffffffffff1673ffffffffffffffffffffffffffffffffffffffff1614156104585760006001826102f891906116f0565b90506000600860008381526020019081526020016000209050806040518060c001604052908160008201548152602001600182015481526020016002820160009054906101000a900473ffffffffffffffffffffffffffffffffffffffff1673ffffffffffffffffffffffffffffffffffffffff1673ffffffffffffffffffffffffffffffffffffffff1681526020016003820160009054906101000a900473ffffffffffffffffffffffffffffffffffffffff1673ffffffffffffffffffffffffffffffffffffffff1673ffffffffffffffffffffffffffffffffffffffff168152602001600482015481526020016005820160009054906101000a900460ff16151515158152505084868151811061043b577f4e487b7100000000000000000000000000000000000000000000000000000000600052603260045260246000fd5b602002602001018190525060018561045391906116f0565b945050505b80806104639061180a565b91505061026a565b508094505050505090565b6000600654905090565b6060600061048e6001611215565b905060008060005b83811015610537573373ffffffffffffffffffffffffffffffffffffffff16600860006001846104c691906116f0565b815260200190815260200160002060030160009054906101000a900473ffffffffffffffffffffffffffffffffffffffff1673ffffffffffffffffffffffffffffffffffffffff1614156105245760018361052191906116f0565b92505b808061052f9061180a565b915050610496565b5060008267ffffffffffffffff81111561057a577f4e487b7100000000000000000000000000000000000000000000000000000000600052604160045260246000fd5b6040519080825280602002602001820160405280156105b357816020015b6105a0611239565b8152602001906001900390816105985790505b50905060005b848110156107b9573373ffffffffffffffffffffffffffffffffffffffff16600860006001846105e991906116f0565b815260200190815260200160002060030160009054906101000a900473ffffffffffffffffffffffffffffffffffffffff1673ffffffffffffffffffffffffffffffffffffffff1614156107a657600060018261064691906116f0565b90506000600860008381526020019081526020016000209050806040518060c001604052908160008201548152602001600182015481526020016002820160009054906101000a900473ffffffffffffffffffffffffffffffffffffffff1673ffffffffffffffffffffffffffffffffffffffff1673ffffffffffffffffffffffffffffffffffffffff1681526020016003820160009054906101000a900473ffffffffffffffffffffffffffffffffffffffff1673ffffffffffffffffffffffffffffffffffffffff1673ffffffffffffffffffffffffffffffffffffffff168152602001600482015481526020016005820160009054906101000a900460ff161515151581525050848681518110610789577f4e487b7100000000000000000000000000000000000000000000000000000000600052603260045260246000fd5b60200260200101819052506001856107a191906116f0565b945050505b80806107b19061180a565b9150506105b9565b508094505050505090565b600360009054906101000a900473ffffffffffffffffffffffffffffffffffffffff1673ffffffffffffffffffffffffffffffffffffffff163373ffffffffffffffffffffffffffffffffffffffff161461081e57600080fd5b80600760006101000a81548173ffffffffffffffffffffffffffffffffffffffff021916908373ffffffffffffffffffffffffffffffffffffffff16021790555050565b600260005414156108a8576040517f08c379a000000000000000000000000000000000000000000000000000000000815260040161089f9061164b565b60405180910390fd5b6002600081905550600081116108f3576040517f08c379a00000000000000000000000000000000000000000000000000000000081526004016108ea9061166b565b60405180910390fd5b6006543414610937576040517f08c379a000000000000000000000000000000000000000000000000000000000815260040161092e9061162b565b60405180910390fd5b6109416001611223565b600061094d6001611215565b90506040518060c001604052808281526020018481526020013373ffffffffffffffffffffffffffffffffffffffff168152602001600073ffffffffffffffffffffffffffffffffffffffff1681526020018381526020016000151581525060086000838152602001908152602001600020600082015181600001556020820151816001015560408201518160020160006101000a81548173ffffffffffffffffffffffffffffffffffffffff021916908373ffffffffffffffffffffffffffffffffffffffff16021790555060608201518160030160006101000a81548173ffffffffffffffffffffffffffffffffffffffff021916908373ffffffffffffffffffffffffffffffffffffffff1602179055506080820151816004015560a08201518160050160006101000a81548160ff021916908315150217905550905050600760009054906101000a900473ffffffffffffffffffffffffffffffffffffffff1673ffffffffffffffffffffffffffffffffffffffff166323b872dd3330866040518463ffffffff1660e01b8152600401610aed9392919061158d565b600060405180830381600087803b158015610b0757600080fd5b505af1158015610b1b573d6000803e3d6000fd5b5050505082817f4a29ff6f650682addfdf8030b3eeb4610ec651b42d8603f2527633347f9489c9336000866000604051610b5894939291906115c4565b60405180910390a35060016000819055505050565b60026000541415610bb3576040517f08c379a0000000000000000000000000000000000000000000000000000000008152600401610baa9061164b565b60405180910390fd5b60026000819055506000600860008381526020019081526020016000206004015490506000600860008481526020019081526020016000206001015490506008600084815260200190815260200160002060020160009054906101000a900473ffffffffffffffffffffffffffffffffffffffff1673ffffffffffffffffffffffffffffffffffffffff166108fc349081150290604051600060405180830381858888f19350505050158015610c6d573d6000803e3d6000fd5b50600760009054906101000a900473ffffffffffffffffffffffffffffffffffffffff1673ffffffffffffffffffffffffffffffffffffffff166323b872dd3033846040518463ffffffff1660e01b8152600401610ccd9392919061158d565b600060405180830381600087803b158015610ce757600080fd5b505af1158015610cfb573d6000803e3d6000fd5b5050505060016008600085815260200190815260200160002060050160006101000a81548160ff021916908315150217905550610d386002611223565b6000600560009054906101000a900473ffffffffffffffffffffffffffffffffffffffff1690508073ffffffffffffffffffffffffffffffffffffffff166323b872dd336008600088815260200190815260200160002060020160009054906101000a900473ffffffffffffffffffffffffffffffffffffffff16866040518463ffffffff1660e01b8152600401610dd293929190611556565b602060405180830381600087803b158015610dec57600080fd5b505af1158015610e00573d6000803e3d6000fd5b505050506040513d601f19601f82011682018060405250810190610e249190611305565b50505050600160008190555050565b600360009054906101000a900473ffffffffffffffffffffffffffffffffffffffff1673ffffffffffffffffffffffffffffffffffffffff163373ffffffffffffffffffffffffffffffffffffffff1614610e8d57600080fd5b80600560006101000a81548173ffffffffffffffffffffffffffffffffffffffff021916908373ffffffffffffffffffffffffffffffffffffffff16021790555050565b60606000610edf6001611215565b905060008060005b83811015610f88573373ffffffffffffffffffffffffffffffffffffffff1660086000600184610f1791906116f0565b815260200190815260200160002060020160009054906101000a900473ffffffffffffffffffffffffffffffffffffffff1673ffffffffffffffffffffffffffffffffffffffff161415610f7557600183610f7291906116f0565b92505b8080610f809061180a565b915050610ee7565b5060008267ffffffffffffffff811115610fcb577f4e487b7100000000000000000000000000000000000000000000000000000000600052604160045260246000fd5b60405190808252806020026020018201604052801561100457816020015b610ff1611239565b815260200190600190039081610fe95790505b50905060005b8481101561120a573373ffffffffffffffffffffffffffffffffffffffff166008600060018461103a91906116f0565b815260200190815260200160002060020160009054906101000a900473ffffffffffffffffffffffffffffffffffffffff1673ffffffffffffffffffffffffffffffffffffffff1614156111f757600060018261109791906116f0565b90506000600860008381526020019081526020016000209050806040518060c001604052908160008201548152602001600182015481526020016002820160009054906101000a900473ffffffffffffffffffffffffffffffffffffffff1673ffffffffffffffffffffffffffffffffffffffff1673ffffffffffffffffffffffffffffffffffffffff1681526020016003820160009054906101000a900473ffffffffffffffffffffffffffffffffffffffff1673ffffffffffffffffffffffffffffffffffffffff1673ffffffffffffffffffffffffffffffffffffffff168152602001600482015481526020016005820160009054906101000a900460ff1615151515815250508486815181106111da577f4e487b7100000000000000000000000000000000000000000000000000000000600052603260045260246000fd5b60200260200101819052506001856111f291906116f0565b945050505b80806112029061180a565b91505061100a565b508094505050505090565b600081600001549050919050565b6001816000016000828254019250508190555050565b6040518060c001604052806000815260200160008152602001600073ffffffffffffffffffffffffffffffffffffffff168152602001600073ffffffffffffffffffffffffffffffffffffffff168152602001600081526020016000151581525090565b6000813590506112ac81611923565b92915050565b6000815190506112c18161193a565b92915050565b6000813590506112d681611951565b92915050565b6000602082840312156112ee57600080fd5b60006112fc8482850161129d565b91505092915050565b60006020828403121561131757600080fd5b6000611325848285016112b2565b91505092915050565b60006020828403121561134057600080fd5b600061134e848285016112c7565b91505092915050565b6000806040838503121561136a57600080fd5b6000611378858286016112c7565b9250506020611389858286016112c7565b9150509250929050565b600061139f83836114bd565b60c08301905092915050565b6113b4816117d4565b82525050565b6113c38161178c565b82525050565b6113d28161177a565b82525050565b60006113e3826116b6565b6113ed81856116ce565b93506113f8836116a6565b8060005b838110156114295781516114108882611393565b975061141b836116c1565b9250506001810190506113fc565b5085935050505092915050565b61143f8161179e565b82525050565b61144e8161179e565b82525050565b60006114616024836116df565b915061146c82611882565b604082019050919050565b6000611484601f836116df565b915061148f826118d1565b602082019050919050565b60006114a7601c836116df565b91506114b2826118fa565b602082019050919050565b60c0820160008201516114d36000850182611538565b5060208201516114e66020850182611538565b5060408201516114f960408501826113ba565b50606082015161150c60608501826113ba565b50608082015161151f6080850182611538565b5060a082015161153260a0850182611436565b50505050565b611541816117ca565b82525050565b611550816117ca565b82525050565b600060608201905061156b60008301866113c9565b61157860208301856113ab565b6115856040830184611547565b949350505050565b60006060820190506115a260008301866113c9565b6115af60208301856113c9565b6115bc6040830184611547565b949350505050565b60006080820190506115d960008301876113c9565b6115e660208301866113c9565b6115f36040830185611547565b6116006060830184611445565b95945050505050565b6000602082019050818103600083015261162381846113d8565b905092915050565b6000602082019050818103600083015261164481611454565b9050919050565b6000602082019050818103600083015261166481611477565b9050919050565b600060208201905081810360008301526116848161149a565b9050919050565b60006020820190506116a06000830184611547565b92915050565b6000819050602082019050919050565b600081519050919050565b6000602082019050919050565b600082825260208201905092915050565b600082825260208201905092915050565b60006116fb826117ca565b9150611706836117ca565b9250827fffffffffffffffffffffffffffffffffffffffffffffffffffffffffffffffff0382111561173b5761173a611853565b5b828201905092915050565b6000611751826117ca565b915061175c836117ca565b92508282101561176f5761176e611853565b5b828203905092915050565b6000611785826117aa565b9050919050565b6000611797826117aa565b9050919050565b60008115159050919050565b600073ffffffffffffffffffffffffffffffffffffffff82169050919050565b6000819050919050565b60006117df826117e6565b9050919050565b60006117f1826117f8565b9050919050565b6000611803826117aa565b9050919050565b6000611815826117ca565b91507fffffffffffffffffffffffffffffffffffffffffffffffffffffffffffffffff82141561184857611847611853565b5b600182019050919050565b7f4e487b7100000000000000000000000000000000000000000000000000000000600052601160045260246000fd5b7f5072696365206d75737420626520657175616c20746f206c697374696e67207060008201527f7269636500000000000000000000000000000000000000000000000000000000602082015250565b7f5265656e7472616e637947756172643a207265656e7472616e742063616c6c00600082015250565b7f5072696365206d757374206265206174206c6561737420312077656900000000600082015250565b61192c8161177a565b811461193757600080fd5b50565b6119438161179e565b811461194e57600080fd5b50565b61195a816117ca565b811461196557600080fd5b5056fea26469706673582212203ee605715395f871946b1c14e143854e36c1dc151b550ed7950a4212028fad8364736f6c63430008040033",
  "immutableReferences": {},
  "source": "// SPDX-License-Identifier: MIT OR Apache-2.0\npragma solidity ^0.8.3;\n\nimport \"@openzeppelin/contracts/utils/Counters.sol\";\nimport \"@openzeppelin/contracts/token/ERC721/ERC721.sol\";\nimport \"@openzeppelin/contracts/token/ERC20/ERC20.sol\";\nimport \"../core/erc20/DragonSoul.sol\";\nimport \"hardhat/console.sol\";\n\ncontract NFTMarket is ReentrancyGuard {\n  using Counters for Counters.Counter;\n  Counters.Counter private _itemIds;\n  Counters.Counter private _itemsSold;\n\n  address payable owner;\n  address manager;\n  address dragonSoulAddress;\n  uint256 listingPrice = 0 ether;\n    \n  address nftContract;    \n\n  constructor() {\n    owner = payable(msg.sender);\n  }\n\n  struct MarketItem {\n    uint itemId;\n    uint256 tokenId;\n    address payable seller;\n    address payable owner;\n    uint256 price;\n    bool sold;\n  }\n\n  mapping(uint256 => MarketItem) private idToMarketItem;\n\n  event MarketItemCreated (\n    uint indexed itemId,\n    uint256 indexed tokenId,\n    address seller,\n    address owner,\n    uint256 price,\n    bool sold\n  );\n  \n  modifier onlyOwner {\n      require(msg.sender == owner);\n      _;\n  }\n  \n  function setDragonSoulAddress(address _dragonSoulAddress) public onlyOwner {\n      dragonSoulAddress = _dragonSoulAddress;\n  }\n    \n  function setNFTContractAddress(address _nftContractrAddress) public onlyOwner {\n      nftContract = _nftContractrAddress;\n  }\n    \n  /* Returns the listing price of the contract */\n  function getListingPrice() public view returns (uint256) {\n    return listingPrice;\n  }\n  \n  /* Places an item for sale on the marketplace */\n  function createMarketItem(\n    uint256 tokenId,\n    uint256 price\n  ) public payable nonReentrant {\n    require(price > 0, \"Price must be at least 1 wei\");\n    require(msg.value == listingPrice, \"Price must be equal to listing price\");\n\n    _itemIds.increment();\n    uint256 itemId = _itemIds.current();\n  \n    idToMarketItem[itemId] =  MarketItem(\n      itemId,\n      tokenId,\n      payable(msg.sender),\n      payable(address(0)),\n      price,\n      false\n    );\n\n    IERC721(nftContract).transferFrom(msg.sender, address(this), tokenId);\n    \n    emit MarketItemCreated(\n      itemId,\n      tokenId,\n      msg.sender,\n      address(0),\n      price,\n      false\n    );\n  }\n\n  /* Creates the sale of a marketplace item */\n  /* Transfers ownership of the item, as well as funds between parties */\n  function createMarketSale(\n    uint256 itemId\n    ) public payable nonReentrant {\n    uint price = idToMarketItem[itemId].price;\n    uint tokenId = idToMarketItem[itemId].tokenId;\n\n    idToMarketItem[itemId].seller.transfer(msg.value);\n    IERC721(nftContract).transferFrom(address(this), msg.sender, tokenId);\n    idToMarketItem[itemId].sold = true;\n    _itemsSold.increment();\n    \n    ERC20 dragonSoul = ERC20(payable(dragonSoulAddress));\n    dragonSoul.transferFrom(msg.sender, idToMarketItem[itemId].seller, price);\n    \n  }\n\n  /* Returns all unsold market items */\n  function fetchMarketItems() public view returns (MarketItem[] memory) {\n    uint itemCount = _itemIds.current();\n    uint unsoldItemCount = _itemIds.current() - _itemsSold.current();\n    uint currentIndex = 0;\n\n    MarketItem[] memory items = new MarketItem[](unsoldItemCount);\n    for (uint i = 0; i < itemCount; i++) {\n      if (idToMarketItem[i + 1].owner == address(0)) {\n        uint currentId = i + 1;\n        MarketItem storage currentItem = idToMarketItem[currentId];\n        items[currentIndex] = currentItem;\n        currentIndex += 1;\n      }\n    }\n    return items;\n  }\n\n  /* Returns onlyl items that a user has purchased */\n  function fetchMyNFTs() public view returns (MarketItem[] memory) {\n    uint totalItemCount = _itemIds.current();\n    uint itemCount = 0;\n    uint currentIndex = 0;\n\n    for (uint i = 0; i < totalItemCount; i++) {\n      if (idToMarketItem[i + 1].owner == msg.sender) {\n        itemCount += 1;\n      }\n    }\n\n    MarketItem[] memory items = new MarketItem[](itemCount);\n    for (uint i = 0; i < totalItemCount; i++) {\n      if (idToMarketItem[i + 1].owner == msg.sender) {\n        uint currentId = i + 1;\n        MarketItem storage currentItem = idToMarketItem[currentId];\n        items[currentIndex] = currentItem;\n        currentIndex += 1;\n      }\n    }\n    return items;\n  }\n\n  /* Returns only items a user has created */\n  function fetchItemsCreated() public view returns (MarketItem[] memory) {\n    uint totalItemCount = _itemIds.current();\n    uint itemCount = 0;\n    uint currentIndex = 0;\n\n    for (uint i = 0; i < totalItemCount; i++) {\n      if (idToMarketItem[i + 1].seller == msg.sender) {\n        itemCount += 1;\n      }\n    }\n\n    MarketItem[] memory items = new MarketItem[](itemCount);\n    for (uint i = 0; i < totalItemCount; i++) {\n      if (idToMarketItem[i + 1].seller == msg.sender) {\n        uint currentId = i + 1;\n        MarketItem storage currentItem = idToMarketItem[currentId];\n        items[currentIndex] = currentItem;\n        currentIndex += 1;\n      }\n    }\n    return items;\n  }\n}\n",
  "sourcePath": "/home/hieu/Blockchain/dragonfarm/src/contracts/marketplace/Market.sol",
  "compiler": {
    "name": "solc",
    "version": "0.8.4+commit.c7e474f2.Emscripten.clang"
  },
  "schemaVersion": "3.4.2",
  "updatedAt": "2021-08-11T04:16:11.503Z",
  "devdoc": {
    "kind": "dev",
    "methods": {},
    "version": 1
  },
  "userdoc": {
    "kind": "user",
    "methods": {},
    "version": 1
  }
}