{
  "contractName": "TimelockFactory",
  "abi": [
    {
      "inputs": [],
      "stateMutability": "nonpayable",
      "type": "constructor"
    },
    {
      "anonymous": false,
      "inputs": [
        {
          "indexed": false,
          "internalType": "address",
          "name": "timelockContract",
          "type": "address"
        }
      ],
      "name": "Timelock",
      "type": "event"
    },
    {
      "inputs": [
        {
          "internalType": "contract IERC20",
          "name": "token",
          "type": "address"
        },
        {
          "internalType": "address",
          "name": "to",
          "type": "address"
        },
        {
          "internalType": "uint256",
          "name": "releaseTime",
          "type": "uint256"
        },
        {
          "internalType": "uint256",
          "name": "releaseAmount",
          "type": "uint256"
        },
        {
          "internalType": "uint256",
          "name": "period",
          "type": "uint256"
        }
      ],
      "name": "createTimelock",
      "outputs": [
        {
          "internalType": "address",
          "name": "",
          "type": "address"
        }
      ],
      "stateMutability": "nonpayable",
      "type": "function"
    }
  ],
  "bytecode": "0x608060405234801561001057600080fd5b5060405161001d9061007e565b604051809103906000f080158015610039573d6000803e3d6000fd5b506000806101000a81548173ffffffffffffffffffffffffffffffffffffffff021916908373ffffffffffffffffffffffffffffffffffffffff16021790555061008b565b6118e88061048783390190565b6103ed8061009a6000396000f3fe608060405234801561001057600080fd5b506004361061002b5760003560e01c80636acaa16e14610030575b600080fd5b61004a600480360381019061004591906101ee565b610060565b6040516100579190610292565b60405180910390f35b60008061008c60008054906101000a900473ffffffffffffffffffffffffffffffffffffffff16610145565b90508073ffffffffffffffffffffffffffffffffffffffff1663f934436e88888888886040518663ffffffff1660e01b81526004016100cf9594939291906102ad565b600060405180830381600087803b1580156100e957600080fd5b505af11580156100fd573d6000803e3d6000fd5b505050507f467b927bcc96ff56aa5ad9f93245b98645e025255658a2c6e56cae12f428a180816040516101309190610292565b60405180910390a18091505095945050505050565b6000808260601b90506040517f3d602d80600a3d3981f3363d3d373d3d3d363d7300000000000000000000000081528160148201527f5af43d82803e903d91602b57fd5bf3000000000000000000000000000000000060288201526037816000f092505050919050565b6000813590506101be81610372565b92915050565b6000813590506101d381610389565b92915050565b6000813590506101e8816103a0565b92915050565b600080600080600060a0868803121561020657600080fd5b6000610214888289016101c4565b9550506020610225888289016101af565b9450506040610236888289016101d9565b9350506060610247888289016101d9565b9250506080610258888289016101d9565b9150509295509295909350565b61026e81610300565b82525050565b61027d8161034e565b82525050565b61028c81610344565b82525050565b60006020820190506102a76000830184610265565b92915050565b600060a0820190506102c26000830188610274565b6102cf6020830187610265565b6102dc6040830186610283565b6102e96060830185610283565b6102f66080830184610283565b9695505050505050565b600061030b82610324565b9050919050565b600061031d82610300565b9050919050565b600073ffffffffffffffffffffffffffffffffffffffff82169050919050565b6000819050919050565b600061035982610360565b9050919050565b600061036b82610324565b9050919050565b61037b81610300565b811461038657600080fd5b50565b61039281610312565b811461039d57600080fd5b50565b6103a981610344565b81146103b457600080fd5b5056fea2646970667358221220d0598a5d3987f62510a9942b46d4ec88fb45cba3200a89ea7ecdffe3fb216c5864736f6c63430008040033608060405234801561001057600080fd5b5060016000806101000a81548173ffffffffffffffffffffffffffffffffffffffff021916908373ffffffffffffffffffffffffffffffffffffffff160217905550611887806100616000396000f3fe608060405234801561001057600080fd5b50600436106100a95760003560e01c80636d6a4889116100715780636d6a48891461016857806386d1a69f14610186578063b69ef8a8146101a4578063c062dc5f146101c2578063f934436e146101e0578063fc0c546a146101fc576100a9565b806314bbe21c146100ae57806338af3eed146100de5780635b940081146100fc5780635d1e2d1b1461011a57806363ef16271461014a575b600080fd5b6100c860048036038101906100c39190610dea565b61021a565b6040516100d5919061111f565b60405180910390f35b6100e66103ac565b6040516100f391906110db565b60405180910390f35b6101046103d6565b60405161011191906112e8565b60405180910390f35b610134600480360381019061012f9190610e3c565b610477565b604051610141919061111f565b60405180910390f35b61015261079e565b60405161015f91906112e8565b60405180910390f35b6101706107a8565b60405161017d91906112e8565b60405180910390f35b61018e6107b2565b60405161019b919061111f565b60405180910390f35b6101ac6109ab565b6040516101b991906112e8565b60405180910390f35b6101ca610a42565b6040516101d791906112e8565b60405180910390f35b6101fa60048036038101906101f59190610ea1565b610a4c565b005b610204610d43565b604051610211919061113a565b60405180910390f35b60006102246103ac565b73ffffffffffffffffffffffffffffffffffffffff163373ffffffffffffffffffffffffffffffffffffffff1614610291576040517f08c379a0000000000000000000000000000000000000000000000000000000008152600401610288906111c8565b60405180910390fd5b600073ffffffffffffffffffffffffffffffffffffffff168273ffffffffffffffffffffffffffffffffffffffff161415610301576040517f08c379a00000000000000000000000000000000000000000000000000000000081526004016102f8906111e8565b60405180910390fd5b8173ffffffffffffffffffffffffffffffffffffffff166103206103ac565b73ffffffffffffffffffffffffffffffffffffffff167f57005c5083fa0952870a7906715a2f6f9ef2d01b4a423e4b3ce59c6129b1a76360405160405180910390a381600160006101000a81548173ffffffffffffffffffffffffffffffffffffffff021916908373ffffffffffffffffffffffffffffffffffffffff16021790555060019050919050565b6000600160009054906101000a900473ffffffffffffffffffffffffffffffffffffffff16905090565b60006002544210156103eb5760009050610474565b60006103f56109ab565b9050600081141561040a576000915050610474565b6000600454141561041e5780915050610474565b60006004546002544261043191906113f5565b61043b919061136a565b9050600060035460018361044f9190611314565b610459919061139b565b905080831161046d57829350505050610474565b8093505050505b90565b6000806104826109ab565b905061048c6103ac565b73ffffffffffffffffffffffffffffffffffffffff163373ffffffffffffffffffffffffffffffffffffffff16146104f9576040517f08c379a00000000000000000000000000000000000000000000000000000000081526004016104f0906111c8565b60405180910390fd5b600073ffffffffffffffffffffffffffffffffffffffff168473ffffffffffffffffffffffffffffffffffffffff161415610569576040517f08c379a000000000000000000000000000000000000000000000000000000000815260040161056090611208565b60405180910390fd5b600083116105ac576040517f08c379a00000000000000000000000000000000000000000000000000000000081526004016105a390611288565b60405180910390fd5b808311156105ef576040517f08c379a00000000000000000000000000000000000000000000000000000000081526004016105e6906112a8565b60405180910390fd5b600080600454111561061757818460035461060a919061139b565b610614919061136a565b90505b6000600560009054906101000a900473ffffffffffffffffffffffffffffffffffffffff1673ffffffffffffffffffffffffffffffffffffffff16636acaa16e61065f610d43565b88600254866004546040518663ffffffff1660e01b8152600401610687959493929190611155565b602060405180830381600087803b1580156106a157600080fd5b505af11580156106b5573d6000803e3d6000fd5b505050506040513d601f19601f820116820180604052508101906106d99190610e13565b90506106e3610d43565b73ffffffffffffffffffffffffffffffffffffffff1663a9059cbb82876040518363ffffffff1660e01b815260040161071d9291906110f6565b602060405180830381600087803b15801561073757600080fd5b505af115801561074b573d6000803e3d6000fd5b505050506040513d601f19601f8201168201806040525081019061076f9190610e78565b61077857600080fd5b816003600082825461078a91906113f5565b925050819055506001935050505092915050565b6000600454905090565b6000600254905090565b60006107bc6107a8565b4210156107fe576040517f08c379a00000000000000000000000000000000000000000000000000000000081526004016107f5906111a8565b60405180910390fd5b60006108086103d6565b90506000811161084d576040517f08c379a000000000000000000000000000000000000000000000000000000000815260040161084490611268565b60405180910390fd5b6108556103ac565b73ffffffffffffffffffffffffffffffffffffffff167fb21fb52d5749b80f3182f8c6992236b5e5576681880914484d7f4c9b062e619e8260405161089a91906112e8565b60405180910390a26108aa610d43565b73ffffffffffffffffffffffffffffffffffffffff1663a9059cbb6108cd6103ac565b836040518363ffffffff1660e01b81526004016108eb9291906110f6565b602060405180830381600087803b15801561090557600080fd5b505af1158015610919573d6000803e3d6000fd5b505050506040513d601f19601f8201168201806040525081019061093d9190610e78565b61094657600080fd5b6000600454146109a35760006004546002544261096391906113f5565b61096d919061136a565b905060045460018261097f9190611314565b610989919061139b565b6002600082825461099a9190611314565b92505081905550505b600191505090565b60006109b5610d43565b73ffffffffffffffffffffffffffffffffffffffff166370a08231306040518263ffffffff1660e01b81526004016109ed91906110db565b60206040518083038186803b158015610a0557600080fd5b505afa158015610a19573d6000803e3d6000fd5b505050506040513d601f19601f82011682018060405250810190610a3d9190610f18565b905090565b6000600354905090565b600073ffffffffffffffffffffffffffffffffffffffff1660008054906101000a900473ffffffffffffffffffffffffffffffffffffffff1673ffffffffffffffffffffffffffffffffffffffff1614610adb576040517f08c379a0000000000000000000000000000000000000000000000000000000008152600401610ad290611248565b60405180910390fd5b600073ffffffffffffffffffffffffffffffffffffffff168573ffffffffffffffffffffffffffffffffffffffff161415610b4b576040517f08c379a0000000000000000000000000000000000000000000000000000000008152600401610b42906112c8565b60405180910390fd5b600073ffffffffffffffffffffffffffffffffffffffff168473ffffffffffffffffffffffffffffffffffffffff161415610bbb576040517f08c379a0000000000000000000000000000000000000000000000000000000008152600401610bb290611208565b60405180910390fd5b6000811480610bcb575060008214155b610c0a576040517f08c379a0000000000000000000000000000000000000000000000000000000008152600401610c0190611228565b60405180910390fd5b8373ffffffffffffffffffffffffffffffffffffffff16600073ffffffffffffffffffffffffffffffffffffffff167f57005c5083fa0952870a7906715a2f6f9ef2d01b4a423e4b3ce59c6129b1a76360405160405180910390a3846000806101000a81548173ffffffffffffffffffffffffffffffffffffffff021916908373ffffffffffffffffffffffffffffffffffffffff16021790555083600160006101000a81548173ffffffffffffffffffffffffffffffffffffffff021916908373ffffffffffffffffffffffffffffffffffffffff16021790555082600281905550816003819055508060048190555033600560006101000a81548173ffffffffffffffffffffffffffffffffffffffff021916908373ffffffffffffffffffffffffffffffffffffffff1602179055505050505050565b60008060009054906101000a900473ffffffffffffffffffffffffffffffffffffffff16905090565b600081359050610d7b816117f5565b92915050565b600081519050610d90816117f5565b92915050565b600081519050610da58161180c565b92915050565b600081359050610dba81611823565b92915050565b600081359050610dcf8161183a565b92915050565b600081519050610de48161183a565b92915050565b600060208284031215610dfc57600080fd5b6000610e0a84828501610d6c565b91505092915050565b600060208284031215610e2557600080fd5b6000610e3384828501610d81565b91505092915050565b60008060408385031215610e4f57600080fd5b6000610e5d85828601610d6c565b9250506020610e6e85828601610dc0565b9150509250929050565b600060208284031215610e8a57600080fd5b6000610e9884828501610d96565b91505092915050565b600080600080600060a08688031215610eb957600080fd5b6000610ec788828901610dab565b9550506020610ed888828901610d6c565b9450506040610ee988828901610dc0565b9350506060610efa88828901610dc0565b9250506080610f0b88828901610dc0565b9150509295509295909350565b600060208284031215610f2a57600080fd5b6000610f3884828501610dd5565b91505092915050565b610f4a81611429565b82525050565b610f598161143b565b82525050565b610f6881611483565b82525050565b6000610f7b603283611303565b9150610f8682611505565b604082019050919050565b6000610f9e602c83611303565b9150610fa982611554565b604082019050919050565b6000610fc1603283611303565b9150610fcc826115a3565b604082019050919050565b6000610fe4602a83611303565b9150610fef826115f2565b604082019050919050565b6000611007602583611303565b915061101282611641565b604082019050919050565b600061102a602283611303565b915061103582611690565b604082019050919050565b600061104d602383611303565b9150611058826116df565b604082019050919050565b6000611070601d83611303565b915061107b8261172e565b602082019050919050565b6000611093602583611303565b915061109e82611757565b604082019050919050565b60006110b6602a83611303565b91506110c1826117a6565b604082019050919050565b6110d581611479565b82525050565b60006020820190506110f06000830184610f41565b92915050565b600060408201905061110b6000830185610f41565b61111860208301846110cc565b9392505050565b60006020820190506111346000830184610f50565b92915050565b600060208201905061114f6000830184610f5f565b92915050565b600060a08201905061116a6000830188610f5f565b6111776020830187610f41565b61118460408301866110cc565b61119160608301856110cc565b61119e60808301846110cc565b9695505050505050565b600060208201905081810360008301526111c181610f6e565b9050919050565b600060208201905081810360008301526111e181610f91565b9050919050565b6000602082019050818103600083015261120181610fb4565b9050919050565b6000602082019050818103600083015261122181610fd7565b9050919050565b6000602082019050818103600083015261124181610ffa565b9050919050565b600060208201905081810360008301526112618161101d565b9050919050565b6000602082019050818103600083015261128181611040565b9050919050565b600060208201905081810360008301526112a181611063565b9050919050565b600060208201905081810360008301526112c181611086565b9050919050565b600060208201905081810360008301526112e1816110a9565b9050919050565b60006020820190506112fd60008301846110cc565b92915050565b600082825260208201905092915050565b600061131f82611479565b915061132a83611479565b9250827fffffffffffffffffffffffffffffffffffffffffffffffffffffffffffffffff0382111561135f5761135e6114a7565b5b828201905092915050565b600061137582611479565b915061138083611479565b9250826113905761138f6114d6565b5b828204905092915050565b60006113a682611479565b91506113b183611479565b9250817fffffffffffffffffffffffffffffffffffffffffffffffffffffffffffffffff04831182151516156113ea576113e96114a7565b5b828202905092915050565b600061140082611479565b915061140b83611479565b92508282101561141e5761141d6114a7565b5b828203905092915050565b600061143482611459565b9050919050565b60008115159050919050565b600061145282611429565b9050919050565b600073ffffffffffffffffffffffffffffffffffffffff82169050919050565b6000819050919050565b600061148e82611495565b9050919050565b60006114a082611459565b9050919050565b7f4e487b7100000000000000000000000000000000000000000000000000000000600052601160045260246000fd5b7f4e487b7100000000000000000000000000000000000000000000000000000000600052601260045260246000fd5b7f546f6b656e54696d656c6f636b3a2063757272656e742074696d65206973206260008201527f65666f72652072656c656173652074696d650000000000000000000000000000602082015250565b7f546f6b656e54696d656c6f636b3a2063616c6c6572206973206e6f742074686560008201527f2062656e65666963696172790000000000000000000000000000000000000000602082015250565b7f546f6b656e54696d656c6f636b3a20746865206e65772062656e65666963696160008201527f7279206973207a65726f20616464726573730000000000000000000000000000602082015250565b7f546f6b656e54696d656c6f636b3a2062656e656669636961727920616464726560008201527f7373206973207a65726f00000000000000000000000000000000000000000000602082015250565b7f546f6b656e54696d656c6f636b3a2072656c6561736520616d6f756e7420697360008201527f207a65726f000000000000000000000000000000000000000000000000000000602082015250565b7f546f6b656e54696d656c6f636b3a20616c726561647920696e697469616c697a60008201527f6564000000000000000000000000000000000000000000000000000000000000602082015250565b7f546f6b656e54696d656c6f636b3a206e6f2072656c65617361626c6520746f6b60008201527f656e730000000000000000000000000000000000000000000000000000000000602082015250565b7f546f6b656e54696d656c6f636b3a20616d6f756e74206973207a65726f000000600082015250565b7f546f6b656e54696d656c6f636b3a20616d6f756e74206578636565647320626160008201527f6c616e6365000000000000000000000000000000000000000000000000000000602082015250565b7f546f6b656e54696d656c6f636b3a20657263323020746f6b656e20616464726560008201527f7373206973207a65726f00000000000000000000000000000000000000000000602082015250565b6117fe81611429565b811461180957600080fd5b50565b6118158161143b565b811461182057600080fd5b50565b61182c81611447565b811461183757600080fd5b50565b61184381611479565b811461184e57600080fd5b5056fea2646970667358221220d68d966ce3b8aae96e826f0677424cb7e455ff19e615d8a0cfa4f09e5dc057bf64736f6c63430008040033",
  "immutableReferences": {},
  "source": "// SPDX-License-Identifier: MIT\npragma solidity 0.8.4;\n\nimport \"./IERC20.sol\";\n\ncontract TokenTimelock {\n    IERC20 private _token;\n    address private _beneficiary;\n    uint256 private _nextReleaseTime;\n    uint256 private _releaseAmount;\n    uint256 private _releasePeriod;\n\n    TimelockFactory private _factory;\n\n    event Released(address indexed beneficiary, uint256 amount);\n    event BeneficiaryTransferred(address indexed previousBeneficiary, address indexed newBeneficiary);\n\n\tconstructor(){\n\t\t_token = IERC20(address(1));\n\t}\n\n\tfunction init(IERC20 token_, address beneficiary_, uint256 releaseStart_, uint256 releaseAmount_, uint256 releasePeriod_) external {\n\t\trequire(_token == IERC20(address(0)), \"TokenTimelock: already initialized\");\n\t\trequire(token_ != IERC20(address(0)), \"TokenTimelock: erc20 token address is zero\");\n        require(beneficiary_ != address(0), \"TokenTimelock: beneficiary address is zero\");\n        require(releasePeriod_ == 0 || releaseAmount_ != 0, \"TokenTimelock: release amount is zero\");\n\n        emit BeneficiaryTransferred(address(0), beneficiary_);\n\n        _token = token_;\n        _beneficiary = beneficiary_;\n        _nextReleaseTime = releaseStart_;\n        _releaseAmount = releaseAmount_;\n        _releasePeriod = releasePeriod_;\n\n        _factory = TimelockFactory(msg.sender);\n\t}\n\n    function token() public view virtual returns (IERC20) {\n        return _token;\n    }\n\n    function beneficiary() public view virtual returns (address) {\n        return _beneficiary;\n    }\n\n    function nextReleaseTime() public view virtual returns (uint256) {\n        return _nextReleaseTime;\n    }\n\n    function releaseAmount() public view virtual returns (uint256) {\n        return _releaseAmount;\n    }\n\n    function balance() public view virtual returns (uint256) {\n        return token().balanceOf(address(this));\n    }\n\n    function releasableAmount() public view virtual returns (uint256) {\n        if (block.timestamp < _nextReleaseTime) return 0;\n\n        uint256 amount = balance();\n        if (amount == 0) return 0;\n        if (_releasePeriod == 0) return amount;\n\n        uint256 passedPeriods = (block.timestamp - _nextReleaseTime) / _releasePeriod;\n        uint256 maxReleasableAmount = (passedPeriods + 1) * _releaseAmount;\n        \n        if (amount <= maxReleasableAmount) return amount;\n        return maxReleasableAmount;\n    }\n\n    function releasePeriod() public view virtual returns (uint256) {\n        return _releasePeriod;\n    }\n\n    function release() public virtual returns (bool) {\n        // solhint-disable-next-line not-rely-on-time\n        require(block.timestamp >= nextReleaseTime(), \"TokenTimelock: current time is before release time\");\n\n        uint256 _releasableAmount = releasableAmount();\n        require(_releasableAmount > 0, \"TokenTimelock: no releasable tokens\");\n\n        emit Released(beneficiary(), _releasableAmount);\n        require(token().transfer(beneficiary(), _releasableAmount));\n\n        if (_releasePeriod != 0) {\n            uint256 passedPeriods = (block.timestamp - _nextReleaseTime) / _releasePeriod;\n            _nextReleaseTime += (passedPeriods + 1) * _releasePeriod;\n        }\n\n        return true;\n    }\n\n    function transferBeneficiary(address newBeneficiary) public virtual returns (bool) {\n\t\trequire(msg.sender == beneficiary(), \"TokenTimelock: caller is not the beneficiary\");\n\t\trequire(newBeneficiary != address(0), \"TokenTimelock: the new beneficiary is zero address\");\n\t\t\n        emit BeneficiaryTransferred(beneficiary(), newBeneficiary);\n\t\t_beneficiary = newBeneficiary;\n\t\treturn true;\n\t}\n\n    function split(address splitBeneficiary, uint256 splitAmount) public virtual returns (bool) {\n        uint256 _amount = balance();\n\t\trequire(msg.sender == beneficiary(), \"TokenTimelock: caller is not the beneficiary\");\n\t\trequire(splitBeneficiary != address(0), \"TokenTimelock: beneficiary address is zero\");\n        require(splitAmount > 0, \"TokenTimelock: amount is zero\");\n        require(splitAmount <= _amount, \"TokenTimelock: amount exceeds balance\");\n\n        uint256 splitReleaseAmount;\n        if (_releasePeriod > 0) {\n            splitReleaseAmount = _releaseAmount * splitAmount / _amount;\n        }\n\n        address newTimelock = _factory.createTimelock(token(), splitBeneficiary, _nextReleaseTime, splitReleaseAmount, _releasePeriod);\n\n        require(token().transfer(newTimelock, splitAmount));\n        _releaseAmount -= splitReleaseAmount;\n\t\treturn true;\n\t}\n}\n\ncontract CloneFactory {\n  function createClone(address target) internal returns (address result) {\n    bytes20 targetBytes = bytes20(target);\n    assembly {\n      let clone := mload(0x40)\n      mstore(clone, 0x3d602d80600a3d3981f3363d3d373d3d3d363d73000000000000000000000000)\n      mstore(add(clone, 0x14), targetBytes)\n      mstore(add(clone, 0x28), 0x5af43d82803e903d91602b57fd5bf30000000000000000000000000000000000)\n      result := create(0, clone, 0x37)\n    }\n  }\n}\n\ncontract TimelockFactory is CloneFactory {\n\taddress private _tokenTimelockImpl;\n\tevent Timelock(address timelockContract);\n\tconstructor() {\n\t\t_tokenTimelockImpl = address(new TokenTimelock());\n\t}\n\tfunction createTimelock(IERC20 token, address to, uint256 releaseTime, uint256 releaseAmount, uint256 period) public returns (address) {\n\t\taddress clone = createClone(_tokenTimelockImpl);\n\t\tTokenTimelock(clone).init(token, to, releaseTime, releaseAmount, period);\n\n\t\temit Timelock(clone);\n\t\treturn clone;\n\t}\n}",
  "sourcePath": "/home/hieu/Blockchain/dragonfarm/src/contracts/aioz/TokenTimelock.sol",
  "compiler": {
    "name": "solc",
    "version": "0.8.4+commit.c7e474f2.Emscripten.clang"
  },
  "schemaVersion": "3.4.2",
  "updatedAt": "2021-08-11T04:16:11.444Z",
  "devdoc": {
    "kind": "dev",
    "methods": {},
    "version": 1
  },
  "userdoc": {
    "kind": "user",
    "methods": {},
    "version": 1
  }
}