{
	"data": {
		"bytecode": {
			"linkReferences": {},
			"object": "6080604052600060045534801561001557600080fd5b50600160008190555033600360006101000a81548173ffffffffffffffffffffffffffffffffffffffff021916908373ffffffffffffffffffffffffffffffffffffffff16021790555061199b8061006e6000396000f3fe6080604052600436106100705760003560e01c806323949cd11161004e57806323949cd1146100f6578063361c19951461011f578063be9af5361461013b578063f064c32e1461015757610070565b80630f08efe01461007557806312e85585146100a0578063202e3740146100cb575b600080fd5b34801561008157600080fd5b5061008a610182565b6040516100979190611538565b60405180910390f35b3480156100ac57600080fd5b506100b56103f6565b6040516100c291906115fa565b60405180910390f35b3480156100d757600080fd5b506100e0610400565b6040516100ed9190611538565b60405180910390f35b34801561010257600080fd5b5061011d60048036038101906101189190611228565b6106f8565b005b61013960048036038101906101349190611282565b61073c565b005b61015560048036038101906101509190611255565b610b12565b005b34801561016357600080fd5b5061016c610e7e565b6040516101799190611538565b60405180910390f35b606060006101906001611176565b9050600061019e6002611176565b6101a86001611176565b6101b291906116b5565b90506000808267ffffffffffffffff8111156101d1576101d06117ea565b5b60405190808252806020026020018201604052801561020a57816020015b6101f761119a565b8152602001906001900390816101ef5790505b50905060005b848110156103eb57600073ffffffffffffffffffffffffffffffffffffffff1660066000600184610241919061165f565b815260200190815260200160002060030160009054906101000a900473ffffffffffffffffffffffffffffffffffffffff1673ffffffffffffffffffffffffffffffffffffffff1614156103d857600060018261029e919061165f565b90506000600660008381526020019081526020016000209050806040518060c001604052908160008201548152602001600182015481526020016002820160009054906101000a900473ffffffffffffffffffffffffffffffffffffffff1673ffffffffffffffffffffffffffffffffffffffff1673ffffffffffffffffffffffffffffffffffffffff1681526020016003820160009054906101000a900473ffffffffffffffffffffffffffffffffffffffff1673ffffffffffffffffffffffffffffffffffffffff1673ffffffffffffffffffffffffffffffffffffffff168152602001600482015481526020016005820160009054906101000a900460ff1615151515815250508486815181106103bb576103ba6117bb565b5b60200260200101819052506001856103d3919061165f565b945050505b80806103e390611743565b915050610210565b508094505050505090565b6000600454905090565b6060600061040e6001611176565b905060008060005b838110156104b7573373ffffffffffffffffffffffffffffffffffffffff1660066000600184610446919061165f565b815260200190815260200160002060030160009054906101000a900473ffffffffffffffffffffffffffffffffffffffff1673ffffffffffffffffffffffffffffffffffffffff1614156104a4576001836104a1919061165f565b92505b80806104af90611743565b915050610416565b5060008267ffffffffffffffff8111156104d4576104d36117ea565b5b60405190808252806020026020018201604052801561050d57816020015b6104fa61119a565b8152602001906001900390816104f25790505b50905060005b848110156106ed573373ffffffffffffffffffffffffffffffffffffffff1660066000600184610543919061165f565b815260200190815260200160002060030160009054906101000a900473ffffffffffffffffffffffffffffffffffffffff1673ffffffffffffffffffffffffffffffffffffffff1614156106da5760006001826105a0919061165f565b90506000600660008381526020019081526020016000209050806040518060c001604052908160008201548152602001600182015481526020016002820160009054906101000a900473ffffffffffffffffffffffffffffffffffffffff1673ffffffffffffffffffffffffffffffffffffffff1673ffffffffffffffffffffffffffffffffffffffff1681526020016003820160009054906101000a900473ffffffffffffffffffffffffffffffffffffffff1673ffffffffffffffffffffffffffffffffffffffff1673ffffffffffffffffffffffffffffffffffffffff168152602001600482015481526020016005820160009054906101000a900460ff1615151515815250508486815181106106bd576106bc6117bb565b5b60200260200101819052506001856106d5919061165f565b945050505b80806106e590611743565b915050610513565b508094505050505090565b80600560006101000a81548173ffffffffffffffffffffffffffffffffffffffff021916908373ffffffffffffffffffffffffffffffffffffffff16021790555050565b60026000541415610782576040517f08c379a0000000000000000000000000000000000000000000000000000000008152600401610779906115ba565b60405180910390fd5b6002600081905550600073ffffffffffffffffffffffffffffffffffffffff16600560009054906101000a900473ffffffffffffffffffffffffffffffffffffffff1673ffffffffffffffffffffffffffffffffffffffff16141561081c576040517f08c379a00000000000000000000000000000000000000000000000000000000081526004016108139061159a565b60405180910390fd5b6000811161085f576040517f08c379a0000000000000000000000000000000000000000000000000000000008152600401610856906115da565b60405180910390fd5b60045434146108a3576040517f08c379a000000000000000000000000000000000000000000000000000000000815260040161089a9061157a565b60405180910390fd5b6108ad6001611184565b60006108b96001611176565b90506040518060c001604052808281526020018481526020013373ffffffffffffffffffffffffffffffffffffffff168152602001600073ffffffffffffffffffffffffffffffffffffffff1681526020018381526020016000151581525060066000838152602001908152602001600020600082015181600001556020820151816001015560408201518160020160006101000a81548173ffffffffffffffffffffffffffffffffffffffff021916908373ffffffffffffffffffffffffffffffffffffffff16021790555060608201518160030160006101000a81548173ffffffffffffffffffffffffffffffffffffffff021916908373ffffffffffffffffffffffffffffffffffffffff1602179055506080820151816004015560a08201518160050160006101000a81548160ff021916908315150217905550905050600560009054906101000a900473ffffffffffffffffffffffffffffffffffffffff1673ffffffffffffffffffffffffffffffffffffffff166323b872dd3330866040518463ffffffff1660e01b8152600401610a59939291906114bc565b600060405180830381600087803b158015610a7357600080fd5b505af1158015610a87573d6000803e3d6000fd5b5050505082600560009054906101000a900473ffffffffffffffffffffffffffffffffffffffff1673ffffffffffffffffffffffffffffffffffffffff16827f045dfa01dcba2b36aba1d3dc4a874f4b0c5d2fbeb8d2c4b34a7d88c8d8f929d1336000876000604051610afd94939291906114f3565b60405180910390a45060016000819055505050565b60026000541415610b58576040517f08c379a0000000000000000000000000000000000000000000000000000000008152600401610b4f906115ba565b60405180910390fd5b6002600081905550600073ffffffffffffffffffffffffffffffffffffffff16600560009054906101000a900473ffffffffffffffffffffffffffffffffffffffff1673ffffffffffffffffffffffffffffffffffffffff161415610bf2576040517f08c379a0000000000000000000000000000000000000000000000000000000008152600401610be99061159a565b60405180910390fd5b600060066000838152602001908152602001600020600401549050600060066000848152602001908152602001600020600101549050813414610c6a576040517f08c379a0000000000000000000000000000000000000000000000000000000008152600401610c619061155a565b60405180910390fd5b6006600084815260200190815260200160002060020160009054906101000a900473ffffffffffffffffffffffffffffffffffffffff1673ffffffffffffffffffffffffffffffffffffffff166108fc349081150290604051600060405180830381858888f19350505050158015610ce6573d6000803e3d6000fd5b50600560009054906101000a900473ffffffffffffffffffffffffffffffffffffffff1673ffffffffffffffffffffffffffffffffffffffff166323b872dd3033846040518463ffffffff1660e01b8152600401610d46939291906114bc565b600060405180830381600087803b158015610d6057600080fd5b505af1158015610d74573d6000803e3d6000fd5b50505050336006600085815260200190815260200160002060030160006101000a81548173ffffffffffffffffffffffffffffffffffffffff021916908373ffffffffffffffffffffffffffffffffffffffff16021790555060016006600085815260200190815260200160002060050160006101000a81548160ff021916908315150217905550610e066002611184565b600360009054906101000a900473ffffffffffffffffffffffffffffffffffffffff1673ffffffffffffffffffffffffffffffffffffffff166108fc6004549081150290604051600060405180830381858888f19350505050158015610e70573d6000803e3d6000fd5b505050600160008190555050565b60606000610e8c6001611176565b905060008060005b83811015610f35573373ffffffffffffffffffffffffffffffffffffffff1660066000600184610ec4919061165f565b815260200190815260200160002060020160009054906101000a900473ffffffffffffffffffffffffffffffffffffffff1673ffffffffffffffffffffffffffffffffffffffff161415610f2257600183610f1f919061165f565b92505b8080610f2d90611743565b915050610e94565b5060008267ffffffffffffffff811115610f5257610f516117ea565b5b604051908082528060200260200182016040528015610f8b57816020015b610f7861119a565b815260200190600190039081610f705790505b50905060005b8481101561116b573373ffffffffffffffffffffffffffffffffffffffff1660066000600184610fc1919061165f565b815260200190815260200160002060020160009054906101000a900473ffffffffffffffffffffffffffffffffffffffff1673ffffffffffffffffffffffffffffffffffffffff16141561115857600060018261101e919061165f565b90506000600660008381526020019081526020016000209050806040518060c001604052908160008201548152602001600182015481526020016002820160009054906101000a900473ffffffffffffffffffffffffffffffffffffffff1673ffffffffffffffffffffffffffffffffffffffff1673ffffffffffffffffffffffffffffffffffffffff1681526020016003820160009054906101000a900473ffffffffffffffffffffffffffffffffffffffff1673ffffffffffffffffffffffffffffffffffffffff1673ffffffffffffffffffffffffffffffffffffffff168152602001600482015481526020016005820160009054906101000a900460ff16151515158152505084868151811061113b5761113a6117bb565b5b6020026020010181905250600185611153919061165f565b945050505b808061116390611743565b915050610f91565b508094505050505090565b600081600001549050919050565b6001816000016000828254019250508190555050565b6040518060c001604052806000815260200160008152602001600073ffffffffffffffffffffffffffffffffffffffff168152602001600073ffffffffffffffffffffffffffffffffffffffff168152602001600081526020016000151581525090565b60008135905061120d81611937565b92915050565b6000813590506112228161194e565b92915050565b60006020828403121561123e5761123d611819565b5b600061124c848285016111fe565b91505092915050565b60006020828403121561126b5761126a611819565b5b600061127984828501611213565b91505092915050565b6000806040838503121561129957611298611819565b5b60006112a785828601611213565b92505060206112b885828601611213565b9150509250929050565b60006112ce8383611423565b60c08301905092915050565b6112e3816116fb565b82525050565b6112f2816116e9565b82525050565b600061130382611625565b61130d818561163d565b935061131883611615565b8060005b8381101561134957815161133088826112c2565b975061133b83611630565b92505060018101905061131c565b5085935050505092915050565b61135f8161170d565b82525050565b61136e8161170d565b82525050565b600061138160408361164e565b915061138c8261181e565b604082019050919050565b60006113a460248361164e565b91506113af8261186d565b604082019050919050565b60006113c7601f8361164e565b91506113d2826118bc565b602082019050919050565b60006113ea601f8361164e565b91506113f5826118e5565b602082019050919050565b600061140d601c8361164e565b91506114188261190e565b602082019050919050565b60c082016000820151611439600085018261149e565b50602082015161144c602085018261149e565b50604082015161145f60408501826112da565b50606082015161147260608501826112da565b506080820151611485608085018261149e565b5060a082015161149860a0850182611356565b50505050565b6114a781611739565b82525050565b6114b681611739565b82525050565b60006060820190506114d160008301866112e9565b6114de60208301856112e9565b6114eb60408301846114ad565b949350505050565b600060808201905061150860008301876112e9565b61151560208301866112e9565b61152260408301856114ad565b61152f6060830184611365565b95945050505050565b6000602082019050818103600083015261155281846112f8565b905092915050565b6000602082019050818103600083015261157381611374565b9050919050565b6000602082019050818103600083015261159381611397565b9050919050565b600060208201905081810360008301526115b3816113ba565b9050919050565b600060208201905081810360008301526115d3816113dd565b9050919050565b600060208201905081810360008301526115f381611400565b9050919050565b600060208201905061160f60008301846114ad565b92915050565b6000819050602082019050919050565b600081519050919050565b6000602082019050919050565b600082825260208201905092915050565b600082825260208201905092915050565b600061166a82611739565b915061167583611739565b9250827fffffffffffffffffffffffffffffffffffffffffffffffffffffffffffffffff038211156116aa576116a961178c565b5b828201905092915050565b60006116c082611739565b91506116cb83611739565b9250828210156116de576116dd61178c565b5b828203905092915050565b60006116f482611719565b9050919050565b600061170682611719565b9050919050565b60008115159050919050565b600073ffffffffffffffffffffffffffffffffffffffff82169050919050565b6000819050919050565b600061174e82611739565b91507fffffffffffffffffffffffffffffffffffffffffffffffffffffffffffffffff8214156117815761178061178c565b5b600182019050919050565b7f4e487b7100000000000000000000000000000000000000000000000000000000600052601160045260246000fd5b7f4e487b7100000000000000000000000000000000000000000000000000000000600052603260045260246000fd5b7f4e487b7100000000000000000000000000000000000000000000000000000000600052604160045260246000fd5b600080fd5b7f506c65617365207375626d6974207468652061736b696e67207072696365206960008201527f6e206f7264657220746f20636f6d706c65746520746865207075726368617365602082015250565b7f5072696365206d75737420626520657175616c20746f206c697374696e67207060008201527f7269636500000000000000000000000000000000000000000000000000000000602082015250565b7f506c6561736520736574204e465420636f6e7472616374204164647265737300600082015250565b7f5265656e7472616e637947756172643a207265656e7472616e742063616c6c00600082015250565b7f5072696365206d757374206265206174206c6561737420312077656900000000600082015250565b611940816116e9565b811461194b57600080fd5b50565b61195781611739565b811461196257600080fd5b5056fea26469706673582212209bbef75a3bcb143fe60925e1e619335f12e007c1a1025bcb4b3e6c55b792f2cd64736f6c63430008060033",
			"opcodes": "PUSH1 0x80 PUSH1 0x40 MSTORE PUSH1 0x0 PUSH1 0x4 SSTORE CALLVALUE DUP1 ISZERO PUSH2 0x15 JUMPI PUSH1 0x0 DUP1 REVERT JUMPDEST POP PUSH1 0x1 PUSH1 0x0 DUP2 SWAP1 SSTORE POP CALLER PUSH1 0x3 PUSH1 0x0 PUSH2 0x100 EXP DUP2 SLOAD DUP2 PUSH20 0xFFFFFFFFFFFFFFFFFFFFFFFFFFFFFFFFFFFFFFFF MUL NOT AND SWAP1 DUP4 PUSH20 0xFFFFFFFFFFFFFFFFFFFFFFFFFFFFFFFFFFFFFFFF AND MUL OR SWAP1 SSTORE POP PUSH2 0x199B DUP1 PUSH2 0x6E PUSH1 0x0 CODECOPY PUSH1 0x0 RETURN INVALID PUSH1 0x80 PUSH1 0x40 MSTORE PUSH1 0x4 CALLDATASIZE LT PUSH2 0x70 JUMPI PUSH1 0x0 CALLDATALOAD PUSH1 0xE0 SHR DUP1 PUSH4 0x23949CD1 GT PUSH2 0x4E JUMPI DUP1 PUSH4 0x23949CD1 EQ PUSH2 0xF6 JUMPI DUP1 PUSH4 0x361C1995 EQ PUSH2 0x11F JUMPI DUP1 PUSH4 0xBE9AF536 EQ PUSH2 0x13B JUMPI DUP1 PUSH4 0xF064C32E EQ PUSH2 0x157 JUMPI PUSH2 0x70 JUMP JUMPDEST DUP1 PUSH4 0xF08EFE0 EQ PUSH2 0x75 JUMPI DUP1 PUSH4 0x12E85585 EQ PUSH2 0xA0 JUMPI DUP1 PUSH4 0x202E3740 EQ PUSH2 0xCB JUMPI JUMPDEST PUSH1 0x0 DUP1 REVERT JUMPDEST CALLVALUE DUP1 ISZERO PUSH2 0x81 JUMPI PUSH1 0x0 DUP1 REVERT JUMPDEST POP PUSH2 0x8A PUSH2 0x182 JUMP JUMPDEST PUSH1 0x40 MLOAD PUSH2 0x97 SWAP2 SWAP1 PUSH2 0x1538 JUMP JUMPDEST PUSH1 0x40 MLOAD DUP1 SWAP2 SUB SWAP1 RETURN JUMPDEST CALLVALUE DUP1 ISZERO PUSH2 0xAC JUMPI PUSH1 0x0 DUP1 REVERT JUMPDEST POP PUSH2 0xB5 PUSH2 0x3F6 JUMP JUMPDEST PUSH1 0x40 MLOAD PUSH2 0xC2 SWAP2 SWAP1 PUSH2 0x15FA JUMP JUMPDEST PUSH1 0x40 MLOAD DUP1 SWAP2 SUB SWAP1 RETURN JUMPDEST CALLVALUE DUP1 ISZERO PUSH2 0xD7 JUMPI PUSH1 0x0 DUP1 REVERT JUMPDEST POP PUSH2 0xE0 PUSH2 0x400 JUMP JUMPDEST PUSH1 0x40 MLOAD PUSH2 0xED SWAP2 SWAP1 PUSH2 0x1538 JUMP JUMPDEST PUSH1 0x40 MLOAD DUP1 SWAP2 SUB SWAP1 RETURN JUMPDEST CALLVALUE DUP1 ISZERO PUSH2 0x102 JUMPI PUSH1 0x0 DUP1 REVERT JUMPDEST POP PUSH2 0x11D PUSH1 0x4 DUP1 CALLDATASIZE SUB DUP2 ADD SWAP1 PUSH2 0x118 SWAP2 SWAP1 PUSH2 0x1228 JUMP JUMPDEST PUSH2 0x6F8 JUMP JUMPDEST STOP JUMPDEST PUSH2 0x139 PUSH1 0x4 DUP1 CALLDATASIZE SUB DUP2 ADD SWAP1 PUSH2 0x134 SWAP2 SWAP1 PUSH2 0x1282 JUMP JUMPDEST PUSH2 0x73C JUMP JUMPDEST STOP JUMPDEST PUSH2 0x155 PUSH1 0x4 DUP1 CALLDATASIZE SUB DUP2 ADD SWAP1 PUSH2 0x150 SWAP2 SWAP1 PUSH2 0x1255 JUMP JUMPDEST PUSH2 0xB12 JUMP JUMPDEST STOP JUMPDEST CALLVALUE DUP1 ISZERO PUSH2 0x163 JUMPI PUSH1 0x0 DUP1 REVERT JUMPDEST POP PUSH2 0x16C PUSH2 0xE7E JUMP JUMPDEST PUSH1 0x40 MLOAD PUSH2 0x179 SWAP2 SWAP1 PUSH2 0x1538 JUMP JUMPDEST PUSH1 0x40 MLOAD DUP1 SWAP2 SUB SWAP1 RETURN JUMPDEST PUSH1 0x60 PUSH1 0x0 PUSH2 0x190 PUSH1 0x1 PUSH2 0x1176 JUMP JUMPDEST SWAP1 POP PUSH1 0x0 PUSH2 0x19E PUSH1 0x2 PUSH2 0x1176 JUMP JUMPDEST PUSH2 0x1A8 PUSH1 0x1 PUSH2 0x1176 JUMP JUMPDEST PUSH2 0x1B2 SWAP2 SWAP1 PUSH2 0x16B5 JUMP JUMPDEST SWAP1 POP PUSH1 0x0 DUP1 DUP3 PUSH8 0xFFFFFFFFFFFFFFFF DUP2 GT ISZERO PUSH2 0x1D1 JUMPI PUSH2 0x1D0 PUSH2 0x17EA JUMP JUMPDEST JUMPDEST PUSH1 0x40 MLOAD SWAP1 DUP1 DUP3 MSTORE DUP1 PUSH1 0x20 MUL PUSH1 0x20 ADD DUP3 ADD PUSH1 0x40 MSTORE DUP1 ISZERO PUSH2 0x20A JUMPI DUP2 PUSH1 0x20 ADD JUMPDEST PUSH2 0x1F7 PUSH2 0x119A JUMP JUMPDEST DUP2 MSTORE PUSH1 0x20 ADD SWAP1 PUSH1 0x1 SWAP1 SUB SWAP1 DUP2 PUSH2 0x1EF JUMPI SWAP1 POP JUMPDEST POP SWAP1 POP PUSH1 0x0 JUMPDEST DUP5 DUP2 LT ISZERO PUSH2 0x3EB JUMPI PUSH1 0x0 PUSH20 0xFFFFFFFFFFFFFFFFFFFFFFFFFFFFFFFFFFFFFFFF AND PUSH1 0x6 PUSH1 0x0 PUSH1 0x1 DUP5 PUSH2 0x241 SWAP2 SWAP1 PUSH2 0x165F JUMP JUMPDEST DUP2 MSTORE PUSH1 0x20 ADD SWAP1 DUP2 MSTORE PUSH1 0x20 ADD PUSH1 0x0 KECCAK256 PUSH1 0x3 ADD PUSH1 0x0 SWAP1 SLOAD SWAP1 PUSH2 0x100 EXP SWAP1 DIV PUSH20 0xFFFFFFFFFFFFFFFFFFFFFFFFFFFFFFFFFFFFFFFF AND PUSH20 0xFFFFFFFFFFFFFFFFFFFFFFFFFFFFFFFFFFFFFFFF AND EQ ISZERO PUSH2 0x3D8 JUMPI PUSH1 0x0 PUSH1 0x1 DUP3 PUSH2 0x29E SWAP2 SWAP1 PUSH2 0x165F JUMP JUMPDEST SWAP1 POP PUSH1 0x0 PUSH1 0x6 PUSH1 0x0 DUP4 DUP2 MSTORE PUSH1 0x20 ADD SWAP1 DUP2 MSTORE PUSH1 0x20 ADD PUSH1 0x0 KECCAK256 SWAP1 POP DUP1 PUSH1 0x40 MLOAD DUP1 PUSH1 0xC0 ADD PUSH1 0x40 MSTORE SWAP1 DUP2 PUSH1 0x0 DUP3 ADD SLOAD DUP2 MSTORE PUSH1 0x20 ADD PUSH1 0x1 DUP3 ADD SLOAD DUP2 MSTORE PUSH1 0x20 ADD PUSH1 0x2 DUP3 ADD PUSH1 0x0 SWAP1 SLOAD SWAP1 PUSH2 0x100 EXP SWAP1 DIV PUSH20 0xFFFFFFFFFFFFFFFFFFFFFFFFFFFFFFFFFFFFFFFF AND PUSH20 0xFFFFFFFFFFFFFFFFFFFFFFFFFFFFFFFFFFFFFFFF AND PUSH20 0xFFFFFFFFFFFFFFFFFFFFFFFFFFFFFFFFFFFFFFFF AND DUP2 MSTORE PUSH1 0x20 ADD PUSH1 0x3 DUP3 ADD PUSH1 0x0 SWAP1 SLOAD SWAP1 PUSH2 0x100 EXP SWAP1 DIV PUSH20 0xFFFFFFFFFFFFFFFFFFFFFFFFFFFFFFFFFFFFFFFF AND PUSH20 0xFFFFFFFFFFFFFFFFFFFFFFFFFFFFFFFFFFFFFFFF AND PUSH20 0xFFFFFFFFFFFFFFFFFFFFFFFFFFFFFFFFFFFFFFFF AND DUP2 MSTORE PUSH1 0x20 ADD PUSH1 0x4 DUP3 ADD SLOAD DUP2 MSTORE PUSH1 0x20 ADD PUSH1 0x5 DUP3 ADD PUSH1 0x0 SWAP1 SLOAD SWAP1 PUSH2 0x100 EXP SWAP1 DIV PUSH1 0xFF AND ISZERO ISZERO ISZERO ISZERO DUP2 MSTORE POP POP DUP5 DUP7 DUP2 MLOAD DUP2 LT PUSH2 0x3BB JUMPI PUSH2 0x3BA PUSH2 0x17BB JUMP JUMPDEST JUMPDEST PUSH1 0x20 MUL PUSH1 0x20 ADD ADD DUP2 SWAP1 MSTORE POP PUSH1 0x1 DUP6 PUSH2 0x3D3 SWAP2 SWAP1 PUSH2 0x165F JUMP JUMPDEST SWAP5 POP POP POP JUMPDEST DUP1 DUP1 PUSH2 0x3E3 SWAP1 PUSH2 0x1743 JUMP JUMPDEST SWAP2 POP POP PUSH2 0x210 JUMP JUMPDEST POP DUP1 SWAP5 POP POP POP POP POP SWAP1 JUMP JUMPDEST PUSH1 0x0 PUSH1 0x4 SLOAD SWAP1 POP SWAP1 JUMP JUMPDEST PUSH1 0x60 PUSH1 0x0 PUSH2 0x40E PUSH1 0x1 PUSH2 0x1176 JUMP JUMPDEST SWAP1 POP PUSH1 0x0 DUP1 PUSH1 0x0 JUMPDEST DUP4 DUP2 LT ISZERO PUSH2 0x4B7 JUMPI CALLER PUSH20 0xFFFFFFFFFFFFFFFFFFFFFFFFFFFFFFFFFFFFFFFF AND PUSH1 0x6 PUSH1 0x0 PUSH1 0x1 DUP5 PUSH2 0x446 SWAP2 SWAP1 PUSH2 0x165F JUMP JUMPDEST DUP2 MSTORE PUSH1 0x20 ADD SWAP1 DUP2 MSTORE PUSH1 0x20 ADD PUSH1 0x0 KECCAK256 PUSH1 0x3 ADD PUSH1 0x0 SWAP1 SLOAD SWAP1 PUSH2 0x100 EXP SWAP1 DIV PUSH20 0xFFFFFFFFFFFFFFFFFFFFFFFFFFFFFFFFFFFFFFFF AND PUSH20 0xFFFFFFFFFFFFFFFFFFFFFFFFFFFFFFFFFFFFFFFF AND EQ ISZERO PUSH2 0x4A4 JUMPI PUSH1 0x1 DUP4 PUSH2 0x4A1 SWAP2 SWAP1 PUSH2 0x165F JUMP JUMPDEST SWAP3 POP JUMPDEST DUP1 DUP1 PUSH2 0x4AF SWAP1 PUSH2 0x1743 JUMP JUMPDEST SWAP2 POP POP PUSH2 0x416 JUMP JUMPDEST POP PUSH1 0x0 DUP3 PUSH8 0xFFFFFFFFFFFFFFFF DUP2 GT ISZERO PUSH2 0x4D4 JUMPI PUSH2 0x4D3 PUSH2 0x17EA JUMP JUMPDEST JUMPDEST PUSH1 0x40 MLOAD SWAP1 DUP1 DUP3 MSTORE DUP1 PUSH1 0x20 MUL PUSH1 0x20 ADD DUP3 ADD PUSH1 0x40 MSTORE DUP1 ISZERO PUSH2 0x50D JUMPI DUP2 PUSH1 0x20 ADD JUMPDEST PUSH2 0x4FA PUSH2 0x119A JUMP JUMPDEST DUP2 MSTORE PUSH1 0x20 ADD SWAP1 PUSH1 0x1 SWAP1 SUB SWAP1 DUP2 PUSH2 0x4F2 JUMPI SWAP1 POP JUMPDEST POP SWAP1 POP PUSH1 0x0 JUMPDEST DUP5 DUP2 LT ISZERO PUSH2 0x6ED JUMPI CALLER PUSH20 0xFFFFFFFFFFFFFFFFFFFFFFFFFFFFFFFFFFFFFFFF AND PUSH1 0x6 PUSH1 0x0 PUSH1 0x1 DUP5 PUSH2 0x543 SWAP2 SWAP1 PUSH2 0x165F JUMP JUMPDEST DUP2 MSTORE PUSH1 0x20 ADD SWAP1 DUP2 MSTORE PUSH1 0x20 ADD PUSH1 0x0 KECCAK256 PUSH1 0x3 ADD PUSH1 0x0 SWAP1 SLOAD SWAP1 PUSH2 0x100 EXP SWAP1 DIV PUSH20 0xFFFFFFFFFFFFFFFFFFFFFFFFFFFFFFFFFFFFFFFF AND PUSH20 0xFFFFFFFFFFFFFFFFFFFFFFFFFFFFFFFFFFFFFFFF AND EQ ISZERO PUSH2 0x6DA JUMPI PUSH1 0x0 PUSH1 0x1 DUP3 PUSH2 0x5A0 SWAP2 SWAP1 PUSH2 0x165F JUMP JUMPDEST SWAP1 POP PUSH1 0x0 PUSH1 0x6 PUSH1 0x0 DUP4 DUP2 MSTORE PUSH1 0x20 ADD SWAP1 DUP2 MSTORE PUSH1 0x20 ADD PUSH1 0x0 KECCAK256 SWAP1 POP DUP1 PUSH1 0x40 MLOAD DUP1 PUSH1 0xC0 ADD PUSH1 0x40 MSTORE SWAP1 DUP2 PUSH1 0x0 DUP3 ADD SLOAD DUP2 MSTORE PUSH1 0x20 ADD PUSH1 0x1 DUP3 ADD SLOAD DUP2 MSTORE PUSH1 0x20 ADD PUSH1 0x2 DUP3 ADD PUSH1 0x0 SWAP1 SLOAD SWAP1 PUSH2 0x100 EXP SWAP1 DIV PUSH20 0xFFFFFFFFFFFFFFFFFFFFFFFFFFFFFFFFFFFFFFFF AND PUSH20 0xFFFFFFFFFFFFFFFFFFFFFFFFFFFFFFFFFFFFFFFF AND PUSH20 0xFFFFFFFFFFFFFFFFFFFFFFFFFFFFFFFFFFFFFFFF AND DUP2 MSTORE PUSH1 0x20 ADD PUSH1 0x3 DUP3 ADD PUSH1 0x0 SWAP1 SLOAD SWAP1 PUSH2 0x100 EXP SWAP1 DIV PUSH20 0xFFFFFFFFFFFFFFFFFFFFFFFFFFFFFFFFFFFFFFFF AND PUSH20 0xFFFFFFFFFFFFFFFFFFFFFFFFFFFFFFFFFFFFFFFF AND PUSH20 0xFFFFFFFFFFFFFFFFFFFFFFFFFFFFFFFFFFFFFFFF AND DUP2 MSTORE PUSH1 0x20 ADD PUSH1 0x4 DUP3 ADD SLOAD DUP2 MSTORE PUSH1 0x20 ADD PUSH1 0x5 DUP3 ADD PUSH1 0x0 SWAP1 SLOAD SWAP1 PUSH2 0x100 EXP SWAP1 DIV PUSH1 0xFF AND ISZERO ISZERO ISZERO ISZERO DUP2 MSTORE POP POP DUP5 DUP7 DUP2 MLOAD DUP2 LT PUSH2 0x6BD JUMPI PUSH2 0x6BC PUSH2 0x17BB JUMP JUMPDEST JUMPDEST PUSH1 0x20 MUL PUSH1 0x20 ADD ADD DUP2 SWAP1 MSTORE POP PUSH1 0x1 DUP6 PUSH2 0x6D5 SWAP2 SWAP1 PUSH2 0x165F JUMP JUMPDEST SWAP5 POP POP POP JUMPDEST DUP1 DUP1 PUSH2 0x6E5 SWAP1 PUSH2 0x1743 JUMP JUMPDEST SWAP2 POP POP PUSH2 0x513 JUMP JUMPDEST POP DUP1 SWAP5 POP POP POP POP POP SWAP1 JUMP JUMPDEST DUP1 PUSH1 0x5 PUSH1 0x0 PUSH2 0x100 EXP DUP2 SLOAD DUP2 PUSH20 0xFFFFFFFFFFFFFFFFFFFFFFFFFFFFFFFFFFFFFFFF MUL NOT AND SWAP1 DUP4 PUSH20 0xFFFFFFFFFFFFFFFFFFFFFFFFFFFFFFFFFFFFFFFF AND MUL OR SWAP1 SSTORE POP POP JUMP JUMPDEST PUSH1 0x2 PUSH1 0x0 SLOAD EQ ISZERO PUSH2 0x782 JUMPI PUSH1 0x40 MLOAD PUSH32 0x8C379A000000000000000000000000000000000000000000000000000000000 DUP2 MSTORE PUSH1 0x4 ADD PUSH2 0x779 SWAP1 PUSH2 0x15BA JUMP JUMPDEST PUSH1 0x40 MLOAD DUP1 SWAP2 SUB SWAP1 REVERT JUMPDEST PUSH1 0x2 PUSH1 0x0 DUP2 SWAP1 SSTORE POP PUSH1 0x0 PUSH20 0xFFFFFFFFFFFFFFFFFFFFFFFFFFFFFFFFFFFFFFFF AND PUSH1 0x5 PUSH1 0x0 SWAP1 SLOAD SWAP1 PUSH2 0x100 EXP SWAP1 DIV PUSH20 0xFFFFFFFFFFFFFFFFFFFFFFFFFFFFFFFFFFFFFFFF AND PUSH20 0xFFFFFFFFFFFFFFFFFFFFFFFFFFFFFFFFFFFFFFFF AND EQ ISZERO PUSH2 0x81C JUMPI PUSH1 0x40 MLOAD PUSH32 0x8C379A000000000000000000000000000000000000000000000000000000000 DUP2 MSTORE PUSH1 0x4 ADD PUSH2 0x813 SWAP1 PUSH2 0x159A JUMP JUMPDEST PUSH1 0x40 MLOAD DUP1 SWAP2 SUB SWAP1 REVERT JUMPDEST PUSH1 0x0 DUP2 GT PUSH2 0x85F JUMPI PUSH1 0x40 MLOAD PUSH32 0x8C379A000000000000000000000000000000000000000000000000000000000 DUP2 MSTORE PUSH1 0x4 ADD PUSH2 0x856 SWAP1 PUSH2 0x15DA JUMP JUMPDEST PUSH1 0x40 MLOAD DUP1 SWAP2 SUB SWAP1 REVERT JUMPDEST PUSH1 0x4 SLOAD CALLVALUE EQ PUSH2 0x8A3 JUMPI PUSH1 0x40 MLOAD PUSH32 0x8C379A000000000000000000000000000000000000000000000000000000000 DUP2 MSTORE PUSH1 0x4 ADD PUSH2 0x89A SWAP1 PUSH2 0x157A JUMP JUMPDEST PUSH1 0x40 MLOAD DUP1 SWAP2 SUB SWAP1 REVERT JUMPDEST PUSH2 0x8AD PUSH1 0x1 PUSH2 0x1184 JUMP JUMPDEST PUSH1 0x0 PUSH2 0x8B9 PUSH1 0x1 PUSH2 0x1176 JUMP JUMPDEST SWAP1 POP PUSH1 0x40 MLOAD DUP1 PUSH1 0xC0 ADD PUSH1 0x40 MSTORE DUP1 DUP3 DUP2 MSTORE PUSH1 0x20 ADD DUP5 DUP2 MSTORE PUSH1 0x20 ADD CALLER PUSH20 0xFFFFFFFFFFFFFFFFFFFFFFFFFFFFFFFFFFFFFFFF AND DUP2 MSTORE PUSH1 0x20 ADD PUSH1 0x0 PUSH20 0xFFFFFFFFFFFFFFFFFFFFFFFFFFFFFFFFFFFFFFFF AND DUP2 MSTORE PUSH1 0x20 ADD DUP4 DUP2 MSTORE PUSH1 0x20 ADD PUSH1 0x0 ISZERO ISZERO DUP2 MSTORE POP PUSH1 0x6 PUSH1 0x0 DUP4 DUP2 MSTORE PUSH1 0x20 ADD SWAP1 DUP2 MSTORE PUSH1 0x20 ADD PUSH1 0x0 KECCAK256 PUSH1 0x0 DUP3 ADD MLOAD DUP2 PUSH1 0x0 ADD SSTORE PUSH1 0x20 DUP3 ADD MLOAD DUP2 PUSH1 0x1 ADD SSTORE PUSH1 0x40 DUP3 ADD MLOAD DUP2 PUSH1 0x2 ADD PUSH1 0x0 PUSH2 0x100 EXP DUP2 SLOAD DUP2 PUSH20 0xFFFFFFFFFFFFFFFFFFFFFFFFFFFFFFFFFFFFFFFF MUL NOT AND SWAP1 DUP4 PUSH20 0xFFFFFFFFFFFFFFFFFFFFFFFFFFFFFFFFFFFFFFFF AND MUL OR SWAP1 SSTORE POP PUSH1 0x60 DUP3 ADD MLOAD DUP2 PUSH1 0x3 ADD PUSH1 0x0 PUSH2 0x100 EXP DUP2 SLOAD DUP2 PUSH20 0xFFFFFFFFFFFFFFFFFFFFFFFFFFFFFFFFFFFFFFFF MUL NOT AND SWAP1 DUP4 PUSH20 0xFFFFFFFFFFFFFFFFFFFFFFFFFFFFFFFFFFFFFFFF AND MUL OR SWAP1 SSTORE POP PUSH1 0x80 DUP3 ADD MLOAD DUP2 PUSH1 0x4 ADD SSTORE PUSH1 0xA0 DUP3 ADD MLOAD DUP2 PUSH1 0x5 ADD PUSH1 0x0 PUSH2 0x100 EXP DUP2 SLOAD DUP2 PUSH1 0xFF MUL NOT AND SWAP1 DUP4 ISZERO ISZERO MUL OR SWAP1 SSTORE POP SWAP1 POP POP PUSH1 0x5 PUSH1 0x0 SWAP1 SLOAD SWAP1 PUSH2 0x100 EXP SWAP1 DIV PUSH20 0xFFFFFFFFFFFFFFFFFFFFFFFFFFFFFFFFFFFFFFFF AND PUSH20 0xFFFFFFFFFFFFFFFFFFFFFFFFFFFFFFFFFFFFFFFF AND PUSH4 0x23B872DD CALLER ADDRESS DUP7 PUSH1 0x40 MLOAD DUP5 PUSH4 0xFFFFFFFF AND PUSH1 0xE0 SHL DUP2 MSTORE PUSH1 0x4 ADD PUSH2 0xA59 SWAP4 SWAP3 SWAP2 SWAP1 PUSH2 0x14BC JUMP JUMPDEST PUSH1 0x0 PUSH1 0x40 MLOAD DUP1 DUP4 SUB DUP2 PUSH1 0x0 DUP8 DUP1 EXTCODESIZE ISZERO DUP1 ISZERO PUSH2 0xA73 JUMPI PUSH1 0x0 DUP1 REVERT JUMPDEST POP GAS CALL ISZERO DUP1 ISZERO PUSH2 0xA87 JUMPI RETURNDATASIZE PUSH1 0x0 DUP1 RETURNDATACOPY RETURNDATASIZE PUSH1 0x0 REVERT JUMPDEST POP POP POP POP DUP3 PUSH1 0x5 PUSH1 0x0 SWAP1 SLOAD SWAP1 PUSH2 0x100 EXP SWAP1 DIV PUSH20 0xFFFFFFFFFFFFFFFFFFFFFFFFFFFFFFFFFFFFFFFF AND PUSH20 0xFFFFFFFFFFFFFFFFFFFFFFFFFFFFFFFFFFFFFFFF AND DUP3 PUSH32 0x45DFA01DCBA2B36ABA1D3DC4A874F4B0C5D2FBEB8D2C4B34A7D88C8D8F929D1 CALLER PUSH1 0x0 DUP8 PUSH1 0x0 PUSH1 0x40 MLOAD PUSH2 0xAFD SWAP5 SWAP4 SWAP3 SWAP2 SWAP1 PUSH2 0x14F3 JUMP JUMPDEST PUSH1 0x40 MLOAD DUP1 SWAP2 SUB SWAP1 LOG4 POP PUSH1 0x1 PUSH1 0x0 DUP2 SWAP1 SSTORE POP POP POP JUMP JUMPDEST PUSH1 0x2 PUSH1 0x0 SLOAD EQ ISZERO PUSH2 0xB58 JUMPI PUSH1 0x40 MLOAD PUSH32 0x8C379A000000000000000000000000000000000000000000000000000000000 DUP2 MSTORE PUSH1 0x4 ADD PUSH2 0xB4F SWAP1 PUSH2 0x15BA JUMP JUMPDEST PUSH1 0x40 MLOAD DUP1 SWAP2 SUB SWAP1 REVERT JUMPDEST PUSH1 0x2 PUSH1 0x0 DUP2 SWAP1 SSTORE POP PUSH1 0x0 PUSH20 0xFFFFFFFFFFFFFFFFFFFFFFFFFFFFFFFFFFFFFFFF AND PUSH1 0x5 PUSH1 0x0 SWAP1 SLOAD SWAP1 PUSH2 0x100 EXP SWAP1 DIV PUSH20 0xFFFFFFFFFFFFFFFFFFFFFFFFFFFFFFFFFFFFFFFF AND PUSH20 0xFFFFFFFFFFFFFFFFFFFFFFFFFFFFFFFFFFFFFFFF AND EQ ISZERO PUSH2 0xBF2 JUMPI PUSH1 0x40 MLOAD PUSH32 0x8C379A000000000000000000000000000000000000000000000000000000000 DUP2 MSTORE PUSH1 0x4 ADD PUSH2 0xBE9 SWAP1 PUSH2 0x159A JUMP JUMPDEST PUSH1 0x40 MLOAD DUP1 SWAP2 SUB SWAP1 REVERT JUMPDEST PUSH1 0x0 PUSH1 0x6 PUSH1 0x0 DUP4 DUP2 MSTORE PUSH1 0x20 ADD SWAP1 DUP2 MSTORE PUSH1 0x20 ADD PUSH1 0x0 KECCAK256 PUSH1 0x4 ADD SLOAD SWAP1 POP PUSH1 0x0 PUSH1 0x6 PUSH1 0x0 DUP5 DUP2 MSTORE PUSH1 0x20 ADD SWAP1 DUP2 MSTORE PUSH1 0x20 ADD PUSH1 0x0 KECCAK256 PUSH1 0x1 ADD SLOAD SWAP1 POP DUP2 CALLVALUE EQ PUSH2 0xC6A JUMPI PUSH1 0x40 MLOAD PUSH32 0x8C379A000000000000000000000000000000000000000000000000000000000 DUP2 MSTORE PUSH1 0x4 ADD PUSH2 0xC61 SWAP1 PUSH2 0x155A JUMP JUMPDEST PUSH1 0x40 MLOAD DUP1 SWAP2 SUB SWAP1 REVERT JUMPDEST PUSH1 0x6 PUSH1 0x0 DUP5 DUP2 MSTORE PUSH1 0x20 ADD SWAP1 DUP2 MSTORE PUSH1 0x20 ADD PUSH1 0x0 KECCAK256 PUSH1 0x2 ADD PUSH1 0x0 SWAP1 SLOAD SWAP1 PUSH2 0x100 EXP SWAP1 DIV PUSH20 0xFFFFFFFFFFFFFFFFFFFFFFFFFFFFFFFFFFFFFFFF AND PUSH20 0xFFFFFFFFFFFFFFFFFFFFFFFFFFFFFFFFFFFFFFFF AND PUSH2 0x8FC CALLVALUE SWAP1 DUP2 ISZERO MUL SWAP1 PUSH1 0x40 MLOAD PUSH1 0x0 PUSH1 0x40 MLOAD DUP1 DUP4 SUB DUP2 DUP6 DUP9 DUP9 CALL SWAP4 POP POP POP POP ISZERO DUP1 ISZERO PUSH2 0xCE6 JUMPI RETURNDATASIZE PUSH1 0x0 DUP1 RETURNDATACOPY RETURNDATASIZE PUSH1 0x0 REVERT JUMPDEST POP PUSH1 0x5 PUSH1 0x0 SWAP1 SLOAD SWAP1 PUSH2 0x100 EXP SWAP1 DIV PUSH20 0xFFFFFFFFFFFFFFFFFFFFFFFFFFFFFFFFFFFFFFFF AND PUSH20 0xFFFFFFFFFFFFFFFFFFFFFFFFFFFFFFFFFFFFFFFF AND PUSH4 0x23B872DD ADDRESS CALLER DUP5 PUSH1 0x40 MLOAD DUP5 PUSH4 0xFFFFFFFF AND PUSH1 0xE0 SHL DUP2 MSTORE PUSH1 0x4 ADD PUSH2 0xD46 SWAP4 SWAP3 SWAP2 SWAP1 PUSH2 0x14BC JUMP JUMPDEST PUSH1 0x0 PUSH1 0x40 MLOAD DUP1 DUP4 SUB DUP2 PUSH1 0x0 DUP8 DUP1 EXTCODESIZE ISZERO DUP1 ISZERO PUSH2 0xD60 JUMPI PUSH1 0x0 DUP1 REVERT JUMPDEST POP GAS CALL ISZERO DUP1 ISZERO PUSH2 0xD74 JUMPI RETURNDATASIZE PUSH1 0x0 DUP1 RETURNDATACOPY RETURNDATASIZE PUSH1 0x0 REVERT JUMPDEST POP POP POP POP CALLER PUSH1 0x6 PUSH1 0x0 DUP6 DUP2 MSTORE PUSH1 0x20 ADD SWAP1 DUP2 MSTORE PUSH1 0x20 ADD PUSH1 0x0 KECCAK256 PUSH1 0x3 ADD PUSH1 0x0 PUSH2 0x100 EXP DUP2 SLOAD DUP2 PUSH20 0xFFFFFFFFFFFFFFFFFFFFFFFFFFFFFFFFFFFFFFFF MUL NOT AND SWAP1 DUP4 PUSH20 0xFFFFFFFFFFFFFFFFFFFFFFFFFFFFFFFFFFFFFFFF AND MUL OR SWAP1 SSTORE POP PUSH1 0x1 PUSH1 0x6 PUSH1 0x0 DUP6 DUP2 MSTORE PUSH1 0x20 ADD SWAP1 DUP2 MSTORE PUSH1 0x20 ADD PUSH1 0x0 KECCAK256 PUSH1 0x5 ADD PUSH1 0x0 PUSH2 0x100 EXP DUP2 SLOAD DUP2 PUSH1 0xFF MUL NOT AND SWAP1 DUP4 ISZERO ISZERO MUL OR SWAP1 SSTORE POP PUSH2 0xE06 PUSH1 0x2 PUSH2 0x1184 JUMP JUMPDEST PUSH1 0x3 PUSH1 0x0 SWAP1 SLOAD SWAP1 PUSH2 0x100 EXP SWAP1 DIV PUSH20 0xFFFFFFFFFFFFFFFFFFFFFFFFFFFFFFFFFFFFFFFF AND PUSH20 0xFFFFFFFFFFFFFFFFFFFFFFFFFFFFFFFFFFFFFFFF AND PUSH2 0x8FC PUSH1 0x4 SLOAD SWAP1 DUP2 ISZERO MUL SWAP1 PUSH1 0x40 MLOAD PUSH1 0x0 PUSH1 0x40 MLOAD DUP1 DUP4 SUB DUP2 DUP6 DUP9 DUP9 CALL SWAP4 POP POP POP POP ISZERO DUP1 ISZERO PUSH2 0xE70 JUMPI RETURNDATASIZE PUSH1 0x0 DUP1 RETURNDATACOPY RETURNDATASIZE PUSH1 0x0 REVERT JUMPDEST POP POP POP PUSH1 0x1 PUSH1 0x0 DUP2 SWAP1 SSTORE POP POP JUMP JUMPDEST PUSH1 0x60 PUSH1 0x0 PUSH2 0xE8C PUSH1 0x1 PUSH2 0x1176 JUMP JUMPDEST SWAP1 POP PUSH1 0x0 DUP1 PUSH1 0x0 JUMPDEST DUP4 DUP2 LT ISZERO PUSH2 0xF35 JUMPI CALLER PUSH20 0xFFFFFFFFFFFFFFFFFFFFFFFFFFFFFFFFFFFFFFFF AND PUSH1 0x6 PUSH1 0x0 PUSH1 0x1 DUP5 PUSH2 0xEC4 SWAP2 SWAP1 PUSH2 0x165F JUMP JUMPDEST DUP2 MSTORE PUSH1 0x20 ADD SWAP1 DUP2 MSTORE PUSH1 0x20 ADD PUSH1 0x0 KECCAK256 PUSH1 0x2 ADD PUSH1 0x0 SWAP1 SLOAD SWAP1 PUSH2 0x100 EXP SWAP1 DIV PUSH20 0xFFFFFFFFFFFFFFFFFFFFFFFFFFFFFFFFFFFFFFFF AND PUSH20 0xFFFFFFFFFFFFFFFFFFFFFFFFFFFFFFFFFFFFFFFF AND EQ ISZERO PUSH2 0xF22 JUMPI PUSH1 0x1 DUP4 PUSH2 0xF1F SWAP2 SWAP1 PUSH2 0x165F JUMP JUMPDEST SWAP3 POP JUMPDEST DUP1 DUP1 PUSH2 0xF2D SWAP1 PUSH2 0x1743 JUMP JUMPDEST SWAP2 POP POP PUSH2 0xE94 JUMP JUMPDEST POP PUSH1 0x0 DUP3 PUSH8 0xFFFFFFFFFFFFFFFF DUP2 GT ISZERO PUSH2 0xF52 JUMPI PUSH2 0xF51 PUSH2 0x17EA JUMP JUMPDEST JUMPDEST PUSH1 0x40 MLOAD SWAP1 DUP1 DUP3 MSTORE DUP1 PUSH1 0x20 MUL PUSH1 0x20 ADD DUP3 ADD PUSH1 0x40 MSTORE DUP1 ISZERO PUSH2 0xF8B JUMPI DUP2 PUSH1 0x20 ADD JUMPDEST PUSH2 0xF78 PUSH2 0x119A JUMP JUMPDEST DUP2 MSTORE PUSH1 0x20 ADD SWAP1 PUSH1 0x1 SWAP1 SUB SWAP1 DUP2 PUSH2 0xF70 JUMPI SWAP1 POP JUMPDEST POP SWAP1 POP PUSH1 0x0 JUMPDEST DUP5 DUP2 LT ISZERO PUSH2 0x116B JUMPI CALLER PUSH20 0xFFFFFFFFFFFFFFFFFFFFFFFFFFFFFFFFFFFFFFFF AND PUSH1 0x6 PUSH1 0x0 PUSH1 0x1 DUP5 PUSH2 0xFC1 SWAP2 SWAP1 PUSH2 0x165F JUMP JUMPDEST DUP2 MSTORE PUSH1 0x20 ADD SWAP1 DUP2 MSTORE PUSH1 0x20 ADD PUSH1 0x0 KECCAK256 PUSH1 0x2 ADD PUSH1 0x0 SWAP1 SLOAD SWAP1 PUSH2 0x100 EXP SWAP1 DIV PUSH20 0xFFFFFFFFFFFFFFFFFFFFFFFFFFFFFFFFFFFFFFFF AND PUSH20 0xFFFFFFFFFFFFFFFFFFFFFFFFFFFFFFFFFFFFFFFF AND EQ ISZERO PUSH2 0x1158 JUMPI PUSH1 0x0 PUSH1 0x1 DUP3 PUSH2 0x101E SWAP2 SWAP1 PUSH2 0x165F JUMP JUMPDEST SWAP1 POP PUSH1 0x0 PUSH1 0x6 PUSH1 0x0 DUP4 DUP2 MSTORE PUSH1 0x20 ADD SWAP1 DUP2 MSTORE PUSH1 0x20 ADD PUSH1 0x0 KECCAK256 SWAP1 POP DUP1 PUSH1 0x40 MLOAD DUP1 PUSH1 0xC0 ADD PUSH1 0x40 MSTORE SWAP1 DUP2 PUSH1 0x0 DUP3 ADD SLOAD DUP2 MSTORE PUSH1 0x20 ADD PUSH1 0x1 DUP3 ADD SLOAD DUP2 MSTORE PUSH1 0x20 ADD PUSH1 0x2 DUP3 ADD PUSH1 0x0 SWAP1 SLOAD SWAP1 PUSH2 0x100 EXP SWAP1 DIV PUSH20 0xFFFFFFFFFFFFFFFFFFFFFFFFFFFFFFFFFFFFFFFF AND PUSH20 0xFFFFFFFFFFFFFFFFFFFFFFFFFFFFFFFFFFFFFFFF AND PUSH20 0xFFFFFFFFFFFFFFFFFFFFFFFFFFFFFFFFFFFFFFFF AND DUP2 MSTORE PUSH1 0x20 ADD PUSH1 0x3 DUP3 ADD PUSH1 0x0 SWAP1 SLOAD SWAP1 PUSH2 0x100 EXP SWAP1 DIV PUSH20 0xFFFFFFFFFFFFFFFFFFFFFFFFFFFFFFFFFFFFFFFF AND PUSH20 0xFFFFFFFFFFFFFFFFFFFFFFFFFFFFFFFFFFFFFFFF AND PUSH20 0xFFFFFFFFFFFFFFFFFFFFFFFFFFFFFFFFFFFFFFFF AND DUP2 MSTORE PUSH1 0x20 ADD PUSH1 0x4 DUP3 ADD SLOAD DUP2 MSTORE PUSH1 0x20 ADD PUSH1 0x5 DUP3 ADD PUSH1 0x0 SWAP1 SLOAD SWAP1 PUSH2 0x100 EXP SWAP1 DIV PUSH1 0xFF AND ISZERO ISZERO ISZERO ISZERO DUP2 MSTORE POP POP DUP5 DUP7 DUP2 MLOAD DUP2 LT PUSH2 0x113B JUMPI PUSH2 0x113A PUSH2 0x17BB JUMP JUMPDEST JUMPDEST PUSH1 0x20 MUL PUSH1 0x20 ADD ADD DUP2 SWAP1 MSTORE POP PUSH1 0x1 DUP6 PUSH2 0x1153 SWAP2 SWAP1 PUSH2 0x165F JUMP JUMPDEST SWAP5 POP POP POP JUMPDEST DUP1 DUP1 PUSH2 0x1163 SWAP1 PUSH2 0x1743 JUMP JUMPDEST SWAP2 POP POP PUSH2 0xF91 JUMP JUMPDEST POP DUP1 SWAP5 POP POP POP POP POP SWAP1 JUMP JUMPDEST PUSH1 0x0 DUP2 PUSH1 0x0 ADD SLOAD SWAP1 POP SWAP2 SWAP1 POP JUMP JUMPDEST PUSH1 0x1 DUP2 PUSH1 0x0 ADD PUSH1 0x0 DUP3 DUP3 SLOAD ADD SWAP3 POP POP DUP2 SWAP1 SSTORE POP POP JUMP JUMPDEST PUSH1 0x40 MLOAD DUP1 PUSH1 0xC0 ADD PUSH1 0x40 MSTORE DUP1 PUSH1 0x0 DUP2 MSTORE PUSH1 0x20 ADD PUSH1 0x0 DUP2 MSTORE PUSH1 0x20 ADD PUSH1 0x0 PUSH20 0xFFFFFFFFFFFFFFFFFFFFFFFFFFFFFFFFFFFFFFFF AND DUP2 MSTORE PUSH1 0x20 ADD PUSH1 0x0 PUSH20 0xFFFFFFFFFFFFFFFFFFFFFFFFFFFFFFFFFFFFFFFF AND DUP2 MSTORE PUSH1 0x20 ADD PUSH1 0x0 DUP2 MSTORE PUSH1 0x20 ADD PUSH1 0x0 ISZERO ISZERO DUP2 MSTORE POP SWAP1 JUMP JUMPDEST PUSH1 0x0 DUP2 CALLDATALOAD SWAP1 POP PUSH2 0x120D DUP2 PUSH2 0x1937 JUMP JUMPDEST SWAP3 SWAP2 POP POP JUMP JUMPDEST PUSH1 0x0 DUP2 CALLDATALOAD SWAP1 POP PUSH2 0x1222 DUP2 PUSH2 0x194E JUMP JUMPDEST SWAP3 SWAP2 POP POP JUMP JUMPDEST PUSH1 0x0 PUSH1 0x20 DUP3 DUP5 SUB SLT ISZERO PUSH2 0x123E JUMPI PUSH2 0x123D PUSH2 0x1819 JUMP JUMPDEST JUMPDEST PUSH1 0x0 PUSH2 0x124C DUP5 DUP3 DUP6 ADD PUSH2 0x11FE JUMP JUMPDEST SWAP2 POP POP SWAP3 SWAP2 POP POP JUMP JUMPDEST PUSH1 0x0 PUSH1 0x20 DUP3 DUP5 SUB SLT ISZERO PUSH2 0x126B JUMPI PUSH2 0x126A PUSH2 0x1819 JUMP JUMPDEST JUMPDEST PUSH1 0x0 PUSH2 0x1279 DUP5 DUP3 DUP6 ADD PUSH2 0x1213 JUMP JUMPDEST SWAP2 POP POP SWAP3 SWAP2 POP POP JUMP JUMPDEST PUSH1 0x0 DUP1 PUSH1 0x40 DUP4 DUP6 SUB SLT ISZERO PUSH2 0x1299 JUMPI PUSH2 0x1298 PUSH2 0x1819 JUMP JUMPDEST JUMPDEST PUSH1 0x0 PUSH2 0x12A7 DUP6 DUP3 DUP7 ADD PUSH2 0x1213 JUMP JUMPDEST SWAP3 POP POP PUSH1 0x20 PUSH2 0x12B8 DUP6 DUP3 DUP7 ADD PUSH2 0x1213 JUMP JUMPDEST SWAP2 POP POP SWAP3 POP SWAP3 SWAP1 POP JUMP JUMPDEST PUSH1 0x0 PUSH2 0x12CE DUP4 DUP4 PUSH2 0x1423 JUMP JUMPDEST PUSH1 0xC0 DUP4 ADD SWAP1 POP SWAP3 SWAP2 POP POP JUMP JUMPDEST PUSH2 0x12E3 DUP2 PUSH2 0x16FB JUMP JUMPDEST DUP3 MSTORE POP POP JUMP JUMPDEST PUSH2 0x12F2 DUP2 PUSH2 0x16E9 JUMP JUMPDEST DUP3 MSTORE POP POP JUMP JUMPDEST PUSH1 0x0 PUSH2 0x1303 DUP3 PUSH2 0x1625 JUMP JUMPDEST PUSH2 0x130D DUP2 DUP6 PUSH2 0x163D JUMP JUMPDEST SWAP4 POP PUSH2 0x1318 DUP4 PUSH2 0x1615 JUMP JUMPDEST DUP1 PUSH1 0x0 JUMPDEST DUP4 DUP2 LT ISZERO PUSH2 0x1349 JUMPI DUP2 MLOAD PUSH2 0x1330 DUP9 DUP3 PUSH2 0x12C2 JUMP JUMPDEST SWAP8 POP PUSH2 0x133B DUP4 PUSH2 0x1630 JUMP JUMPDEST SWAP3 POP POP PUSH1 0x1 DUP2 ADD SWAP1 POP PUSH2 0x131C JUMP JUMPDEST POP DUP6 SWAP4 POP POP POP POP SWAP3 SWAP2 POP POP JUMP JUMPDEST PUSH2 0x135F DUP2 PUSH2 0x170D JUMP JUMPDEST DUP3 MSTORE POP POP JUMP JUMPDEST PUSH2 0x136E DUP2 PUSH2 0x170D JUMP JUMPDEST DUP3 MSTORE POP POP JUMP JUMPDEST PUSH1 0x0 PUSH2 0x1381 PUSH1 0x40 DUP4 PUSH2 0x164E JUMP JUMPDEST SWAP2 POP PUSH2 0x138C DUP3 PUSH2 0x181E JUMP JUMPDEST PUSH1 0x40 DUP3 ADD SWAP1 POP SWAP2 SWAP1 POP JUMP JUMPDEST PUSH1 0x0 PUSH2 0x13A4 PUSH1 0x24 DUP4 PUSH2 0x164E JUMP JUMPDEST SWAP2 POP PUSH2 0x13AF DUP3 PUSH2 0x186D JUMP JUMPDEST PUSH1 0x40 DUP3 ADD SWAP1 POP SWAP2 SWAP1 POP JUMP JUMPDEST PUSH1 0x0 PUSH2 0x13C7 PUSH1 0x1F DUP4 PUSH2 0x164E JUMP JUMPDEST SWAP2 POP PUSH2 0x13D2 DUP3 PUSH2 0x18BC JUMP JUMPDEST PUSH1 0x20 DUP3 ADD SWAP1 POP SWAP2 SWAP1 POP JUMP JUMPDEST PUSH1 0x0 PUSH2 0x13EA PUSH1 0x1F DUP4 PUSH2 0x164E JUMP JUMPDEST SWAP2 POP PUSH2 0x13F5 DUP3 PUSH2 0x18E5 JUMP JUMPDEST PUSH1 0x20 DUP3 ADD SWAP1 POP SWAP2 SWAP1 POP JUMP JUMPDEST PUSH1 0x0 PUSH2 0x140D PUSH1 0x1C DUP4 PUSH2 0x164E JUMP JUMPDEST SWAP2 POP PUSH2 0x1418 DUP3 PUSH2 0x190E JUMP JUMPDEST PUSH1 0x20 DUP3 ADD SWAP1 POP SWAP2 SWAP1 POP JUMP JUMPDEST PUSH1 0xC0 DUP3 ADD PUSH1 0x0 DUP3 ADD MLOAD PUSH2 0x1439 PUSH1 0x0 DUP6 ADD DUP3 PUSH2 0x149E JUMP JUMPDEST POP PUSH1 0x20 DUP3 ADD MLOAD PUSH2 0x144C PUSH1 0x20 DUP6 ADD DUP3 PUSH2 0x149E JUMP JUMPDEST POP PUSH1 0x40 DUP3 ADD MLOAD PUSH2 0x145F PUSH1 0x40 DUP6 ADD DUP3 PUSH2 0x12DA JUMP JUMPDEST POP PUSH1 0x60 DUP3 ADD MLOAD PUSH2 0x1472 PUSH1 0x60 DUP6 ADD DUP3 PUSH2 0x12DA JUMP JUMPDEST POP PUSH1 0x80 DUP3 ADD MLOAD PUSH2 0x1485 PUSH1 0x80 DUP6 ADD DUP3 PUSH2 0x149E JUMP JUMPDEST POP PUSH1 0xA0 DUP3 ADD MLOAD PUSH2 0x1498 PUSH1 0xA0 DUP6 ADD DUP3 PUSH2 0x1356 JUMP JUMPDEST POP POP POP POP JUMP JUMPDEST PUSH2 0x14A7 DUP2 PUSH2 0x1739 JUMP JUMPDEST DUP3 MSTORE POP POP JUMP JUMPDEST PUSH2 0x14B6 DUP2 PUSH2 0x1739 JUMP JUMPDEST DUP3 MSTORE POP POP JUMP JUMPDEST PUSH1 0x0 PUSH1 0x60 DUP3 ADD SWAP1 POP PUSH2 0x14D1 PUSH1 0x0 DUP4 ADD DUP7 PUSH2 0x12E9 JUMP JUMPDEST PUSH2 0x14DE PUSH1 0x20 DUP4 ADD DUP6 PUSH2 0x12E9 JUMP JUMPDEST PUSH2 0x14EB PUSH1 0x40 DUP4 ADD DUP5 PUSH2 0x14AD JUMP JUMPDEST SWAP5 SWAP4 POP POP POP POP JUMP JUMPDEST PUSH1 0x0 PUSH1 0x80 DUP3 ADD SWAP1 POP PUSH2 0x1508 PUSH1 0x0 DUP4 ADD DUP8 PUSH2 0x12E9 JUMP JUMPDEST PUSH2 0x1515 PUSH1 0x20 DUP4 ADD DUP7 PUSH2 0x12E9 JUMP JUMPDEST PUSH2 0x1522 PUSH1 0x40 DUP4 ADD DUP6 PUSH2 0x14AD JUMP JUMPDEST PUSH2 0x152F PUSH1 0x60 DUP4 ADD DUP5 PUSH2 0x1365 JUMP JUMPDEST SWAP6 SWAP5 POP POP POP POP POP JUMP JUMPDEST PUSH1 0x0 PUSH1 0x20 DUP3 ADD SWAP1 POP DUP2 DUP2 SUB PUSH1 0x0 DUP4 ADD MSTORE PUSH2 0x1552 DUP2 DUP5 PUSH2 0x12F8 JUMP JUMPDEST SWAP1 POP SWAP3 SWAP2 POP POP JUMP JUMPDEST PUSH1 0x0 PUSH1 0x20 DUP3 ADD SWAP1 POP DUP2 DUP2 SUB PUSH1 0x0 DUP4 ADD MSTORE PUSH2 0x1573 DUP2 PUSH2 0x1374 JUMP JUMPDEST SWAP1 POP SWAP2 SWAP1 POP JUMP JUMPDEST PUSH1 0x0 PUSH1 0x20 DUP3 ADD SWAP1 POP DUP2 DUP2 SUB PUSH1 0x0 DUP4 ADD MSTORE PUSH2 0x1593 DUP2 PUSH2 0x1397 JUMP JUMPDEST SWAP1 POP SWAP2 SWAP1 POP JUMP JUMPDEST PUSH1 0x0 PUSH1 0x20 DUP3 ADD SWAP1 POP DUP2 DUP2 SUB PUSH1 0x0 DUP4 ADD MSTORE PUSH2 0x15B3 DUP2 PUSH2 0x13BA JUMP JUMPDEST SWAP1 POP SWAP2 SWAP1 POP JUMP JUMPDEST PUSH1 0x0 PUSH1 0x20 DUP3 ADD SWAP1 POP DUP2 DUP2 SUB PUSH1 0x0 DUP4 ADD MSTORE PUSH2 0x15D3 DUP2 PUSH2 0x13DD JUMP JUMPDEST SWAP1 POP SWAP2 SWAP1 POP JUMP JUMPDEST PUSH1 0x0 PUSH1 0x20 DUP3 ADD SWAP1 POP DUP2 DUP2 SUB PUSH1 0x0 DUP4 ADD MSTORE PUSH2 0x15F3 DUP2 PUSH2 0x1400 JUMP JUMPDEST SWAP1 POP SWAP2 SWAP1 POP JUMP JUMPDEST PUSH1 0x0 PUSH1 0x20 DUP3 ADD SWAP1 POP PUSH2 0x160F PUSH1 0x0 DUP4 ADD DUP5 PUSH2 0x14AD JUMP JUMPDEST SWAP3 SWAP2 POP POP JUMP JUMPDEST PUSH1 0x0 DUP2 SWAP1 POP PUSH1 0x20 DUP3 ADD SWAP1 POP SWAP2 SWAP1 POP JUMP JUMPDEST PUSH1 0x0 DUP2 MLOAD SWAP1 POP SWAP2 SWAP1 POP JUMP JUMPDEST PUSH1 0x0 PUSH1 0x20 DUP3 ADD SWAP1 POP SWAP2 SWAP1 POP JUMP JUMPDEST PUSH1 0x0 DUP3 DUP3 MSTORE PUSH1 0x20 DUP3 ADD SWAP1 POP SWAP3 SWAP2 POP POP JUMP JUMPDEST PUSH1 0x0 DUP3 DUP3 MSTORE PUSH1 0x20 DUP3 ADD SWAP1 POP SWAP3 SWAP2 POP POP JUMP JUMPDEST PUSH1 0x0 PUSH2 0x166A DUP3 PUSH2 0x1739 JUMP JUMPDEST SWAP2 POP PUSH2 0x1675 DUP4 PUSH2 0x1739 JUMP JUMPDEST SWAP3 POP DUP3 PUSH32 0xFFFFFFFFFFFFFFFFFFFFFFFFFFFFFFFFFFFFFFFFFFFFFFFFFFFFFFFFFFFFFFFF SUB DUP3 GT ISZERO PUSH2 0x16AA JUMPI PUSH2 0x16A9 PUSH2 0x178C JUMP JUMPDEST JUMPDEST DUP3 DUP3 ADD SWAP1 POP SWAP3 SWAP2 POP POP JUMP JUMPDEST PUSH1 0x0 PUSH2 0x16C0 DUP3 PUSH2 0x1739 JUMP JUMPDEST SWAP2 POP PUSH2 0x16CB DUP4 PUSH2 0x1739 JUMP JUMPDEST SWAP3 POP DUP3 DUP3 LT ISZERO PUSH2 0x16DE JUMPI PUSH2 0x16DD PUSH2 0x178C JUMP JUMPDEST JUMPDEST DUP3 DUP3 SUB SWAP1 POP SWAP3 SWAP2 POP POP JUMP JUMPDEST PUSH1 0x0 PUSH2 0x16F4 DUP3 PUSH2 0x1719 JUMP JUMPDEST SWAP1 POP SWAP2 SWAP1 POP JUMP JUMPDEST PUSH1 0x0 PUSH2 0x1706 DUP3 PUSH2 0x1719 JUMP JUMPDEST SWAP1 POP SWAP2 SWAP1 POP JUMP JUMPDEST PUSH1 0x0 DUP2 ISZERO ISZERO SWAP1 POP SWAP2 SWAP1 POP JUMP JUMPDEST PUSH1 0x0 PUSH20 0xFFFFFFFFFFFFFFFFFFFFFFFFFFFFFFFFFFFFFFFF DUP3 AND SWAP1 POP SWAP2 SWAP1 POP JUMP JUMPDEST PUSH1 0x0 DUP2 SWAP1 POP SWAP2 SWAP1 POP JUMP JUMPDEST PUSH1 0x0 PUSH2 0x174E DUP3 PUSH2 0x1739 JUMP JUMPDEST SWAP2 POP PUSH32 0xFFFFFFFFFFFFFFFFFFFFFFFFFFFFFFFFFFFFFFFFFFFFFFFFFFFFFFFFFFFFFFFF DUP3 EQ ISZERO PUSH2 0x1781 JUMPI PUSH2 0x1780 PUSH2 0x178C JUMP JUMPDEST JUMPDEST PUSH1 0x1 DUP3 ADD SWAP1 POP SWAP2 SWAP1 POP JUMP JUMPDEST PUSH32 0x4E487B7100000000000000000000000000000000000000000000000000000000 PUSH1 0x0 MSTORE PUSH1 0x11 PUSH1 0x4 MSTORE PUSH1 0x24 PUSH1 0x0 REVERT JUMPDEST PUSH32 0x4E487B7100000000000000000000000000000000000000000000000000000000 PUSH1 0x0 MSTORE PUSH1 0x32 PUSH1 0x4 MSTORE PUSH1 0x24 PUSH1 0x0 REVERT JUMPDEST PUSH32 0x4E487B7100000000000000000000000000000000000000000000000000000000 PUSH1 0x0 MSTORE PUSH1 0x41 PUSH1 0x4 MSTORE PUSH1 0x24 PUSH1 0x0 REVERT JUMPDEST PUSH1 0x0 DUP1 REVERT JUMPDEST PUSH32 0x506C65617365207375626D6974207468652061736B696E672070726963652069 PUSH1 0x0 DUP3 ADD MSTORE PUSH32 0x6E206F7264657220746F20636F6D706C65746520746865207075726368617365 PUSH1 0x20 DUP3 ADD MSTORE POP JUMP JUMPDEST PUSH32 0x5072696365206D75737420626520657175616C20746F206C697374696E672070 PUSH1 0x0 DUP3 ADD MSTORE PUSH32 0x7269636500000000000000000000000000000000000000000000000000000000 PUSH1 0x20 DUP3 ADD MSTORE POP JUMP JUMPDEST PUSH32 0x506C6561736520736574204E465420636F6E7472616374204164647265737300 PUSH1 0x0 DUP3 ADD MSTORE POP JUMP JUMPDEST PUSH32 0x5265656E7472616E637947756172643A207265656E7472616E742063616C6C00 PUSH1 0x0 DUP3 ADD MSTORE POP JUMP JUMPDEST PUSH32 0x5072696365206D757374206265206174206C6561737420312077656900000000 PUSH1 0x0 DUP3 ADD MSTORE POP JUMP JUMPDEST PUSH2 0x1940 DUP2 PUSH2 0x16E9 JUMP JUMPDEST DUP2 EQ PUSH2 0x194B JUMPI PUSH1 0x0 DUP1 REVERT JUMPDEST POP JUMP JUMPDEST PUSH2 0x1957 DUP2 PUSH2 0x1739 JUMP JUMPDEST DUP2 EQ PUSH2 0x1962 JUMPI PUSH1 0x0 DUP1 REVERT JUMPDEST POP JUMP INVALID LOG2 PUSH5 0x6970667358 0x22 SLT KECCAK256 SWAP12 0xBE 0xF7 GAS EXTCODESIZE 0xCB EQ EXTCODEHASH 0xE6 MULMOD 0x25 0xE1 0xE6 NOT CALLER 0x5F SLT 0xE0 SMOD 0xC1 LOG1 MUL JUMPDEST 0xCB 0x4B RETURNDATACOPY PUSH13 0x55B792F2CD64736F6C63430008 MOD STOP CALLER "
		},
		"gasEstimates": {
			"creation": {
				"codeDepositCost": "1311000",
				"executionCost": "52749",
				"totalCost": "1363749"
			},
			"external": {
				"createMarketItem(uint256,uint256)": "infinite",
				"createMarketSale(uint256)": "infinite",
				"fetchItemsCreated()": "infinite",
				"fetchMarketItems()": "infinite",
				"fetchMyNFTs()": "infinite",
				"getListingPrice()": "2460",
				"setNFTContractAddress(address)": "24722"
			}
		},
		"methodIdentifiers": {
			"createMarketItem(uint256,uint256)": "361c1995",
			"createMarketSale(uint256)": "be9af536",
			"fetchItemsCreated()": "f064c32e",
			"fetchMarketItems()": "0f08efe0",
			"fetchMyNFTs()": "202e3740",
			"getListingPrice()": "12e85585",
			"setNFTContractAddress(address)": "23949cd1"
		}
	},
	"abi": [
		{
			"inputs": [],
			"stateMutability": "nonpayable",
			"type": "constructor"
		},
		{
			"anonymous": false,
			"inputs": [
				{
					"indexed": true,
					"internalType": "uint256",
					"name": "itemId",
					"type": "uint256"
				},
				{
					"indexed": true,
					"internalType": "address",
					"name": "nftContract",
					"type": "address"
				},
				{
					"indexed": true,
					"internalType": "uint256",
					"name": "tokenId",
					"type": "uint256"
				},
				{
					"indexed": false,
					"internalType": "address",
					"name": "seller",
					"type": "address"
				},
				{
					"indexed": false,
					"internalType": "address",
					"name": "owner",
					"type": "address"
				},
				{
					"indexed": false,
					"internalType": "uint256",
					"name": "price",
					"type": "uint256"
				},
				{
					"indexed": false,
					"internalType": "bool",
					"name": "sold",
					"type": "bool"
				}
			],
			"name": "MarketItemCreated",
			"type": "event"
		},
		{
			"inputs": [
				{
					"internalType": "uint256",
					"name": "tokenId",
					"type": "uint256"
				},
				{
					"internalType": "uint256",
					"name": "price",
					"type": "uint256"
				}
			],
			"name": "createMarketItem",
			"outputs": [],
			"stateMutability": "payable",
			"type": "function"
		},
		{
			"inputs": [
				{
					"internalType": "uint256",
					"name": "itemId",
					"type": "uint256"
				}
			],
			"name": "createMarketSale",
			"outputs": [],
			"stateMutability": "payable",
			"type": "function"
		},
		{
			"inputs": [],
			"name": "fetchItemsCreated",
			"outputs": [
				{
					"components": [
						{
							"internalType": "uint256",
							"name": "itemId",
							"type": "uint256"
						},
						{
							"internalType": "uint256",
							"name": "tokenId",
							"type": "uint256"
						},
						{
							"internalType": "address payable",
							"name": "seller",
							"type": "address"
						},
						{
							"internalType": "address payable",
							"name": "owner",
							"type": "address"
						},
						{
							"internalType": "uint256",
							"name": "price",
							"type": "uint256"
						},
						{
							"internalType": "bool",
							"name": "sold",
							"type": "bool"
						}
					],
					"internalType": "struct NFTMarket.MarketItem[]",
					"name": "",
					"type": "tuple[]"
				}
			],
			"stateMutability": "view",
			"type": "function"
		},
		{
			"inputs": [],
			"name": "fetchMarketItems",
			"outputs": [
				{
					"components": [
						{
							"internalType": "uint256",
							"name": "itemId",
							"type": "uint256"
						},
						{
							"internalType": "uint256",
							"name": "tokenId",
							"type": "uint256"
						},
						{
							"internalType": "address payable",
							"name": "seller",
							"type": "address"
						},
						{
							"internalType": "address payable",
							"name": "owner",
							"type": "address"
						},
						{
							"internalType": "uint256",
							"name": "price",
							"type": "uint256"
						},
						{
							"internalType": "bool",
							"name": "sold",
							"type": "bool"
						}
					],
					"internalType": "struct NFTMarket.MarketItem[]",
					"name": "",
					"type": "tuple[]"
				}
			],
			"stateMutability": "view",
			"type": "function"
		},
		{
			"inputs": [],
			"name": "fetchMyNFTs",
			"outputs": [
				{
					"components": [
						{
							"internalType": "uint256",
							"name": "itemId",
							"type": "uint256"
						},
						{
							"internalType": "uint256",
							"name": "tokenId",
							"type": "uint256"
						},
						{
							"internalType": "address payable",
							"name": "seller",
							"type": "address"
						},
						{
							"internalType": "address payable",
							"name": "owner",
							"type": "address"
						},
						{
							"internalType": "uint256",
							"name": "price",
							"type": "uint256"
						},
						{
							"internalType": "bool",
							"name": "sold",
							"type": "bool"
						}
					],
					"internalType": "struct NFTMarket.MarketItem[]",
					"name": "",
					"type": "tuple[]"
				}
			],
			"stateMutability": "view",
			"type": "function"
		},
		{
			"inputs": [],
			"name": "getListingPrice",
			"outputs": [
				{
					"internalType": "uint256",
					"name": "",
					"type": "uint256"
				}
			],
			"stateMutability": "view",
			"type": "function"
		},
		{
			"inputs": [
				{
					"internalType": "address",
					"name": "_nftContractAddress",
					"type": "address"
				}
			],
			"name": "setNFTContractAddress",
			"outputs": [],
			"stateMutability": "nonpayable",
			"type": "function"
		}
	]
}